{
	"Rescuable.sol": {
		"Rescuable": {
			"abi": [
				{
					"anonymous": false,
					"inputs": [
						{
							"indexed": true,
							"internalType": "address",
							"name": "previousOwner",
							"type": "address"
						},
						{
							"indexed": true,
							"internalType": "address",
							"name": "newOwner",
							"type": "address"
						}
					],
					"name": "OwnershipTransferred",
					"type": "event"
				},
				{
					"anonymous": false,
					"inputs": [
						{
							"indexed": true,
							"internalType": "address",
							"name": "newRescuer",
							"type": "address"
						}
					],
					"name": "RescuerChanged",
					"type": "event"
				},
				{
					"inputs": [],
					"name": "owner",
					"outputs": [
						{
							"internalType": "address",
							"name": "",
							"type": "address"
						}
					],
					"stateMutability": "view",
					"type": "function"
				},
				{
					"inputs": [],
					"name": "renounceOwnership",
					"outputs": [],
					"stateMutability": "nonpayable",
					"type": "function"
				},
				{
					"inputs": [
						{
							"internalType": "contract IERC20",
							"name": "tokenContract",
							"type": "address"
						},
						{
							"internalType": "address",
							"name": "to",
							"type": "address"
						},
						{
							"internalType": "uint256",
							"name": "amount",
							"type": "uint256"
						}
					],
					"name": "rescueERC20",
					"outputs": [],
					"stateMutability": "nonpayable",
					"type": "function"
				},
				{
					"inputs": [],
					"name": "rescuer",
					"outputs": [
						{
							"internalType": "address",
							"name": "",
							"type": "address"
						}
					],
					"stateMutability": "view",
					"type": "function"
				},
				{
					"inputs": [
						{
							"internalType": "address",
							"name": "newOwner",
							"type": "address"
						}
					],
					"name": "transferOwnership",
					"outputs": [],
					"stateMutability": "nonpayable",
					"type": "function"
				},
				{
					"inputs": [
						{
							"internalType": "address",
							"name": "newRescuer",
							"type": "address"
						}
					],
					"name": "updateRescuer",
					"outputs": [],
					"stateMutability": "nonpayable",
					"type": "function"
				}
			],
			"devdoc": {
				"kind": "dev",
				"methods": {
					"owner()": {
						"details": "Returns the address of the current owner."
					},
					"renounceOwnership()": {
						"details": "Leaves the contract without owner. It will not be possible to call `onlyOwner` functions anymore. Can only be called by the current owner. NOTE: Renouncing ownership will leave the contract without an owner, thereby removing any functionality that is only available to the owner."
					},
					"rescueERC20(address,address,uint256)": {
						"params": {
							"amount": "Amount to withdraw",
							"to": "Recipient address",
							"tokenContract": "ERC20 token contract address"
						}
					},
					"rescuer()": {
						"returns": {
							"_0": "Rescuer's address"
						}
					},
					"transferOwnership(address)": {
						"details": "Transfers ownership of the contract to a new account (`newOwner`). Can only be called by the current owner."
					},
					"updateRescuer(address)": {
						"params": {
							"newRescuer": "New rescuer's address"
						}
					}
				},
				"version": 1
			},
			"evm": {
				"assembly": "    /* \"Rescuable.sol\":1334:2722  contract Rescuable is Ownable {\r... */\n  mstore(0x40, 0x80)\n  callvalue\n  dup1\n  iszero\n  tag_1\n  jumpi\n  0x00\n  dup1\n  revert\ntag_1:\n  pop\n    /* \"Ownable.sol\":942:974  _transferOwnership(_msgSender()) */\n  tag_4\n    /* \"Ownable.sol\":961:973  _msgSender() */\n  tag_5\n    /* \"Ownable.sol\":961:971  _msgSender */\n  tag_6\n    /* \"Ownable.sol\":961:973  _msgSender() */\n  jump\t// in\ntag_5:\n    /* \"Ownable.sol\":942:960  _transferOwnership */\n  tag_7\n    /* \"Ownable.sol\":942:974  _transferOwnership(_msgSender()) */\n  jump\t// in\ntag_4:\n    /* \"Rescuable.sol\":1334:2722  contract Rescuable is Ownable {\r... */\n  jump(tag_8)\n    /* \"Context.sol\":656:754  function _msgSender() internal view virtual returns (address) {\r... */\ntag_6:\n    /* \"Context.sol\":736:746  msg.sender */\n  caller\n    /* \"Context.sol\":656:754  function _msgSender() internal view virtual returns (address) {\r... */\n  swap1\n  jump\t// out\n    /* \"Ownable.sol\":2333:2524  function _transferOwnership(address newOwner) internal virtual {\r... */\ntag_7:\n    /* \"Ownable.sol\":2407:2423  address oldOwner */\n  0x00\n    /* \"Ownable.sol\":2426:2432  _owner */\n  dup1\n  sload\n  sub(shl(0xa0, 0x01), 0x01)\n    /* \"Ownable.sol\":2443:2460  _owner = newOwner */\n  dup4\n  dup2\n  and\n  not(sub(shl(0xa0, 0x01), 0x01))\n  dup4\n  and\n  dup2\n  or\n  dup5\n  sstore\n    /* \"Ownable.sol\":2476:2516  OwnershipTransferred(oldOwner, newOwner) */\n  mload(0x40)\n    /* \"Ownable.sol\":2426:2432  _owner */\n  swap2\n  swap1\n  swap3\n  and\n  swap3\n  dup4\n  swap2\n    /* \"Ownable.sol\":2476:2516  OwnershipTransferred(oldOwner, newOwner) */\n  0x8be0079c531659141344cd1fd0a4f28419497f9722a3daafe3b4186f6b6457e0\n  swap2\n    /* \"Ownable.sol\":2407:2423  address oldOwner */\n  swap1\n    /* \"Ownable.sol\":2476:2516  OwnershipTransferred(oldOwner, newOwner) */\n  log3\n    /* \"Ownable.sol\":2333:2524  function _transferOwnership(address newOwner) internal virtual {\r... */\n  pop\n  pop\n  jump\t// out\n    /* \"Rescuable.sol\":1334:2722  contract Rescuable is Ownable {\r... */\ntag_8:\n  dataSize(sub_0)\n  dup1\n  dataOffset(sub_0)\n  0x00\n  codecopy\n  0x00\n  return\nstop\n\nsub_0: assembly {\n        /* \"Rescuable.sol\":1334:2722  contract Rescuable is Ownable {\r... */\n      mstore(0x40, 0x80)\n      callvalue\n      dup1\n      iszero\n      tag_1\n      jumpi\n      0x00\n      dup1\n      revert\n    tag_1:\n      pop\n      jumpi(tag_2, lt(calldatasize, 0x04))\n      shr(0xe0, calldataload(0x00))\n      dup1\n      0x2ab60045\n      eq\n      tag_3\n      jumpi\n      dup1\n      0x38a63183\n      eq\n      tag_4\n      jumpi\n      dup1\n      0x715018a6\n      eq\n      tag_5\n      jumpi\n      dup1\n      0x8da5cb5b\n      eq\n      tag_6\n      jumpi\n      dup1\n      0xb2118a8d\n      eq\n      tag_7\n      jumpi\n      dup1\n      0xf2fde38b\n      eq\n      tag_8\n      jumpi\n    tag_2:\n      0x00\n      dup1\n      revert\n        /* \"Rescuable.sol\":2448:2719  function updateRescuer(address newRescuer) external onlyOwner {\r... */\n    tag_3:\n      tag_9\n      tag_10\n      calldatasize\n      0x04\n      tag_11\n      jump\t// in\n    tag_10:\n      tag_12\n      jump\t// in\n    tag_9:\n      stop\n        /* \"Rescuable.sol\":1588:1673  function rescuer() external view returns (address) {\r... */\n    tag_4:\n      tag_13\n      tag_14\n      jump\t// in\n    tag_13:\n      mload(0x40)\n      tag_15\n      swap2\n      swap1\n      tag_16\n      jump\t// in\n    tag_15:\n      mload(0x40)\n      dup1\n      swap2\n      sub\n      swap1\n      return\n        /* \"Ownable.sol\":1714:1817  function renounceOwnership() public virtual onlyOwner {\r... */\n    tag_5:\n      tag_9\n      tag_18\n      jump\t// in\n        /* \"Ownable.sol\":1063:1150  function owner() public view virtual returns (address) {\r... */\n    tag_6:\n      tag_13\n      tag_20\n      jump\t// in\n        /* \"Rescuable.sol\":2131:2314  function rescueERC20(\r... */\n    tag_7:\n      tag_9\n      tag_23\n      calldatasize\n      0x04\n      tag_24\n      jump\t// in\n    tag_23:\n      tag_25\n      jump\t// in\n        /* \"Ownable.sol\":1972:2173  function transferOwnership(address newOwner) public virtual onlyOwner {\r... */\n    tag_8:\n      tag_9\n      tag_27\n      calldatasize\n      0x04\n      tag_11\n      jump\t// in\n    tag_27:\n      tag_28\n      jump\t// in\n        /* \"Rescuable.sol\":2448:2719  function updateRescuer(address newRescuer) external onlyOwner {\r... */\n    tag_12:\n        /* \"Ownable.sol\":1294:1306  _msgSender() */\n      tag_30\n        /* \"Ownable.sol\":1294:1304  _msgSender */\n      tag_31\n        /* \"Ownable.sol\":1294:1306  _msgSender() */\n      jump\t// in\n    tag_30:\n      sub(shl(0xa0, 0x01), 0x01)\n        /* \"Ownable.sol\":1283:1306  owner() == _msgSender() */\n      and\n        /* \"Ownable.sol\":1283:1290  owner() */\n      tag_32\n        /* \"Ownable.sol\":1283:1288  owner */\n      tag_20\n        /* \"Ownable.sol\":1283:1290  owner() */\n      jump\t// in\n    tag_32:\n      sub(shl(0xa0, 0x01), 0x01)\n        /* \"Ownable.sol\":1283:1306  owner() == _msgSender() */\n      and\n      eq\n        /* \"Ownable.sol\":1275:1343  require(owner() == _msgSender(), \"Ownable: caller is not the owner\") */\n      tag_33\n      jumpi\n      mload(0x40)\n      shl(0xe5, 0x461bcd)\n      dup2\n      mstore\n      0x04\n      add\n      tag_34\n      swap1\n      tag_35\n      jump\t// in\n    tag_34:\n      mload(0x40)\n      dup1\n      swap2\n      sub\n      swap1\n      revert\n    tag_33:\n      sub(shl(0xa0, 0x01), 0x01)\n        /* \"Rescuable.sol\":2543:2567  newRescuer != address(0) */\n      dup2\n      and\n        /* \"Rescuable.sol\":2521:2637  require(\r... */\n      tag_37\n      jumpi\n      mload(0x40)\n      shl(0xe5, 0x461bcd)\n      dup2\n      mstore\n      0x04\n      add\n      tag_34\n      swap1\n      tag_39\n      jump\t// in\n    tag_37:\n        /* \"Rescuable.sol\":2648:2656  _rescuer */\n      0x01\n        /* \"Rescuable.sol\":2648:2669  _rescuer = newRescuer */\n      dup1\n      sload\n      not(sub(shl(0xa0, 0x01), 0x01))\n      and\n      sub(shl(0xa0, 0x01), 0x01)\n      dup4\n      and\n      swap1\n      dup2\n      or\n      swap1\n      swap2\n      sstore\n        /* \"Rescuable.sol\":2685:2711  RescuerChanged(newRescuer) */\n      mload(0x40)\n      0xe475e580d85111348e40d8ca33cfdd74c30fe1655c2d8537a13abc10065ffa5a\n      swap1\n      0x00\n      swap1\n      log2\n        /* \"Rescuable.sol\":2448:2719  function updateRescuer(address newRescuer) external onlyOwner {\r... */\n      pop\n      jump\t// out\n        /* \"Rescuable.sol\":1588:1673  function rescuer() external view returns (address) {\r... */\n    tag_14:\n        /* \"Rescuable.sol\":1657:1665  _rescuer */\n      and(sub(shl(0xa0, 0x01), 0x01), sload(0x01))\n        /* \"Rescuable.sol\":1588:1673  function rescuer() external view returns (address) {\r... */\n      swap1\n      jump\t// out\n        /* \"Ownable.sol\":1714:1817  function renounceOwnership() public virtual onlyOwner {\r... */\n    tag_18:\n        /* \"Ownable.sol\":1294:1306  _msgSender() */\n      tag_42\n        /* \"Ownable.sol\":1294:1304  _msgSender */\n      tag_31\n        /* \"Ownable.sol\":1294:1306  _msgSender() */\n      jump\t// in\n    tag_42:\n      sub(shl(0xa0, 0x01), 0x01)\n        /* \"Ownable.sol\":1283:1306  owner() == _msgSender() */\n      and\n        /* \"Ownable.sol\":1283:1290  owner() */\n      tag_43\n        /* \"Ownable.sol\":1283:1288  owner */\n      tag_20\n        /* \"Ownable.sol\":1283:1290  owner() */\n      jump\t// in\n    tag_43:\n      sub(shl(0xa0, 0x01), 0x01)\n        /* \"Ownable.sol\":1283:1306  owner() == _msgSender() */\n      and\n      eq\n        /* \"Ownable.sol\":1275:1343  require(owner() == _msgSender(), \"Ownable: caller is not the owner\") */\n      tag_44\n      jumpi\n      mload(0x40)\n      shl(0xe5, 0x461bcd)\n      dup2\n      mstore\n      0x04\n      add\n      tag_34\n      swap1\n      tag_35\n      jump\t// in\n    tag_44:\n        /* \"Ownable.sol\":1779:1809  _transferOwnership(address(0)) */\n      tag_47\n        /* \"Ownable.sol\":1806:1807  0 */\n      0x00\n        /* \"Ownable.sol\":1779:1797  _transferOwnership */\n      tag_48\n        /* \"Ownable.sol\":1779:1809  _transferOwnership(address(0)) */\n      jump\t// in\n    tag_47:\n        /* \"Ownable.sol\":1714:1817  function renounceOwnership() public virtual onlyOwner {\r... */\n      jump\t// out\n        /* \"Ownable.sol\":1063:1150  function owner() public view virtual returns (address) {\r... */\n    tag_20:\n        /* \"Ownable.sol\":1109:1116  address */\n      0x00\n        /* \"Ownable.sol\":1136:1142  _owner */\n      sload\n      sub(shl(0xa0, 0x01), 0x01)\n      and\n        /* \"Ownable.sol\":1063:1150  function owner() public view virtual returns (address) {\r... */\n      swap1\n      jump\t// out\n        /* \"Rescuable.sol\":2131:2314  function rescueERC20(\r... */\n    tag_25:\n        /* \"Rescuable.sol\":1827:1835  _rescuer */\n      and(sub(shl(0xa0, 0x01), 0x01), sload(0x01))\n        /* \"Rescuable.sol\":1813:1823  msg.sender */\n      caller\n        /* \"Rescuable.sol\":1813:1835  msg.sender == _rescuer */\n      eq\n        /* \"Rescuable.sol\":1805:1876  require(msg.sender == _rescuer, \"Rescuable: caller is not the rescuer\") */\n      tag_51\n      jumpi\n      mload(0x40)\n      shl(0xe5, 0x461bcd)\n      dup2\n      mstore\n      0x04\n      add\n      tag_34\n      swap1\n      tag_53\n      jump\t// in\n    tag_51:\n        /* \"Rescuable.sol\":2268:2306  tokenContract.safeTransfer(to, amount) */\n      tag_55\n      sub(shl(0xa0, 0x01), 0x01)\n        /* \"Rescuable.sol\":2268:2294  tokenContract.safeTransfer */\n      dup5\n      and\n        /* \"Rescuable.sol\":2295:2297  to */\n      dup4\n        /* \"Rescuable.sol\":2299:2305  amount */\n      dup4\n        /* \"Rescuable.sol\":2268:2294  tokenContract.safeTransfer */\n      tag_56\n        /* \"Rescuable.sol\":2268:2306  tokenContract.safeTransfer(to, amount) */\n      jump\t// in\n    tag_55:\n        /* \"Rescuable.sol\":2131:2314  function rescueERC20(\r... */\n      pop\n      pop\n      pop\n      jump\t// out\n        /* \"Ownable.sol\":1972:2173  function transferOwnership(address newOwner) public virtual onlyOwner {\r... */\n    tag_28:\n        /* \"Ownable.sol\":1294:1306  _msgSender() */\n      tag_58\n        /* \"Ownable.sol\":1294:1304  _msgSender */\n      tag_31\n        /* \"Ownable.sol\":1294:1306  _msgSender() */\n      jump\t// in\n    tag_58:\n      sub(shl(0xa0, 0x01), 0x01)\n        /* \"Ownable.sol\":1283:1306  owner() == _msgSender() */\n      and\n        /* \"Ownable.sol\":1283:1290  owner() */\n      tag_59\n        /* \"Ownable.sol\":1283:1288  owner */\n      tag_20\n        /* \"Ownable.sol\":1283:1290  owner() */\n      jump\t// in\n    tag_59:\n      sub(shl(0xa0, 0x01), 0x01)\n        /* \"Ownable.sol\":1283:1306  owner() == _msgSender() */\n      and\n      eq\n        /* \"Ownable.sol\":1275:1343  require(owner() == _msgSender(), \"Ownable: caller is not the owner\") */\n      tag_60\n      jumpi\n      mload(0x40)\n      shl(0xe5, 0x461bcd)\n      dup2\n      mstore\n      0x04\n      add\n      tag_34\n      swap1\n      tag_35\n      jump\t// in\n    tag_60:\n      sub(shl(0xa0, 0x01), 0x01)\n        /* \"Ownable.sol\":2061:2083  newOwner != address(0) */\n      dup2\n      and\n        /* \"Ownable.sol\":2053:2126  require(newOwner != address(0), \"Ownable: new owner is the zero address\") */\n      tag_63\n      jumpi\n      mload(0x40)\n      shl(0xe5, 0x461bcd)\n      dup2\n      mstore\n      0x04\n      add\n      tag_34\n      swap1\n      tag_65\n      jump\t// in\n    tag_63:\n        /* \"Ownable.sol\":2137:2165  _transferOwnership(newOwner) */\n      tag_66\n        /* \"Ownable.sol\":2156:2164  newOwner */\n      dup2\n        /* \"Ownable.sol\":2137:2155  _transferOwnership */\n      tag_48\n        /* \"Ownable.sol\":2137:2165  _transferOwnership(newOwner) */\n      jump\t// in\n    tag_66:\n        /* \"Ownable.sol\":1972:2173  function transferOwnership(address newOwner) public virtual onlyOwner {\r... */\n      pop\n      jump\t// out\n        /* \"Context.sol\":656:754  function _msgSender() internal view virtual returns (address) {\r... */\n    tag_31:\n        /* \"Context.sol\":736:746  msg.sender */\n      caller\n        /* \"Context.sol\":656:754  function _msgSender() internal view virtual returns (address) {\r... */\n      swap1\n      jump\t// out\n        /* \"Ownable.sol\":2333:2524  function _transferOwnership(address newOwner) internal virtual {\r... */\n    tag_48:\n        /* \"Ownable.sol\":2407:2423  address oldOwner */\n      0x00\n        /* \"Ownable.sol\":2426:2432  _owner */\n      dup1\n      sload\n      sub(shl(0xa0, 0x01), 0x01)\n        /* \"Ownable.sol\":2443:2460  _owner = newOwner */\n      dup4\n      dup2\n      and\n      not(sub(shl(0xa0, 0x01), 0x01))\n      dup4\n      and\n      dup2\n      or\n      dup5\n      sstore\n        /* \"Ownable.sol\":2476:2516  OwnershipTransferred(oldOwner, newOwner) */\n      mload(0x40)\n        /* \"Ownable.sol\":2426:2432  _owner */\n      swap2\n      swap1\n      swap3\n      and\n      swap3\n      dup4\n      swap2\n        /* \"Ownable.sol\":2476:2516  OwnershipTransferred(oldOwner, newOwner) */\n      0x8be0079c531659141344cd1fd0a4f28419497f9722a3daafe3b4186f6b6457e0\n      swap2\n        /* \"Ownable.sol\":2407:2423  address oldOwner */\n      swap1\n        /* \"Ownable.sol\":2476:2516  OwnershipTransferred(oldOwner, newOwner) */\n      log3\n        /* \"Ownable.sol\":2333:2524  function _transferOwnership(address newOwner) internal virtual {\r... */\n      pop\n      pop\n      jump\t// out\n        /* \"SafeERC20.sol\":707:918  function safeTransfer(\r... */\n    tag_56:\n        /* \"SafeERC20.sol\":824:910  _callOptionalReturn(token, abi.encodeWithSelector(token.transfer.selector, to, value)) */\n      tag_55\n        /* \"SafeERC20.sol\":844:849  token */\n      dup4\n        /* \"SafeERC20.sol\":874:897  token.transfer.selector */\n      shl(0xe0, 0xa9059cbb)\n        /* \"SafeERC20.sol\":899:901  to */\n      dup5\n        /* \"SafeERC20.sol\":903:908  value */\n      dup5\n        /* \"SafeERC20.sol\":851:909  abi.encodeWithSelector(token.transfer.selector, to, value) */\n      add(0x24, mload(0x40))\n      tag_71\n      swap3\n      swap2\n      swap1\n      tag_72\n      jump\t// in\n    tag_71:\n      0x40\n      dup1\n      mload\n      not(0x1f)\n      dup2\n      dup5\n      sub\n      add\n      dup2\n      mstore\n      swap2\n      swap1\n      mstore\n      0x20\n      dup2\n      add\n      dup1\n      mload\n      sub(shl(0xe0, 0x01), 0x01)\n      and\n      not(sub(shl(0xe0, 0x01), 0x01))\n      swap1\n      swap4\n      and\n      swap3\n      swap1\n      swap3\n      or\n      swap1\n      swap2\n      mstore\n        /* \"SafeERC20.sol\":3704:3727  bytes memory returndata */\n      0x00\n        /* \"SafeERC20.sol\":3730:3799  address(token).functionCall(data, \"SafeERC20: low-level call failed\") */\n      tag_75\n        /* \"SafeERC20.sol\":3758:3762  data */\n      dup3\n        /* \"SafeERC20.sol\":3730:3799  address(token).functionCall(data, \"SafeERC20: low-level call failed\") */\n      mload(0x40)\n      dup1\n      0x40\n      add\n      0x40\n      mstore\n      dup1\n      0x20\n      dup2\n      mstore\n      0x20\n      add\n      0x5361666545524332303a206c6f772d6c6576656c2063616c6c206661696c6564\n      dup2\n      mstore\n      pop\n        /* \"SafeERC20.sol\":3738:3743  token */\n      dup6\n      sub(shl(0xa0, 0x01), 0x01)\n        /* \"SafeERC20.sol\":3730:3757  address(token).functionCall */\n      and\n      tag_76\n      swap1\n        /* \"SafeERC20.sol\":3730:3799  address(token).functionCall(data, \"SafeERC20: low-level call failed\") */\n      swap3\n      swap2\n      swap1\n      0xffffffff\n      and\n      jump\t// in\n    tag_75:\n        /* \"SafeERC20.sol\":3814:3831  returndata.length */\n      dup1\n      mload\n        /* \"SafeERC20.sol\":3704:3799  bytes memory returndata = address(token).functionCall(data, \"SafeERC20: low-level call failed\") */\n      swap1\n      swap2\n      pop\n        /* \"SafeERC20.sol\":3814:3835  returndata.length > 0 */\n      iszero\n        /* \"SafeERC20.sol\":3810:3989  if (returndata.length > 0) {\r... */\n      tag_55\n      jumpi\n        /* \"SafeERC20.sol\":3911:3921  returndata */\n      dup1\n        /* \"SafeERC20.sol\":3900:3930  abi.decode(returndata, (bool)) */\n      dup1\n      0x20\n      add\n      swap1\n      mload\n      dup2\n      add\n      swap1\n      tag_78\n      swap2\n      swap1\n      tag_79\n      jump\t// in\n    tag_78:\n        /* \"SafeERC20.sol\":3892:3977  require(abi.decode(returndata, (bool)), \"SafeERC20: ERC20 operation did not succeed\") */\n      tag_55\n      jumpi\n      mload(0x40)\n      shl(0xe5, 0x461bcd)\n      dup2\n      mstore\n      0x04\n      add\n      tag_34\n      swap1\n      tag_82\n      jump\t// in\n        /* \"Address.sol\":3955:4184  function functionCall(\r... */\n    tag_76:\n        /* \"Address.sol\":4092:4104  bytes memory */\n      0x60\n        /* \"Address.sol\":4124:4176  functionCallWithValue(target, data, 0, errorMessage) */\n      tag_84\n        /* \"Address.sol\":4146:4152  target */\n      dup5\n        /* \"Address.sol\":4154:4158  data */\n      dup5\n        /* \"Address.sol\":4160:4161  0 */\n      0x00\n        /* \"Address.sol\":4163:4175  errorMessage */\n      dup6\n        /* \"Address.sol\":4124:4145  functionCallWithValue */\n      tag_85\n        /* \"Address.sol\":4124:4176  functionCallWithValue(target, data, 0, errorMessage) */\n      jump\t// in\n    tag_84:\n        /* \"Address.sol\":4117:4176  return functionCallWithValue(target, data, 0, errorMessage) */\n      swap1\n      pop\n        /* \"Address.sol\":3955:4184  function functionCall(\r... */\n    tag_83:\n      swap4\n      swap3\n      pop\n      pop\n      pop\n      jump\t// out\n        /* \"Address.sol\":5075:5585  function functionCallWithValue(\r... */\n    tag_85:\n        /* \"Address.sol\":5245:5257  bytes memory */\n      0x60\n        /* \"Address.sol\":5303:5308  value */\n      dup3\n        /* \"Address.sol\":5278:5299  address(this).balance */\n      selfbalance\n        /* \"Address.sol\":5278:5308  address(this).balance >= value */\n      lt\n      iszero\n        /* \"Address.sol\":5270:5351  require(address(this).balance >= value, \"Address: insufficient balance for call\") */\n      tag_87\n      jumpi\n      mload(0x40)\n      shl(0xe5, 0x461bcd)\n      dup2\n      mstore\n      0x04\n      add\n      tag_34\n      swap1\n      tag_89\n      jump\t// in\n    tag_87:\n        /* \"Address.sol\":5370:5388  isContract(target) */\n      tag_90\n        /* \"Address.sol\":5381:5387  target */\n      dup6\n        /* \"Address.sol\":5370:5380  isContract */\n      tag_91\n        /* \"Address.sol\":5370:5388  isContract(target) */\n      jump\t// in\n    tag_90:\n        /* \"Address.sol\":5362:5422  require(isContract(target), \"Address: call to non-contract\") */\n      tag_92\n      jumpi\n      mload(0x40)\n      shl(0xe5, 0x461bcd)\n      dup2\n      mstore\n      0x04\n      add\n      tag_34\n      swap1\n      tag_94\n      jump\t// in\n    tag_92:\n        /* \"Address.sol\":5436:5448  bool success */\n      0x00\n        /* \"Address.sol\":5450:5473  bytes memory returndata */\n      dup1\n        /* \"Address.sol\":5477:5483  target */\n      dup7\n      sub(shl(0xa0, 0x01), 0x01)\n        /* \"Address.sol\":5477:5488  target.call */\n      and\n        /* \"Address.sol\":5496:5501  value */\n      dup6\n        /* \"Address.sol\":5503:5507  data */\n      dup8\n        /* \"Address.sol\":5477:5508  target.call{value: value}(data) */\n      mload(0x40)\n      tag_95\n      swap2\n      swap1\n      tag_96\n      jump\t// in\n    tag_95:\n      0x00\n      mload(0x40)\n      dup1\n      dup4\n      sub\n      dup2\n      dup6\n      dup8\n      gas\n      call\n      swap3\n      pop\n      pop\n      pop\n      returndatasize\n      dup1\n      0x00\n      dup2\n      eq\n      tag_99\n      jumpi\n      mload(0x40)\n      swap2\n      pop\n      and(add(returndatasize, 0x3f), not(0x1f))\n      dup3\n      add\n      0x40\n      mstore\n      returndatasize\n      dup3\n      mstore\n      returndatasize\n      0x00\n      0x20\n      dup5\n      add\n      returndatacopy\n      jump(tag_98)\n    tag_99:\n      0x60\n      swap2\n      pop\n    tag_98:\n      pop\n        /* \"Address.sol\":5435:5508  (bool success, bytes memory returndata) = target.call{value: value}(data) */\n      swap2\n      pop\n      swap2\n      pop\n        /* \"Address.sol\":5526:5577  verifyCallResult(success, returndata, errorMessage) */\n      tag_100\n        /* \"Address.sol\":5543:5550  success */\n      dup3\n        /* \"Address.sol\":5552:5562  returndata */\n      dup3\n        /* \"Address.sol\":5564:5576  errorMessage */\n      dup7\n        /* \"Address.sol\":5526:5542  verifyCallResult */\n      tag_101\n        /* \"Address.sol\":5526:5577  verifyCallResult(success, returndata, errorMessage) */\n      jump\t// in\n    tag_100:\n        /* \"Address.sol\":5519:5577  return verifyCallResult(success, returndata, errorMessage) */\n      swap8\n        /* \"Address.sol\":5075:5585  function functionCallWithValue(\r... */\n      swap7\n      pop\n      pop\n      pop\n      pop\n      pop\n      pop\n      pop\n      jump\t// out\n        /* \"Address.sol\":1210:1536  function isContract(address account) internal view returns (bool) {\r... */\n    tag_91:\n      sub(shl(0xa0, 0x01), 0x01)\n        /* \"Address.sol\":1505:1524  account.code.length */\n      and\n      extcodesize\n        /* \"Address.sol\":1505:1528  account.code.length > 0 */\n      iszero\n      iszero\n      swap1\n        /* \"Address.sol\":1210:1536  function isContract(address account) internal view returns (bool) {\r... */\n      jump\t// out\n        /* \"Address.sol\":7761:8523  function verifyCallResult(\r... */\n    tag_101:\n        /* \"Address.sol\":7911:7923  bytes memory */\n      0x60\n        /* \"Address.sol\":7940:7947  success */\n      dup4\n        /* \"Address.sol\":7936:8516  if (success) {\r... */\n      iszero\n      tag_104\n      jumpi\n      pop\n        /* \"Address.sol\":7971:7981  returndata */\n      dup2\n        /* \"Address.sol\":7964:7981  return returndata */\n      jump(tag_83)\n        /* \"Address.sol\":7936:8516  if (success) {\r... */\n    tag_104:\n        /* \"Address.sol\":8085:8102  returndata.length */\n      dup3\n      mload\n        /* \"Address.sol\":8085:8106  returndata.length > 0 */\n      iszero\n        /* \"Address.sol\":8081:8505  if (returndata.length > 0) {\r... */\n      tag_106\n      jumpi\n        /* \"Address.sol\":8333:8343  returndata */\n      dup3\n        /* \"Address.sol\":8327:8344  mload(returndata) */\n      mload\n        /* \"Address.sol\":8394:8409  returndata_size */\n      dup1\n        /* \"Address.sol\":8381:8391  returndata */\n      dup5\n        /* \"Address.sol\":8377:8379  32 */\n      0x20\n        /* \"Address.sol\":8373:8392  add(32, returndata) */\n      add\n        /* \"Address.sol\":8366:8410  revert(add(32, returndata), returndata_size) */\n      revert\n        /* \"Address.sol\":8281:8429  {\r... */\n    tag_106:\n        /* \"Address.sol\":8476:8488  errorMessage */\n      dup2\n        /* \"Address.sol\":8469:8489  revert(errorMessage) */\n      mload(0x40)\n      shl(0xe5, 0x461bcd)\n      dup2\n      mstore\n      0x04\n      add\n      tag_34\n      swap2\n      swap1\n      tag_109\n      jump\t// in\n        /* \"#utility.yul\":14:273   */\n    tag_11:\n      0x00\n        /* \"#utility.yul\":126:128   */\n      0x20\n        /* \"#utility.yul\":114:123   */\n      dup3\n        /* \"#utility.yul\":105:112   */\n      dup5\n        /* \"#utility.yul\":101:124   */\n      sub\n        /* \"#utility.yul\":97:129   */\n      slt\n        /* \"#utility.yul\":94:96   */\n      iszero\n      tag_112\n      jumpi\n        /* \"#utility.yul\":147:153   */\n      dup1\n        /* \"#utility.yul\":139:145   */\n      dup2\n        /* \"#utility.yul\":132:154   */\n      revert\n        /* \"#utility.yul\":94:96   */\n    tag_112:\n        /* \"#utility.yul\":191:200   */\n      dup2\n        /* \"#utility.yul\":178:201   */\n      calldataload\n        /* \"#utility.yul\":210:243   */\n      tag_83\n        /* \"#utility.yul\":237:242   */\n      dup2\n        /* \"#utility.yul\":210:243   */\n      tag_114\n      jump\t// in\n        /* \"#utility.yul\":278:575   */\n    tag_79:\n      0x00\n        /* \"#utility.yul\":398:400   */\n      0x20\n        /* \"#utility.yul\":386:395   */\n      dup3\n        /* \"#utility.yul\":377:384   */\n      dup5\n        /* \"#utility.yul\":373:396   */\n      sub\n        /* \"#utility.yul\":369:401   */\n      slt\n        /* \"#utility.yul\":366:368   */\n      iszero\n      tag_116\n      jumpi\n        /* \"#utility.yul\":419:425   */\n      dup1\n        /* \"#utility.yul\":411:417   */\n      dup2\n        /* \"#utility.yul\":404:426   */\n      revert\n        /* \"#utility.yul\":366:368   */\n    tag_116:\n        /* \"#utility.yul\":456:465   */\n      dup2\n        /* \"#utility.yul\":450:466   */\n      mload\n        /* \"#utility.yul\":509:514   */\n      dup1\n        /* \"#utility.yul\":502:515   */\n      iszero\n        /* \"#utility.yul\":495:516   */\n      iszero\n        /* \"#utility.yul\":488:493   */\n      dup2\n        /* \"#utility.yul\":485:517   */\n      eq\n        /* \"#utility.yul\":475:477   */\n      tag_83\n      jumpi\n        /* \"#utility.yul\":536:542   */\n      dup2\n        /* \"#utility.yul\":528:534   */\n      dup3\n        /* \"#utility.yul\":521:543   */\n      revert\n        /* \"#utility.yul\":580:1064   */\n    tag_24:\n      0x00\n      dup1\n      0x00\n        /* \"#utility.yul\":740:742   */\n      0x60\n        /* \"#utility.yul\":728:737   */\n      dup5\n        /* \"#utility.yul\":719:726   */\n      dup7\n        /* \"#utility.yul\":715:738   */\n      sub\n        /* \"#utility.yul\":711:743   */\n      slt\n        /* \"#utility.yul\":708:710   */\n      iszero\n      tag_119\n      jumpi\n        /* \"#utility.yul\":761:767   */\n      dup2\n        /* \"#utility.yul\":753:759   */\n      dup3\n        /* \"#utility.yul\":746:768   */\n      revert\n        /* \"#utility.yul\":708:710   */\n    tag_119:\n        /* \"#utility.yul\":805:814   */\n      dup4\n        /* \"#utility.yul\":792:815   */\n      calldataload\n        /* \"#utility.yul\":824:857   */\n      tag_120\n        /* \"#utility.yul\":851:856   */\n      dup2\n        /* \"#utility.yul\":824:857   */\n      tag_114\n      jump\t// in\n    tag_120:\n        /* \"#utility.yul\":876:881   */\n      swap3\n      pop\n        /* \"#utility.yul\":933:935   */\n      0x20\n        /* \"#utility.yul\":918:936   */\n      dup5\n      add\n        /* \"#utility.yul\":905:937   */\n      calldataload\n        /* \"#utility.yul\":946:981   */\n      tag_121\n        /* \"#utility.yul\":905:937   */\n      dup2\n        /* \"#utility.yul\":946:981   */\n      tag_114\n      jump\t// in\n    tag_121:\n        /* \"#utility.yul\":698:1064   */\n      swap3\n      swap6\n        /* \"#utility.yul\":1000:1007   */\n      swap3\n      swap5\n      pop\n      pop\n      pop\n        /* \"#utility.yul\":1054:1056   */\n      0x40\n        /* \"#utility.yul\":1039:1057   */\n      swap2\n      swap1\n      swap2\n      add\n        /* \"#utility.yul\":1026:1058   */\n      calldataload\n      swap1\n        /* \"#utility.yul\":698:1064   */\n      jump\t// out\n        /* \"#utility.yul\":1069:1343   */\n    tag_96:\n      0x00\n        /* \"#utility.yul\":1236:1242   */\n      dup3\n        /* \"#utility.yul\":1230:1243   */\n      mload\n        /* \"#utility.yul\":1252:1305   */\n      tag_123\n        /* \"#utility.yul\":1298:1304   */\n      dup2\n        /* \"#utility.yul\":1293:1296   */\n      dup5\n        /* \"#utility.yul\":1286:1290   */\n      0x20\n        /* \"#utility.yul\":1278:1284   */\n      dup8\n        /* \"#utility.yul\":1274:1291   */\n      add\n        /* \"#utility.yul\":1252:1305   */\n      tag_124\n      jump\t// in\n    tag_123:\n        /* \"#utility.yul\":1321:1337   */\n      swap2\n      swap1\n      swap2\n      add\n      swap3\n        /* \"#utility.yul\":1206:1343   */\n      swap2\n      pop\n      pop\n      jump\t// out\n        /* \"#utility.yul\":1348:1551   */\n    tag_16:\n      sub(shl(0xa0, 0x01), 0x01)\n        /* \"#utility.yul\":1512:1544   */\n      swap2\n      swap1\n      swap2\n      and\n        /* \"#utility.yul\":1494:1545   */\n      dup2\n      mstore\n        /* \"#utility.yul\":1482:1484   */\n      0x20\n        /* \"#utility.yul\":1467:1485   */\n      add\n      swap1\n        /* \"#utility.yul\":1449:1551   */\n      jump\t// out\n        /* \"#utility.yul\":1556:1830   */\n    tag_72:\n      sub(shl(0xa0, 0x01), 0x01)\n        /* \"#utility.yul\":1748:1780   */\n      swap3\n      swap1\n      swap3\n      and\n        /* \"#utility.yul\":1730:1781   */\n      dup3\n      mstore\n        /* \"#utility.yul\":1812:1814   */\n      0x20\n        /* \"#utility.yul\":1797:1815   */\n      dup3\n      add\n        /* \"#utility.yul\":1790:1824   */\n      mstore\n        /* \"#utility.yul\":1718:1720   */\n      0x40\n        /* \"#utility.yul\":1703:1721   */\n      add\n      swap1\n        /* \"#utility.yul\":1685:1830   */\n      jump\t// out\n        /* \"#utility.yul\":1835:2218   */\n    tag_109:\n      0x00\n        /* \"#utility.yul\":1984:1986   */\n      0x20\n        /* \"#utility.yul\":1973:1982   */\n      dup3\n        /* \"#utility.yul\":1966:1987   */\n      mstore\n        /* \"#utility.yul\":2016:2022   */\n      dup3\n        /* \"#utility.yul\":2010:2023   */\n      mload\n        /* \"#utility.yul\":2059:2065   */\n      dup1\n        /* \"#utility.yul\":2054:2056   */\n      0x20\n        /* \"#utility.yul\":2043:2052   */\n      dup5\n        /* \"#utility.yul\":2039:2057   */\n      add\n        /* \"#utility.yul\":2032:2066   */\n      mstore\n        /* \"#utility.yul\":2075:2141   */\n      tag_128\n        /* \"#utility.yul\":2134:2140   */\n      dup2\n        /* \"#utility.yul\":2129:2131   */\n      0x40\n        /* \"#utility.yul\":2118:2127   */\n      dup6\n        /* \"#utility.yul\":2114:2132   */\n      add\n        /* \"#utility.yul\":2109:2111   */\n      0x20\n        /* \"#utility.yul\":2101:2107   */\n      dup8\n        /* \"#utility.yul\":2097:2112   */\n      add\n        /* \"#utility.yul\":2075:2141   */\n      tag_124\n      jump\t// in\n    tag_128:\n        /* \"#utility.yul\":2202:2204   */\n      0x1f\n        /* \"#utility.yul\":2181:2196   */\n      add\n      not(0x1f)\n        /* \"#utility.yul\":2177:2206   */\n      and\n        /* \"#utility.yul\":2162:2207   */\n      swap2\n      swap1\n      swap2\n      add\n        /* \"#utility.yul\":2209:2211   */\n      0x40\n        /* \"#utility.yul\":2158:2212   */\n      add\n      swap3\n        /* \"#utility.yul\":1956:2218   */\n      swap2\n      pop\n      pop\n      jump\t// out\n        /* \"#utility.yul\":2223:2625   */\n    tag_65:\n        /* \"#utility.yul\":2425:2427   */\n      0x20\n        /* \"#utility.yul\":2407:2428   */\n      dup1\n      dup3\n      mstore\n        /* \"#utility.yul\":2464:2466   */\n      0x26\n        /* \"#utility.yul\":2444:2462   */\n      swap1\n      dup3\n      add\n        /* \"#utility.yul\":2437:2467   */\n      mstore\n        /* \"#utility.yul\":2503:2537   */\n      0x4f776e61626c653a206e6577206f776e657220697320746865207a65726f2061\n        /* \"#utility.yul\":2498:2500   */\n      0x40\n        /* \"#utility.yul\":2483:2501   */\n      dup3\n      add\n        /* \"#utility.yul\":2476:2538   */\n      mstore\n      shl(0xd0, 0x646472657373)\n        /* \"#utility.yul\":2569:2571   */\n      0x60\n        /* \"#utility.yul\":2554:2572   */\n      dup3\n      add\n        /* \"#utility.yul\":2547:2583   */\n      mstore\n        /* \"#utility.yul\":2615:2618   */\n      0x80\n        /* \"#utility.yul\":2600:2619   */\n      add\n      swap1\n        /* \"#utility.yul\":2397:2625   */\n      jump\t// out\n        /* \"#utility.yul\":2630:3036   */\n    tag_39:\n        /* \"#utility.yul\":2832:2834   */\n      0x20\n        /* \"#utility.yul\":2814:2835   */\n      dup1\n      dup3\n      mstore\n        /* \"#utility.yul\":2871:2873   */\n      0x2a\n        /* \"#utility.yul\":2851:2869   */\n      swap1\n      dup3\n      add\n        /* \"#utility.yul\":2844:2874   */\n      mstore\n        /* \"#utility.yul\":2910:2944   */\n      0x526573637561626c653a206e6577207265736375657220697320746865207a65\n        /* \"#utility.yul\":2905:2907   */\n      0x40\n        /* \"#utility.yul\":2890:2908   */\n      dup3\n      add\n        /* \"#utility.yul\":2883:2945   */\n      mstore\n      shl(0xb0, 0x726f2061646472657373)\n        /* \"#utility.yul\":2976:2978   */\n      0x60\n        /* \"#utility.yul\":2961:2979   */\n      dup3\n      add\n        /* \"#utility.yul\":2954:2994   */\n      mstore\n        /* \"#utility.yul\":3026:3029   */\n      0x80\n        /* \"#utility.yul\":3011:3030   */\n      add\n      swap1\n        /* \"#utility.yul\":2804:3036   */\n      jump\t// out\n        /* \"#utility.yul\":3041:3443   */\n    tag_89:\n        /* \"#utility.yul\":3243:3245   */\n      0x20\n        /* \"#utility.yul\":3225:3246   */\n      dup1\n      dup3\n      mstore\n        /* \"#utility.yul\":3282:3284   */\n      0x26\n        /* \"#utility.yul\":3262:3280   */\n      swap1\n      dup3\n      add\n        /* \"#utility.yul\":3255:3285   */\n      mstore\n        /* \"#utility.yul\":3321:3355   */\n      0x416464726573733a20696e73756666696369656e742062616c616e636520666f\n        /* \"#utility.yul\":3316:3318   */\n      0x40\n        /* \"#utility.yul\":3301:3319   */\n      dup3\n      add\n        /* \"#utility.yul\":3294:3356   */\n      mstore\n      shl(0xd2, 0x1c8818d85b1b)\n        /* \"#utility.yul\":3387:3389   */\n      0x60\n        /* \"#utility.yul\":3372:3390   */\n      dup3\n      add\n        /* \"#utility.yul\":3365:3401   */\n      mstore\n        /* \"#utility.yul\":3433:3436   */\n      0x80\n        /* \"#utility.yul\":3418:3437   */\n      add\n      swap1\n        /* \"#utility.yul\":3215:3443   */\n      jump\t// out\n        /* \"#utility.yul\":3448:3848   */\n    tag_53:\n        /* \"#utility.yul\":3650:3652   */\n      0x20\n        /* \"#utility.yul\":3632:3653   */\n      dup1\n      dup3\n      mstore\n        /* \"#utility.yul\":3689:3691   */\n      0x24\n        /* \"#utility.yul\":3669:3687   */\n      swap1\n      dup3\n      add\n        /* \"#utility.yul\":3662:3692   */\n      mstore\n        /* \"#utility.yul\":3728:3762   */\n      0x526573637561626c653a2063616c6c6572206973206e6f742074686520726573\n        /* \"#utility.yul\":3723:3725   */\n      0x40\n        /* \"#utility.yul\":3708:3726   */\n      dup3\n      add\n        /* \"#utility.yul\":3701:3763   */\n      mstore\n      shl(0xe1, 0x31bab2b9)\n        /* \"#utility.yul\":3794:3796   */\n      0x60\n        /* \"#utility.yul\":3779:3797   */\n      dup3\n      add\n        /* \"#utility.yul\":3772:3806   */\n      mstore\n        /* \"#utility.yul\":3838:3841   */\n      0x80\n        /* \"#utility.yul\":3823:3842   */\n      add\n      swap1\n        /* \"#utility.yul\":3622:3848   */\n      jump\t// out\n        /* \"#utility.yul\":3853:4209   */\n    tag_35:\n        /* \"#utility.yul\":4055:4057   */\n      0x20\n        /* \"#utility.yul\":4037:4058   */\n      dup1\n      dup3\n      mstore\n        /* \"#utility.yul\":4074:4092   */\n      dup2\n      dup2\n      add\n        /* \"#utility.yul\":4067:4097   */\n      mstore\n        /* \"#utility.yul\":4133:4167   */\n      0x4f776e61626c653a2063616c6c6572206973206e6f7420746865206f776e6572\n        /* \"#utility.yul\":4128:4130   */\n      0x40\n        /* \"#utility.yul\":4113:4131   */\n      dup3\n      add\n        /* \"#utility.yul\":4106:4168   */\n      mstore\n        /* \"#utility.yul\":4200:4202   */\n      0x60\n        /* \"#utility.yul\":4185:4203   */\n      add\n      swap1\n        /* \"#utility.yul\":4027:4209   */\n      jump\t// out\n        /* \"#utility.yul\":4214:4567   */\n    tag_94:\n        /* \"#utility.yul\":4416:4418   */\n      0x20\n        /* \"#utility.yul\":4398:4419   */\n      dup1\n      dup3\n      mstore\n        /* \"#utility.yul\":4455:4457   */\n      0x1d\n        /* \"#utility.yul\":4435:4453   */\n      swap1\n      dup3\n      add\n        /* \"#utility.yul\":4428:4458   */\n      mstore\n        /* \"#utility.yul\":4494:4525   */\n      0x416464726573733a2063616c6c20746f206e6f6e2d636f6e7472616374000000\n        /* \"#utility.yul\":4489:4491   */\n      0x40\n        /* \"#utility.yul\":4474:4492   */\n      dup3\n      add\n        /* \"#utility.yul\":4467:4526   */\n      mstore\n        /* \"#utility.yul\":4558:4560   */\n      0x60\n        /* \"#utility.yul\":4543:4561   */\n      add\n      swap1\n        /* \"#utility.yul\":4388:4567   */\n      jump\t// out\n        /* \"#utility.yul\":4572:4978   */\n    tag_82:\n        /* \"#utility.yul\":4774:4776   */\n      0x20\n        /* \"#utility.yul\":4756:4777   */\n      dup1\n      dup3\n      mstore\n        /* \"#utility.yul\":4813:4815   */\n      0x2a\n        /* \"#utility.yul\":4793:4811   */\n      swap1\n      dup3\n      add\n        /* \"#utility.yul\":4786:4816   */\n      mstore\n        /* \"#utility.yul\":4852:4886   */\n      0x5361666545524332303a204552433230206f7065726174696f6e20646964206e\n        /* \"#utility.yul\":4847:4849   */\n      0x40\n        /* \"#utility.yul\":4832:4850   */\n      dup3\n      add\n        /* \"#utility.yul\":4825:4887   */\n      mstore\n      shl(0xb2, 0x1bdd081cdd58d8d95959)\n        /* \"#utility.yul\":4918:4920   */\n      0x60\n        /* \"#utility.yul\":4903:4921   */\n      dup3\n      add\n        /* \"#utility.yul\":4896:4936   */\n      mstore\n        /* \"#utility.yul\":4968:4971   */\n      0x80\n        /* \"#utility.yul\":4953:4972   */\n      add\n      swap1\n        /* \"#utility.yul\":4746:4978   */\n      jump\t// out\n        /* \"#utility.yul\":4983:5241   */\n    tag_124:\n        /* \"#utility.yul\":5055:5056   */\n      0x00\n        /* \"#utility.yul\":5065:5178   */\n    tag_137:\n        /* \"#utility.yul\":5079:5085   */\n      dup4\n        /* \"#utility.yul\":5076:5077   */\n      dup2\n        /* \"#utility.yul\":5073:5086   */\n      lt\n        /* \"#utility.yul\":5065:5178   */\n      iszero\n      tag_139\n      jumpi\n        /* \"#utility.yul\":5155:5166   */\n      dup2\n      dup2\n      add\n        /* \"#utility.yul\":5149:5167   */\n      mload\n        /* \"#utility.yul\":5136:5147   */\n      dup4\n      dup3\n      add\n        /* \"#utility.yul\":5129:5168   */\n      mstore\n        /* \"#utility.yul\":5101:5103   */\n      0x20\n        /* \"#utility.yul\":5094:5104   */\n      add\n        /* \"#utility.yul\":5065:5178   */\n      jump(tag_137)\n    tag_139:\n        /* \"#utility.yul\":5196:5202   */\n      dup4\n        /* \"#utility.yul\":5193:5194   */\n      dup2\n        /* \"#utility.yul\":5190:5203   */\n      gt\n        /* \"#utility.yul\":5187:5189   */\n      iszero\n      tag_140\n      jumpi\n        /* \"#utility.yul\":5231:5232   */\n      0x00\n        /* \"#utility.yul\":5222:5228   */\n      dup5\n        /* \"#utility.yul\":5217:5220   */\n      dup5\n        /* \"#utility.yul\":5213:5229   */\n      add\n        /* \"#utility.yul\":5206:5233   */\n      mstore\n        /* \"#utility.yul\":5187:5189   */\n    tag_140:\n      pop\n        /* \"#utility.yul\":5036:5241   */\n      pop\n      pop\n      pop\n      jump\t// out\n        /* \"#utility.yul\":5246:5379   */\n    tag_114:\n      sub(shl(0xa0, 0x01), 0x01)\n        /* \"#utility.yul\":5323:5354   */\n      dup2\n      and\n        /* \"#utility.yul\":5313:5355   */\n      dup2\n      eq\n        /* \"#utility.yul\":5303:5305   */\n      tag_66\n      jumpi\n        /* \"#utility.yul\":5369:5370   */\n      0x00\n        /* \"#utility.yul\":5366:5367   */\n      dup1\n        /* \"#utility.yul\":5359:5371   */\n      revert\n\n    auxdata: 0xa2646970667358221220d717142fa0d759304638ba5fd41f1b42e7b406e03da307460b94d370c285ea7664736f6c63430008010033\n}\n",
				"bytecode": {
					"linkReferences": {},
					"object": "608060405234801561001057600080fd5b5061002161001c610026565b61002a565b61007a565b3390565b600080546001600160a01b038381166001600160a01b0319831681178455604051919092169283917f8be0079c531659141344cd1fd0a4f28419497f9722a3daafe3b4186f6b6457e09190a35050565b61083d806100896000396000f3fe608060405234801561001057600080fd5b50600436106100625760003560e01c80632ab600451461006757806338a631831461007c578063715018a61461009a5780638da5cb5b146100a2578063b2118a8d146100aa578063f2fde38b146100bd575b600080fd5b61007a6100753660046104fa565b6100d0565b005b610084610188565b6040516100919190610592565b60405180910390f35b61007a610197565b6100846101e2565b61007a6100b8366004610536565b6101f1565b61007a6100cb3660046104fa565b610234565b6100d86102a5565b6001600160a01b03166100e96101e2565b6001600160a01b0316146101185760405162461bcd60e51b815260040161010f9061070c565b60405180910390fd5b6001600160a01b03811661013e5760405162461bcd60e51b815260040161010f90610638565b600180546001600160a01b0319166001600160a01b0383169081179091556040517fe475e580d85111348e40d8ca33cfdd74c30fe1655c2d8537a13abc10065ffa5a90600090a250565b6001546001600160a01b031690565b61019f6102a5565b6001600160a01b03166101b06101e2565b6001600160a01b0316146101d65760405162461bcd60e51b815260040161010f9061070c565b6101e060006102a9565b565b6000546001600160a01b031690565b6001546001600160a01b0316331461021b5760405162461bcd60e51b815260040161010f906106c8565b61022f6001600160a01b03841683836102f9565b505050565b61023c6102a5565b6001600160a01b031661024d6101e2565b6001600160a01b0316146102735760405162461bcd60e51b815260040161010f9061070c565b6001600160a01b0381166102995760405162461bcd60e51b815260040161010f906105f2565b6102a2816102a9565b50565b3390565b600080546001600160a01b038381166001600160a01b0319831681178455604051919092169283917f8be0079c531659141344cd1fd0a4f28419497f9722a3daafe3b4186f6b6457e09190a35050565b61022f8363a9059cbb60e01b84846040516024016103189291906105a6565b60408051601f198184030181529190526020810180516001600160e01b03166001600160e01b031990931692909217909152600061039f826040518060400160405280602081526020017f5361666545524332303a206c6f772d6c6576656c2063616c6c206661696c6564815250856001600160a01b03166103d99092919063ffffffff16565b80519091501561022f57808060200190518101906103bd9190610516565b61022f5760405162461bcd60e51b815260040161010f90610778565b60606103e884846000856103f2565b90505b9392505050565b6060824710156104145760405162461bcd60e51b815260040161010f90610682565b61041d856104b2565b6104395760405162461bcd60e51b815260040161010f90610741565b600080866001600160a01b031685876040516104559190610576565b60006040518083038185875af1925050503d8060008114610492576040519150601f19603f3d011682016040523d82523d6000602084013e610497565b606091505b50915091506104a78282866104c1565b979650505050505050565b6001600160a01b03163b151590565b606083156104d05750816103eb565b8251156104e05782518084602001fd5b8160405162461bcd60e51b815260040161010f91906105bf565b60006020828403121561050b578081fd5b81356103eb816107f2565b600060208284031215610527578081fd5b815180151581146103eb578182fd5b60008060006060848603121561054a578182fd5b8335610555816107f2565b92506020840135610565816107f2565b929592945050506040919091013590565b600082516105888184602087016107c2565b9190910192915050565b6001600160a01b0391909116815260200190565b6001600160a01b03929092168252602082015260400190565b60006020825282518060208401526105de8160408501602087016107c2565b601f01601f19169190910160400192915050565b60208082526026908201527f4f776e61626c653a206e6577206f776e657220697320746865207a65726f206160408201526564647265737360d01b606082015260800190565b6020808252602a908201527f526573637561626c653a206e6577207265736375657220697320746865207a65604082015269726f206164647265737360b01b606082015260800190565b60208082526026908201527f416464726573733a20696e73756666696369656e742062616c616e636520666f6040820152651c8818d85b1b60d21b606082015260800190565b60208082526024908201527f526573637561626c653a2063616c6c6572206973206e6f74207468652072657360408201526331bab2b960e11b606082015260800190565b6020808252818101527f4f776e61626c653a2063616c6c6572206973206e6f7420746865206f776e6572604082015260600190565b6020808252601d908201527f416464726573733a2063616c6c20746f206e6f6e2d636f6e7472616374000000604082015260600190565b6020808252602a908201527f5361666545524332303a204552433230206f7065726174696f6e20646964206e6040820152691bdd081cdd58d8d9595960b21b606082015260800190565b60005b838110156107dd5781810151838201526020016107c5565b838111156107ec576000848401525b50505050565b6001600160a01b03811681146102a257600080fdfea2646970667358221220d717142fa0d759304638ba5fd41f1b42e7b406e03da307460b94d370c285ea7664736f6c63430008010033",
					"opcodes": "PUSH1 0x80 PUSH1 0x40 MSTORE CALLVALUE DUP1 ISZERO PUSH2 0x10 JUMPI PUSH1 0x0 DUP1 REVERT JUMPDEST POP PUSH2 0x21 PUSH2 0x1C PUSH2 0x26 JUMP JUMPDEST PUSH2 0x2A JUMP JUMPDEST PUSH2 0x7A JUMP JUMPDEST CALLER SWAP1 JUMP JUMPDEST PUSH1 0x0 DUP1 SLOAD PUSH1 0x1 PUSH1 0x1 PUSH1 0xA0 SHL SUB DUP4 DUP2 AND PUSH1 0x1 PUSH1 0x1 PUSH1 0xA0 SHL SUB NOT DUP4 AND DUP2 OR DUP5 SSTORE PUSH1 0x40 MLOAD SWAP2 SWAP1 SWAP3 AND SWAP3 DUP4 SWAP2 PUSH32 0x8BE0079C531659141344CD1FD0A4F28419497F9722A3DAAFE3B4186F6B6457E0 SWAP2 SWAP1 LOG3 POP POP JUMP JUMPDEST PUSH2 0x83D DUP1 PUSH2 0x89 PUSH1 0x0 CODECOPY PUSH1 0x0 RETURN INVALID PUSH1 0x80 PUSH1 0x40 MSTORE CALLVALUE DUP1 ISZERO PUSH2 0x10 JUMPI PUSH1 0x0 DUP1 REVERT JUMPDEST POP PUSH1 0x4 CALLDATASIZE LT PUSH2 0x62 JUMPI PUSH1 0x0 CALLDATALOAD PUSH1 0xE0 SHR DUP1 PUSH4 0x2AB60045 EQ PUSH2 0x67 JUMPI DUP1 PUSH4 0x38A63183 EQ PUSH2 0x7C JUMPI DUP1 PUSH4 0x715018A6 EQ PUSH2 0x9A JUMPI DUP1 PUSH4 0x8DA5CB5B EQ PUSH2 0xA2 JUMPI DUP1 PUSH4 0xB2118A8D EQ PUSH2 0xAA JUMPI DUP1 PUSH4 0xF2FDE38B EQ PUSH2 0xBD JUMPI JUMPDEST PUSH1 0x0 DUP1 REVERT JUMPDEST PUSH2 0x7A PUSH2 0x75 CALLDATASIZE PUSH1 0x4 PUSH2 0x4FA JUMP JUMPDEST PUSH2 0xD0 JUMP JUMPDEST STOP JUMPDEST PUSH2 0x84 PUSH2 0x188 JUMP JUMPDEST PUSH1 0x40 MLOAD PUSH2 0x91 SWAP2 SWAP1 PUSH2 0x592 JUMP JUMPDEST PUSH1 0x40 MLOAD DUP1 SWAP2 SUB SWAP1 RETURN JUMPDEST PUSH2 0x7A PUSH2 0x197 JUMP JUMPDEST PUSH2 0x84 PUSH2 0x1E2 JUMP JUMPDEST PUSH2 0x7A PUSH2 0xB8 CALLDATASIZE PUSH1 0x4 PUSH2 0x536 JUMP JUMPDEST PUSH2 0x1F1 JUMP JUMPDEST PUSH2 0x7A PUSH2 0xCB CALLDATASIZE PUSH1 0x4 PUSH2 0x4FA JUMP JUMPDEST PUSH2 0x234 JUMP JUMPDEST PUSH2 0xD8 PUSH2 0x2A5 JUMP JUMPDEST PUSH1 0x1 PUSH1 0x1 PUSH1 0xA0 SHL SUB AND PUSH2 0xE9 PUSH2 0x1E2 JUMP JUMPDEST PUSH1 0x1 PUSH1 0x1 PUSH1 0xA0 SHL SUB AND EQ PUSH2 0x118 JUMPI PUSH1 0x40 MLOAD PUSH3 0x461BCD PUSH1 0xE5 SHL DUP2 MSTORE PUSH1 0x4 ADD PUSH2 0x10F SWAP1 PUSH2 0x70C JUMP JUMPDEST PUSH1 0x40 MLOAD DUP1 SWAP2 SUB SWAP1 REVERT JUMPDEST PUSH1 0x1 PUSH1 0x1 PUSH1 0xA0 SHL SUB DUP2 AND PUSH2 0x13E JUMPI PUSH1 0x40 MLOAD PUSH3 0x461BCD PUSH1 0xE5 SHL DUP2 MSTORE PUSH1 0x4 ADD PUSH2 0x10F SWAP1 PUSH2 0x638 JUMP JUMPDEST PUSH1 0x1 DUP1 SLOAD PUSH1 0x1 PUSH1 0x1 PUSH1 0xA0 SHL SUB NOT AND PUSH1 0x1 PUSH1 0x1 PUSH1 0xA0 SHL SUB DUP4 AND SWAP1 DUP2 OR SWAP1 SWAP2 SSTORE PUSH1 0x40 MLOAD PUSH32 0xE475E580D85111348E40D8CA33CFDD74C30FE1655C2D8537A13ABC10065FFA5A SWAP1 PUSH1 0x0 SWAP1 LOG2 POP JUMP JUMPDEST PUSH1 0x1 SLOAD PUSH1 0x1 PUSH1 0x1 PUSH1 0xA0 SHL SUB AND SWAP1 JUMP JUMPDEST PUSH2 0x19F PUSH2 0x2A5 JUMP JUMPDEST PUSH1 0x1 PUSH1 0x1 PUSH1 0xA0 SHL SUB AND PUSH2 0x1B0 PUSH2 0x1E2 JUMP JUMPDEST PUSH1 0x1 PUSH1 0x1 PUSH1 0xA0 SHL SUB AND EQ PUSH2 0x1D6 JUMPI PUSH1 0x40 MLOAD PUSH3 0x461BCD PUSH1 0xE5 SHL DUP2 MSTORE PUSH1 0x4 ADD PUSH2 0x10F SWAP1 PUSH2 0x70C JUMP JUMPDEST PUSH2 0x1E0 PUSH1 0x0 PUSH2 0x2A9 JUMP JUMPDEST JUMP JUMPDEST PUSH1 0x0 SLOAD PUSH1 0x1 PUSH1 0x1 PUSH1 0xA0 SHL SUB AND SWAP1 JUMP JUMPDEST PUSH1 0x1 SLOAD PUSH1 0x1 PUSH1 0x1 PUSH1 0xA0 SHL SUB AND CALLER EQ PUSH2 0x21B JUMPI PUSH1 0x40 MLOAD PUSH3 0x461BCD PUSH1 0xE5 SHL DUP2 MSTORE PUSH1 0x4 ADD PUSH2 0x10F SWAP1 PUSH2 0x6C8 JUMP JUMPDEST PUSH2 0x22F PUSH1 0x1 PUSH1 0x1 PUSH1 0xA0 SHL SUB DUP5 AND DUP4 DUP4 PUSH2 0x2F9 JUMP JUMPDEST POP POP POP JUMP JUMPDEST PUSH2 0x23C PUSH2 0x2A5 JUMP JUMPDEST PUSH1 0x1 PUSH1 0x1 PUSH1 0xA0 SHL SUB AND PUSH2 0x24D PUSH2 0x1E2 JUMP JUMPDEST PUSH1 0x1 PUSH1 0x1 PUSH1 0xA0 SHL SUB AND EQ PUSH2 0x273 JUMPI PUSH1 0x40 MLOAD PUSH3 0x461BCD PUSH1 0xE5 SHL DUP2 MSTORE PUSH1 0x4 ADD PUSH2 0x10F SWAP1 PUSH2 0x70C JUMP JUMPDEST PUSH1 0x1 PUSH1 0x1 PUSH1 0xA0 SHL SUB DUP2 AND PUSH2 0x299 JUMPI PUSH1 0x40 MLOAD PUSH3 0x461BCD PUSH1 0xE5 SHL DUP2 MSTORE PUSH1 0x4 ADD PUSH2 0x10F SWAP1 PUSH2 0x5F2 JUMP JUMPDEST PUSH2 0x2A2 DUP2 PUSH2 0x2A9 JUMP JUMPDEST POP JUMP JUMPDEST CALLER SWAP1 JUMP JUMPDEST PUSH1 0x0 DUP1 SLOAD PUSH1 0x1 PUSH1 0x1 PUSH1 0xA0 SHL SUB DUP4 DUP2 AND PUSH1 0x1 PUSH1 0x1 PUSH1 0xA0 SHL SUB NOT DUP4 AND DUP2 OR DUP5 SSTORE PUSH1 0x40 MLOAD SWAP2 SWAP1 SWAP3 AND SWAP3 DUP4 SWAP2 PUSH32 0x8BE0079C531659141344CD1FD0A4F28419497F9722A3DAAFE3B4186F6B6457E0 SWAP2 SWAP1 LOG3 POP POP JUMP JUMPDEST PUSH2 0x22F DUP4 PUSH4 0xA9059CBB PUSH1 0xE0 SHL DUP5 DUP5 PUSH1 0x40 MLOAD PUSH1 0x24 ADD PUSH2 0x318 SWAP3 SWAP2 SWAP1 PUSH2 0x5A6 JUMP JUMPDEST PUSH1 0x40 DUP1 MLOAD PUSH1 0x1F NOT DUP2 DUP5 SUB ADD DUP2 MSTORE SWAP2 SWAP1 MSTORE PUSH1 0x20 DUP2 ADD DUP1 MLOAD PUSH1 0x1 PUSH1 0x1 PUSH1 0xE0 SHL SUB AND PUSH1 0x1 PUSH1 0x1 PUSH1 0xE0 SHL SUB NOT SWAP1 SWAP4 AND SWAP3 SWAP1 SWAP3 OR SWAP1 SWAP2 MSTORE PUSH1 0x0 PUSH2 0x39F DUP3 PUSH1 0x40 MLOAD DUP1 PUSH1 0x40 ADD PUSH1 0x40 MSTORE DUP1 PUSH1 0x20 DUP2 MSTORE PUSH1 0x20 ADD PUSH32 0x5361666545524332303A206C6F772D6C6576656C2063616C6C206661696C6564 DUP2 MSTORE POP DUP6 PUSH1 0x1 PUSH1 0x1 PUSH1 0xA0 SHL SUB AND PUSH2 0x3D9 SWAP1 SWAP3 SWAP2 SWAP1 PUSH4 0xFFFFFFFF AND JUMP JUMPDEST DUP1 MLOAD SWAP1 SWAP2 POP ISZERO PUSH2 0x22F JUMPI DUP1 DUP1 PUSH1 0x20 ADD SWAP1 MLOAD DUP2 ADD SWAP1 PUSH2 0x3BD SWAP2 SWAP1 PUSH2 0x516 JUMP JUMPDEST PUSH2 0x22F JUMPI PUSH1 0x40 MLOAD PUSH3 0x461BCD PUSH1 0xE5 SHL DUP2 MSTORE PUSH1 0x4 ADD PUSH2 0x10F SWAP1 PUSH2 0x778 JUMP JUMPDEST PUSH1 0x60 PUSH2 0x3E8 DUP5 DUP5 PUSH1 0x0 DUP6 PUSH2 0x3F2 JUMP JUMPDEST SWAP1 POP JUMPDEST SWAP4 SWAP3 POP POP POP JUMP JUMPDEST PUSH1 0x60 DUP3 SELFBALANCE LT ISZERO PUSH2 0x414 JUMPI PUSH1 0x40 MLOAD PUSH3 0x461BCD PUSH1 0xE5 SHL DUP2 MSTORE PUSH1 0x4 ADD PUSH2 0x10F SWAP1 PUSH2 0x682 JUMP JUMPDEST PUSH2 0x41D DUP6 PUSH2 0x4B2 JUMP JUMPDEST PUSH2 0x439 JUMPI PUSH1 0x40 MLOAD PUSH3 0x461BCD PUSH1 0xE5 SHL DUP2 MSTORE PUSH1 0x4 ADD PUSH2 0x10F SWAP1 PUSH2 0x741 JUMP JUMPDEST PUSH1 0x0 DUP1 DUP7 PUSH1 0x1 PUSH1 0x1 PUSH1 0xA0 SHL SUB AND DUP6 DUP8 PUSH1 0x40 MLOAD PUSH2 0x455 SWAP2 SWAP1 PUSH2 0x576 JUMP JUMPDEST PUSH1 0x0 PUSH1 0x40 MLOAD DUP1 DUP4 SUB DUP2 DUP6 DUP8 GAS CALL SWAP3 POP POP POP RETURNDATASIZE DUP1 PUSH1 0x0 DUP2 EQ PUSH2 0x492 JUMPI PUSH1 0x40 MLOAD SWAP2 POP PUSH1 0x1F NOT PUSH1 0x3F RETURNDATASIZE ADD AND DUP3 ADD PUSH1 0x40 MSTORE RETURNDATASIZE DUP3 MSTORE RETURNDATASIZE PUSH1 0x0 PUSH1 0x20 DUP5 ADD RETURNDATACOPY PUSH2 0x497 JUMP JUMPDEST PUSH1 0x60 SWAP2 POP JUMPDEST POP SWAP2 POP SWAP2 POP PUSH2 0x4A7 DUP3 DUP3 DUP7 PUSH2 0x4C1 JUMP JUMPDEST SWAP8 SWAP7 POP POP POP POP POP POP POP JUMP JUMPDEST PUSH1 0x1 PUSH1 0x1 PUSH1 0xA0 SHL SUB AND EXTCODESIZE ISZERO ISZERO SWAP1 JUMP JUMPDEST PUSH1 0x60 DUP4 ISZERO PUSH2 0x4D0 JUMPI POP DUP2 PUSH2 0x3EB JUMP JUMPDEST DUP3 MLOAD ISZERO PUSH2 0x4E0 JUMPI DUP3 MLOAD DUP1 DUP5 PUSH1 0x20 ADD REVERT JUMPDEST DUP2 PUSH1 0x40 MLOAD PUSH3 0x461BCD PUSH1 0xE5 SHL DUP2 MSTORE PUSH1 0x4 ADD PUSH2 0x10F SWAP2 SWAP1 PUSH2 0x5BF JUMP JUMPDEST PUSH1 0x0 PUSH1 0x20 DUP3 DUP5 SUB SLT ISZERO PUSH2 0x50B JUMPI DUP1 DUP2 REVERT JUMPDEST DUP2 CALLDATALOAD PUSH2 0x3EB DUP2 PUSH2 0x7F2 JUMP JUMPDEST PUSH1 0x0 PUSH1 0x20 DUP3 DUP5 SUB SLT ISZERO PUSH2 0x527 JUMPI DUP1 DUP2 REVERT JUMPDEST DUP2 MLOAD DUP1 ISZERO ISZERO DUP2 EQ PUSH2 0x3EB JUMPI DUP2 DUP3 REVERT JUMPDEST PUSH1 0x0 DUP1 PUSH1 0x0 PUSH1 0x60 DUP5 DUP7 SUB SLT ISZERO PUSH2 0x54A JUMPI DUP2 DUP3 REVERT JUMPDEST DUP4 CALLDATALOAD PUSH2 0x555 DUP2 PUSH2 0x7F2 JUMP JUMPDEST SWAP3 POP PUSH1 0x20 DUP5 ADD CALLDATALOAD PUSH2 0x565 DUP2 PUSH2 0x7F2 JUMP JUMPDEST SWAP3 SWAP6 SWAP3 SWAP5 POP POP POP PUSH1 0x40 SWAP2 SWAP1 SWAP2 ADD CALLDATALOAD SWAP1 JUMP JUMPDEST PUSH1 0x0 DUP3 MLOAD PUSH2 0x588 DUP2 DUP5 PUSH1 0x20 DUP8 ADD PUSH2 0x7C2 JUMP JUMPDEST SWAP2 SWAP1 SWAP2 ADD SWAP3 SWAP2 POP POP JUMP JUMPDEST PUSH1 0x1 PUSH1 0x1 PUSH1 0xA0 SHL SUB SWAP2 SWAP1 SWAP2 AND DUP2 MSTORE PUSH1 0x20 ADD SWAP1 JUMP JUMPDEST PUSH1 0x1 PUSH1 0x1 PUSH1 0xA0 SHL SUB SWAP3 SWAP1 SWAP3 AND DUP3 MSTORE PUSH1 0x20 DUP3 ADD MSTORE PUSH1 0x40 ADD SWAP1 JUMP JUMPDEST PUSH1 0x0 PUSH1 0x20 DUP3 MSTORE DUP3 MLOAD DUP1 PUSH1 0x20 DUP5 ADD MSTORE PUSH2 0x5DE DUP2 PUSH1 0x40 DUP6 ADD PUSH1 0x20 DUP8 ADD PUSH2 0x7C2 JUMP JUMPDEST PUSH1 0x1F ADD PUSH1 0x1F NOT AND SWAP2 SWAP1 SWAP2 ADD PUSH1 0x40 ADD SWAP3 SWAP2 POP POP JUMP JUMPDEST PUSH1 0x20 DUP1 DUP3 MSTORE PUSH1 0x26 SWAP1 DUP3 ADD MSTORE PUSH32 0x4F776E61626C653A206E6577206F776E657220697320746865207A65726F2061 PUSH1 0x40 DUP3 ADD MSTORE PUSH6 0x646472657373 PUSH1 0xD0 SHL PUSH1 0x60 DUP3 ADD MSTORE PUSH1 0x80 ADD SWAP1 JUMP JUMPDEST PUSH1 0x20 DUP1 DUP3 MSTORE PUSH1 0x2A SWAP1 DUP3 ADD MSTORE PUSH32 0x526573637561626C653A206E6577207265736375657220697320746865207A65 PUSH1 0x40 DUP3 ADD MSTORE PUSH10 0x726F2061646472657373 PUSH1 0xB0 SHL PUSH1 0x60 DUP3 ADD MSTORE PUSH1 0x80 ADD SWAP1 JUMP JUMPDEST PUSH1 0x20 DUP1 DUP3 MSTORE PUSH1 0x26 SWAP1 DUP3 ADD MSTORE PUSH32 0x416464726573733A20696E73756666696369656E742062616C616E636520666F PUSH1 0x40 DUP3 ADD MSTORE PUSH6 0x1C8818D85B1B PUSH1 0xD2 SHL PUSH1 0x60 DUP3 ADD MSTORE PUSH1 0x80 ADD SWAP1 JUMP JUMPDEST PUSH1 0x20 DUP1 DUP3 MSTORE PUSH1 0x24 SWAP1 DUP3 ADD MSTORE PUSH32 0x526573637561626C653A2063616C6C6572206973206E6F742074686520726573 PUSH1 0x40 DUP3 ADD MSTORE PUSH4 0x31BAB2B9 PUSH1 0xE1 SHL PUSH1 0x60 DUP3 ADD MSTORE PUSH1 0x80 ADD SWAP1 JUMP JUMPDEST PUSH1 0x20 DUP1 DUP3 MSTORE DUP2 DUP2 ADD MSTORE PUSH32 0x4F776E61626C653A2063616C6C6572206973206E6F7420746865206F776E6572 PUSH1 0x40 DUP3 ADD MSTORE PUSH1 0x60 ADD SWAP1 JUMP JUMPDEST PUSH1 0x20 DUP1 DUP3 MSTORE PUSH1 0x1D SWAP1 DUP3 ADD MSTORE PUSH32 0x416464726573733A2063616C6C20746F206E6F6E2D636F6E7472616374000000 PUSH1 0x40 DUP3 ADD MSTORE PUSH1 0x60 ADD SWAP1 JUMP JUMPDEST PUSH1 0x20 DUP1 DUP3 MSTORE PUSH1 0x2A SWAP1 DUP3 ADD MSTORE PUSH32 0x5361666545524332303A204552433230206F7065726174696F6E20646964206E PUSH1 0x40 DUP3 ADD MSTORE PUSH10 0x1BDD081CDD58D8D95959 PUSH1 0xB2 SHL PUSH1 0x60 DUP3 ADD MSTORE PUSH1 0x80 ADD SWAP1 JUMP JUMPDEST PUSH1 0x0 JUMPDEST DUP4 DUP2 LT ISZERO PUSH2 0x7DD JUMPI DUP2 DUP2 ADD MLOAD DUP4 DUP3 ADD MSTORE PUSH1 0x20 ADD PUSH2 0x7C5 JUMP JUMPDEST DUP4 DUP2 GT ISZERO PUSH2 0x7EC JUMPI PUSH1 0x0 DUP5 DUP5 ADD MSTORE JUMPDEST POP POP POP POP JUMP JUMPDEST PUSH1 0x1 PUSH1 0x1 PUSH1 0xA0 SHL SUB DUP2 AND DUP2 EQ PUSH2 0x2A2 JUMPI PUSH1 0x0 DUP1 REVERT INVALID LOG2 PUSH5 0x6970667358 0x22 SLT KECCAK256 0xD7 OR EQ 0x2F LOG0 0xD7 MSIZE ADDRESS CHAINID CODESIZE 0xBA 0x5F 0xD4 0x1F SHL TIMESTAMP 0xE7 0xB4 MOD 0xE0 RETURNDATASIZE LOG3 SMOD CHAINID SIGNEXTEND SWAP5 0xD3 PUSH17 0xC285EA7664736F6C634300080100330000 "
				},
				"gasEstimates": {
					"creation": {
						"codeDepositCost": "421800",
						"executionCost": "22923",
						"totalCost": "444723"
					},
					"external": {
						"owner()": "1114",
						"renounceOwnership()": "23526",
						"rescueERC20(address,address,uint256)": "infinite",
						"rescuer()": "1070",
						"transferOwnership(address)": "infinite",
						"updateRescuer(address)": "23247"
					}
				},
				"methodIdentifiers": {
					"owner()": "8da5cb5b",
					"renounceOwnership()": "715018a6",
					"rescueERC20(address,address,uint256)": "b2118a8d",
					"rescuer()": "38a63183",
					"transferOwnership(address)": "f2fde38b",
					"updateRescuer(address)": "2ab60045"
				}
			},
			"storageLayout": {
				"storage": [
					{
						"astId": 557,
						"contract": "Rescuable.sol:Rescuable",
						"label": "_owner",
						"offset": 0,
						"slot": "0",
						"type": "t_address"
					},
					{
						"astId": 785,
						"contract": "Rescuable.sol:Rescuable",
						"label": "_rescuer",
						"offset": 0,
						"slot": "1",
						"type": "t_address"
					}
				],
				"types": {
					"t_address": {
						"encoding": "inplace",
						"label": "address",
						"numberOfBytes": "20"
					}
				}
			},
			"userdoc": {
				"kind": "user",
				"methods": {
					"rescueERC20(address,address,uint256)": {
						"notice": "Rescue ERC20 tokens locked up in this contract."
					},
					"rescuer()": {
						"notice": "Returns current rescuer"
					},
					"updateRescuer(address)": {
						"notice": "Assign the rescuer role to a given address."
					}
				},
				"version": 1
			}
		}
	}
}