{
	"USDm.sol": {
		"USDm": {
			"abi": [
				{
					"anonymous": false,
					"inputs": [
						{
							"indexed": true,
							"internalType": "address",
							"name": "owner",
							"type": "address"
						},
						{
							"indexed": true,
							"internalType": "address",
							"name": "spender",
							"type": "address"
						},
						{
							"indexed": false,
							"internalType": "uint256",
							"name": "value",
							"type": "uint256"
						}
					],
					"name": "Approval",
					"type": "event"
				},
				{
					"anonymous": false,
					"inputs": [
						{
							"indexed": true,
							"internalType": "address",
							"name": "_account",
							"type": "address"
						}
					],
					"name": "Blacklisted",
					"type": "event"
				},
				{
					"anonymous": false,
					"inputs": [
						{
							"indexed": true,
							"internalType": "address",
							"name": "newBlacklister",
							"type": "address"
						}
					],
					"name": "BlacklisterChanged",
					"type": "event"
				},
				{
					"anonymous": false,
					"inputs": [
						{
							"indexed": true,
							"internalType": "address",
							"name": "burner",
							"type": "address"
						},
						{
							"indexed": false,
							"internalType": "uint256",
							"name": "amount",
							"type": "uint256"
						}
					],
					"name": "Burn",
					"type": "event"
				},
				{
					"anonymous": false,
					"inputs": [
						{
							"indexed": true,
							"internalType": "address",
							"name": "newMasterMinter",
							"type": "address"
						}
					],
					"name": "MasterMinterChanged",
					"type": "event"
				},
				{
					"anonymous": false,
					"inputs": [
						{
							"indexed": true,
							"internalType": "address",
							"name": "minter",
							"type": "address"
						},
						{
							"indexed": true,
							"internalType": "address",
							"name": "to",
							"type": "address"
						},
						{
							"indexed": false,
							"internalType": "uint256",
							"name": "amount",
							"type": "uint256"
						}
					],
					"name": "Mint",
					"type": "event"
				},
				{
					"anonymous": false,
					"inputs": [
						{
							"indexed": true,
							"internalType": "address",
							"name": "masterMinter",
							"type": "address"
						},
						{
							"indexed": true,
							"internalType": "address",
							"name": "to",
							"type": "address"
						},
						{
							"indexed": false,
							"internalType": "uint256",
							"name": "amount",
							"type": "uint256"
						}
					],
					"name": "MintByMaster",
					"type": "event"
				},
				{
					"anonymous": false,
					"inputs": [
						{
							"indexed": true,
							"internalType": "address",
							"name": "minter",
							"type": "address"
						},
						{
							"indexed": false,
							"internalType": "uint256",
							"name": "minterAllowedAmount",
							"type": "uint256"
						}
					],
					"name": "MinterConfigured",
					"type": "event"
				},
				{
					"anonymous": false,
					"inputs": [
						{
							"indexed": true,
							"internalType": "address",
							"name": "oldMinter",
							"type": "address"
						}
					],
					"name": "MinterRemoved",
					"type": "event"
				},
				{
					"anonymous": false,
					"inputs": [
						{
							"indexed": true,
							"internalType": "address",
							"name": "previousOwner",
							"type": "address"
						},
						{
							"indexed": true,
							"internalType": "address",
							"name": "newOwner",
							"type": "address"
						}
					],
					"name": "OwnershipTransferred",
					"type": "event"
				},
				{
					"anonymous": false,
					"inputs": [
						{
							"indexed": false,
							"internalType": "address",
							"name": "account",
							"type": "address"
						}
					],
					"name": "Paused",
					"type": "event"
				},
				{
					"anonymous": false,
					"inputs": [
						{
							"indexed": true,
							"internalType": "address",
							"name": "newAddress",
							"type": "address"
						}
					],
					"name": "PauserChanged",
					"type": "event"
				},
				{
					"anonymous": false,
					"inputs": [
						{
							"indexed": true,
							"internalType": "address",
							"name": "newRescuer",
							"type": "address"
						}
					],
					"name": "RescuerChanged",
					"type": "event"
				},
				{
					"anonymous": false,
					"inputs": [
						{
							"indexed": true,
							"internalType": "address",
							"name": "from",
							"type": "address"
						},
						{
							"indexed": true,
							"internalType": "address",
							"name": "to",
							"type": "address"
						},
						{
							"indexed": false,
							"internalType": "uint256",
							"name": "value",
							"type": "uint256"
						}
					],
					"name": "Transfer",
					"type": "event"
				},
				{
					"anonymous": false,
					"inputs": [
						{
							"indexed": true,
							"internalType": "address",
							"name": "_account",
							"type": "address"
						}
					],
					"name": "UnBlacklisted",
					"type": "event"
				},
				{
					"anonymous": false,
					"inputs": [
						{
							"indexed": false,
							"internalType": "address",
							"name": "account",
							"type": "address"
						}
					],
					"name": "Unpaused",
					"type": "event"
				},
				{
					"inputs": [
						{
							"internalType": "address",
							"name": "owner",
							"type": "address"
						},
						{
							"internalType": "address",
							"name": "spender",
							"type": "address"
						}
					],
					"name": "allowance",
					"outputs": [
						{
							"internalType": "uint256",
							"name": "",
							"type": "uint256"
						}
					],
					"stateMutability": "view",
					"type": "function"
				},
				{
					"inputs": [
						{
							"internalType": "address",
							"name": "spender",
							"type": "address"
						},
						{
							"internalType": "uint256",
							"name": "value",
							"type": "uint256"
						}
					],
					"name": "approve",
					"outputs": [
						{
							"internalType": "bool",
							"name": "",
							"type": "bool"
						}
					],
					"stateMutability": "nonpayable",
					"type": "function"
				},
				{
					"inputs": [
						{
							"internalType": "address",
							"name": "account",
							"type": "address"
						}
					],
					"name": "balanceOf",
					"outputs": [
						{
							"internalType": "uint256",
							"name": "",
							"type": "uint256"
						}
					],
					"stateMutability": "view",
					"type": "function"
				},
				{
					"inputs": [
						{
							"internalType": "address",
							"name": "_account",
							"type": "address"
						}
					],
					"name": "blacklist",
					"outputs": [],
					"stateMutability": "nonpayable",
					"type": "function"
				},
				{
					"inputs": [],
					"name": "blacklister",
					"outputs": [
						{
							"internalType": "address",
							"name": "",
							"type": "address"
						}
					],
					"stateMutability": "view",
					"type": "function"
				},
				{
					"inputs": [
						{
							"internalType": "uint256",
							"name": "_amount",
							"type": "uint256"
						}
					],
					"name": "burn",
					"outputs": [],
					"stateMutability": "nonpayable",
					"type": "function"
				},
				{
					"inputs": [
						{
							"internalType": "address",
							"name": "minter",
							"type": "address"
						},
						{
							"internalType": "uint256",
							"name": "minterAllowedAmount",
							"type": "uint256"
						}
					],
					"name": "configureMinter",
					"outputs": [
						{
							"internalType": "bool",
							"name": "",
							"type": "bool"
						}
					],
					"stateMutability": "nonpayable",
					"type": "function"
				},
				{
					"inputs": [],
					"name": "currency",
					"outputs": [
						{
							"internalType": "string",
							"name": "",
							"type": "string"
						}
					],
					"stateMutability": "view",
					"type": "function"
				},
				{
					"inputs": [],
					"name": "decimals",
					"outputs": [
						{
							"internalType": "uint8",
							"name": "",
							"type": "uint8"
						}
					],
					"stateMutability": "view",
					"type": "function"
				},
				{
					"inputs": [
						{
							"internalType": "string",
							"name": "tokenName",
							"type": "string"
						},
						{
							"internalType": "string",
							"name": "tokenSymbol",
							"type": "string"
						},
						{
							"internalType": "string",
							"name": "tokenCurrency",
							"type": "string"
						},
						{
							"internalType": "uint8",
							"name": "tokenDecimals",
							"type": "uint8"
						},
						{
							"internalType": "address",
							"name": "newMasterMinter",
							"type": "address"
						},
						{
							"internalType": "address",
							"name": "newPauser",
							"type": "address"
						},
						{
							"internalType": "address",
							"name": "newBlacklister",
							"type": "address"
						},
						{
							"internalType": "address",
							"name": "newOwner",
							"type": "address"
						}
					],
					"name": "initialize",
					"outputs": [],
					"stateMutability": "nonpayable",
					"type": "function"
				},
				{
					"inputs": [
						{
							"internalType": "address",
							"name": "_account",
							"type": "address"
						}
					],
					"name": "isBlacklisted",
					"outputs": [
						{
							"internalType": "bool",
							"name": "",
							"type": "bool"
						}
					],
					"stateMutability": "view",
					"type": "function"
				},
				{
					"inputs": [
						{
							"internalType": "address",
							"name": "account",
							"type": "address"
						}
					],
					"name": "isMinter",
					"outputs": [
						{
							"internalType": "bool",
							"name": "",
							"type": "bool"
						}
					],
					"stateMutability": "view",
					"type": "function"
				},
				{
					"inputs": [],
					"name": "masterMinter",
					"outputs": [
						{
							"internalType": "address",
							"name": "",
							"type": "address"
						}
					],
					"stateMutability": "view",
					"type": "function"
				},
				{
					"inputs": [
						{
							"internalType": "address",
							"name": "_to",
							"type": "address"
						},
						{
							"internalType": "uint256",
							"name": "_amount",
							"type": "uint256"
						}
					],
					"name": "mint",
					"outputs": [
						{
							"internalType": "bool",
							"name": "",
							"type": "bool"
						}
					],
					"stateMutability": "nonpayable",
					"type": "function"
				},
				{
					"inputs": [
						{
							"internalType": "address",
							"name": "minter",
							"type": "address"
						}
					],
					"name": "minterAllowance",
					"outputs": [
						{
							"internalType": "uint256",
							"name": "",
							"type": "uint256"
						}
					],
					"stateMutability": "view",
					"type": "function"
				},
				{
					"inputs": [],
					"name": "name",
					"outputs": [
						{
							"internalType": "string",
							"name": "",
							"type": "string"
						}
					],
					"stateMutability": "view",
					"type": "function"
				},
				{
					"inputs": [],
					"name": "owner",
					"outputs": [
						{
							"internalType": "address",
							"name": "",
							"type": "address"
						}
					],
					"stateMutability": "view",
					"type": "function"
				},
				{
					"inputs": [],
					"name": "paused",
					"outputs": [
						{
							"internalType": "bool",
							"name": "",
							"type": "bool"
						}
					],
					"stateMutability": "view",
					"type": "function"
				},
				{
					"inputs": [],
					"name": "pauser",
					"outputs": [
						{
							"internalType": "address",
							"name": "",
							"type": "address"
						}
					],
					"stateMutability": "view",
					"type": "function"
				},
				{
					"inputs": [
						{
							"internalType": "address",
							"name": "minter",
							"type": "address"
						}
					],
					"name": "removeMinter",
					"outputs": [
						{
							"internalType": "bool",
							"name": "",
							"type": "bool"
						}
					],
					"stateMutability": "nonpayable",
					"type": "function"
				},
				{
					"inputs": [],
					"name": "renounceOwnership",
					"outputs": [],
					"stateMutability": "nonpayable",
					"type": "function"
				},
				{
					"inputs": [
						{
							"internalType": "contract IERC20",
							"name": "tokenContract",
							"type": "address"
						},
						{
							"internalType": "address",
							"name": "to",
							"type": "address"
						},
						{
							"internalType": "uint256",
							"name": "amount",
							"type": "uint256"
						}
					],
					"name": "rescueERC20",
					"outputs": [],
					"stateMutability": "nonpayable",
					"type": "function"
				},
				{
					"inputs": [],
					"name": "rescuer",
					"outputs": [
						{
							"internalType": "address",
							"name": "",
							"type": "address"
						}
					],
					"stateMutability": "view",
					"type": "function"
				},
				{
					"inputs": [],
					"name": "symbol",
					"outputs": [
						{
							"internalType": "string",
							"name": "",
							"type": "string"
						}
					],
					"stateMutability": "view",
					"type": "function"
				},
				{
					"inputs": [],
					"name": "totalSupply",
					"outputs": [
						{
							"internalType": "uint256",
							"name": "",
							"type": "uint256"
						}
					],
					"stateMutability": "view",
					"type": "function"
				},
				{
					"inputs": [
						{
							"internalType": "address",
							"name": "to",
							"type": "address"
						},
						{
							"internalType": "uint256",
							"name": "value",
							"type": "uint256"
						}
					],
					"name": "transfer",
					"outputs": [
						{
							"internalType": "bool",
							"name": "",
							"type": "bool"
						}
					],
					"stateMutability": "nonpayable",
					"type": "function"
				},
				{
					"inputs": [
						{
							"internalType": "address",
							"name": "from",
							"type": "address"
						},
						{
							"internalType": "address",
							"name": "to",
							"type": "address"
						},
						{
							"internalType": "uint256",
							"name": "value",
							"type": "uint256"
						}
					],
					"name": "transferFrom",
					"outputs": [
						{
							"internalType": "bool",
							"name": "",
							"type": "bool"
						}
					],
					"stateMutability": "nonpayable",
					"type": "function"
				},
				{
					"inputs": [
						{
							"internalType": "address",
							"name": "newOwner",
							"type": "address"
						}
					],
					"name": "transferOwnership",
					"outputs": [],
					"stateMutability": "nonpayable",
					"type": "function"
				},
				{
					"inputs": [
						{
							"internalType": "address",
							"name": "_account",
							"type": "address"
						}
					],
					"name": "unBlacklist",
					"outputs": [],
					"stateMutability": "nonpayable",
					"type": "function"
				},
				{
					"inputs": [
						{
							"internalType": "address",
							"name": "_newBlacklister",
							"type": "address"
						}
					],
					"name": "updateBlacklister",
					"outputs": [],
					"stateMutability": "nonpayable",
					"type": "function"
				},
				{
					"inputs": [
						{
							"internalType": "address",
							"name": "_newMasterMinter",
							"type": "address"
						}
					],
					"name": "updateMasterMinter",
					"outputs": [],
					"stateMutability": "nonpayable",
					"type": "function"
				},
				{
					"inputs": [
						{
							"internalType": "address",
							"name": "newRescuer",
							"type": "address"
						}
					],
					"name": "updateRescuer",
					"outputs": [],
					"stateMutability": "nonpayable",
					"type": "function"
				}
			],
			"devdoc": {
				"details": "ERC20 Token backed by fiat reserves",
				"kind": "dev",
				"methods": {
					"allowance(address,address)": {
						"params": {
							"owner": "Token owner's address",
							"spender": "Spender's address"
						},
						"returns": {
							"_0": "Allowance amount"
						}
					},
					"approve(address,uint256)": {
						"params": {
							"spender": "Spender's address",
							"value": "Allowance amount"
						},
						"returns": {
							"_0": "True if successful"
						}
					},
					"balanceOf(address)": {
						"details": "Get token balance of an account",
						"params": {
							"account": "address The account"
						}
					},
					"blacklist(address)": {
						"details": "Adds account to blacklist",
						"params": {
							"_account": "The address to blacklist"
						}
					},
					"burn(uint256)": {
						"details": "allows a minter to burn some of its own tokens Validates that caller is a minter and that sender is not blacklisted amount is less than or equal to the minter's account balance",
						"params": {
							"_amount": "uint256 the amount of tokens to be burned"
						}
					},
					"configureMinter(address,uint256)": {
						"details": "Function to add/update a new minter",
						"params": {
							"minter": "The address of the minter",
							"minterAllowedAmount": "The minting amount allowed for the minter"
						},
						"returns": {
							"_0": "True if the operation was successful."
						}
					},
					"isBlacklisted(address)": {
						"details": "Checks if account is blacklisted",
						"params": {
							"_account": "The address to check"
						}
					},
					"isMinter(address)": {
						"details": "Checks if account is a minter",
						"params": {
							"account": "The address to check"
						}
					},
					"mint(address,uint256)": {
						"details": "Function to mint tokens",
						"params": {
							"_amount": "The amount of tokens to mint. Must be less than or equal to the minterAllowance of the caller.",
							"_to": "The address that will receive the minted tokens."
						},
						"returns": {
							"_0": "A boolean that indicates if the operation was successful."
						}
					},
					"minterAllowance(address)": {
						"details": "Get minter allowance for an account",
						"params": {
							"minter": "The address of the minter"
						}
					},
					"owner()": {
						"details": "Returns the address of the current owner."
					},
					"paused()": {
						"details": "Returns true if the contract is paused, and false otherwise."
					},
					"removeMinter(address)": {
						"details": "Function to remove a minter",
						"params": {
							"minter": "The address of the minter to remove"
						},
						"returns": {
							"_0": "True if the operation was successful."
						}
					},
					"renounceOwnership()": {
						"details": "Leaves the contract without owner. It will not be possible to call `onlyOwner` functions anymore. Can only be called by the current owner. NOTE: Renouncing ownership will leave the contract without an owner, thereby removing any functionality that is only available to the owner."
					},
					"rescueERC20(address,address,uint256)": {
						"params": {
							"amount": "Amount to withdraw",
							"to": "Recipient address",
							"tokenContract": "ERC20 token contract address"
						}
					},
					"rescuer()": {
						"returns": {
							"_0": "Rescuer's address"
						}
					},
					"totalSupply()": {
						"details": "Get totalSupply of token"
					},
					"transfer(address,uint256)": {
						"params": {
							"to": "Payee's address",
							"value": "Transfer amount"
						},
						"returns": {
							"_0": "True if successful"
						}
					},
					"transferFrom(address,address,uint256)": {
						"params": {
							"from": "Payer's address",
							"to": "Payee's address",
							"value": "Transfer amount"
						},
						"returns": {
							"_0": "True if successful"
						}
					},
					"transferOwnership(address)": {
						"details": "Transfers ownership of the contract to a new account (`newOwner`). Can only be called by the current owner."
					},
					"unBlacklist(address)": {
						"details": "Removes account from blacklist",
						"params": {
							"_account": "The address to remove from the blacklist"
						}
					},
					"updateRescuer(address)": {
						"params": {
							"newRescuer": "New rescuer's address"
						}
					}
				},
				"title": "USDm",
				"version": 1
			},
			"evm": {
				"assembly": "    /* \"USDm.sol\":1417:11890  contract USDm is AbstractUSDm, Ownable, Pausable, Blacklistable, Rescuable {\r... */\n  mstore(0x40, 0x80)\n    /* \"USDm.sol\":1833:1834  0 */\n  0x00\n    /* \"USDm.sol\":1801:1834  uint256 internal totalSupply_ = 0 */\n  0x0c\n  sstore\n    /* \"USDm.sol\":1417:11890  contract USDm is AbstractUSDm, Ownable, Pausable, Blacklistable, Rescuable {\r... */\n  callvalue\n  dup1\n  iszero\n  tag_1\n  jumpi\n  0x00\n  dup1\n  revert\ntag_1:\n  pop\n    /* \"Ownable.sol\":942:974  _transferOwnership(_msgSender()) */\n  tag_5\n    /* \"Ownable.sol\":961:973  _msgSender() */\n  tag_6\n    /* \"Ownable.sol\":961:971  _msgSender */\n  tag_7\n    /* \"Ownable.sol\":961:973  _msgSender() */\n  jump\t// in\ntag_6:\n    /* \"Ownable.sol\":942:960  _transferOwnership */\n  tag_8\n    /* \"Ownable.sol\":942:974  _transferOwnership(_msgSender()) */\n  jump\t// in\ntag_5:\n    /* \"Pausable.sol\":1091:1098  _paused */\n  0x01\n    /* \"Pausable.sol\":1091:1106  _paused = false */\n  dup1\n  sload\n  not(shl(0xa0, 0xff))\n  and\n  swap1\n  sstore\n    /* \"USDm.sol\":1417:11890  contract USDm is AbstractUSDm, Ownable, Pausable, Blacklistable, Rescuable {\r... */\n  jump(tag_10)\n    /* \"Context.sol\":656:754  function _msgSender() internal view virtual returns (address) {\r... */\ntag_7:\n    /* \"Context.sol\":736:746  msg.sender */\n  caller\n    /* \"Context.sol\":656:754  function _msgSender() internal view virtual returns (address) {\r... */\n  swap1\n  jump\t// out\n    /* \"Ownable.sol\":2333:2524  function _transferOwnership(address newOwner) internal virtual {\r... */\ntag_8:\n    /* \"Ownable.sol\":2407:2423  address oldOwner */\n  0x00\n    /* \"Ownable.sol\":2426:2432  _owner */\n  dup1\n  sload\n  sub(shl(0xa0, 0x01), 0x01)\n    /* \"Ownable.sol\":2443:2460  _owner = newOwner */\n  dup4\n  dup2\n  and\n  not(sub(shl(0xa0, 0x01), 0x01))\n  dup4\n  and\n  dup2\n  or\n  dup5\n  sstore\n    /* \"Ownable.sol\":2476:2516  OwnershipTransferred(oldOwner, newOwner) */\n  mload(0x40)\n    /* \"Ownable.sol\":2426:2432  _owner */\n  swap2\n  swap1\n  swap3\n  and\n  swap3\n  dup4\n  swap2\n    /* \"Ownable.sol\":2476:2516  OwnershipTransferred(oldOwner, newOwner) */\n  0x8be0079c531659141344cd1fd0a4f28419497f9722a3daafe3b4186f6b6457e0\n  swap2\n    /* \"Ownable.sol\":2407:2423  address oldOwner */\n  swap1\n    /* \"Ownable.sol\":2476:2516  OwnershipTransferred(oldOwner, newOwner) */\n  log3\n    /* \"Ownable.sol\":2333:2524  function _transferOwnership(address newOwner) internal virtual {\r... */\n  pop\n  pop\n  jump\t// out\n    /* \"USDm.sol\":1417:11890  contract USDm is AbstractUSDm, Ownable, Pausable, Blacklistable, Rescuable {\r... */\ntag_10:\n  dataSize(sub_0)\n  dup1\n  dataOffset(sub_0)\n  0x00\n  codecopy\n  0x00\n  return\nstop\n\nsub_0: assembly {\n        /* \"USDm.sol\":1417:11890  contract USDm is AbstractUSDm, Ownable, Pausable, Blacklistable, Rescuable {\r... */\n      mstore(0x40, 0x80)\n      callvalue\n      dup1\n      iszero\n      tag_1\n      jumpi\n      0x00\n      dup1\n      revert\n    tag_1:\n      pop\n      jumpi(tag_2, lt(calldatasize, 0x04))\n      shr(0xe0, calldataload(0x00))\n      dup1\n      0x715018a6\n      gt\n      tag_35\n      jumpi\n      dup1\n      0xad38bf22\n      gt\n      tag_36\n      jumpi\n      dup1\n      0xe5a6b10f\n      gt\n      tag_37\n      jumpi\n      dup1\n      0xe5a6b10f\n      eq\n      tag_31\n      jumpi\n      dup1\n      0xf2fde38b\n      eq\n      tag_32\n      jumpi\n      dup1\n      0xf9f92be4\n      eq\n      tag_33\n      jumpi\n      dup1\n      0xfe575a87\n      eq\n      tag_34\n      jumpi\n      jump(tag_2)\n    tag_37:\n      dup1\n      0xad38bf22\n      eq\n      tag_27\n      jumpi\n      dup1\n      0xb2118a8d\n      eq\n      tag_28\n      jumpi\n      dup1\n      0xbd102430\n      eq\n      tag_29\n      jumpi\n      dup1\n      0xdd62ed3e\n      eq\n      tag_30\n      jumpi\n      jump(tag_2)\n    tag_36:\n      dup1\n      0x9fd0506d\n      gt\n      tag_38\n      jumpi\n      dup1\n      0x9fd0506d\n      eq\n      tag_23\n      jumpi\n      dup1\n      0xa9059cbb\n      eq\n      tag_24\n      jumpi\n      dup1\n      0xaa20e1e4\n      eq\n      tag_25\n      jumpi\n      dup1\n      0xaa271e1a\n      eq\n      tag_26\n      jumpi\n      jump(tag_2)\n    tag_38:\n      dup1\n      0x715018a6\n      eq\n      tag_19\n      jumpi\n      dup1\n      0x8a6db9c3\n      eq\n      tag_20\n      jumpi\n      dup1\n      0x8da5cb5b\n      eq\n      tag_21\n      jumpi\n      dup1\n      0x95d89b41\n      eq\n      tag_22\n      jumpi\n      jump(tag_2)\n    tag_35:\n      dup1\n      0x3357162b\n      gt\n      tag_39\n      jumpi\n      dup1\n      0x42966c68\n      gt\n      tag_40\n      jumpi\n      dup1\n      0x42966c68\n      eq\n      tag_15\n      jumpi\n      dup1\n      0x4e44d956\n      eq\n      tag_16\n      jumpi\n      dup1\n      0x5c975abb\n      eq\n      tag_17\n      jumpi\n      dup1\n      0x70a08231\n      eq\n      tag_18\n      jumpi\n      jump(tag_2)\n    tag_40:\n      dup1\n      0x3357162b\n      eq\n      tag_11\n      jumpi\n      dup1\n      0x35d99f35\n      eq\n      tag_12\n      jumpi\n      dup1\n      0x38a63183\n      eq\n      tag_13\n      jumpi\n      dup1\n      0x40c10f19\n      eq\n      tag_14\n      jumpi\n      jump(tag_2)\n    tag_39:\n      dup1\n      0x23b872dd\n      gt\n      tag_41\n      jumpi\n      dup1\n      0x23b872dd\n      eq\n      tag_7\n      jumpi\n      dup1\n      0x2ab60045\n      eq\n      tag_8\n      jumpi\n      dup1\n      0x3092afd5\n      eq\n      tag_9\n      jumpi\n      dup1\n      0x313ce567\n      eq\n      tag_10\n      jumpi\n      jump(tag_2)\n    tag_41:\n      dup1\n      0x06fdde03\n      eq\n      tag_3\n      jumpi\n      dup1\n      0x095ea7b3\n      eq\n      tag_4\n      jumpi\n      dup1\n      0x18160ddd\n      eq\n      tag_5\n      jumpi\n      dup1\n      0x1a895266\n      eq\n      tag_6\n      jumpi\n    tag_2:\n      0x00\n      dup1\n      revert\n        /* \"USDm.sol\":1501:1519  string public name */\n    tag_3:\n      tag_42\n      tag_43\n      jump\t// in\n    tag_42:\n      mload(0x40)\n      tag_44\n      swap2\n      swap1\n      tag_45\n      jump\t// in\n    tag_44:\n      mload(0x40)\n      dup1\n      swap2\n      sub\n      swap1\n      return\n        /* \"USDm.sol\":6890:7173  function approve(address spender, uint256 value)\r... */\n    tag_4:\n      tag_46\n      tag_47\n      calldatasize\n      0x04\n      tag_48\n      jump\t// in\n    tag_47:\n      tag_49\n      jump\t// in\n    tag_46:\n      mload(0x40)\n      tag_44\n      swap2\n      swap1\n      tag_51\n      jump\t// in\n        /* \"USDm.sol\":6273:6375  function totalSupply() external override view returns (uint256) {\r... */\n    tag_5:\n      tag_52\n      tag_53\n      jump\t// in\n    tag_52:\n      mload(0x40)\n      tag_44\n      swap2\n      swap1\n      tag_55\n      jump\t// in\n        /* \"Blacklistable.sol\":2855:3006  function unBlacklist(address _account) external onlyBlacklister {\r... */\n    tag_6:\n      tag_56\n      tag_57\n      calldatasize\n      0x04\n      tag_58\n      jump\t// in\n    tag_57:\n      tag_59\n      jump\t// in\n    tag_56:\n      stop\n        /* \"USDm.sol\":7977:8532  function transferFrom(\r... */\n    tag_7:\n      tag_46\n      tag_61\n      calldatasize\n      0x04\n      tag_62\n      jump\t// in\n    tag_61:\n      tag_63\n      jump\t// in\n        /* \"Rescuable.sol\":2448:2719  function updateRescuer(address newRescuer) external onlyOwner {\r... */\n    tag_8:\n      tag_56\n      tag_66\n      calldatasize\n      0x04\n      tag_58\n      jump\t// in\n    tag_66:\n      tag_67\n      jump\t// in\n        /* \"USDm.sol\":10493:10741  function removeMinter(address minter)\r... */\n    tag_9:\n      tag_46\n      tag_69\n      calldatasize\n      0x04\n      tag_58\n      jump\t// in\n    tag_69:\n      tag_70\n      jump\t// in\n        /* \"USDm.sol\":1553:1574  uint8 public decimals */\n    tag_10:\n      tag_72\n      tag_73\n      jump\t// in\n    tag_72:\n      mload(0x40)\n      tag_44\n      swap2\n      swap1\n      tag_75\n      jump\t// in\n        /* \"USDm.sol\":2375:3557  function initialize(\r... */\n    tag_11:\n      tag_56\n      tag_77\n      calldatasize\n      0x04\n      tag_78\n      jump\t// in\n    tag_77:\n      tag_79\n      jump\t// in\n        /* \"USDm.sol\":1610:1637  address public masterMinter */\n    tag_12:\n      tag_80\n      tag_81\n      jump\t// in\n    tag_80:\n      mload(0x40)\n      tag_44\n      swap2\n      swap1\n      tag_83\n      jump\t// in\n        /* \"Rescuable.sol\":1588:1673  function rescuer() external view returns (address) {\r... */\n    tag_13:\n      tag_80\n      tag_85\n      jump\t// in\n        /* \"USDm.sol\":4093:5035  function mint(address _to, uint256 _amount)\r... */\n    tag_14:\n      tag_46\n      tag_88\n      calldatasize\n      0x04\n      tag_48\n      jump\t// in\n    tag_88:\n      tag_89\n      jump\t// in\n        /* \"USDm.sol\":11038:11574  function burn(uint256 _amount)\r... */\n    tag_15:\n      tag_56\n      tag_92\n      calldatasize\n      0x04\n      tag_93\n      jump\t// in\n    tag_92:\n      tag_94\n      jump\t// in\n        /* \"USDm.sol\":9970:10314  function configureMinter(address minter, uint256 minterAllowedAmount)\r... */\n    tag_16:\n      tag_46\n      tag_96\n      calldatasize\n      0x04\n      tag_48\n      jump\t// in\n    tag_96:\n      tag_97\n      jump\t// in\n        /* \"Pausable.sol\":1429:1515  function paused() public view virtual returns (bool) {\r... */\n    tag_17:\n      tag_46\n      tag_100\n      jump\t// in\n        /* \"USDm.sol\":6489:6650  function balanceOf(address account)\r... */\n    tag_18:\n      tag_52\n      tag_103\n      calldatasize\n      0x04\n      tag_58\n      jump\t// in\n    tag_103:\n      tag_104\n      jump\t// in\n        /* \"Ownable.sol\":1714:1817  function renounceOwnership() public virtual onlyOwner {\r... */\n    tag_19:\n      tag_56\n      tag_107\n      jump\t// in\n        /* \"USDm.sol\":5428:5548  function minterAllowance(address minter) external view returns (uint256) {\r... */\n    tag_20:\n      tag_52\n      tag_109\n      calldatasize\n      0x04\n      tag_58\n      jump\t// in\n    tag_109:\n      tag_110\n      jump\t// in\n        /* \"Ownable.sol\":1063:1150  function owner() public view virtual returns (address) {\r... */\n    tag_21:\n      tag_80\n      tag_113\n      jump\t// in\n        /* \"USDm.sol\":1526:1546  string public symbol */\n    tag_22:\n      tag_42\n      tag_116\n      jump\t// in\n        /* \"Pausable.sol\":641:662  address public pauser */\n    tag_23:\n      tag_80\n      tag_119\n      jump\t// in\n        /* \"USDm.sol\":8715:8985  function transfer(address to, uint256 value)\r... */\n    tag_24:\n      tag_46\n      tag_122\n      calldatasize\n      0x04\n      tag_48\n      jump\t// in\n    tag_122:\n      tag_123\n      jump\t// in\n        /* \"USDm.sol\":11582:11887  function updateMasterMinter(address _newMasterMinter) external onlyOwner {\r... */\n    tag_25:\n      tag_56\n      tag_126\n      calldatasize\n      0x04\n      tag_58\n      jump\t// in\n    tag_126:\n      tag_127\n      jump\t// in\n        /* \"USDm.sol\":5661:5767  function isMinter(address account) external view returns (bool) {\r... */\n    tag_26:\n      tag_46\n      tag_129\n      calldatasize\n      0x04\n      tag_58\n      jump\t// in\n    tag_129:\n      tag_130\n      jump\t// in\n        /* \"Blacklistable.sol\":3014:3320  function updateBlacklister(address _newBlacklister) external onlyOwner {\r... */\n    tag_27:\n      tag_56\n      tag_133\n      calldatasize\n      0x04\n      tag_58\n      jump\t// in\n    tag_133:\n      tag_134\n      jump\t// in\n        /* \"Rescuable.sol\":2131:2314  function rescueERC20(\r... */\n    tag_28:\n      tag_56\n      tag_136\n      calldatasize\n      0x04\n      tag_137\n      jump\t// in\n    tag_136:\n      tag_138\n      jump\t// in\n        /* \"Blacklistable.sol\":1397:1423  address public blacklister */\n    tag_29:\n      tag_80\n      tag_140\n      jump\t// in\n        /* \"USDm.sol\":6027:6209  function allowance(address owner, address spender)\r... */\n    tag_30:\n      tag_52\n      tag_143\n      calldatasize\n      0x04\n      tag_144\n      jump\t// in\n    tag_143:\n      tag_145\n      jump\t// in\n        /* \"USDm.sol\":1581:1603  string public currency */\n    tag_31:\n      tag_42\n      tag_148\n      jump\t// in\n        /* \"Ownable.sol\":1972:2173  function transferOwnership(address newOwner) public virtual onlyOwner {\r... */\n    tag_32:\n      tag_56\n      tag_151\n      calldatasize\n      0x04\n      tag_58\n      jump\t// in\n    tag_151:\n      tag_152\n      jump\t// in\n        /* \"Blacklistable.sol\":2574:2720  function blacklist(address _account) external onlyBlacklister {\r... */\n    tag_33:\n      tag_56\n      tag_154\n      calldatasize\n      0x04\n      tag_58\n      jump\t// in\n    tag_154:\n      tag_155\n      jump\t// in\n        /* \"Blacklistable.sol\":2343:2460  function isBlacklisted(address _account) external view returns (bool) {\r... */\n    tag_34:\n      tag_46\n      tag_157\n      calldatasize\n      0x04\n      tag_58\n      jump\t// in\n    tag_157:\n      tag_158\n      jump\t// in\n        /* \"USDm.sol\":1501:1519  string public name */\n    tag_43:\n      0x05\n      dup1\n      sload\n      tag_160\n      swap1\n      tag_161\n      jump\t// in\n    tag_160:\n      dup1\n      0x1f\n      add\n      0x20\n      dup1\n      swap2\n      div\n      mul\n      0x20\n      add\n      mload(0x40)\n      swap1\n      dup2\n      add\n      0x40\n      mstore\n      dup1\n      swap3\n      swap2\n      swap1\n      dup2\n      dup2\n      mstore\n      0x20\n      add\n      dup3\n      dup1\n      sload\n      tag_162\n      swap1\n      tag_161\n      jump\t// in\n    tag_162:\n      dup1\n      iszero\n      tag_163\n      jumpi\n      dup1\n      0x1f\n      lt\n      tag_164\n      jumpi\n      0x0100\n      dup1\n      dup4\n      sload\n      div\n      mul\n      dup4\n      mstore\n      swap2\n      0x20\n      add\n      swap2\n      jump(tag_163)\n    tag_164:\n      dup3\n      add\n      swap2\n      swap1\n      0x00\n      mstore\n      keccak256(0x00, 0x20)\n      swap1\n    tag_165:\n      dup2\n      sload\n      dup2\n      mstore\n      swap1\n      0x01\n      add\n      swap1\n      0x20\n      add\n      dup1\n      dup4\n      gt\n      tag_165\n      jumpi\n      dup3\n      swap1\n      sub\n      0x1f\n      and\n      dup3\n      add\n      swap2\n    tag_163:\n      pop\n      pop\n      pop\n      pop\n      pop\n      dup2\n      jump\t// out\n        /* \"USDm.sol\":6890:7173  function approve(address spender, uint256 value)\r... */\n    tag_49:\n        /* \"USDm.sol\":7085:7089  bool */\n      0x00\n        /* \"Pausable.sol\":1755:1763  paused() */\n      tag_167\n        /* \"Pausable.sol\":1755:1761  paused */\n      tag_100\n        /* \"Pausable.sol\":1755:1763  paused() */\n      jump\t// in\n    tag_167:\n        /* \"Pausable.sol\":1754:1763  !paused() */\n      iszero\n        /* \"Pausable.sol\":1746:1784  require(!paused(), \"Pausable: paused\") */\n      tag_168\n      jumpi\n      mload(0x40)\n      shl(0xe5, 0x461bcd)\n      dup2\n      mstore\n      0x04\n      add\n      tag_169\n      swap1\n      tag_170\n      jump\t// in\n    tag_169:\n      mload(0x40)\n      dup1\n      swap2\n      sub\n      swap1\n      revert\n    tag_168:\n        /* \"USDm.sol\":7022:7032  msg.sender */\n      caller\n        /* \"Blacklistable.sol\":2120:2141  blacklisted[_account] */\n      0x00\n      dup2\n      dup2\n      mstore\n        /* \"Blacklistable.sol\":2120:2131  blacklisted */\n      0x03\n        /* \"Blacklistable.sol\":2120:2141  blacklisted[_account] */\n      0x20\n      mstore\n      0x40\n      swap1\n      keccak256\n      sload\n      0xff\n      and\n        /* \"Blacklistable.sol\":2119:2141  !blacklisted[_account] */\n      iszero\n        /* \"Blacklistable.sol\":2097:2206  require(\r... */\n      tag_172\n      jumpi\n      mload(0x40)\n      shl(0xe5, 0x461bcd)\n      dup2\n      mstore\n      0x04\n      add\n      tag_169\n      swap1\n      tag_174\n      jump\t// in\n    tag_172:\n      sub(shl(0xa0, 0x01), 0x01)\n        /* \"Blacklistable.sol\":2120:2141  blacklisted[_account] */\n      dup5\n      and\n      0x00\n      swap1\n      dup2\n      mstore\n        /* \"Blacklistable.sol\":2120:2131  blacklisted */\n      0x03\n        /* \"Blacklistable.sol\":2120:2141  blacklisted[_account] */\n      0x20\n      mstore\n      0x40\n      swap1\n      keccak256\n      sload\n        /* \"USDm.sol\":7058:7065  spender */\n      dup5\n      swap1\n        /* \"Blacklistable.sol\":2120:2141  blacklisted[_account] */\n      0xff\n      and\n        /* \"Blacklistable.sol\":2119:2141  !blacklisted[_account] */\n      iszero\n        /* \"Blacklistable.sol\":2097:2206  require(\r... */\n      tag_176\n      jumpi\n      mload(0x40)\n      shl(0xe5, 0x461bcd)\n      dup2\n      mstore\n      0x04\n      add\n      tag_169\n      swap1\n      tag_174\n      jump\t// in\n    tag_176:\n        /* \"USDm.sol\":7107:7143  _approve(msg.sender, spender, value) */\n      tag_179\n        /* \"USDm.sol\":7116:7126  msg.sender */\n      caller\n        /* \"USDm.sol\":7128:7135  spender */\n      dup7\n        /* \"USDm.sol\":7137:7142  value */\n      dup7\n        /* \"USDm.sol\":7107:7115  _approve */\n      tag_180\n        /* \"USDm.sol\":7107:7143  _approve(msg.sender, spender, value) */\n      jump\t// in\n    tag_179:\n      pop\n        /* \"USDm.sol\":7161:7165  true */\n      0x01\n      swap5\n        /* \"USDm.sol\":6890:7173  function approve(address spender, uint256 value)\r... */\n      swap4\n      pop\n      pop\n      pop\n      pop\n      jump\t// out\n        /* \"USDm.sol\":6273:6375  function totalSupply() external override view returns (uint256) {\r... */\n    tag_53:\n        /* \"USDm.sol\":6355:6367  totalSupply_ */\n      sload(0x0c)\n        /* \"USDm.sol\":6273:6375  function totalSupply() external override view returns (uint256) {\r... */\n      swap1\n      jump\t// out\n        /* \"Blacklistable.sol\":2855:3006  function unBlacklist(address _account) external onlyBlacklister {\r... */\n    tag_59:\n        /* \"Blacklistable.sol\":1815:1826  blacklister */\n      and(sub(shl(0xa0, 0x01), 0x01), sload(0x02))\n        /* \"Blacklistable.sol\":1801:1811  msg.sender */\n      caller\n        /* \"Blacklistable.sol\":1801:1826  msg.sender == blacklister */\n      eq\n        /* \"Blacklistable.sol\":1779:1898  require(\r... */\n      tag_183\n      jumpi\n      mload(0x40)\n      shl(0xe5, 0x461bcd)\n      dup2\n      mstore\n      0x04\n      add\n      tag_169\n      swap1\n      tag_185\n      jump\t// in\n    tag_183:\n      sub(shl(0xa0, 0x01), 0x01)\n        /* \"Blacklistable.sol\":2930:2951  blacklisted[_account] */\n      dup2\n      and\n        /* \"Blacklistable.sol\":2954:2959  false */\n      0x00\n        /* \"Blacklistable.sol\":2930:2951  blacklisted[_account] */\n      dup2\n      dup2\n      mstore\n        /* \"Blacklistable.sol\":2930:2941  blacklisted */\n      0x03\n        /* \"Blacklistable.sol\":2930:2951  blacklisted[_account] */\n      0x20\n      mstore\n      0x40\n      dup1\n      dup3\n      keccak256\n        /* \"Blacklistable.sol\":2930:2959  blacklisted[_account] = false */\n      dup1\n      sload\n      not(0xff)\n      and\n      swap1\n      sstore\n        /* \"Blacklistable.sol\":2975:2998  UnBlacklisted(_account) */\n      mload\n      0x117e3210bb9aa7d9baff172026820255c6f6c30ba8999d1c2fd88e2848137c4e\n      swap2\n        /* \"Blacklistable.sol\":2954:2959  false */\n      swap1\n        /* \"Blacklistable.sol\":2975:2998  UnBlacklisted(_account) */\n      log2\n        /* \"Blacklistable.sol\":2855:3006  function unBlacklist(address _account) external onlyBlacklister {\r... */\n      pop\n      jump\t// out\n        /* \"USDm.sol\":7977:8532  function transferFrom(\r... */\n    tag_63:\n        /* \"USDm.sol\":8245:8249  bool */\n      0x00\n        /* \"Pausable.sol\":1755:1763  paused() */\n      tag_188\n        /* \"Pausable.sol\":1755:1761  paused */\n      tag_100\n        /* \"Pausable.sol\":1755:1763  paused() */\n      jump\t// in\n    tag_188:\n        /* \"Pausable.sol\":1754:1763  !paused() */\n      iszero\n        /* \"Pausable.sol\":1746:1784  require(!paused(), \"Pausable: paused\") */\n      tag_189\n      jumpi\n      mload(0x40)\n      shl(0xe5, 0x461bcd)\n      dup2\n      mstore\n      0x04\n      add\n      tag_169\n      swap1\n      tag_170\n      jump\t// in\n    tag_189:\n        /* \"USDm.sol\":8157:8167  msg.sender */\n      caller\n        /* \"Blacklistable.sol\":2120:2141  blacklisted[_account] */\n      0x00\n      dup2\n      dup2\n      mstore\n        /* \"Blacklistable.sol\":2120:2131  blacklisted */\n      0x03\n        /* \"Blacklistable.sol\":2120:2141  blacklisted[_account] */\n      0x20\n      mstore\n      0x40\n      swap1\n      keccak256\n      sload\n      0xff\n      and\n        /* \"Blacklistable.sol\":2119:2141  !blacklisted[_account] */\n      iszero\n        /* \"Blacklistable.sol\":2097:2206  require(\r... */\n      tag_192\n      jumpi\n      mload(0x40)\n      shl(0xe5, 0x461bcd)\n      dup2\n      mstore\n      0x04\n      add\n      tag_169\n      swap1\n      tag_174\n      jump\t// in\n    tag_192:\n      sub(shl(0xa0, 0x01), 0x01)\n        /* \"Blacklistable.sol\":2120:2141  blacklisted[_account] */\n      dup6\n      and\n      0x00\n      swap1\n      dup2\n      mstore\n        /* \"Blacklistable.sol\":2120:2131  blacklisted */\n      0x03\n        /* \"Blacklistable.sol\":2120:2141  blacklisted[_account] */\n      0x20\n      mstore\n      0x40\n      swap1\n      keccak256\n      sload\n        /* \"USDm.sol\":8193:8197  from */\n      dup6\n      swap1\n        /* \"Blacklistable.sol\":2120:2141  blacklisted[_account] */\n      0xff\n      and\n        /* \"Blacklistable.sol\":2119:2141  !blacklisted[_account] */\n      iszero\n        /* \"Blacklistable.sol\":2097:2206  require(\r... */\n      tag_195\n      jumpi\n      mload(0x40)\n      shl(0xe5, 0x461bcd)\n      dup2\n      mstore\n      0x04\n      add\n      tag_169\n      swap1\n      tag_174\n      jump\t// in\n    tag_195:\n      sub(shl(0xa0, 0x01), 0x01)\n        /* \"Blacklistable.sol\":2120:2141  blacklisted[_account] */\n      dup6\n      and\n      0x00\n      swap1\n      dup2\n      mstore\n        /* \"Blacklistable.sol\":2120:2131  blacklisted */\n      0x03\n        /* \"Blacklistable.sol\":2120:2141  blacklisted[_account] */\n      0x20\n      mstore\n      0x40\n      swap1\n      keccak256\n      sload\n        /* \"USDm.sol\":8223:8225  to */\n      dup6\n      swap1\n        /* \"Blacklistable.sol\":2120:2141  blacklisted[_account] */\n      0xff\n      and\n        /* \"Blacklistable.sol\":2119:2141  !blacklisted[_account] */\n      iszero\n        /* \"Blacklistable.sol\":2097:2206  require(\r... */\n      tag_198\n      jumpi\n      mload(0x40)\n      shl(0xe5, 0x461bcd)\n      dup2\n      mstore\n      0x04\n      add\n      tag_169\n      swap1\n      tag_174\n      jump\t// in\n    tag_198:\n      sub(shl(0xa0, 0x01), 0x01)\n        /* \"USDm.sol\":8298:8311  allowed[from] */\n      dup8\n      and\n      0x00\n      swap1\n      dup2\n      mstore\n        /* \"USDm.sol\":8298:8305  allowed */\n      0x0b\n        /* \"USDm.sol\":8298:8311  allowed[from] */\n      0x20\n      swap1\n      dup2\n      mstore\n      0x40\n      dup1\n      dup4\n      keccak256\n        /* \"USDm.sol\":8312:8322  msg.sender */\n      caller\n        /* \"USDm.sol\":8298:8323  allowed[from][msg.sender] */\n      dup5\n      mstore\n      swap1\n      swap2\n      mstore\n      swap1\n      keccak256\n      sload\n        /* \"USDm.sol\":8289:8323  value <= allowed[from][msg.sender] */\n      dup6\n      gt\n      iszero\n        /* \"USDm.sol\":8267:8391  require(\r... */\n      tag_201\n      jumpi\n      mload(0x40)\n      shl(0xe5, 0x461bcd)\n      dup2\n      mstore\n      0x04\n      add\n      tag_169\n      swap1\n      tag_203\n      jump\t// in\n    tag_201:\n        /* \"USDm.sol\":8402:8428  _transfer(from, to, value) */\n      tag_204\n        /* \"USDm.sol\":8412:8416  from */\n      dup8\n        /* \"USDm.sol\":8418:8420  to */\n      dup8\n        /* \"USDm.sol\":8422:8427  value */\n      dup8\n        /* \"USDm.sol\":8402:8411  _transfer */\n      tag_205\n        /* \"USDm.sol\":8402:8428  _transfer(from, to, value) */\n      jump\t// in\n    tag_204:\n      sub(shl(0xa0, 0x01), 0x01)\n        /* \"USDm.sol\":8467:8480  allowed[from] */\n      dup8\n      and\n      0x00\n      swap1\n      dup2\n      mstore\n        /* \"USDm.sol\":8467:8474  allowed */\n      0x0b\n        /* \"USDm.sol\":8467:8480  allowed[from] */\n      0x20\n      swap1\n      dup2\n      mstore\n      0x40\n      dup1\n      dup4\n      keccak256\n        /* \"USDm.sol\":8481:8491  msg.sender */\n      caller\n        /* \"USDm.sol\":8467:8492  allowed[from][msg.sender] */\n      dup5\n      mstore\n      swap1\n      swap2\n      mstore\n      swap1\n      keccak256\n      sload\n        /* \"USDm.sol\":8467:8502  allowed[from][msg.sender] - (value) */\n      tag_206\n      swap1\n        /* \"USDm.sol\":8496:8501  value */\n      dup7\n      swap1\n        /* \"USDm.sol\":8467:8502  allowed[from][msg.sender] - (value) */\n      tag_207\n      jump\t// in\n    tag_206:\n      sub(shl(0xa0, 0x01), 0x01)\n        /* \"USDm.sol\":8439:8452  allowed[from] */\n      dup9\n      and\n      0x00\n      swap1\n      dup2\n      mstore\n        /* \"USDm.sol\":8439:8446  allowed */\n      0x0b\n        /* \"USDm.sol\":8439:8452  allowed[from] */\n      0x20\n      swap1\n      dup2\n      mstore\n      0x40\n      dup1\n      dup4\n      keccak256\n        /* \"USDm.sol\":8453:8463  msg.sender */\n      caller\n        /* \"USDm.sol\":8439:8464  allowed[from][msg.sender] */\n      dup5\n      mstore\n      swap1\n      swap2\n      mstore\n      swap1\n      keccak256\n        /* \"USDm.sol\":8439:8502  allowed[from][msg.sender] = allowed[from][msg.sender] - (value) */\n      sstore\n        /* \"USDm.sol\":8520:8524  true */\n      0x01\n      swap4\n      pop\n        /* \"Blacklistable.sol\":2217:2218  _ */\n      pop\n      pop\n        /* \"Pausable.sol\":1795:1796  _ */\n      pop\n        /* \"USDm.sol\":7977:8532  function transferFrom(\r... */\n      swap4\n      swap3\n      pop\n      pop\n      pop\n      jump\t// out\n        /* \"Rescuable.sol\":2448:2719  function updateRescuer(address newRescuer) external onlyOwner {\r... */\n    tag_67:\n        /* \"Ownable.sol\":1294:1306  _msgSender() */\n      tag_209\n        /* \"Ownable.sol\":1294:1304  _msgSender */\n      tag_210\n        /* \"Ownable.sol\":1294:1306  _msgSender() */\n      jump\t// in\n    tag_209:\n      sub(shl(0xa0, 0x01), 0x01)\n        /* \"Ownable.sol\":1283:1306  owner() == _msgSender() */\n      and\n        /* \"Ownable.sol\":1283:1290  owner() */\n      tag_211\n        /* \"Ownable.sol\":1283:1288  owner */\n      tag_113\n        /* \"Ownable.sol\":1283:1290  owner() */\n      jump\t// in\n    tag_211:\n      sub(shl(0xa0, 0x01), 0x01)\n        /* \"Ownable.sol\":1283:1306  owner() == _msgSender() */\n      and\n      eq\n        /* \"Ownable.sol\":1275:1343  require(owner() == _msgSender(), \"Ownable: caller is not the owner\") */\n      tag_212\n      jumpi\n      mload(0x40)\n      shl(0xe5, 0x461bcd)\n      dup2\n      mstore\n      0x04\n      add\n      tag_169\n      swap1\n      tag_214\n      jump\t// in\n    tag_212:\n      sub(shl(0xa0, 0x01), 0x01)\n        /* \"Rescuable.sol\":2543:2567  newRescuer != address(0) */\n      dup2\n      and\n        /* \"Rescuable.sol\":2521:2637  require(\r... */\n      tag_216\n      jumpi\n      mload(0x40)\n      shl(0xe5, 0x461bcd)\n      dup2\n      mstore\n      0x04\n      add\n      tag_169\n      swap1\n      tag_218\n      jump\t// in\n    tag_216:\n        /* \"Rescuable.sol\":2648:2656  _rescuer */\n      0x04\n        /* \"Rescuable.sol\":2648:2669  _rescuer = newRescuer */\n      dup1\n      sload\n      not(sub(shl(0xa0, 0x01), 0x01))\n      and\n      sub(shl(0xa0, 0x01), 0x01)\n      dup4\n      and\n      swap1\n      dup2\n      or\n      swap1\n      swap2\n      sstore\n        /* \"Rescuable.sol\":2685:2711  RescuerChanged(newRescuer) */\n      mload(0x40)\n      0xe475e580d85111348e40d8ca33cfdd74c30fe1655c2d8537a13abc10065ffa5a\n      swap1\n      0x00\n      swap1\n      log2\n        /* \"Rescuable.sol\":2448:2719  function updateRescuer(address newRescuer) external onlyOwner {\r... */\n      pop\n      jump\t// out\n        /* \"USDm.sol\":10493:10741  function removeMinter(address minter)\r... */\n    tag_70:\n        /* \"USDm.sol\":5209:5221  masterMinter */\n      sload(0x09)\n        /* \"USDm.sol\":10593:10597  bool */\n      0x00\n      swap1\n      sub(shl(0xa0, 0x01), 0x01)\n        /* \"USDm.sol\":5209:5221  masterMinter */\n      and\n        /* \"USDm.sol\":5195:5205  msg.sender */\n      caller\n        /* \"USDm.sol\":5195:5221  msg.sender == masterMinter */\n      eq\n        /* \"USDm.sol\":5173:5285  require(\r... */\n      tag_220\n      jumpi\n      mload(0x40)\n      shl(0xe5, 0x461bcd)\n      dup2\n      mstore\n      0x04\n      add\n      tag_169\n      swap1\n      tag_222\n      jump\t// in\n    tag_220:\n      sub(shl(0xa0, 0x01), 0x01)\n        /* \"USDm.sol\":10615:10630  minters[minter] */\n      dup3\n      and\n        /* \"USDm.sol\":10633:10638  false */\n      0x00\n        /* \"USDm.sol\":10615:10630  minters[minter] */\n      dup2\n      dup2\n      mstore\n        /* \"USDm.sol\":10615:10622  minters */\n      0x0d\n        /* \"USDm.sol\":10615:10630  minters[minter] */\n      0x20\n      swap1\n      dup2\n      mstore\n      0x40\n      dup1\n      dup4\n      keccak256\n        /* \"USDm.sol\":10615:10638  minters[minter] = false */\n      dup1\n      sload\n      not(0xff)\n      and\n      swap1\n      sstore\n        /* \"USDm.sol\":10649:10662  minterAllowed */\n      0x0e\n        /* \"USDm.sol\":10649:10670  minterAllowed[minter] */\n      swap1\n      swap2\n      mstore\n      dup1\n      dup3\n      keccak256\n        /* \"USDm.sol\":10649:10674  minterAllowed[minter] = 0 */\n      dup3\n      swap1\n      sstore\n        /* \"USDm.sol\":10690:10711  MinterRemoved(minter) */\n      mload\n      0xe94479a9f7e1952cc78f2d6baab678adc1b772d936c6583def489e524cb66692\n      swap2\n        /* \"USDm.sol\":10633:10638  false */\n      swap1\n        /* \"USDm.sol\":10690:10711  MinterRemoved(minter) */\n      log2\n      pop\n        /* \"USDm.sol\":10729:10733  true */\n      0x01\n        /* \"USDm.sol\":5296:5297  _ */\n    tag_223:\n        /* \"USDm.sol\":10493:10741  function removeMinter(address minter)\r... */\n      swap2\n      swap1\n      pop\n      jump\t// out\n        /* \"USDm.sol\":1553:1574  uint8 public decimals */\n    tag_73:\n      and(0xff, sload(0x07))\n      dup2\n      jump\t// out\n        /* \"USDm.sol\":2375:3557  function initialize(\r... */\n    tag_79:\n        /* \"USDm.sol\":2689:2700  initialized */\n      sload(0x09)\n      shl(0xa0, 0x01)\n      swap1\n      div\n      0xff\n      and\n        /* \"USDm.sol\":2688:2700  !initialized */\n      iszero\n        /* \"USDm.sol\":2680:2742  require(!initialized, \"USDm: contract is already initialized\") */\n      tag_225\n      jumpi\n      mload(0x40)\n      shl(0xe5, 0x461bcd)\n      dup2\n      mstore\n      0x04\n      add\n      tag_169\n      swap1\n      tag_227\n      jump\t// in\n    tag_225:\n      sub(shl(0xa0, 0x01), 0x01)\n        /* \"USDm.sol\":2775:2804  newMasterMinter != address(0) */\n      dup5\n      and\n        /* \"USDm.sol\":2753:2874  require(\r... */\n      tag_228\n      jumpi\n      mload(0x40)\n      shl(0xe5, 0x461bcd)\n      dup2\n      mstore\n      0x04\n      add\n      tag_169\n      swap1\n      tag_230\n      jump\t// in\n    tag_228:\n      sub(shl(0xa0, 0x01), 0x01)\n        /* \"USDm.sol\":2907:2930  newPauser != address(0) */\n      dup4\n      and\n        /* \"USDm.sol\":2885:2994  require(\r... */\n      tag_231\n      jumpi\n      mload(0x40)\n      shl(0xe5, 0x461bcd)\n      dup2\n      mstore\n      0x04\n      add\n      tag_169\n      swap1\n      tag_233\n      jump\t// in\n    tag_231:\n      sub(shl(0xa0, 0x01), 0x01)\n        /* \"USDm.sol\":3027:3055  newBlacklister != address(0) */\n      dup3\n      and\n        /* \"USDm.sol\":3005:3124  require(\r... */\n      tag_234\n      jumpi\n      mload(0x40)\n      shl(0xe5, 0x461bcd)\n      dup2\n      mstore\n      0x04\n      add\n      tag_169\n      swap1\n      tag_236\n      jump\t// in\n    tag_234:\n      sub(shl(0xa0, 0x01), 0x01)\n        /* \"USDm.sol\":3157:3179  newOwner != address(0) */\n      dup2\n      and\n        /* \"USDm.sol\":3135:3242  require(\r... */\n      tag_237\n      jumpi\n      mload(0x40)\n      shl(0xe5, 0x461bcd)\n      dup2\n      mstore\n      0x04\n      add\n      tag_169\n      swap1\n      tag_239\n      jump\t// in\n    tag_237:\n        /* \"USDm.sol\":3255:3271  name = tokenName */\n      dup8\n      mload\n      tag_240\n      swap1\n        /* \"USDm.sol\":3255:3259  name */\n      0x05\n      swap1\n        /* \"USDm.sol\":3255:3271  name = tokenName */\n      0x20\n      dup12\n      add\n      swap1\n      tag_241\n      jump\t// in\n    tag_240:\n      pop\n        /* \"USDm.sol\":3282:3302  symbol = tokenSymbol */\n      dup7\n      mload\n      tag_242\n      swap1\n        /* \"USDm.sol\":3282:3288  symbol */\n      0x06\n      swap1\n        /* \"USDm.sol\":3282:3302  symbol = tokenSymbol */\n      0x20\n      dup11\n      add\n      swap1\n      tag_241\n      jump\t// in\n    tag_242:\n      pop\n        /* \"USDm.sol\":3313:3337  currency = tokenCurrency */\n      dup6\n      mload\n      tag_243\n      swap1\n        /* \"USDm.sol\":3313:3321  currency */\n      0x08\n      swap1\n        /* \"USDm.sol\":3313:3337  currency = tokenCurrency */\n      0x20\n      dup10\n      add\n      swap1\n      tag_241\n      jump\t// in\n    tag_243:\n      pop\n        /* \"USDm.sol\":3348:3356  decimals */\n      0x07\n        /* \"USDm.sol\":3348:3372  decimals = tokenDecimals */\n      dup1\n      sload\n      not(0xff)\n      and\n      0xff\n      dup8\n      and\n      or\n      swap1\n      sstore\n        /* \"USDm.sol\":3383:3395  masterMinter */\n      0x09\n        /* \"USDm.sol\":3383:3413  masterMinter = newMasterMinter */\n      dup1\n      sload\n      not(sub(shl(0xa0, 0x01), 0x01))\n      swap1\n      dup2\n      and\n      sub(shl(0xa0, 0x01), 0x01)\n      dup8\n      dup2\n      and\n      swap2\n      swap1\n      swap2\n      or\n      swap1\n      swap3\n      sstore\n      0x01\n        /* \"USDm.sol\":3424:3442  pauser = newPauser */\n      dup1\n      sload\n      dup3\n      and\n      dup7\n      dup5\n      and\n      or\n      swap1\n      sstore\n        /* \"USDm.sol\":3453:3464  blacklister */\n      0x02\n        /* \"USDm.sol\":3453:3481  blacklister = newBlacklister */\n      dup1\n      sload\n      swap1\n      swap2\n      and\n      swap2\n      dup5\n      and\n      swap2\n      swap1\n      swap2\n      or\n      swap1\n      sstore\n        /* \"USDm.sol\":3492:3520  _transferOwnership(newOwner) */\n      tag_244\n        /* \"USDm.sol\":3511:3519  newOwner */\n      dup2\n        /* \"USDm.sol\":3492:3510  _transferOwnership */\n      tag_245\n        /* \"USDm.sol\":3492:3520  _transferOwnership(newOwner) */\n      jump\t// in\n    tag_244:\n      pop\n      pop\n        /* \"USDm.sol\":3531:3542  initialized */\n      0x09\n        /* \"USDm.sol\":3531:3549  initialized = true */\n      dup1\n      sload\n      not(shl(0xa0, 0xff))\n      and\n      shl(0xa0, 0x01)\n      or\n      swap1\n      sstore\n      pop\n      pop\n      pop\n      pop\n      pop\n      pop\n        /* \"USDm.sol\":2375:3557  function initialize(\r... */\n      jump\t// out\n        /* \"USDm.sol\":1610:1637  address public masterMinter */\n    tag_81:\n      and(sub(shl(0xa0, 0x01), 0x01), sload(0x09))\n      dup2\n      jump\t// out\n        /* \"Rescuable.sol\":1588:1673  function rescuer() external view returns (address) {\r... */\n    tag_85:\n        /* \"Rescuable.sol\":1657:1665  _rescuer */\n      and(sub(shl(0xa0, 0x01), 0x01), sload(0x04))\n        /* \"Rescuable.sol\":1588:1673  function rescuer() external view returns (address) {\r... */\n      swap1\n      jump\t// out\n        /* \"USDm.sol\":4093:5035  function mint(address _to, uint256 _amount)\r... */\n    tag_89:\n        /* \"USDm.sol\":4282:4286  bool */\n      0x00\n        /* \"Pausable.sol\":1755:1763  paused() */\n      tag_248\n        /* \"Pausable.sol\":1755:1761  paused */\n      tag_100\n        /* \"Pausable.sol\":1755:1763  paused() */\n      jump\t// in\n    tag_248:\n        /* \"Pausable.sol\":1754:1763  !paused() */\n      iszero\n        /* \"Pausable.sol\":1746:1784  require(!paused(), \"Pausable: paused\") */\n      tag_249\n      jumpi\n      mload(0x40)\n      shl(0xe5, 0x461bcd)\n      dup2\n      mstore\n      0x04\n      add\n      tag_169\n      swap1\n      tag_170\n      jump\t// in\n    tag_249:\n        /* \"USDm.sol\":3698:3708  msg.sender */\n      caller\n        /* \"USDm.sol\":3690:3709  minters[msg.sender] */\n      0x00\n      swap1\n      dup2\n      mstore\n        /* \"USDm.sol\":3690:3697  minters */\n      0x0d\n        /* \"USDm.sol\":3690:3709  minters[msg.sender] */\n      0x20\n      mstore\n      0x40\n      swap1\n      keccak256\n      sload\n      0xff\n      and\n        /* \"USDm.sol\":3682:3742  require(minters[msg.sender], \"USDm: caller is not a minter\") */\n      tag_252\n      jumpi\n      mload(0x40)\n      shl(0xe5, 0x461bcd)\n      dup2\n      mstore\n      0x04\n      add\n      tag_169\n      swap1\n      tag_254\n      jump\t// in\n    tag_252:\n        /* \"USDm.sol\":4223:4233  msg.sender */\n      caller\n        /* \"Blacklistable.sol\":2120:2141  blacklisted[_account] */\n      0x00\n      dup2\n      dup2\n      mstore\n        /* \"Blacklistable.sol\":2120:2131  blacklisted */\n      0x03\n        /* \"Blacklistable.sol\":2120:2141  blacklisted[_account] */\n      0x20\n      mstore\n      0x40\n      swap1\n      keccak256\n      sload\n      0xff\n      and\n        /* \"Blacklistable.sol\":2119:2141  !blacklisted[_account] */\n      iszero\n        /* \"Blacklistable.sol\":2097:2206  require(\r... */\n      tag_256\n      jumpi\n      mload(0x40)\n      shl(0xe5, 0x461bcd)\n      dup2\n      mstore\n      0x04\n      add\n      tag_169\n      swap1\n      tag_174\n      jump\t// in\n    tag_256:\n      sub(shl(0xa0, 0x01), 0x01)\n        /* \"Blacklistable.sol\":2120:2141  blacklisted[_account] */\n      dup5\n      and\n      0x00\n      swap1\n      dup2\n      mstore\n        /* \"Blacklistable.sol\":2120:2131  blacklisted */\n      0x03\n        /* \"Blacklistable.sol\":2120:2141  blacklisted[_account] */\n      0x20\n      mstore\n      0x40\n      swap1\n      keccak256\n      sload\n        /* \"USDm.sol\":4259:4262  _to */\n      dup5\n      swap1\n        /* \"Blacklistable.sol\":2120:2141  blacklisted[_account] */\n      0xff\n      and\n        /* \"Blacklistable.sol\":2119:2141  !blacklisted[_account] */\n      iszero\n        /* \"Blacklistable.sol\":2097:2206  require(\r... */\n      tag_259\n      jumpi\n      mload(0x40)\n      shl(0xe5, 0x461bcd)\n      dup2\n      mstore\n      0x04\n      add\n      tag_169\n      swap1\n      tag_174\n      jump\t// in\n    tag_259:\n      sub(shl(0xa0, 0x01), 0x01)\n        /* \"USDm.sol\":4312:4329  _to != address(0) */\n      dup6\n      and\n        /* \"USDm.sol\":4304:4364  require(_to != address(0), \"USDm: mint to the zero address\") */\n      tag_262\n      jumpi\n      mload(0x40)\n      shl(0xe5, 0x461bcd)\n      dup2\n      mstore\n      0x04\n      add\n      tag_169\n      swap1\n      tag_264\n      jump\t// in\n    tag_262:\n        /* \"USDm.sol\":4393:4394  0 */\n      0x00\n        /* \"USDm.sol\":4383:4390  _amount */\n      dup5\n        /* \"USDm.sol\":4383:4394  _amount > 0 */\n      gt\n        /* \"USDm.sol\":4375:4435  require(_amount > 0, \"USDm: mint amount not greater than 0\") */\n      tag_265\n      jumpi\n      mload(0x40)\n      shl(0xe5, 0x461bcd)\n      dup2\n      mstore\n      0x04\n      add\n      tag_169\n      swap1\n      tag_267\n      jump\t// in\n    tag_265:\n        /* \"USDm.sol\":4461:4473  masterMinter */\n      sload(0x09)\n      sub(shl(0xa0, 0x01), 0x01)\n        /* \"USDm.sol\":4454:4473  _to == masterMinter */\n      dup7\n      dup2\n      and\n        /* \"USDm.sol\":4461:4473  masterMinter */\n      swap2\n      and\n        /* \"USDm.sol\":4454:4473  _to == masterMinter */\n      eq\n        /* \"USDm.sol\":4446:4536  require(_to == masterMinter,\"USDm: Minters can only mint tokens to master minter address\") */\n      tag_268\n      jumpi\n      mload(0x40)\n      shl(0xe5, 0x461bcd)\n      dup2\n      mstore\n      0x04\n      add\n      tag_169\n      swap1\n      tag_270\n      jump\t// in\n    tag_268:\n        /* \"USDm.sol\":4594:4604  msg.sender */\n      caller\n        /* \"USDm.sol\":4549:4577  uint256 mintingAllowedAmount */\n      0x00\n        /* \"USDm.sol\":4580:4605  minterAllowed[msg.sender] */\n      swap1\n      dup2\n      mstore\n        /* \"USDm.sol\":4580:4593  minterAllowed */\n      0x0e\n        /* \"USDm.sol\":4580:4605  minterAllowed[msg.sender] */\n      0x20\n      mstore\n      0x40\n      swap1\n      keccak256\n      sload\n        /* \"USDm.sol\":4638:4669  _amount <= mintingAllowedAmount */\n      dup1\n      dup6\n      gt\n      iszero\n        /* \"USDm.sol\":4616:4738  require(\r... */\n      tag_271\n      jumpi\n      mload(0x40)\n      shl(0xe5, 0x461bcd)\n      dup2\n      mstore\n      0x04\n      add\n      tag_169\n      swap1\n      tag_273\n      jump\t// in\n    tag_271:\n        /* \"USDm.sol\":4781:4788  _amount */\n      dup5\n        /* \"USDm.sol\":4766:4778  totalSupply_ */\n      sload(0x0c)\n        /* \"USDm.sol\":4766:4788  totalSupply_ + _amount */\n      tag_274\n      swap2\n      swap1\n      tag_275\n      jump\t// in\n    tag_274:\n        /* \"USDm.sol\":4751:4763  totalSupply_ */\n      0x0c\n        /* \"USDm.sol\":4751:4788  totalSupply_ = totalSupply_ + _amount */\n      sstore\n      sub(shl(0xa0, 0x01), 0x01)\n        /* \"USDm.sol\":4815:4828  balances[_to] */\n      dup7\n      and\n      0x00\n      swap1\n      dup2\n      mstore\n        /* \"USDm.sol\":4815:4823  balances */\n      0x0a\n        /* \"USDm.sol\":4815:4828  balances[_to] */\n      0x20\n      mstore\n      0x40\n      swap1\n      keccak256\n      sload\n        /* \"USDm.sol\":4815:4838  balances[_to] + _amount */\n      tag_276\n      swap1\n        /* \"USDm.sol\":4831:4838  _amount */\n      dup7\n      swap1\n        /* \"USDm.sol\":4815:4838  balances[_to] + _amount */\n      tag_275\n      jump\t// in\n    tag_276:\n      sub(shl(0xa0, 0x01), 0x01)\n        /* \"USDm.sol\":4799:4812  balances[_to] */\n      dup8\n      and\n      0x00\n      swap1\n      dup2\n      mstore\n        /* \"USDm.sol\":4799:4807  balances */\n      0x0a\n        /* \"USDm.sol\":4799:4812  balances[_to] */\n      0x20\n      mstore\n      0x40\n      swap1\n      keccak256\n        /* \"USDm.sol\":4799:4838  balances[_to] = balances[_to] + _amount */\n      sstore\n        /* \"USDm.sol\":4877:4909  mintingAllowedAmount - (_amount) */\n      tag_277\n        /* \"USDm.sol\":4901:4908  _amount */\n      dup6\n        /* \"USDm.sol\":4877:4897  mintingAllowedAmount */\n      dup3\n        /* \"USDm.sol\":4877:4909  mintingAllowedAmount - (_amount) */\n      tag_207\n      jump\t// in\n    tag_277:\n        /* \"USDm.sol\":4863:4873  msg.sender */\n      caller\n        /* \"USDm.sol\":4849:4874  minterAllowed[msg.sender] */\n      0x00\n      dup2\n      dup2\n      mstore\n        /* \"USDm.sol\":4849:4862  minterAllowed */\n      0x0e\n        /* \"USDm.sol\":4849:4874  minterAllowed[msg.sender] */\n      0x20\n      mstore\n      0x40\n      swap1\n      dup2\n      swap1\n      keccak256\n        /* \"USDm.sol\":4849:4909  minterAllowed[msg.sender] = mintingAllowedAmount - (_amount) */\n      swap3\n      swap1\n      swap3\n      sstore\n        /* \"USDm.sol\":4925:4955  Mint(msg.sender, _to, _amount) */\n      swap1\n      mload\n      sub(shl(0xa0, 0x01), 0x01)\n      dup9\n      and\n      swap2\n        /* \"USDm.sol\":4863:4873  msg.sender */\n      swap1\n        /* \"USDm.sol\":4925:4955  Mint(msg.sender, _to, _amount) */\n      0xab8530f87dc9b59234c4623bf917212bb2536d647574c8e7e5da92c2ede0c9f8\n      swap1\n      tag_278\n      swap1\n        /* \"USDm.sol\":4947:4954  _amount */\n      dup10\n      swap1\n        /* \"USDm.sol\":4925:4955  Mint(msg.sender, _to, _amount) */\n      tag_55\n      jump\t// in\n    tag_278:\n      mload(0x40)\n      dup1\n      swap2\n      sub\n      swap1\n      log3\n        /* \"USDm.sol\":4992:4995  _to */\n      dup6\n      sub(shl(0xa0, 0x01), 0x01)\n        /* \"USDm.sol\":4971:5005  Transfer(address(0), _to, _amount) */\n      and\n        /* \"USDm.sol\":4988:4989  0 */\n      0x00\n      sub(shl(0xa0, 0x01), 0x01)\n        /* \"USDm.sol\":4971:5005  Transfer(address(0), _to, _amount) */\n      and\n      0xddf252ad1be2c89b69c2b068fc378daa952ba7f163c4a11628f55a4df523b3ef\n        /* \"USDm.sol\":4997:5004  _amount */\n      dup8\n        /* \"USDm.sol\":4971:5005  Transfer(address(0), _to, _amount) */\n      mload(0x40)\n      tag_279\n      swap2\n      swap1\n      tag_55\n      jump\t// in\n    tag_279:\n      mload(0x40)\n      dup1\n      swap2\n      sub\n      swap1\n      log3\n      pop\n        /* \"USDm.sol\":5023:5027  true */\n      0x01\n      swap6\n        /* \"USDm.sol\":4093:5035  function mint(address _to, uint256 _amount)\r... */\n      swap5\n      pop\n      pop\n      pop\n      pop\n      pop\n      jump\t// out\n        /* \"USDm.sol\":11038:11574  function burn(uint256 _amount)\r... */\n    tag_94:\n        /* \"Pausable.sol\":1755:1763  paused() */\n      tag_281\n        /* \"Pausable.sol\":1755:1761  paused */\n      tag_100\n        /* \"Pausable.sol\":1755:1763  paused() */\n      jump\t// in\n    tag_281:\n        /* \"Pausable.sol\":1754:1763  !paused() */\n      iszero\n        /* \"Pausable.sol\":1746:1784  require(!paused(), \"Pausable: paused\") */\n      tag_282\n      jumpi\n      mload(0x40)\n      shl(0xe5, 0x461bcd)\n      dup2\n      mstore\n      0x04\n      add\n      tag_169\n      swap1\n      tag_170\n      jump\t// in\n    tag_282:\n        /* \"USDm.sol\":3698:3708  msg.sender */\n      caller\n        /* \"USDm.sol\":3690:3709  minters[msg.sender] */\n      0x00\n      swap1\n      dup2\n      mstore\n        /* \"USDm.sol\":3690:3697  minters */\n      0x0d\n        /* \"USDm.sol\":3690:3709  minters[msg.sender] */\n      0x20\n      mstore\n      0x40\n      swap1\n      keccak256\n      sload\n      0xff\n      and\n        /* \"USDm.sol\":3682:3742  require(minters[msg.sender], \"USDm: caller is not a minter\") */\n      tag_285\n      jumpi\n      mload(0x40)\n      shl(0xe5, 0x461bcd)\n      dup2\n      mstore\n      0x04\n      add\n      tag_169\n      swap1\n      tag_254\n      jump\t// in\n    tag_285:\n        /* \"USDm.sol\":11155:11165  msg.sender */\n      caller\n        /* \"Blacklistable.sol\":2120:2141  blacklisted[_account] */\n      0x00\n      dup2\n      dup2\n      mstore\n        /* \"Blacklistable.sol\":2120:2131  blacklisted */\n      0x03\n        /* \"Blacklistable.sol\":2120:2141  blacklisted[_account] */\n      0x20\n      mstore\n      0x40\n      swap1\n      keccak256\n      sload\n      0xff\n      and\n        /* \"Blacklistable.sol\":2119:2141  !blacklisted[_account] */\n      iszero\n        /* \"Blacklistable.sol\":2097:2206  require(\r... */\n      tag_288\n      jumpi\n      mload(0x40)\n      shl(0xe5, 0x461bcd)\n      dup2\n      mstore\n      0x04\n      add\n      tag_169\n      swap1\n      tag_174\n      jump\t// in\n    tag_288:\n        /* \"USDm.sol\":11210:11220  msg.sender */\n      caller\n        /* \"USDm.sol\":11183:11198  uint256 balance */\n      0x00\n        /* \"USDm.sol\":11201:11221  balances[msg.sender] */\n      swap1\n      dup2\n      mstore\n        /* \"USDm.sol\":11201:11209  balances */\n      0x0a\n        /* \"USDm.sol\":11201:11221  balances[msg.sender] */\n      0x20\n      mstore\n      0x40\n      swap1\n      keccak256\n      sload\n        /* \"USDm.sol\":11240:11251  _amount > 0 */\n      dup3\n        /* \"USDm.sol\":11232:11292  require(_amount > 0, \"USDm: burn amount not greater than 0\") */\n      tag_291\n      jumpi\n      mload(0x40)\n      shl(0xe5, 0x461bcd)\n      dup2\n      mstore\n      0x04\n      add\n      tag_169\n      swap1\n      tag_293\n      jump\t// in\n    tag_291:\n        /* \"USDm.sol\":11322:11329  _amount */\n      dup3\n        /* \"USDm.sol\":11311:11318  balance */\n      dup2\n        /* \"USDm.sol\":11311:11329  balance >= _amount */\n      lt\n      iszero\n        /* \"USDm.sol\":11303:11367  require(balance >= _amount, \"USDm: burn amount exceeds balance\") */\n      tag_294\n      jumpi\n      mload(0x40)\n      shl(0xe5, 0x461bcd)\n      dup2\n      mstore\n      0x04\n      add\n      tag_169\n      swap1\n      tag_296\n      jump\t// in\n    tag_294:\n        /* \"USDm.sol\":11410:11417  _amount */\n      dup3\n        /* \"USDm.sol\":11395:11407  totalSupply_ */\n      sload(0x0c)\n        /* \"USDm.sol\":11395:11417  totalSupply_ - _amount */\n      tag_297\n      swap2\n      swap1\n      tag_207\n      jump\t// in\n    tag_297:\n        /* \"USDm.sol\":11380:11392  totalSupply_ */\n      0x0c\n        /* \"USDm.sol\":11380:11417  totalSupply_ = totalSupply_ - _amount */\n      sstore\n        /* \"USDm.sol\":11451:11468  balance - _amount */\n      tag_298\n        /* \"USDm.sol\":11461:11468  _amount */\n      dup4\n        /* \"USDm.sol\":11451:11458  balance */\n      dup3\n        /* \"USDm.sol\":11451:11468  balance - _amount */\n      tag_207\n      jump\t// in\n    tag_298:\n        /* \"USDm.sol\":11437:11447  msg.sender */\n      caller\n        /* \"USDm.sol\":11428:11448  balances[msg.sender] */\n      0x00\n      dup2\n      dup2\n      mstore\n        /* \"USDm.sol\":11428:11436  balances */\n      0x0a\n        /* \"USDm.sol\":11428:11448  balances[msg.sender] */\n      0x20\n      mstore\n      0x40\n      swap1\n      dup2\n      swap1\n      keccak256\n        /* \"USDm.sol\":11428:11468  balances[msg.sender] = balance - _amount */\n      swap3\n      swap1\n      swap3\n      sstore\n        /* \"USDm.sol\":11484:11509  Burn(msg.sender, _amount) */\n      swap1\n      mload\n      0xcc16f5dbb4873280815c1ee09dbd06736cffcc184412cf7a71a0fdb75d397ca5\n      swap1\n      tag_299\n      swap1\n        /* \"USDm.sol\":11501:11508  _amount */\n      dup7\n      swap1\n        /* \"USDm.sol\":11484:11509  Burn(msg.sender, _amount) */\n      tag_55\n      jump\t// in\n    tag_299:\n      mload(0x40)\n      dup1\n      swap2\n      sub\n      swap1\n      log2\n        /* \"USDm.sol\":11525:11566  Transfer(msg.sender, address(0), _amount) */\n      mload(0x40)\n        /* \"USDm.sol\":11554:11555  0 */\n      0x00\n      swap1\n        /* \"USDm.sol\":11534:11544  msg.sender */\n      caller\n      swap1\n        /* \"USDm.sol\":11525:11566  Transfer(msg.sender, address(0), _amount) */\n      0xddf252ad1be2c89b69c2b068fc378daa952ba7f163c4a11628f55a4df523b3ef\n      swap1\n      tag_300\n      swap1\n        /* \"USDm.sol\":11558:11565  _amount */\n      dup8\n      swap1\n        /* \"USDm.sol\":11525:11566  Transfer(msg.sender, address(0), _amount) */\n      tag_55\n      jump\t// in\n    tag_300:\n      mload(0x40)\n      dup1\n      swap2\n      sub\n      swap1\n      log3\n        /* \"Blacklistable.sol\":2217:2218  _ */\n      pop\n        /* \"USDm.sol\":3753:3754  _ */\n      pop\n        /* \"USDm.sol\":11038:11574  function burn(uint256 _amount)\r... */\n      pop\n      jump\t// out\n        /* \"USDm.sol\":9970:10314  function configureMinter(address minter, uint256 minterAllowedAmount)\r... */\n    tag_97:\n        /* \"USDm.sol\":10125:10129  bool */\n      0x00\n        /* \"Pausable.sol\":1755:1763  paused() */\n      tag_302\n        /* \"Pausable.sol\":1755:1761  paused */\n      tag_100\n        /* \"Pausable.sol\":1755:1763  paused() */\n      jump\t// in\n    tag_302:\n        /* \"Pausable.sol\":1754:1763  !paused() */\n      iszero\n        /* \"Pausable.sol\":1746:1784  require(!paused(), \"Pausable: paused\") */\n      tag_303\n      jumpi\n      mload(0x40)\n      shl(0xe5, 0x461bcd)\n      dup2\n      mstore\n      0x04\n      add\n      tag_169\n      swap1\n      tag_170\n      jump\t// in\n    tag_303:\n        /* \"USDm.sol\":5209:5221  masterMinter */\n      and(sub(shl(0xa0, 0x01), 0x01), sload(0x09))\n        /* \"USDm.sol\":5195:5205  msg.sender */\n      caller\n        /* \"USDm.sol\":5195:5221  msg.sender == masterMinter */\n      eq\n        /* \"USDm.sol\":5173:5285  require(\r... */\n      tag_306\n      jumpi\n      mload(0x40)\n      shl(0xe5, 0x461bcd)\n      dup2\n      mstore\n      0x04\n      add\n      tag_169\n      swap1\n      tag_222\n      jump\t// in\n    tag_306:\n      sub(shl(0xa0, 0x01), 0x01)\n        /* \"USDm.sol\":10147:10162  minters[minter] */\n      dup4\n      and\n      0x00\n      dup2\n      dup2\n      mstore\n        /* \"USDm.sol\":10147:10154  minters */\n      0x0d\n        /* \"USDm.sol\":10147:10162  minters[minter] */\n      0x20\n      swap1\n      dup2\n      mstore\n      0x40\n      dup1\n      dup4\n      keccak256\n        /* \"USDm.sol\":10147:10169  minters[minter] = true */\n      dup1\n      sload\n      not(0xff)\n      and\n        /* \"USDm.sol\":10165:10169  true */\n      0x01\n        /* \"USDm.sol\":10147:10169  minters[minter] = true */\n      or\n      swap1\n      sstore\n        /* \"USDm.sol\":10180:10193  minterAllowed */\n      0x0e\n        /* \"USDm.sol\":10180:10201  minterAllowed[minter] */\n      swap1\n      swap2\n      mstore\n      swap1\n      dup2\n      swap1\n      keccak256\n        /* \"USDm.sol\":10180:10223  minterAllowed[minter] = minterAllowedAmount */\n      dup5\n      swap1\n      sstore\n        /* \"USDm.sol\":10239:10284  MinterConfigured(minter, minterAllowedAmount) */\n      mload\n      0x46980fca912ef9bcdbd36877427b6b90e860769f604e89c0e67720cece530d20\n      swap1\n      tag_309\n      swap1\n        /* \"USDm.sol\":10204:10223  minterAllowedAmount */\n      dup6\n      swap1\n        /* \"USDm.sol\":10239:10284  MinterConfigured(minter, minterAllowedAmount) */\n      tag_55\n      jump\t// in\n    tag_309:\n      mload(0x40)\n      dup1\n      swap2\n      sub\n      swap1\n      log2\n      pop\n        /* \"USDm.sol\":10302:10306  true */\n      0x01\n        /* \"USDm.sol\":9970:10314  function configureMinter(address minter, uint256 minterAllowedAmount)\r... */\n      swap3\n      swap2\n      pop\n      pop\n      jump\t// out\n        /* \"Pausable.sol\":1429:1515  function paused() public view virtual returns (bool) {\r... */\n    tag_100:\n        /* \"Pausable.sol\":1500:1507  _paused */\n      sload(0x01)\n      shl(0xa0, 0x01)\n      swap1\n      div\n      0xff\n      and\n      swap1\n        /* \"Pausable.sol\":1429:1515  function paused() public view virtual returns (bool) {\r... */\n      jump\t// out\n        /* \"USDm.sol\":6489:6650  function balanceOf(address account)\r... */\n    tag_104:\n      sub(shl(0xa0, 0x01), 0x01)\n        /* \"USDm.sol\":6625:6642  balances[account] */\n      and\n        /* \"USDm.sol\":6593:6600  uint256 */\n      0x00\n        /* \"USDm.sol\":6625:6642  balances[account] */\n      swap1\n      dup2\n      mstore\n        /* \"USDm.sol\":6625:6633  balances */\n      0x0a\n        /* \"USDm.sol\":6625:6642  balances[account] */\n      0x20\n      mstore\n      0x40\n      swap1\n      keccak256\n      sload\n      swap1\n        /* \"USDm.sol\":6489:6650  function balanceOf(address account)\r... */\n      jump\t// out\n        /* \"Ownable.sol\":1714:1817  function renounceOwnership() public virtual onlyOwner {\r... */\n    tag_107:\n        /* \"Ownable.sol\":1294:1306  _msgSender() */\n      tag_313\n        /* \"Ownable.sol\":1294:1304  _msgSender */\n      tag_210\n        /* \"Ownable.sol\":1294:1306  _msgSender() */\n      jump\t// in\n    tag_313:\n      sub(shl(0xa0, 0x01), 0x01)\n        /* \"Ownable.sol\":1283:1306  owner() == _msgSender() */\n      and\n        /* \"Ownable.sol\":1283:1290  owner() */\n      tag_314\n        /* \"Ownable.sol\":1283:1288  owner */\n      tag_113\n        /* \"Ownable.sol\":1283:1290  owner() */\n      jump\t// in\n    tag_314:\n      sub(shl(0xa0, 0x01), 0x01)\n        /* \"Ownable.sol\":1283:1306  owner() == _msgSender() */\n      and\n      eq\n        /* \"Ownable.sol\":1275:1343  require(owner() == _msgSender(), \"Ownable: caller is not the owner\") */\n      tag_315\n      jumpi\n      mload(0x40)\n      shl(0xe5, 0x461bcd)\n      dup2\n      mstore\n      0x04\n      add\n      tag_169\n      swap1\n      tag_214\n      jump\t// in\n    tag_315:\n        /* \"Ownable.sol\":1779:1809  _transferOwnership(address(0)) */\n      tag_318\n        /* \"Ownable.sol\":1806:1807  0 */\n      0x00\n        /* \"Ownable.sol\":1779:1797  _transferOwnership */\n      tag_245\n        /* \"Ownable.sol\":1779:1809  _transferOwnership(address(0)) */\n      jump\t// in\n    tag_318:\n        /* \"Ownable.sol\":1714:1817  function renounceOwnership() public virtual onlyOwner {\r... */\n      jump\t// out\n        /* \"USDm.sol\":5428:5548  function minterAllowance(address minter) external view returns (uint256) {\r... */\n    tag_110:\n      sub(shl(0xa0, 0x01), 0x01)\n        /* \"USDm.sol\":5519:5540  minterAllowed[minter] */\n      and\n        /* \"USDm.sol\":5492:5499  uint256 */\n      0x00\n        /* \"USDm.sol\":5519:5540  minterAllowed[minter] */\n      swap1\n      dup2\n      mstore\n        /* \"USDm.sol\":5519:5532  minterAllowed */\n      0x0e\n        /* \"USDm.sol\":5519:5540  minterAllowed[minter] */\n      0x20\n      mstore\n      0x40\n      swap1\n      keccak256\n      sload\n      swap1\n        /* \"USDm.sol\":5428:5548  function minterAllowance(address minter) external view returns (uint256) {\r... */\n      jump\t// out\n        /* \"Ownable.sol\":1063:1150  function owner() public view virtual returns (address) {\r... */\n    tag_113:\n        /* \"Ownable.sol\":1109:1116  address */\n      0x00\n        /* \"Ownable.sol\":1136:1142  _owner */\n      sload\n      sub(shl(0xa0, 0x01), 0x01)\n      and\n        /* \"Ownable.sol\":1063:1150  function owner() public view virtual returns (address) {\r... */\n      swap1\n      jump\t// out\n        /* \"USDm.sol\":1526:1546  string public symbol */\n    tag_116:\n      0x06\n      dup1\n      sload\n      tag_160\n      swap1\n      tag_161\n      jump\t// in\n        /* \"Pausable.sol\":641:662  address public pauser */\n    tag_119:\n      and(sub(shl(0xa0, 0x01), 0x01), sload(0x01))\n      dup2\n      jump\t// out\n        /* \"USDm.sol\":8715:8985  function transfer(address to, uint256 value)\r... */\n    tag_123:\n        /* \"USDm.sol\":8901:8905  bool */\n      0x00\n        /* \"Pausable.sol\":1755:1763  paused() */\n      tag_327\n        /* \"Pausable.sol\":1755:1761  paused */\n      tag_100\n        /* \"Pausable.sol\":1755:1763  paused() */\n      jump\t// in\n    tag_327:\n        /* \"Pausable.sol\":1754:1763  !paused() */\n      iszero\n        /* \"Pausable.sol\":1746:1784  require(!paused(), \"Pausable: paused\") */\n      tag_328\n      jumpi\n      mload(0x40)\n      shl(0xe5, 0x461bcd)\n      dup2\n      mstore\n      0x04\n      add\n      tag_169\n      swap1\n      tag_170\n      jump\t// in\n    tag_328:\n        /* \"USDm.sol\":8843:8853  msg.sender */\n      caller\n        /* \"Blacklistable.sol\":2120:2141  blacklisted[_account] */\n      0x00\n      dup2\n      dup2\n      mstore\n        /* \"Blacklistable.sol\":2120:2131  blacklisted */\n      0x03\n        /* \"Blacklistable.sol\":2120:2141  blacklisted[_account] */\n      0x20\n      mstore\n      0x40\n      swap1\n      keccak256\n      sload\n      0xff\n      and\n        /* \"Blacklistable.sol\":2119:2141  !blacklisted[_account] */\n      iszero\n        /* \"Blacklistable.sol\":2097:2206  require(\r... */\n      tag_331\n      jumpi\n      mload(0x40)\n      shl(0xe5, 0x461bcd)\n      dup2\n      mstore\n      0x04\n      add\n      tag_169\n      swap1\n      tag_174\n      jump\t// in\n    tag_331:\n      sub(shl(0xa0, 0x01), 0x01)\n        /* \"Blacklistable.sol\":2120:2141  blacklisted[_account] */\n      dup5\n      and\n      0x00\n      swap1\n      dup2\n      mstore\n        /* \"Blacklistable.sol\":2120:2131  blacklisted */\n      0x03\n        /* \"Blacklistable.sol\":2120:2141  blacklisted[_account] */\n      0x20\n      mstore\n      0x40\n      swap1\n      keccak256\n      sload\n        /* \"USDm.sol\":8879:8881  to */\n      dup5\n      swap1\n        /* \"Blacklistable.sol\":2120:2141  blacklisted[_account] */\n      0xff\n      and\n        /* \"Blacklistable.sol\":2119:2141  !blacklisted[_account] */\n      iszero\n        /* \"Blacklistable.sol\":2097:2206  require(\r... */\n      tag_334\n      jumpi\n      mload(0x40)\n      shl(0xe5, 0x461bcd)\n      dup2\n      mstore\n      0x04\n      add\n      tag_169\n      swap1\n      tag_174\n      jump\t// in\n    tag_334:\n        /* \"USDm.sol\":8923:8955  _transfer(msg.sender, to, value) */\n      tag_179\n        /* \"USDm.sol\":8933:8943  msg.sender */\n      caller\n        /* \"USDm.sol\":8945:8947  to */\n      dup7\n        /* \"USDm.sol\":8949:8954  value */\n      dup7\n        /* \"USDm.sol\":8923:8932  _transfer */\n      tag_205\n        /* \"USDm.sol\":8923:8955  _transfer(msg.sender, to, value) */\n      jump\t// in\n        /* \"USDm.sol\":11582:11887  function updateMasterMinter(address _newMasterMinter) external onlyOwner {\r... */\n    tag_127:\n        /* \"Ownable.sol\":1294:1306  _msgSender() */\n      tag_339\n        /* \"Ownable.sol\":1294:1304  _msgSender */\n      tag_210\n        /* \"Ownable.sol\":1294:1306  _msgSender() */\n      jump\t// in\n    tag_339:\n      sub(shl(0xa0, 0x01), 0x01)\n        /* \"Ownable.sol\":1283:1306  owner() == _msgSender() */\n      and\n        /* \"Ownable.sol\":1283:1290  owner() */\n      tag_340\n        /* \"Ownable.sol\":1283:1288  owner */\n      tag_113\n        /* \"Ownable.sol\":1283:1290  owner() */\n      jump\t// in\n    tag_340:\n      sub(shl(0xa0, 0x01), 0x01)\n        /* \"Ownable.sol\":1283:1306  owner() == _msgSender() */\n      and\n      eq\n        /* \"Ownable.sol\":1275:1343  require(owner() == _msgSender(), \"Ownable: caller is not the owner\") */\n      tag_341\n      jumpi\n      mload(0x40)\n      shl(0xe5, 0x461bcd)\n      dup2\n      mstore\n      0x04\n      add\n      tag_169\n      swap1\n      tag_214\n      jump\t// in\n    tag_341:\n      sub(shl(0xa0, 0x01), 0x01)\n        /* \"USDm.sol\":11688:11718  _newMasterMinter != address(0) */\n      dup2\n      and\n        /* \"USDm.sol\":11666:11788  require(\r... */\n      tag_344\n      jumpi\n      mload(0x40)\n      shl(0xe5, 0x461bcd)\n      dup2\n      mstore\n      0x04\n      add\n      tag_169\n      swap1\n      tag_230\n      jump\t// in\n    tag_344:\n        /* \"USDm.sol\":11799:11811  masterMinter */\n      0x09\n        /* \"USDm.sol\":11799:11830  masterMinter = _newMasterMinter */\n      dup1\n      sload\n      not(sub(shl(0xa0, 0x01), 0x01))\n      and\n      sub(shl(0xa0, 0x01), 0x01)\n      dup4\n      dup2\n      and\n      swap2\n      swap1\n      swap2\n      or\n      swap2\n      dup3\n      swap1\n      sstore\n        /* \"USDm.sol\":11846:11879  MasterMinterChanged(masterMinter) */\n      mload(0x40)\n        /* \"USDm.sol\":11866:11878  masterMinter */\n      swap2\n      and\n      swap1\n        /* \"USDm.sol\":11846:11879  MasterMinterChanged(masterMinter) */\n      0xdb66dfa9c6b8f5226fe9aac7e51897ae8ee94ac31dc70bb6c9900b2574b707e6\n      swap1\n      0x00\n      swap1\n      log2\n        /* \"USDm.sol\":11582:11887  function updateMasterMinter(address _newMasterMinter) external onlyOwner {\r... */\n      pop\n      jump\t// out\n        /* \"USDm.sol\":5661:5767  function isMinter(address account) external view returns (bool) {\r... */\n    tag_130:\n      sub(shl(0xa0, 0x01), 0x01)\n        /* \"USDm.sol\":5743:5759  minters[account] */\n      and\n        /* \"USDm.sol\":5719:5723  bool */\n      0x00\n        /* \"USDm.sol\":5743:5759  minters[account] */\n      swap1\n      dup2\n      mstore\n        /* \"USDm.sol\":5743:5750  minters */\n      0x0d\n        /* \"USDm.sol\":5743:5759  minters[account] */\n      0x20\n      mstore\n      0x40\n      swap1\n      keccak256\n      sload\n      0xff\n      and\n      swap1\n        /* \"USDm.sol\":5661:5767  function isMinter(address account) external view returns (bool) {\r... */\n      jump\t// out\n        /* \"Blacklistable.sol\":3014:3320  function updateBlacklister(address _newBlacklister) external onlyOwner {\r... */\n    tag_134:\n        /* \"Ownable.sol\":1294:1306  _msgSender() */\n      tag_348\n        /* \"Ownable.sol\":1294:1304  _msgSender */\n      tag_210\n        /* \"Ownable.sol\":1294:1306  _msgSender() */\n      jump\t// in\n    tag_348:\n      sub(shl(0xa0, 0x01), 0x01)\n        /* \"Ownable.sol\":1283:1306  owner() == _msgSender() */\n      and\n        /* \"Ownable.sol\":1283:1290  owner() */\n      tag_349\n        /* \"Ownable.sol\":1283:1288  owner */\n      tag_113\n        /* \"Ownable.sol\":1283:1290  owner() */\n      jump\t// in\n    tag_349:\n      sub(shl(0xa0, 0x01), 0x01)\n        /* \"Ownable.sol\":1283:1306  owner() == _msgSender() */\n      and\n      eq\n        /* \"Ownable.sol\":1275:1343  require(owner() == _msgSender(), \"Ownable: caller is not the owner\") */\n      tag_350\n      jumpi\n      mload(0x40)\n      shl(0xe5, 0x461bcd)\n      dup2\n      mstore\n      0x04\n      add\n      tag_169\n      swap1\n      tag_214\n      jump\t// in\n    tag_350:\n      sub(shl(0xa0, 0x01), 0x01)\n        /* \"Blacklistable.sol\":3118:3147  _newBlacklister != address(0) */\n      dup2\n      and\n        /* \"Blacklistable.sol\":3096:3225  require(\r... */\n      tag_353\n      jumpi\n      mload(0x40)\n      shl(0xe5, 0x461bcd)\n      dup2\n      mstore\n      0x04\n      add\n      tag_169\n      swap1\n      tag_355\n      jump\t// in\n    tag_353:\n        /* \"Blacklistable.sol\":3236:3247  blacklister */\n      0x02\n        /* \"Blacklistable.sol\":3236:3265  blacklister = _newBlacklister */\n      dup1\n      sload\n      not(sub(shl(0xa0, 0x01), 0x01))\n      and\n      sub(shl(0xa0, 0x01), 0x01)\n      dup4\n      dup2\n      and\n      swap2\n      swap1\n      swap2\n      or\n      swap2\n      dup3\n      swap1\n      sstore\n        /* \"Blacklistable.sol\":3281:3312  BlacklisterChanged(blacklister) */\n      mload(0x40)\n        /* \"Blacklistable.sol\":3300:3311  blacklister */\n      swap2\n      and\n      swap1\n        /* \"Blacklistable.sol\":3281:3312  BlacklisterChanged(blacklister) */\n      0xc67398012c111ce95ecb7429b933096c977380ee6c421175a71a4a4c6c88c06e\n      swap1\n      0x00\n      swap1\n      log2\n        /* \"Blacklistable.sol\":3014:3320  function updateBlacklister(address _newBlacklister) external onlyOwner {\r... */\n      pop\n      jump\t// out\n        /* \"Rescuable.sol\":2131:2314  function rescueERC20(\r... */\n    tag_138:\n        /* \"Rescuable.sol\":1827:1835  _rescuer */\n      and(sub(shl(0xa0, 0x01), 0x01), sload(0x04))\n        /* \"Rescuable.sol\":1813:1823  msg.sender */\n      caller\n        /* \"Rescuable.sol\":1813:1835  msg.sender == _rescuer */\n      eq\n        /* \"Rescuable.sol\":1805:1876  require(msg.sender == _rescuer, \"Rescuable: caller is not the rescuer\") */\n      tag_357\n      jumpi\n      mload(0x40)\n      shl(0xe5, 0x461bcd)\n      dup2\n      mstore\n      0x04\n      add\n      tag_169\n      swap1\n      tag_359\n      jump\t// in\n    tag_357:\n        /* \"Rescuable.sol\":2268:2306  tokenContract.safeTransfer(to, amount) */\n      tag_361\n      sub(shl(0xa0, 0x01), 0x01)\n        /* \"Rescuable.sol\":2268:2294  tokenContract.safeTransfer */\n      dup5\n      and\n        /* \"Rescuable.sol\":2295:2297  to */\n      dup4\n        /* \"Rescuable.sol\":2299:2305  amount */\n      dup4\n        /* \"Rescuable.sol\":2268:2294  tokenContract.safeTransfer */\n      tag_362\n        /* \"Rescuable.sol\":2268:2306  tokenContract.safeTransfer(to, amount) */\n      jump\t// in\n    tag_361:\n        /* \"Rescuable.sol\":2131:2314  function rescueERC20(\r... */\n      pop\n      pop\n      pop\n      jump\t// out\n        /* \"Blacklistable.sol\":1397:1423  address public blacklister */\n    tag_140:\n      and(sub(shl(0xa0, 0x01), 0x01), sload(0x02))\n      dup2\n      jump\t// out\n        /* \"USDm.sol\":6027:6209  function allowance(address owner, address spender)\r... */\n    tag_145:\n      sub(shl(0xa0, 0x01), 0x01)\n        /* \"USDm.sol\":6178:6192  allowed[owner] */\n      swap2\n      dup3\n      and\n        /* \"USDm.sol\":6146:6153  uint256 */\n      0x00\n        /* \"USDm.sol\":6178:6192  allowed[owner] */\n      swap1\n      dup2\n      mstore\n        /* \"USDm.sol\":6178:6185  allowed */\n      0x0b\n        /* \"USDm.sol\":6178:6192  allowed[owner] */\n      0x20\n      swap1\n      dup2\n      mstore\n      0x40\n      dup1\n      dup4\n      keccak256\n        /* \"USDm.sol\":6178:6201  allowed[owner][spender] */\n      swap4\n      swap1\n      swap5\n      and\n      dup3\n      mstore\n      swap2\n      swap1\n      swap2\n      mstore\n      keccak256\n      sload\n      swap1\n        /* \"USDm.sol\":6027:6209  function allowance(address owner, address spender)\r... */\n      jump\t// out\n        /* \"USDm.sol\":1581:1603  string public currency */\n    tag_148:\n      0x08\n      dup1\n      sload\n      tag_160\n      swap1\n      tag_161\n      jump\t// in\n        /* \"Ownable.sol\":1972:2173  function transferOwnership(address newOwner) public virtual onlyOwner {\r... */\n    tag_152:\n        /* \"Ownable.sol\":1294:1306  _msgSender() */\n      tag_370\n        /* \"Ownable.sol\":1294:1304  _msgSender */\n      tag_210\n        /* \"Ownable.sol\":1294:1306  _msgSender() */\n      jump\t// in\n    tag_370:\n      sub(shl(0xa0, 0x01), 0x01)\n        /* \"Ownable.sol\":1283:1306  owner() == _msgSender() */\n      and\n        /* \"Ownable.sol\":1283:1290  owner() */\n      tag_371\n        /* \"Ownable.sol\":1283:1288  owner */\n      tag_113\n        /* \"Ownable.sol\":1283:1290  owner() */\n      jump\t// in\n    tag_371:\n      sub(shl(0xa0, 0x01), 0x01)\n        /* \"Ownable.sol\":1283:1306  owner() == _msgSender() */\n      and\n      eq\n        /* \"Ownable.sol\":1275:1343  require(owner() == _msgSender(), \"Ownable: caller is not the owner\") */\n      tag_372\n      jumpi\n      mload(0x40)\n      shl(0xe5, 0x461bcd)\n      dup2\n      mstore\n      0x04\n      add\n      tag_169\n      swap1\n      tag_214\n      jump\t// in\n    tag_372:\n      sub(shl(0xa0, 0x01), 0x01)\n        /* \"Ownable.sol\":2061:2083  newOwner != address(0) */\n      dup2\n      and\n        /* \"Ownable.sol\":2053:2126  require(newOwner != address(0), \"Ownable: new owner is the zero address\") */\n      tag_375\n      jumpi\n      mload(0x40)\n      shl(0xe5, 0x461bcd)\n      dup2\n      mstore\n      0x04\n      add\n      tag_169\n      swap1\n      tag_377\n      jump\t// in\n    tag_375:\n        /* \"Ownable.sol\":2137:2165  _transferOwnership(newOwner) */\n      tag_378\n        /* \"Ownable.sol\":2156:2164  newOwner */\n      dup2\n        /* \"Ownable.sol\":2137:2155  _transferOwnership */\n      tag_245\n        /* \"Ownable.sol\":2137:2165  _transferOwnership(newOwner) */\n      jump\t// in\n    tag_378:\n        /* \"Ownable.sol\":1972:2173  function transferOwnership(address newOwner) public virtual onlyOwner {\r... */\n      pop\n      jump\t// out\n        /* \"Blacklistable.sol\":2574:2720  function blacklist(address _account) external onlyBlacklister {\r... */\n    tag_155:\n        /* \"Blacklistable.sol\":1815:1826  blacklister */\n      and(sub(shl(0xa0, 0x01), 0x01), sload(0x02))\n        /* \"Blacklistable.sol\":1801:1811  msg.sender */\n      caller\n        /* \"Blacklistable.sol\":1801:1826  msg.sender == blacklister */\n      eq\n        /* \"Blacklistable.sol\":1779:1898  require(\r... */\n      tag_380\n      jumpi\n      mload(0x40)\n      shl(0xe5, 0x461bcd)\n      dup2\n      mstore\n      0x04\n      add\n      tag_169\n      swap1\n      tag_185\n      jump\t// in\n    tag_380:\n      sub(shl(0xa0, 0x01), 0x01)\n        /* \"Blacklistable.sol\":2647:2668  blacklisted[_account] */\n      dup2\n      and\n      0x00\n      dup2\n      dup2\n      mstore\n        /* \"Blacklistable.sol\":2647:2658  blacklisted */\n      0x03\n        /* \"Blacklistable.sol\":2647:2668  blacklisted[_account] */\n      0x20\n      mstore\n      0x40\n      dup1\n      dup3\n      keccak256\n        /* \"Blacklistable.sol\":2647:2675  blacklisted[_account] = true */\n      dup1\n      sload\n      not(0xff)\n      and\n        /* \"Blacklistable.sol\":2671:2675  true */\n      0x01\n        /* \"Blacklistable.sol\":2647:2675  blacklisted[_account] = true */\n      or\n      swap1\n      sstore\n        /* \"Blacklistable.sol\":2691:2712  Blacklisted(_account) */\n      mload\n      0xffa4e6181777692565cf28528fc88fd1516ea86b56da075235fa575af6a4b855\n      swap2\n        /* \"Blacklistable.sol\":2647:2668  blacklisted[_account] */\n      swap1\n        /* \"Blacklistable.sol\":2691:2712  Blacklisted(_account) */\n      log2\n        /* \"Blacklistable.sol\":2574:2720  function blacklist(address _account) external onlyBlacklister {\r... */\n      pop\n      jump\t// out\n        /* \"Blacklistable.sol\":2343:2460  function isBlacklisted(address _account) external view returns (bool) {\r... */\n    tag_158:\n      sub(shl(0xa0, 0x01), 0x01)\n        /* \"Blacklistable.sol\":2431:2452  blacklisted[_account] */\n      and\n        /* \"Blacklistable.sol\":2407:2411  bool */\n      0x00\n        /* \"Blacklistable.sol\":2431:2452  blacklisted[_account] */\n      swap1\n      dup2\n      mstore\n        /* \"Blacklistable.sol\":2431:2442  blacklisted */\n      0x03\n        /* \"Blacklistable.sol\":2431:2452  blacklisted[_account] */\n      0x20\n      mstore\n      0x40\n      swap1\n      keccak256\n      sload\n      0xff\n      and\n      swap1\n        /* \"Blacklistable.sol\":2343:2460  function isBlacklisted(address _account) external view returns (bool) {\r... */\n      jump\t// out\n        /* \"USDm.sol\":7379:7751  function _approve(\r... */\n    tag_180:\n      sub(shl(0xa0, 0x01), 0x01)\n        /* \"USDm.sol\":7515:7534  owner != address(0) */\n      dup4\n      and\n        /* \"USDm.sol\":7507:7575  require(owner != address(0), \"ERC20: approve from the zero address\") */\n      tag_385\n      jumpi\n      mload(0x40)\n      shl(0xe5, 0x461bcd)\n      dup2\n      mstore\n      0x04\n      add\n      tag_169\n      swap1\n      tag_387\n      jump\t// in\n    tag_385:\n      sub(shl(0xa0, 0x01), 0x01)\n        /* \"USDm.sol\":7594:7615  spender != address(0) */\n      dup3\n      and\n        /* \"USDm.sol\":7586:7654  require(spender != address(0), \"ERC20: approve to the zero address\") */\n      tag_388\n      jumpi\n      mload(0x40)\n      shl(0xe5, 0x461bcd)\n      dup2\n      mstore\n      0x04\n      add\n      tag_169\n      swap1\n      tag_390\n      jump\t// in\n    tag_388:\n      sub(shl(0xa0, 0x01), 0x01)\n        /* \"USDm.sol\":7665:7679  allowed[owner] */\n      dup1\n      dup5\n      and\n      0x00\n      dup2\n      dup2\n      mstore\n        /* \"USDm.sol\":7665:7672  allowed */\n      0x0b\n        /* \"USDm.sol\":7665:7679  allowed[owner] */\n      0x20\n      swap1\n      dup2\n      mstore\n      0x40\n      dup1\n      dup4\n      keccak256\n        /* \"USDm.sol\":7665:7688  allowed[owner][spender] */\n      swap5\n      dup8\n      and\n      dup1\n      dup5\n      mstore\n      swap5\n      swap1\n      swap2\n      mstore\n      swap1\n      dup2\n      swap1\n      keccak256\n        /* \"USDm.sol\":7665:7696  allowed[owner][spender] = value */\n      dup5\n      swap1\n      sstore\n        /* \"USDm.sol\":7712:7743  Approval(owner, spender, value) */\n      mload\n      0x8c5be1e5ebec7d5bd14f71427d1e84f3dd0314c0f7b2291e5b200ac8c7c3b925\n      swap1\n      tag_300\n      swap1\n        /* \"USDm.sol\":7691:7696  value */\n      dup6\n      swap1\n        /* \"USDm.sol\":7712:7743  Approval(owner, spender, value) */\n      tag_55\n      jump\t// in\n        /* \"USDm.sol\":9177:9716  function _transfer(\r... */\n    tag_205:\n      sub(shl(0xa0, 0x01), 0x01)\n        /* \"USDm.sol\":9308:9326  from != address(0) */\n      dup4\n      and\n        /* \"USDm.sol\":9300:9368  require(from != address(0), \"ERC20: transfer from the zero address\") */\n      tag_393\n      jumpi\n      mload(0x40)\n      shl(0xe5, 0x461bcd)\n      dup2\n      mstore\n      0x04\n      add\n      tag_169\n      swap1\n      tag_395\n      jump\t// in\n    tag_393:\n      sub(shl(0xa0, 0x01), 0x01)\n        /* \"USDm.sol\":9387:9403  to != address(0) */\n      dup3\n      and\n        /* \"USDm.sol\":9379:9443  require(to != address(0), \"ERC20: transfer to the zero address\") */\n      tag_396\n      jumpi\n      mload(0x40)\n      shl(0xe5, 0x461bcd)\n      dup2\n      mstore\n      0x04\n      add\n      tag_169\n      swap1\n      tag_398\n      jump\t// in\n    tag_396:\n      sub(shl(0xa0, 0x01), 0x01)\n        /* \"USDm.sol\":9485:9499  balances[from] */\n      dup4\n      and\n      0x00\n      swap1\n      dup2\n      mstore\n        /* \"USDm.sol\":9485:9493  balances */\n      0x0a\n        /* \"USDm.sol\":9485:9499  balances[from] */\n      0x20\n      mstore\n      0x40\n      swap1\n      keccak256\n      sload\n        /* \"USDm.sol\":9476:9499  value <= balances[from] */\n      dup2\n      gt\n      iszero\n        /* \"USDm.sol\":9454:9565  require(\r... */\n      tag_399\n      jumpi\n      mload(0x40)\n      shl(0xe5, 0x461bcd)\n      dup2\n      mstore\n      0x04\n      add\n      tag_169\n      swap1\n      tag_401\n      jump\t// in\n    tag_399:\n      sub(shl(0xa0, 0x01), 0x01)\n        /* \"USDm.sol\":9595:9609  balances[from] */\n      dup4\n      and\n      0x00\n      swap1\n      dup2\n      mstore\n        /* \"USDm.sol\":9595:9603  balances */\n      0x0a\n        /* \"USDm.sol\":9595:9609  balances[from] */\n      0x20\n      mstore\n      0x40\n      swap1\n      keccak256\n      sload\n        /* \"USDm.sol\":9595:9619  balances[from] - (value) */\n      tag_402\n      swap1\n        /* \"USDm.sol\":9613:9618  value */\n      dup3\n      swap1\n        /* \"USDm.sol\":9595:9619  balances[from] - (value) */\n      tag_207\n      jump\t// in\n    tag_402:\n      sub(shl(0xa0, 0x01), 0x01)\n        /* \"USDm.sol\":9578:9592  balances[from] */\n      dup1\n      dup6\n      and\n      0x00\n      swap1\n      dup2\n      mstore\n        /* \"USDm.sol\":9578:9586  balances */\n      0x0a\n        /* \"USDm.sol\":9578:9592  balances[from] */\n      0x20\n      mstore\n      0x40\n      dup1\n      dup3\n      keccak256\n        /* \"USDm.sol\":9578:9619  balances[from] = balances[from] - (value) */\n      swap4\n      swap1\n      swap4\n      sstore\n        /* \"USDm.sol\":9645:9657  balances[to] */\n      swap1\n      dup5\n      and\n      dup2\n      mstore\n      keccak256\n      sload\n        /* \"USDm.sol\":9645:9667  balances[to] + (value) */\n      tag_403\n      swap1\n        /* \"USDm.sol\":9661:9666  value */\n      dup3\n      swap1\n        /* \"USDm.sol\":9645:9667  balances[to] + (value) */\n      tag_275\n      jump\t// in\n    tag_403:\n      sub(shl(0xa0, 0x01), 0x01)\n        /* \"USDm.sol\":9630:9642  balances[to] */\n      dup1\n      dup5\n      and\n      0x00\n      dup2\n      dup2\n      mstore\n        /* \"USDm.sol\":9630:9638  balances */\n      0x0a\n        /* \"USDm.sol\":9630:9642  balances[to] */\n      0x20\n      mstore\n      0x40\n      swap1\n      dup2\n      swap1\n      keccak256\n        /* \"USDm.sol\":9630:9667  balances[to] = balances[to] + (value) */\n      swap4\n      swap1\n      swap4\n      sstore\n        /* \"USDm.sol\":9683:9708  Transfer(from, to, value) */\n      swap2\n      mload\n      swap1\n      dup6\n      and\n      swap1\n      0xddf252ad1be2c89b69c2b068fc378daa952ba7f163c4a11628f55a4df523b3ef\n      swap1\n      tag_300\n      swap1\n        /* \"USDm.sol\":9702:9707  value */\n      dup6\n      swap1\n        /* \"USDm.sol\":9683:9708  Transfer(from, to, value) */\n      tag_55\n      jump\t// in\n        /* \"Context.sol\":656:754  function _msgSender() internal view virtual returns (address) {\r... */\n    tag_210:\n        /* \"Context.sol\":736:746  msg.sender */\n      caller\n        /* \"Context.sol\":656:754  function _msgSender() internal view virtual returns (address) {\r... */\n      swap1\n      jump\t// out\n        /* \"Ownable.sol\":2333:2524  function _transferOwnership(address newOwner) internal virtual {\r... */\n    tag_245:\n        /* \"Ownable.sol\":2407:2423  address oldOwner */\n      0x00\n        /* \"Ownable.sol\":2426:2432  _owner */\n      dup1\n      sload\n      sub(shl(0xa0, 0x01), 0x01)\n        /* \"Ownable.sol\":2443:2460  _owner = newOwner */\n      dup4\n      dup2\n      and\n      not(sub(shl(0xa0, 0x01), 0x01))\n      dup4\n      and\n      dup2\n      or\n      dup5\n      sstore\n        /* \"Ownable.sol\":2476:2516  OwnershipTransferred(oldOwner, newOwner) */\n      mload(0x40)\n        /* \"Ownable.sol\":2426:2432  _owner */\n      swap2\n      swap1\n      swap3\n      and\n      swap3\n      dup4\n      swap2\n        /* \"Ownable.sol\":2476:2516  OwnershipTransferred(oldOwner, newOwner) */\n      0x8be0079c531659141344cd1fd0a4f28419497f9722a3daafe3b4186f6b6457e0\n      swap2\n        /* \"Ownable.sol\":2407:2423  address oldOwner */\n      swap1\n        /* \"Ownable.sol\":2476:2516  OwnershipTransferred(oldOwner, newOwner) */\n      log3\n        /* \"Ownable.sol\":2333:2524  function _transferOwnership(address newOwner) internal virtual {\r... */\n      pop\n      pop\n      jump\t// out\n        /* \"SafeERC20.sol\":707:918  function safeTransfer(\r... */\n    tag_362:\n        /* \"SafeERC20.sol\":824:910  _callOptionalReturn(token, abi.encodeWithSelector(token.transfer.selector, to, value)) */\n      tag_361\n        /* \"SafeERC20.sol\":844:849  token */\n      dup4\n        /* \"SafeERC20.sol\":874:897  token.transfer.selector */\n      shl(0xe0, 0xa9059cbb)\n        /* \"SafeERC20.sol\":899:901  to */\n      dup5\n        /* \"SafeERC20.sol\":903:908  value */\n      dup5\n        /* \"SafeERC20.sol\":851:909  abi.encodeWithSelector(token.transfer.selector, to, value) */\n      add(0x24, mload(0x40))\n      tag_409\n      swap3\n      swap2\n      swap1\n      tag_410\n      jump\t// in\n    tag_409:\n      0x40\n      dup1\n      mload\n      not(0x1f)\n      dup2\n      dup5\n      sub\n      add\n      dup2\n      mstore\n      swap2\n      swap1\n      mstore\n      0x20\n      dup2\n      add\n      dup1\n      mload\n      sub(shl(0xe0, 0x01), 0x01)\n      and\n      not(sub(shl(0xe0, 0x01), 0x01))\n      swap1\n      swap4\n      and\n      swap3\n      swap1\n      swap3\n      or\n      swap1\n      swap2\n      mstore\n        /* \"SafeERC20.sol\":3704:3727  bytes memory returndata */\n      0x00\n        /* \"SafeERC20.sol\":3730:3799  address(token).functionCall(data, \"SafeERC20: low-level call failed\") */\n      tag_413\n        /* \"SafeERC20.sol\":3758:3762  data */\n      dup3\n        /* \"SafeERC20.sol\":3730:3799  address(token).functionCall(data, \"SafeERC20: low-level call failed\") */\n      mload(0x40)\n      dup1\n      0x40\n      add\n      0x40\n      mstore\n      dup1\n      0x20\n      dup2\n      mstore\n      0x20\n      add\n      0x5361666545524332303a206c6f772d6c6576656c2063616c6c206661696c6564\n      dup2\n      mstore\n      pop\n        /* \"SafeERC20.sol\":3738:3743  token */\n      dup6\n      sub(shl(0xa0, 0x01), 0x01)\n        /* \"SafeERC20.sol\":3730:3757  address(token).functionCall */\n      and\n      tag_414\n      swap1\n        /* \"SafeERC20.sol\":3730:3799  address(token).functionCall(data, \"SafeERC20: low-level call failed\") */\n      swap3\n      swap2\n      swap1\n      0xffffffff\n      and\n      jump\t// in\n    tag_413:\n        /* \"SafeERC20.sol\":3814:3831  returndata.length */\n      dup1\n      mload\n        /* \"SafeERC20.sol\":3704:3799  bytes memory returndata = address(token).functionCall(data, \"SafeERC20: low-level call failed\") */\n      swap1\n      swap2\n      pop\n        /* \"SafeERC20.sol\":3814:3835  returndata.length > 0 */\n      iszero\n        /* \"SafeERC20.sol\":3810:3989  if (returndata.length > 0) {\r... */\n      tag_361\n      jumpi\n        /* \"SafeERC20.sol\":3911:3921  returndata */\n      dup1\n        /* \"SafeERC20.sol\":3900:3930  abi.decode(returndata, (bool)) */\n      dup1\n      0x20\n      add\n      swap1\n      mload\n      dup2\n      add\n      swap1\n      tag_416\n      swap2\n      swap1\n      tag_417\n      jump\t// in\n    tag_416:\n        /* \"SafeERC20.sol\":3892:3977  require(abi.decode(returndata, (bool)), \"SafeERC20: ERC20 operation did not succeed\") */\n      tag_361\n      jumpi\n      mload(0x40)\n      shl(0xe5, 0x461bcd)\n      dup2\n      mstore\n      0x04\n      add\n      tag_169\n      swap1\n      tag_420\n      jump\t// in\n        /* \"Address.sol\":3955:4184  function functionCall(\r... */\n    tag_414:\n        /* \"Address.sol\":4092:4104  bytes memory */\n      0x60\n        /* \"Address.sol\":4124:4176  functionCallWithValue(target, data, 0, errorMessage) */\n      tag_422\n        /* \"Address.sol\":4146:4152  target */\n      dup5\n        /* \"Address.sol\":4154:4158  data */\n      dup5\n        /* \"Address.sol\":4160:4161  0 */\n      0x00\n        /* \"Address.sol\":4163:4175  errorMessage */\n      dup6\n        /* \"Address.sol\":4124:4145  functionCallWithValue */\n      tag_423\n        /* \"Address.sol\":4124:4176  functionCallWithValue(target, data, 0, errorMessage) */\n      jump\t// in\n    tag_422:\n        /* \"Address.sol\":4117:4176  return functionCallWithValue(target, data, 0, errorMessage) */\n      swap1\n      pop\n        /* \"Address.sol\":3955:4184  function functionCall(\r... */\n    tag_421:\n      swap4\n      swap3\n      pop\n      pop\n      pop\n      jump\t// out\n        /* \"Address.sol\":5075:5585  function functionCallWithValue(\r... */\n    tag_423:\n        /* \"Address.sol\":5245:5257  bytes memory */\n      0x60\n        /* \"Address.sol\":5303:5308  value */\n      dup3\n        /* \"Address.sol\":5278:5299  address(this).balance */\n      selfbalance\n        /* \"Address.sol\":5278:5308  address(this).balance >= value */\n      lt\n      iszero\n        /* \"Address.sol\":5270:5351  require(address(this).balance >= value, \"Address: insufficient balance for call\") */\n      tag_425\n      jumpi\n      mload(0x40)\n      shl(0xe5, 0x461bcd)\n      dup2\n      mstore\n      0x04\n      add\n      tag_169\n      swap1\n      tag_427\n      jump\t// in\n    tag_425:\n        /* \"Address.sol\":5370:5388  isContract(target) */\n      tag_428\n        /* \"Address.sol\":5381:5387  target */\n      dup6\n        /* \"Address.sol\":5370:5380  isContract */\n      tag_429\n        /* \"Address.sol\":5370:5388  isContract(target) */\n      jump\t// in\n    tag_428:\n        /* \"Address.sol\":5362:5422  require(isContract(target), \"Address: call to non-contract\") */\n      tag_430\n      jumpi\n      mload(0x40)\n      shl(0xe5, 0x461bcd)\n      dup2\n      mstore\n      0x04\n      add\n      tag_169\n      swap1\n      tag_432\n      jump\t// in\n    tag_430:\n        /* \"Address.sol\":5436:5448  bool success */\n      0x00\n        /* \"Address.sol\":5450:5473  bytes memory returndata */\n      dup1\n        /* \"Address.sol\":5477:5483  target */\n      dup7\n      sub(shl(0xa0, 0x01), 0x01)\n        /* \"Address.sol\":5477:5488  target.call */\n      and\n        /* \"Address.sol\":5496:5501  value */\n      dup6\n        /* \"Address.sol\":5503:5507  data */\n      dup8\n        /* \"Address.sol\":5477:5508  target.call{value: value}(data) */\n      mload(0x40)\n      tag_433\n      swap2\n      swap1\n      tag_434\n      jump\t// in\n    tag_433:\n      0x00\n      mload(0x40)\n      dup1\n      dup4\n      sub\n      dup2\n      dup6\n      dup8\n      gas\n      call\n      swap3\n      pop\n      pop\n      pop\n      returndatasize\n      dup1\n      0x00\n      dup2\n      eq\n      tag_437\n      jumpi\n      mload(0x40)\n      swap2\n      pop\n      and(add(returndatasize, 0x3f), not(0x1f))\n      dup3\n      add\n      0x40\n      mstore\n      returndatasize\n      dup3\n      mstore\n      returndatasize\n      0x00\n      0x20\n      dup5\n      add\n      returndatacopy\n      jump(tag_436)\n    tag_437:\n      0x60\n      swap2\n      pop\n    tag_436:\n      pop\n        /* \"Address.sol\":5435:5508  (bool success, bytes memory returndata) = target.call{value: value}(data) */\n      swap2\n      pop\n      swap2\n      pop\n        /* \"Address.sol\":5526:5577  verifyCallResult(success, returndata, errorMessage) */\n      tag_438\n        /* \"Address.sol\":5543:5550  success */\n      dup3\n        /* \"Address.sol\":5552:5562  returndata */\n      dup3\n        /* \"Address.sol\":5564:5576  errorMessage */\n      dup7\n        /* \"Address.sol\":5526:5542  verifyCallResult */\n      tag_439\n        /* \"Address.sol\":5526:5577  verifyCallResult(success, returndata, errorMessage) */\n      jump\t// in\n    tag_438:\n        /* \"Address.sol\":5519:5577  return verifyCallResult(success, returndata, errorMessage) */\n      swap8\n        /* \"Address.sol\":5075:5585  function functionCallWithValue(\r... */\n      swap7\n      pop\n      pop\n      pop\n      pop\n      pop\n      pop\n      pop\n      jump\t// out\n        /* \"Address.sol\":1210:1536  function isContract(address account) internal view returns (bool) {\r... */\n    tag_429:\n      sub(shl(0xa0, 0x01), 0x01)\n        /* \"Address.sol\":1505:1524  account.code.length */\n      and\n      extcodesize\n        /* \"Address.sol\":1505:1528  account.code.length > 0 */\n      iszero\n      iszero\n      swap1\n        /* \"Address.sol\":1210:1536  function isContract(address account) internal view returns (bool) {\r... */\n      jump\t// out\n        /* \"Address.sol\":7761:8523  function verifyCallResult(\r... */\n    tag_439:\n        /* \"Address.sol\":7911:7923  bytes memory */\n      0x60\n        /* \"Address.sol\":7940:7947  success */\n      dup4\n        /* \"Address.sol\":7936:8516  if (success) {\r... */\n      iszero\n      tag_442\n      jumpi\n      pop\n        /* \"Address.sol\":7971:7981  returndata */\n      dup2\n        /* \"Address.sol\":7964:7981  return returndata */\n      jump(tag_421)\n        /* \"Address.sol\":7936:8516  if (success) {\r... */\n    tag_442:\n        /* \"Address.sol\":8085:8102  returndata.length */\n      dup3\n      mload\n        /* \"Address.sol\":8085:8106  returndata.length > 0 */\n      iszero\n        /* \"Address.sol\":8081:8505  if (returndata.length > 0) {\r... */\n      tag_444\n      jumpi\n        /* \"Address.sol\":8333:8343  returndata */\n      dup3\n        /* \"Address.sol\":8327:8344  mload(returndata) */\n      mload\n        /* \"Address.sol\":8394:8409  returndata_size */\n      dup1\n        /* \"Address.sol\":8381:8391  returndata */\n      dup5\n        /* \"Address.sol\":8377:8379  32 */\n      0x20\n        /* \"Address.sol\":8373:8392  add(32, returndata) */\n      add\n        /* \"Address.sol\":8366:8410  revert(add(32, returndata), returndata_size) */\n      revert\n        /* \"Address.sol\":8281:8429  {\r... */\n    tag_444:\n        /* \"Address.sol\":8476:8488  errorMessage */\n      dup2\n        /* \"Address.sol\":8469:8489  revert(errorMessage) */\n      mload(0x40)\n      shl(0xe5, 0x461bcd)\n      dup2\n      mstore\n      0x04\n      add\n      tag_169\n      swap2\n      swap1\n      tag_45\n      jump\t// in\n    tag_241:\n      dup3\n      dup1\n      sload\n      tag_447\n      swap1\n      tag_161\n      jump\t// in\n    tag_447:\n      swap1\n      0x00\n      mstore\n      keccak256(0x00, 0x20)\n      swap1\n      0x1f\n      add\n      0x20\n      swap1\n      div\n      dup2\n      add\n      swap3\n      dup3\n      tag_449\n      jumpi\n      0x00\n      dup6\n      sstore\n      jump(tag_452)\n    tag_449:\n      dup3\n      0x1f\n      lt\n      tag_450\n      jumpi\n      dup1\n      mload\n      not(0xff)\n      and\n      dup4\n      dup1\n      add\n      or\n      dup6\n      sstore\n      jump(tag_452)\n    tag_450:\n      dup3\n      dup1\n      add\n      0x01\n      add\n      dup6\n      sstore\n      dup3\n      iszero\n      tag_452\n      jumpi\n      swap2\n      dup3\n      add\n    tag_451:\n      dup3\n      dup2\n      gt\n      iszero\n      tag_452\n      jumpi\n      dup3\n      mload\n      dup3\n      sstore\n      swap2\n      0x20\n      add\n      swap2\n      swap1\n      0x01\n      add\n      swap1\n      jump(tag_451)\n    tag_452:\n      pop\n      tag_453\n      swap3\n      swap2\n      pop\n      tag_454\n      jump\t// in\n    tag_453:\n      pop\n      swap1\n      jump\t// out\n    tag_454:\n    tag_455:\n      dup1\n      dup3\n      gt\n      iszero\n      tag_453\n      jumpi\n      0x00\n      dup2\n      sstore\n      0x01\n      add\n      jump(tag_455)\n        /* \"#utility.yul\":14:152   */\n    tag_458:\n        /* \"#utility.yul\":84:104   */\n      dup1\n      calldataload\n        /* \"#utility.yul\":113:146   */\n      tag_223\n        /* \"#utility.yul\":84:104   */\n      dup2\n        /* \"#utility.yul\":113:146   */\n      tag_461\n      jump\t// in\n        /* \"#utility.yul\":157:898   */\n    tag_462:\n      0x00\n        /* \"#utility.yul\":255:258   */\n      dup3\n        /* \"#utility.yul\":248:252   */\n      0x1f\n        /* \"#utility.yul\":240:246   */\n      dup4\n        /* \"#utility.yul\":236:253   */\n      add\n        /* \"#utility.yul\":232:259   */\n      slt\n        /* \"#utility.yul\":222:224   */\n      tag_464\n      jumpi\n        /* \"#utility.yul\":277:282   */\n      dup1\n        /* \"#utility.yul\":270:275   */\n      dup2\n        /* \"#utility.yul\":263:283   */\n      revert\n        /* \"#utility.yul\":222:224   */\n    tag_464:\n        /* \"#utility.yul\":317:323   */\n      dup2\n        /* \"#utility.yul\":304:324   */\n      calldataload\n        /* \"#utility.yul\":343:361   */\n      0xffffffffffffffff\n        /* \"#utility.yul\":380:382   */\n      dup1\n        /* \"#utility.yul\":376:378   */\n      dup3\n        /* \"#utility.yul\":373:383   */\n      gt\n        /* \"#utility.yul\":370:372   */\n      iszero\n      tag_466\n      jumpi\n        /* \"#utility.yul\":386:404   */\n      tag_466\n      tag_467\n      jump\t// in\n    tag_466:\n        /* \"#utility.yul\":461:463   */\n      0x40\n        /* \"#utility.yul\":455:464   */\n      mload\n        /* \"#utility.yul\":429:431   */\n      0x1f\n        /* \"#utility.yul\":515:528   */\n      dup4\n      add\n      not(0x1f)\n        /* \"#utility.yul\":511:533   */\n      swap1\n      dup2\n      and\n        /* \"#utility.yul\":535:537   */\n      0x3f\n        /* \"#utility.yul\":507:538   */\n      add\n        /* \"#utility.yul\":503:543   */\n      and\n        /* \"#utility.yul\":491:544   */\n      dup2\n      add\n      swap1\n        /* \"#utility.yul\":559:577   */\n      dup3\n      dup3\n      gt\n        /* \"#utility.yul\":579:601   */\n      dup2\n      dup4\n      lt\n        /* \"#utility.yul\":556:602   */\n      or\n        /* \"#utility.yul\":553:555   */\n      iszero\n      tag_469\n      jumpi\n        /* \"#utility.yul\":605:623   */\n      tag_469\n      tag_467\n      jump\t// in\n    tag_469:\n        /* \"#utility.yul\":645:655   */\n      dup2\n        /* \"#utility.yul\":641:643   */\n      0x40\n        /* \"#utility.yul\":634:656   */\n      mstore\n        /* \"#utility.yul\":680:682   */\n      dup4\n        /* \"#utility.yul\":672:678   */\n      dup2\n        /* \"#utility.yul\":665:683   */\n      mstore\n        /* \"#utility.yul\":726:729   */\n      dup7\n        /* \"#utility.yul\":719:723   */\n      0x20\n        /* \"#utility.yul\":714:716   */\n      dup6\n        /* \"#utility.yul\":706:712   */\n      dup9\n        /* \"#utility.yul\":702:717   */\n      add\n        /* \"#utility.yul\":698:724   */\n      add\n        /* \"#utility.yul\":695:730   */\n      gt\n        /* \"#utility.yul\":692:694   */\n      iszero\n      tag_470\n      jumpi\n        /* \"#utility.yul\":747:752   */\n      dup5\n        /* \"#utility.yul\":740:745   */\n      dup6\n        /* \"#utility.yul\":733:753   */\n      revert\n        /* \"#utility.yul\":692:694   */\n    tag_470:\n        /* \"#utility.yul\":815:817   */\n      dup4\n        /* \"#utility.yul\":808:812   */\n      0x20\n        /* \"#utility.yul\":800:806   */\n      dup8\n        /* \"#utility.yul\":796:813   */\n      add\n        /* \"#utility.yul\":789:793   */\n      0x20\n        /* \"#utility.yul\":781:787   */\n      dup4\n        /* \"#utility.yul\":777:794   */\n      add\n        /* \"#utility.yul\":764:818   */\n      calldatacopy\n        /* \"#utility.yul\":838:853   */\n      swap3\n      dup4\n      add\n        /* \"#utility.yul\":855:859   */\n      0x20\n        /* \"#utility.yul\":834:860   */\n      add\n        /* \"#utility.yul\":827:868   */\n      swap4\n      swap1\n      swap4\n      mstore\n      pop\n        /* \"#utility.yul\":842:848   */\n      swap4\n        /* \"#utility.yul\":212:898   */\n      swap3\n      pop\n      pop\n      pop\n      jump\t// out\n        /* \"#utility.yul\":903:1061   */\n    tag_471:\n        /* \"#utility.yul\":971:991   */\n      dup1\n      calldataload\n        /* \"#utility.yul\":1031:1035   */\n      0xff\n        /* \"#utility.yul\":1020:1036   */\n      dup2\n      and\n        /* \"#utility.yul\":1010:1037   */\n      dup2\n      eq\n        /* \"#utility.yul\":1000:1002   */\n      tag_223\n      jumpi\n        /* \"#utility.yul\":1051:1052   */\n      0x00\n        /* \"#utility.yul\":1048:1049   */\n      dup1\n        /* \"#utility.yul\":1041:1053   */\n      revert\n        /* \"#utility.yul\":1066:1325   */\n    tag_58:\n      0x00\n        /* \"#utility.yul\":1178:1180   */\n      0x20\n        /* \"#utility.yul\":1166:1175   */\n      dup3\n        /* \"#utility.yul\":1157:1164   */\n      dup5\n        /* \"#utility.yul\":1153:1176   */\n      sub\n        /* \"#utility.yul\":1149:1181   */\n      slt\n        /* \"#utility.yul\":1146:1148   */\n      iszero\n      tag_475\n      jumpi\n        /* \"#utility.yul\":1199:1205   */\n      dup1\n        /* \"#utility.yul\":1191:1197   */\n      dup2\n        /* \"#utility.yul\":1184:1206   */\n      revert\n        /* \"#utility.yul\":1146:1148   */\n    tag_475:\n        /* \"#utility.yul\":1243:1252   */\n      dup2\n        /* \"#utility.yul\":1230:1253   */\n      calldataload\n        /* \"#utility.yul\":1262:1295   */\n      tag_421\n        /* \"#utility.yul\":1289:1294   */\n      dup2\n        /* \"#utility.yul\":1262:1295   */\n      tag_461\n      jump\t// in\n        /* \"#utility.yul\":1330:1732   */\n    tag_144:\n      0x00\n      dup1\n        /* \"#utility.yul\":1459:1461   */\n      0x40\n        /* \"#utility.yul\":1447:1456   */\n      dup4\n        /* \"#utility.yul\":1438:1445   */\n      dup6\n        /* \"#utility.yul\":1434:1457   */\n      sub\n        /* \"#utility.yul\":1430:1462   */\n      slt\n        /* \"#utility.yul\":1427:1429   */\n      iszero\n      tag_478\n      jumpi\n        /* \"#utility.yul\":1480:1486   */\n      dup1\n        /* \"#utility.yul\":1472:1478   */\n      dup2\n        /* \"#utility.yul\":1465:1487   */\n      revert\n        /* \"#utility.yul\":1427:1429   */\n    tag_478:\n        /* \"#utility.yul\":1524:1533   */\n      dup3\n        /* \"#utility.yul\":1511:1534   */\n      calldataload\n        /* \"#utility.yul\":1543:1576   */\n      tag_479\n        /* \"#utility.yul\":1570:1575   */\n      dup2\n        /* \"#utility.yul\":1543:1576   */\n      tag_461\n      jump\t// in\n    tag_479:\n        /* \"#utility.yul\":1595:1600   */\n      swap2\n      pop\n        /* \"#utility.yul\":1652:1654   */\n      0x20\n        /* \"#utility.yul\":1637:1655   */\n      dup4\n      add\n        /* \"#utility.yul\":1624:1656   */\n      calldataload\n        /* \"#utility.yul\":1665:1700   */\n      tag_480\n        /* \"#utility.yul\":1624:1656   */\n      dup2\n        /* \"#utility.yul\":1665:1700   */\n      tag_461\n      jump\t// in\n    tag_480:\n        /* \"#utility.yul\":1719:1726   */\n      dup1\n        /* \"#utility.yul\":1709:1726   */\n      swap2\n      pop\n      pop\n        /* \"#utility.yul\":1417:1732   */\n      swap3\n      pop\n      swap3\n      swap1\n      pop\n      jump\t// out\n        /* \"#utility.yul\":1737:2207   */\n    tag_62:\n      0x00\n      dup1\n      0x00\n        /* \"#utility.yul\":1883:1885   */\n      0x60\n        /* \"#utility.yul\":1871:1880   */\n      dup5\n        /* \"#utility.yul\":1862:1869   */\n      dup7\n        /* \"#utility.yul\":1858:1881   */\n      sub\n        /* \"#utility.yul\":1854:1886   */\n      slt\n        /* \"#utility.yul\":1851:1853   */\n      iszero\n      tag_482\n      jumpi\n        /* \"#utility.yul\":1904:1910   */\n      dup1\n        /* \"#utility.yul\":1896:1902   */\n      dup2\n        /* \"#utility.yul\":1889:1911   */\n      revert\n        /* \"#utility.yul\":1851:1853   */\n    tag_482:\n        /* \"#utility.yul\":1948:1957   */\n      dup4\n        /* \"#utility.yul\":1935:1958   */\n      calldataload\n        /* \"#utility.yul\":1967:2000   */\n      tag_483\n        /* \"#utility.yul\":1994:1999   */\n      dup2\n        /* \"#utility.yul\":1967:2000   */\n      tag_461\n      jump\t// in\n    tag_483:\n        /* \"#utility.yul\":2019:2024   */\n      swap3\n      pop\n        /* \"#utility.yul\":2076:2078   */\n      0x20\n        /* \"#utility.yul\":2061:2079   */\n      dup5\n      add\n        /* \"#utility.yul\":2048:2080   */\n      calldataload\n        /* \"#utility.yul\":2089:2124   */\n      tag_484\n        /* \"#utility.yul\":2048:2080   */\n      dup2\n        /* \"#utility.yul\":2089:2124   */\n      tag_461\n      jump\t// in\n    tag_484:\n        /* \"#utility.yul\":1841:2207   */\n      swap3\n      swap6\n        /* \"#utility.yul\":2143:2150   */\n      swap3\n      swap5\n      pop\n      pop\n      pop\n        /* \"#utility.yul\":2197:2199   */\n      0x40\n        /* \"#utility.yul\":2182:2200   */\n      swap2\n      swap1\n      swap2\n      add\n        /* \"#utility.yul\":2169:2201   */\n      calldataload\n      swap1\n        /* \"#utility.yul\":1841:2207   */\n      jump\t// out\n        /* \"#utility.yul\":2212:2539   */\n    tag_48:\n      0x00\n      dup1\n        /* \"#utility.yul\":2341:2343   */\n      0x40\n        /* \"#utility.yul\":2329:2338   */\n      dup4\n        /* \"#utility.yul\":2320:2327   */\n      dup6\n        /* \"#utility.yul\":2316:2339   */\n      sub\n        /* \"#utility.yul\":2312:2344   */\n      slt\n        /* \"#utility.yul\":2309:2311   */\n      iszero\n      tag_486\n      jumpi\n        /* \"#utility.yul\":2362:2368   */\n      dup2\n        /* \"#utility.yul\":2354:2360   */\n      dup3\n        /* \"#utility.yul\":2347:2369   */\n      revert\n        /* \"#utility.yul\":2309:2311   */\n    tag_486:\n        /* \"#utility.yul\":2406:2415   */\n      dup3\n        /* \"#utility.yul\":2393:2416   */\n      calldataload\n        /* \"#utility.yul\":2425:2458   */\n      tag_487\n        /* \"#utility.yul\":2452:2457   */\n      dup2\n        /* \"#utility.yul\":2425:2458   */\n      tag_461\n      jump\t// in\n    tag_487:\n        /* \"#utility.yul\":2477:2482   */\n      swap5\n        /* \"#utility.yul\":2529:2531   */\n      0x20\n        /* \"#utility.yul\":2514:2532   */\n      swap4\n      swap1\n      swap4\n      add\n        /* \"#utility.yul\":2501:2533   */\n      calldataload\n      swap4\n      pop\n      pop\n      pop\n        /* \"#utility.yul\":2299:2539   */\n      jump\t// out\n        /* \"#utility.yul\":2544:2841   */\n    tag_417:\n      0x00\n        /* \"#utility.yul\":2664:2666   */\n      0x20\n        /* \"#utility.yul\":2652:2661   */\n      dup3\n        /* \"#utility.yul\":2643:2650   */\n      dup5\n        /* \"#utility.yul\":2639:2662   */\n      sub\n        /* \"#utility.yul\":2635:2667   */\n      slt\n        /* \"#utility.yul\":2632:2634   */\n      iszero\n      tag_489\n      jumpi\n        /* \"#utility.yul\":2685:2691   */\n      dup1\n        /* \"#utility.yul\":2677:2683   */\n      dup2\n        /* \"#utility.yul\":2670:2692   */\n      revert\n        /* \"#utility.yul\":2632:2634   */\n    tag_489:\n        /* \"#utility.yul\":2722:2731   */\n      dup2\n        /* \"#utility.yul\":2716:2732   */\n      mload\n        /* \"#utility.yul\":2775:2780   */\n      dup1\n        /* \"#utility.yul\":2768:2781   */\n      iszero\n        /* \"#utility.yul\":2761:2782   */\n      iszero\n        /* \"#utility.yul\":2754:2759   */\n      dup2\n        /* \"#utility.yul\":2751:2783   */\n      eq\n        /* \"#utility.yul\":2741:2743   */\n      tag_421\n      jumpi\n        /* \"#utility.yul\":2802:2808   */\n      dup2\n        /* \"#utility.yul\":2794:2800   */\n      dup3\n        /* \"#utility.yul\":2787:2809   */\n      revert\n        /* \"#utility.yul\":2846:3330   */\n    tag_137:\n      0x00\n      dup1\n      0x00\n        /* \"#utility.yul\":3006:3008   */\n      0x60\n        /* \"#utility.yul\":2994:3003   */\n      dup5\n        /* \"#utility.yul\":2985:2992   */\n      dup7\n        /* \"#utility.yul\":2981:3004   */\n      sub\n        /* \"#utility.yul\":2977:3009   */\n      slt\n        /* \"#utility.yul\":2974:2976   */\n      iszero\n      tag_482\n      jumpi\n        /* \"#utility.yul\":3027:3033   */\n      dup3\n        /* \"#utility.yul\":3019:3025   */\n      dup4\n        /* \"#utility.yul\":3012:3034   */\n      revert\n        /* \"#utility.yul\":3335:4505   */\n    tag_78:\n      0x00\n      dup1\n      0x00\n      dup1\n      0x00\n      dup1\n      0x00\n      dup1\n        /* \"#utility.yul\":3594:3597   */\n      0x0100\n        /* \"#utility.yul\":3582:3591   */\n      dup10\n        /* \"#utility.yul\":3573:3580   */\n      dup12\n        /* \"#utility.yul\":3569:3592   */\n      sub\n        /* \"#utility.yul\":3565:3598   */\n      slt\n        /* \"#utility.yul\":3562:3564   */\n      iszero\n      tag_496\n      jumpi\n        /* \"#utility.yul\":3616:3622   */\n      dup4\n        /* \"#utility.yul\":3608:3614   */\n      dup5\n        /* \"#utility.yul\":3601:3623   */\n      revert\n        /* \"#utility.yul\":3562:3564   */\n    tag_496:\n        /* \"#utility.yul\":3661:3670   */\n      dup9\n        /* \"#utility.yul\":3648:3671   */\n      calldataload\n        /* \"#utility.yul\":3690:3708   */\n      0xffffffffffffffff\n        /* \"#utility.yul\":3731:3733   */\n      dup1\n        /* \"#utility.yul\":3723:3729   */\n      dup3\n        /* \"#utility.yul\":3720:3734   */\n      gt\n        /* \"#utility.yul\":3717:3719   */\n      iszero\n      tag_497\n      jumpi\n        /* \"#utility.yul\":3752:3758   */\n      dup6\n        /* \"#utility.yul\":3744:3750   */\n      dup7\n        /* \"#utility.yul\":3737:3759   */\n      revert\n        /* \"#utility.yul\":3717:3719   */\n    tag_497:\n        /* \"#utility.yul\":3780:3832   */\n      tag_498\n        /* \"#utility.yul\":3824:3831   */\n      dup13\n        /* \"#utility.yul\":3815:3821   */\n      dup4\n        /* \"#utility.yul\":3804:3813   */\n      dup14\n        /* \"#utility.yul\":3800:3822   */\n      add\n        /* \"#utility.yul\":3780:3832   */\n      tag_462\n      jump\t// in\n    tag_498:\n        /* \"#utility.yul\":3770:3832   */\n      swap10\n      pop\n        /* \"#utility.yul\":3885:3887   */\n      0x20\n        /* \"#utility.yul\":3874:3883   */\n      dup12\n        /* \"#utility.yul\":3870:3888   */\n      add\n        /* \"#utility.yul\":3857:3889   */\n      calldataload\n        /* \"#utility.yul\":3841:3889   */\n      swap2\n      pop\n        /* \"#utility.yul\":3914:3916   */\n      dup1\n        /* \"#utility.yul\":3904:3912   */\n      dup3\n        /* \"#utility.yul\":3901:3917   */\n      gt\n        /* \"#utility.yul\":3898:3900   */\n      iszero\n      tag_499\n      jumpi\n        /* \"#utility.yul\":3935:3941   */\n      dup6\n        /* \"#utility.yul\":3927:3933   */\n      dup7\n        /* \"#utility.yul\":3920:3942   */\n      revert\n        /* \"#utility.yul\":3898:3900   */\n    tag_499:\n        /* \"#utility.yul\":3963:4017   */\n      tag_500\n        /* \"#utility.yul\":4009:4016   */\n      dup13\n        /* \"#utility.yul\":3998:4006   */\n      dup4\n        /* \"#utility.yul\":3987:3996   */\n      dup14\n        /* \"#utility.yul\":3983:4007   */\n      add\n        /* \"#utility.yul\":3963:4017   */\n      tag_462\n      jump\t// in\n    tag_500:\n        /* \"#utility.yul\":3953:4017   */\n      swap9\n      pop\n        /* \"#utility.yul\":4070:4072   */\n      0x40\n        /* \"#utility.yul\":4059:4068   */\n      dup12\n        /* \"#utility.yul\":4055:4073   */\n      add\n        /* \"#utility.yul\":4042:4074   */\n      calldataload\n        /* \"#utility.yul\":4026:4074   */\n      swap2\n      pop\n        /* \"#utility.yul\":4099:4101   */\n      dup1\n        /* \"#utility.yul\":4089:4097   */\n      dup3\n        /* \"#utility.yul\":4086:4102   */\n      gt\n        /* \"#utility.yul\":4083:4085   */\n      iszero\n      tag_501\n      jumpi\n        /* \"#utility.yul\":4120:4126   */\n      dup6\n        /* \"#utility.yul\":4112:4118   */\n      dup7\n        /* \"#utility.yul\":4105:4127   */\n      revert\n        /* \"#utility.yul\":4083:4085   */\n    tag_501:\n      pop\n        /* \"#utility.yul\":4148:4202   */\n      tag_502\n        /* \"#utility.yul\":4194:4201   */\n      dup12\n        /* \"#utility.yul\":4183:4191   */\n      dup3\n        /* \"#utility.yul\":4172:4181   */\n      dup13\n        /* \"#utility.yul\":4168:4192   */\n      add\n        /* \"#utility.yul\":4148:4202   */\n      tag_462\n      jump\t// in\n    tag_502:\n        /* \"#utility.yul\":4138:4202   */\n      swap7\n      pop\n      pop\n        /* \"#utility.yul\":4221:4259   */\n      tag_503\n        /* \"#utility.yul\":4255:4257   */\n      0x60\n        /* \"#utility.yul\":4244:4253   */\n      dup11\n        /* \"#utility.yul\":4240:4258   */\n      add\n        /* \"#utility.yul\":4221:4259   */\n      tag_471\n      jump\t// in\n    tag_503:\n        /* \"#utility.yul\":4211:4259   */\n      swap5\n      pop\n        /* \"#utility.yul\":4278:4319   */\n      tag_504\n        /* \"#utility.yul\":4314:4317   */\n      0x80\n        /* \"#utility.yul\":4303:4312   */\n      dup11\n        /* \"#utility.yul\":4299:4318   */\n      add\n        /* \"#utility.yul\":4278:4319   */\n      tag_458\n      jump\t// in\n    tag_504:\n        /* \"#utility.yul\":4268:4319   */\n      swap4\n      pop\n        /* \"#utility.yul\":4338:4379   */\n      tag_505\n        /* \"#utility.yul\":4374:4377   */\n      0xa0\n        /* \"#utility.yul\":4363:4372   */\n      dup11\n        /* \"#utility.yul\":4359:4378   */\n      add\n        /* \"#utility.yul\":4338:4379   */\n      tag_458\n      jump\t// in\n    tag_505:\n        /* \"#utility.yul\":4328:4379   */\n      swap3\n      pop\n        /* \"#utility.yul\":4398:4439   */\n      tag_506\n        /* \"#utility.yul\":4434:4437   */\n      0xc0\n        /* \"#utility.yul\":4423:4432   */\n      dup11\n        /* \"#utility.yul\":4419:4438   */\n      add\n        /* \"#utility.yul\":4398:4439   */\n      tag_458\n      jump\t// in\n    tag_506:\n        /* \"#utility.yul\":4388:4439   */\n      swap2\n      pop\n        /* \"#utility.yul\":4458:4499   */\n      tag_507\n        /* \"#utility.yul\":4494:4497   */\n      0xe0\n        /* \"#utility.yul\":4483:4492   */\n      dup11\n        /* \"#utility.yul\":4479:4498   */\n      add\n        /* \"#utility.yul\":4458:4499   */\n      tag_458\n      jump\t// in\n    tag_507:\n        /* \"#utility.yul\":4448:4499   */\n      swap1\n      pop\n        /* \"#utility.yul\":3552:4505   */\n      swap3\n      swap6\n      swap9\n      pop\n      swap3\n      swap6\n      swap9\n      swap1\n      swap4\n      swap7\n      pop\n      jump\t// out\n        /* \"#utility.yul\":4510:4700   */\n    tag_93:\n      0x00\n        /* \"#utility.yul\":4622:4624   */\n      0x20\n        /* \"#utility.yul\":4610:4619   */\n      dup3\n        /* \"#utility.yul\":4601:4608   */\n      dup5\n        /* \"#utility.yul\":4597:4620   */\n      sub\n        /* \"#utility.yul\":4593:4625   */\n      slt\n        /* \"#utility.yul\":4590:4592   */\n      iszero\n      tag_509\n      jumpi\n        /* \"#utility.yul\":4643:4649   */\n      dup1\n        /* \"#utility.yul\":4635:4641   */\n      dup2\n        /* \"#utility.yul\":4628:4650   */\n      revert\n        /* \"#utility.yul\":4590:4592   */\n    tag_509:\n      pop\n        /* \"#utility.yul\":4671:4694   */\n      calldataload\n      swap2\n        /* \"#utility.yul\":4580:4700   */\n      swap1\n      pop\n      jump\t// out\n        /* \"#utility.yul\":4705:4979   */\n    tag_434:\n      0x00\n        /* \"#utility.yul\":4872:4878   */\n      dup3\n        /* \"#utility.yul\":4866:4879   */\n      mload\n        /* \"#utility.yul\":4888:4941   */\n      tag_511\n        /* \"#utility.yul\":4934:4940   */\n      dup2\n        /* \"#utility.yul\":4929:4932   */\n      dup5\n        /* \"#utility.yul\":4922:4926   */\n      0x20\n        /* \"#utility.yul\":4914:4920   */\n      dup8\n        /* \"#utility.yul\":4910:4927   */\n      add\n        /* \"#utility.yul\":4888:4941   */\n      tag_512\n      jump\t// in\n    tag_511:\n        /* \"#utility.yul\":4957:4973   */\n      swap2\n      swap1\n      swap2\n      add\n      swap3\n        /* \"#utility.yul\":4842:4979   */\n      swap2\n      pop\n      pop\n      jump\t// out\n        /* \"#utility.yul\":4984:5187   */\n    tag_83:\n      sub(shl(0xa0, 0x01), 0x01)\n        /* \"#utility.yul\":5148:5180   */\n      swap2\n      swap1\n      swap2\n      and\n        /* \"#utility.yul\":5130:5181   */\n      dup2\n      mstore\n        /* \"#utility.yul\":5118:5120   */\n      0x20\n        /* \"#utility.yul\":5103:5121   */\n      add\n      swap1\n        /* \"#utility.yul\":5085:5187   */\n      jump\t// out\n        /* \"#utility.yul\":5192:5466   */\n    tag_410:\n      sub(shl(0xa0, 0x01), 0x01)\n        /* \"#utility.yul\":5384:5416   */\n      swap3\n      swap1\n      swap3\n      and\n        /* \"#utility.yul\":5366:5417   */\n      dup3\n      mstore\n        /* \"#utility.yul\":5448:5450   */\n      0x20\n        /* \"#utility.yul\":5433:5451   */\n      dup3\n      add\n        /* \"#utility.yul\":5426:5460   */\n      mstore\n        /* \"#utility.yul\":5354:5356   */\n      0x40\n        /* \"#utility.yul\":5339:5357   */\n      add\n      swap1\n        /* \"#utility.yul\":5321:5466   */\n      jump\t// out\n        /* \"#utility.yul\":5471:5658   */\n    tag_51:\n        /* \"#utility.yul\":5636:5650   */\n      swap1\n      iszero\n        /* \"#utility.yul\":5629:5651   */\n      iszero\n        /* \"#utility.yul\":5611:5652   */\n      dup2\n      mstore\n        /* \"#utility.yul\":5599:5601   */\n      0x20\n        /* \"#utility.yul\":5584:5602   */\n      add\n      swap1\n        /* \"#utility.yul\":5566:5658   */\n      jump\t// out\n        /* \"#utility.yul\":5663:6046   */\n    tag_45:\n      0x00\n        /* \"#utility.yul\":5812:5814   */\n      0x20\n        /* \"#utility.yul\":5801:5810   */\n      dup3\n        /* \"#utility.yul\":5794:5815   */\n      mstore\n        /* \"#utility.yul\":5844:5850   */\n      dup3\n        /* \"#utility.yul\":5838:5851   */\n      mload\n        /* \"#utility.yul\":5887:5893   */\n      dup1\n        /* \"#utility.yul\":5882:5884   */\n      0x20\n        /* \"#utility.yul\":5871:5880   */\n      dup5\n        /* \"#utility.yul\":5867:5885   */\n      add\n        /* \"#utility.yul\":5860:5894   */\n      mstore\n        /* \"#utility.yul\":5903:5969   */\n      tag_517\n        /* \"#utility.yul\":5962:5968   */\n      dup2\n        /* \"#utility.yul\":5957:5959   */\n      0x40\n        /* \"#utility.yul\":5946:5955   */\n      dup6\n        /* \"#utility.yul\":5942:5960   */\n      add\n        /* \"#utility.yul\":5937:5939   */\n      0x20\n        /* \"#utility.yul\":5929:5935   */\n      dup8\n        /* \"#utility.yul\":5925:5940   */\n      add\n        /* \"#utility.yul\":5903:5969   */\n      tag_512\n      jump\t// in\n    tag_517:\n        /* \"#utility.yul\":6030:6032   */\n      0x1f\n        /* \"#utility.yul\":6009:6024   */\n      add\n      not(0x1f)\n        /* \"#utility.yul\":6005:6034   */\n      and\n        /* \"#utility.yul\":5990:6035   */\n      swap2\n      swap1\n      swap2\n      add\n        /* \"#utility.yul\":6037:6039   */\n      0x40\n        /* \"#utility.yul\":5986:6040   */\n      add\n      swap3\n        /* \"#utility.yul\":5784:6046   */\n      swap2\n      pop\n      pop\n      jump\t// out\n        /* \"#utility.yul\":6051:6450   */\n    tag_398:\n        /* \"#utility.yul\":6253:6255   */\n      0x20\n        /* \"#utility.yul\":6235:6256   */\n      dup1\n      dup3\n      mstore\n        /* \"#utility.yul\":6292:6294   */\n      0x23\n        /* \"#utility.yul\":6272:6290   */\n      swap1\n      dup3\n      add\n        /* \"#utility.yul\":6265:6295   */\n      mstore\n        /* \"#utility.yul\":6331:6365   */\n      0x45524332303a207472616e7366657220746f20746865207a65726f2061646472\n        /* \"#utility.yul\":6326:6328   */\n      0x40\n        /* \"#utility.yul\":6311:6329   */\n      dup3\n      add\n        /* \"#utility.yul\":6304:6366   */\n      mstore\n      shl(0xe8, 0x657373)\n        /* \"#utility.yul\":6397:6399   */\n      0x60\n        /* \"#utility.yul\":6382:6400   */\n      dup3\n      add\n        /* \"#utility.yul\":6375:6408   */\n      mstore\n        /* \"#utility.yul\":6440:6443   */\n      0x80\n        /* \"#utility.yul\":6425:6444   */\n      add\n      swap1\n        /* \"#utility.yul\":6225:6450   */\n      jump\t// out\n        /* \"#utility.yul\":6455:6854   */\n    tag_239:\n        /* \"#utility.yul\":6657:6659   */\n      0x20\n        /* \"#utility.yul\":6639:6660   */\n      dup1\n      dup3\n      mstore\n        /* \"#utility.yul\":6696:6698   */\n      0x23\n        /* \"#utility.yul\":6676:6694   */\n      swap1\n      dup3\n      add\n        /* \"#utility.yul\":6669:6699   */\n      mstore\n        /* \"#utility.yul\":6735:6769   */\n      0x5553446d3a206e6577206f776e657220697320746865207a65726f2061646472\n        /* \"#utility.yul\":6730:6732   */\n      0x40\n        /* \"#utility.yul\":6715:6733   */\n      dup3\n      add\n        /* \"#utility.yul\":6708:6770   */\n      mstore\n      shl(0xe8, 0x657373)\n        /* \"#utility.yul\":6801:6803   */\n      0x60\n        /* \"#utility.yul\":6786:6804   */\n      dup3\n      add\n        /* \"#utility.yul\":6779:6812   */\n      mstore\n        /* \"#utility.yul\":6844:6847   */\n      0x80\n        /* \"#utility.yul\":6829:6848   */\n      add\n      swap1\n        /* \"#utility.yul\":6629:6854   */\n      jump\t// out\n        /* \"#utility.yul\":6859:7261   */\n    tag_377:\n        /* \"#utility.yul\":7061:7063   */\n      0x20\n        /* \"#utility.yul\":7043:7064   */\n      dup1\n      dup3\n      mstore\n        /* \"#utility.yul\":7100:7102   */\n      0x26\n        /* \"#utility.yul\":7080:7098   */\n      swap1\n      dup3\n      add\n        /* \"#utility.yul\":7073:7103   */\n      mstore\n        /* \"#utility.yul\":7139:7173   */\n      0x4f776e61626c653a206e6577206f776e657220697320746865207a65726f2061\n        /* \"#utility.yul\":7134:7136   */\n      0x40\n        /* \"#utility.yul\":7119:7137   */\n      dup3\n      add\n        /* \"#utility.yul\":7112:7174   */\n      mstore\n      shl(0xd0, 0x646472657373)\n        /* \"#utility.yul\":7205:7207   */\n      0x60\n        /* \"#utility.yul\":7190:7208   */\n      dup3\n      add\n        /* \"#utility.yul\":7183:7219   */\n      mstore\n        /* \"#utility.yul\":7251:7254   */\n      0x80\n        /* \"#utility.yul\":7236:7255   */\n      add\n      swap1\n        /* \"#utility.yul\":7033:7261   */\n      jump\t// out\n        /* \"#utility.yul\":7266:7664   */\n    tag_390:\n        /* \"#utility.yul\":7468:7470   */\n      0x20\n        /* \"#utility.yul\":7450:7471   */\n      dup1\n      dup3\n      mstore\n        /* \"#utility.yul\":7507:7509   */\n      0x22\n        /* \"#utility.yul\":7487:7505   */\n      swap1\n      dup3\n      add\n        /* \"#utility.yul\":7480:7510   */\n      mstore\n        /* \"#utility.yul\":7546:7580   */\n      0x45524332303a20617070726f766520746f20746865207a65726f206164647265\n        /* \"#utility.yul\":7541:7543   */\n      0x40\n        /* \"#utility.yul\":7526:7544   */\n      dup3\n      add\n        /* \"#utility.yul\":7519:7581   */\n      mstore\n      shl(0xf0, 0x7373)\n        /* \"#utility.yul\":7612:7614   */\n      0x60\n        /* \"#utility.yul\":7597:7615   */\n      dup3\n      add\n        /* \"#utility.yul\":7590:7622   */\n      mstore\n        /* \"#utility.yul\":7654:7657   */\n      0x80\n        /* \"#utility.yul\":7639:7658   */\n      add\n      swap1\n        /* \"#utility.yul\":7440:7664   */\n      jump\t// out\n        /* \"#utility.yul\":7669:8075   */\n    tag_218:\n        /* \"#utility.yul\":7871:7873   */\n      0x20\n        /* \"#utility.yul\":7853:7874   */\n      dup1\n      dup3\n      mstore\n        /* \"#utility.yul\":7910:7912   */\n      0x2a\n        /* \"#utility.yul\":7890:7908   */\n      swap1\n      dup3\n      add\n        /* \"#utility.yul\":7883:7913   */\n      mstore\n        /* \"#utility.yul\":7949:7983   */\n      0x526573637561626c653a206e6577207265736375657220697320746865207a65\n        /* \"#utility.yul\":7944:7946   */\n      0x40\n        /* \"#utility.yul\":7929:7947   */\n      dup3\n      add\n        /* \"#utility.yul\":7922:7984   */\n      mstore\n      shl(0xb0, 0x726f2061646472657373)\n        /* \"#utility.yul\":8015:8017   */\n      0x60\n        /* \"#utility.yul\":8000:8018   */\n      dup3\n      add\n        /* \"#utility.yul\":7993:8033   */\n      mstore\n        /* \"#utility.yul\":8065:8068   */\n      0x80\n        /* \"#utility.yul\":8050:8069   */\n      add\n      swap1\n        /* \"#utility.yul\":7843:8075   */\n      jump\t// out\n        /* \"#utility.yul\":8080:8482   */\n    tag_401:\n        /* \"#utility.yul\":8282:8284   */\n      0x20\n        /* \"#utility.yul\":8264:8285   */\n      dup1\n      dup3\n      mstore\n        /* \"#utility.yul\":8321:8323   */\n      0x26\n        /* \"#utility.yul\":8301:8319   */\n      swap1\n      dup3\n      add\n        /* \"#utility.yul\":8294:8324   */\n      mstore\n        /* \"#utility.yul\":8360:8394   */\n      0x45524332303a207472616e7366657220616d6f756e7420657863656564732062\n        /* \"#utility.yul\":8355:8357   */\n      0x40\n        /* \"#utility.yul\":8340:8358   */\n      dup3\n      add\n        /* \"#utility.yul\":8333:8395   */\n      mstore\n      shl(0xd0, 0x616c616e6365)\n        /* \"#utility.yul\":8426:8428   */\n      0x60\n        /* \"#utility.yul\":8411:8429   */\n      dup3\n      add\n        /* \"#utility.yul\":8404:8440   */\n      mstore\n        /* \"#utility.yul\":8472:8475   */\n      0x80\n        /* \"#utility.yul\":8457:8476   */\n      add\n      swap1\n        /* \"#utility.yul\":8254:8482   */\n      jump\t// out\n        /* \"#utility.yul\":8487:8895   */\n    tag_185:\n        /* \"#utility.yul\":8689:8691   */\n      0x20\n        /* \"#utility.yul\":8671:8692   */\n      dup1\n      dup3\n      mstore\n        /* \"#utility.yul\":8728:8730   */\n      0x2c\n        /* \"#utility.yul\":8708:8726   */\n      swap1\n      dup3\n      add\n        /* \"#utility.yul\":8701:8731   */\n      mstore\n        /* \"#utility.yul\":8767:8801   */\n      0x426c61636b6c69737461626c653a2063616c6c6572206973206e6f7420746865\n        /* \"#utility.yul\":8762:8764   */\n      0x40\n        /* \"#utility.yul\":8747:8765   */\n      dup3\n      add\n        /* \"#utility.yul\":8740:8802   */\n      mstore\n      shl(0xa1, 0x10313630b1b5b634b9ba32b9)\n        /* \"#utility.yul\":8833:8835   */\n      0x60\n        /* \"#utility.yul\":8818:8836   */\n      dup3\n      add\n        /* \"#utility.yul\":8811:8853   */\n      mstore\n        /* \"#utility.yul\":8885:8888   */\n      0x80\n        /* \"#utility.yul\":8870:8889   */\n      add\n      swap1\n        /* \"#utility.yul\":8661:8895   */\n      jump\t// out\n        /* \"#utility.yul\":8900:9301   */\n    tag_227:\n        /* \"#utility.yul\":9102:9104   */\n      0x20\n        /* \"#utility.yul\":9084:9105   */\n      dup1\n      dup3\n      mstore\n        /* \"#utility.yul\":9141:9143   */\n      0x25\n        /* \"#utility.yul\":9121:9139   */\n      swap1\n      dup3\n      add\n        /* \"#utility.yul\":9114:9144   */\n      mstore\n        /* \"#utility.yul\":9180:9214   */\n      0x5553446d3a20636f6e747261637420697320616c726561647920696e69746961\n        /* \"#utility.yul\":9175:9177   */\n      0x40\n        /* \"#utility.yul\":9160:9178   */\n      dup3\n      add\n        /* \"#utility.yul\":9153:9215   */\n      mstore\n      shl(0xda, 0x1b1a5e9959)\n        /* \"#utility.yul\":9246:9248   */\n      0x60\n        /* \"#utility.yul\":9231:9249   */\n      dup3\n      add\n        /* \"#utility.yul\":9224:9259   */\n      mstore\n        /* \"#utility.yul\":9291:9294   */\n      0x80\n        /* \"#utility.yul\":9276:9295   */\n      add\n      swap1\n        /* \"#utility.yul\":9074:9301   */\n      jump\t// out\n        /* \"#utility.yul\":9306:9711   */\n    tag_273:\n        /* \"#utility.yul\":9508:9510   */\n      0x20\n        /* \"#utility.yul\":9490:9511   */\n      dup1\n      dup3\n      mstore\n        /* \"#utility.yul\":9547:9549   */\n      0x29\n        /* \"#utility.yul\":9527:9545   */\n      swap1\n      dup3\n      add\n        /* \"#utility.yul\":9520:9550   */\n      mstore\n        /* \"#utility.yul\":9586:9620   */\n      0x5553446d3a206d696e7420616d6f756e742065786365656473206d696e746572\n        /* \"#utility.yul\":9581:9583   */\n      0x40\n        /* \"#utility.yul\":9566:9584   */\n      dup3\n      add\n        /* \"#utility.yul\":9559:9621   */\n      mstore\n      shl(0xb8, 0x416c6c6f77616e6365)\n        /* \"#utility.yul\":9652:9654   */\n      0x60\n        /* \"#utility.yul\":9637:9655   */\n      dup3\n      add\n        /* \"#utility.yul\":9630:9669   */\n      mstore\n        /* \"#utility.yul\":9701:9704   */\n      0x80\n        /* \"#utility.yul\":9686:9705   */\n      add\n      swap1\n        /* \"#utility.yul\":9480:9711   */\n      jump\t// out\n        /* \"#utility.yul\":9716:10118   */\n    tag_427:\n        /* \"#utility.yul\":9918:9920   */\n      0x20\n        /* \"#utility.yul\":9900:9921   */\n      dup1\n      dup3\n      mstore\n        /* \"#utility.yul\":9957:9959   */\n      0x26\n        /* \"#utility.yul\":9937:9955   */\n      swap1\n      dup3\n      add\n        /* \"#utility.yul\":9930:9960   */\n      mstore\n        /* \"#utility.yul\":9996:10030   */\n      0x416464726573733a20696e73756666696369656e742062616c616e636520666f\n        /* \"#utility.yul\":9991:9993   */\n      0x40\n        /* \"#utility.yul\":9976:9994   */\n      dup3\n      add\n        /* \"#utility.yul\":9969:10031   */\n      mstore\n      shl(0xd2, 0x1c8818d85b1b)\n        /* \"#utility.yul\":10062:10064   */\n      0x60\n        /* \"#utility.yul\":10047:10065   */\n      dup3\n      add\n        /* \"#utility.yul\":10040:10076   */\n      mstore\n        /* \"#utility.yul\":10108:10111   */\n      0x80\n        /* \"#utility.yul\":10093:10112   */\n      add\n      swap1\n        /* \"#utility.yul\":9890:10118   */\n      jump\t// out\n        /* \"#utility.yul\":10123:10463   */\n    tag_170:\n        /* \"#utility.yul\":10325:10327   */\n      0x20\n        /* \"#utility.yul\":10307:10328   */\n      dup1\n      dup3\n      mstore\n        /* \"#utility.yul\":10364:10366   */\n      0x10\n        /* \"#utility.yul\":10344:10362   */\n      swap1\n      dup3\n      add\n        /* \"#utility.yul\":10337:10367   */\n      mstore\n      shl(0x82, 0x14185d5cd8589b194e881c185d5cd959)\n        /* \"#utility.yul\":10398:10400   */\n      0x40\n        /* \"#utility.yul\":10383:10401   */\n      dup3\n      add\n        /* \"#utility.yul\":10376:10422   */\n      mstore\n        /* \"#utility.yul\":10454:10456   */\n      0x60\n        /* \"#utility.yul\":10439:10457   */\n      add\n      swap1\n        /* \"#utility.yul\":10297:10463   */\n      jump\t// out\n        /* \"#utility.yul\":10468:10820   */\n    tag_254:\n        /* \"#utility.yul\":10670:10672   */\n      0x20\n        /* \"#utility.yul\":10652:10673   */\n      dup1\n      dup3\n      mstore\n        /* \"#utility.yul\":10709:10711   */\n      0x1c\n        /* \"#utility.yul\":10689:10707   */\n      swap1\n      dup3\n      add\n        /* \"#utility.yul\":10682:10712   */\n      mstore\n        /* \"#utility.yul\":10748:10778   */\n      0x5553446d3a2063616c6c6572206973206e6f742061206d696e74657200000000\n        /* \"#utility.yul\":10743:10745   */\n      0x40\n        /* \"#utility.yul\":10728:10746   */\n      dup3\n      add\n        /* \"#utility.yul\":10721:10779   */\n      mstore\n        /* \"#utility.yul\":10811:10813   */\n      0x60\n        /* \"#utility.yul\":10796:10814   */\n      add\n      swap1\n        /* \"#utility.yul\":10642:10820   */\n      jump\t// out\n        /* \"#utility.yul\":10825:11230   */\n    tag_236:\n        /* \"#utility.yul\":11027:11029   */\n      0x20\n        /* \"#utility.yul\":11009:11030   */\n      dup1\n      dup3\n      mstore\n        /* \"#utility.yul\":11066:11068   */\n      0x29\n        /* \"#utility.yul\":11046:11064   */\n      swap1\n      dup3\n      add\n        /* \"#utility.yul\":11039:11069   */\n      mstore\n        /* \"#utility.yul\":11105:11139   */\n      0x5553446d3a206e657720626c61636b6c697374657220697320746865207a6572\n        /* \"#utility.yul\":11100:11102   */\n      0x40\n        /* \"#utility.yul\":11085:11103   */\n      dup3\n      add\n        /* \"#utility.yul\":11078:11140   */\n      mstore\n      shl(0xb8, 0x6f2061646472657373)\n        /* \"#utility.yul\":11171:11173   */\n      0x60\n        /* \"#utility.yul\":11156:11174   */\n      dup3\n      add\n        /* \"#utility.yul\":11149:11188   */\n      mstore\n        /* \"#utility.yul\":11220:11223   */\n      0x80\n        /* \"#utility.yul\":11205:11224   */\n      add\n      swap1\n        /* \"#utility.yul\":10999:11230   */\n      jump\t// out\n        /* \"#utility.yul\":11235:11635   */\n    tag_359:\n        /* \"#utility.yul\":11437:11439   */\n      0x20\n        /* \"#utility.yul\":11419:11440   */\n      dup1\n      dup3\n      mstore\n        /* \"#utility.yul\":11476:11478   */\n      0x24\n        /* \"#utility.yul\":11456:11474   */\n      swap1\n      dup3\n      add\n        /* \"#utility.yul\":11449:11479   */\n      mstore\n        /* \"#utility.yul\":11515:11549   */\n      0x526573637561626c653a2063616c6c6572206973206e6f742074686520726573\n        /* \"#utility.yul\":11510:11512   */\n      0x40\n        /* \"#utility.yul\":11495:11513   */\n      dup3\n      add\n        /* \"#utility.yul\":11488:11550   */\n      mstore\n      shl(0xe1, 0x31bab2b9)\n        /* \"#utility.yul\":11581:11583   */\n      0x60\n        /* \"#utility.yul\":11566:11584   */\n      dup3\n      add\n        /* \"#utility.yul\":11559:11593   */\n      mstore\n        /* \"#utility.yul\":11625:11628   */\n      0x80\n        /* \"#utility.yul\":11610:11629   */\n      add\n      swap1\n        /* \"#utility.yul\":11409:11635   */\n      jump\t// out\n        /* \"#utility.yul\":11640:12044   */\n    tag_203:\n        /* \"#utility.yul\":11842:11844   */\n      0x20\n        /* \"#utility.yul\":11824:11845   */\n      dup1\n      dup3\n      mstore\n        /* \"#utility.yul\":11881:11883   */\n      0x28\n        /* \"#utility.yul\":11861:11879   */\n      swap1\n      dup3\n      add\n        /* \"#utility.yul\":11854:11884   */\n      mstore\n        /* \"#utility.yul\":11920:11954   */\n      0x45524332303a207472616e7366657220616d6f756e7420657863656564732061\n        /* \"#utility.yul\":11915:11917   */\n      0x40\n        /* \"#utility.yul\":11900:11918   */\n      dup3\n      add\n        /* \"#utility.yul\":11893:11955   */\n      mstore\n      shl(0xc0, 0x6c6c6f77616e6365)\n        /* \"#utility.yul\":11986:11988   */\n      0x60\n        /* \"#utility.yul\":11971:11989   */\n      dup3\n      add\n        /* \"#utility.yul\":11964:12002   */\n      mstore\n        /* \"#utility.yul\":12034:12037   */\n      0x80\n        /* \"#utility.yul\":12019:12038   */\n      add\n      swap1\n        /* \"#utility.yul\":11814:12044   */\n      jump\t// out\n        /* \"#utility.yul\":12049:12405   */\n    tag_214:\n        /* \"#utility.yul\":12251:12253   */\n      0x20\n        /* \"#utility.yul\":12233:12254   */\n      dup1\n      dup3\n      mstore\n        /* \"#utility.yul\":12270:12288   */\n      dup2\n      dup2\n      add\n        /* \"#utility.yul\":12263:12293   */\n      mstore\n        /* \"#utility.yul\":12329:12363   */\n      0x4f776e61626c653a2063616c6c6572206973206e6f7420746865206f776e6572\n        /* \"#utility.yul\":12324:12326   */\n      0x40\n        /* \"#utility.yul\":12309:12327   */\n      dup3\n      add\n        /* \"#utility.yul\":12302:12364   */\n      mstore\n        /* \"#utility.yul\":12396:12398   */\n      0x60\n        /* \"#utility.yul\":12381:12399   */\n      add\n      swap1\n        /* \"#utility.yul\":12223:12405   */\n      jump\t// out\n        /* \"#utility.yul\":12410:12810   */\n    tag_267:\n        /* \"#utility.yul\":12612:12614   */\n      0x20\n        /* \"#utility.yul\":12594:12615   */\n      dup1\n      dup3\n      mstore\n        /* \"#utility.yul\":12651:12653   */\n      0x24\n        /* \"#utility.yul\":12631:12649   */\n      swap1\n      dup3\n      add\n        /* \"#utility.yul\":12624:12654   */\n      mstore\n        /* \"#utility.yul\":12690:12724   */\n      0x5553446d3a206d696e7420616d6f756e74206e6f742067726561746572207468\n        /* \"#utility.yul\":12685:12687   */\n      0x40\n        /* \"#utility.yul\":12670:12688   */\n      dup3\n      add\n        /* \"#utility.yul\":12663:12725   */\n      mstore\n      shl(0xe4, 0x0616e203)\n        /* \"#utility.yul\":12756:12758   */\n      0x60\n        /* \"#utility.yul\":12741:12759   */\n      dup3\n      add\n        /* \"#utility.yul\":12734:12768   */\n      mstore\n        /* \"#utility.yul\":12800:12803   */\n      0x80\n        /* \"#utility.yul\":12785:12804   */\n      add\n      swap1\n        /* \"#utility.yul\":12584:12810   */\n      jump\t// out\n        /* \"#utility.yul\":12815:13216   */\n    tag_395:\n        /* \"#utility.yul\":13017:13019   */\n      0x20\n        /* \"#utility.yul\":12999:13020   */\n      dup1\n      dup3\n      mstore\n        /* \"#utility.yul\":13056:13058   */\n      0x25\n        /* \"#utility.yul\":13036:13054   */\n      swap1\n      dup3\n      add\n        /* \"#utility.yul\":13029:13059   */\n      mstore\n        /* \"#utility.yul\":13095:13129   */\n      0x45524332303a207472616e736665722066726f6d20746865207a65726f206164\n        /* \"#utility.yul\":13090:13092   */\n      0x40\n        /* \"#utility.yul\":13075:13093   */\n      dup3\n      add\n        /* \"#utility.yul\":13068:13130   */\n      mstore\n      shl(0xd8, 0x6472657373)\n        /* \"#utility.yul\":13161:13163   */\n      0x60\n        /* \"#utility.yul\":13146:13164   */\n      dup3\n      add\n        /* \"#utility.yul\":13139:13174   */\n      mstore\n        /* \"#utility.yul\":13206:13209   */\n      0x80\n        /* \"#utility.yul\":13191:13210   */\n      add\n      swap1\n        /* \"#utility.yul\":12989:13216   */\n      jump\t// out\n        /* \"#utility.yul\":13221:13621   */\n    tag_293:\n        /* \"#utility.yul\":13423:13425   */\n      0x20\n        /* \"#utility.yul\":13405:13426   */\n      dup1\n      dup3\n      mstore\n        /* \"#utility.yul\":13462:13464   */\n      0x24\n        /* \"#utility.yul\":13442:13460   */\n      swap1\n      dup3\n      add\n        /* \"#utility.yul\":13435:13465   */\n      mstore\n        /* \"#utility.yul\":13501:13535   */\n      0x5553446d3a206275726e20616d6f756e74206e6f742067726561746572207468\n        /* \"#utility.yul\":13496:13498   */\n      0x40\n        /* \"#utility.yul\":13481:13499   */\n      dup3\n      add\n        /* \"#utility.yul\":13474:13536   */\n      mstore\n      shl(0xe4, 0x0616e203)\n        /* \"#utility.yul\":13567:13569   */\n      0x60\n        /* \"#utility.yul\":13552:13570   */\n      dup3\n      add\n        /* \"#utility.yul\":13545:13579   */\n      mstore\n        /* \"#utility.yul\":13611:13614   */\n      0x80\n        /* \"#utility.yul\":13596:13615   */\n      add\n      swap1\n        /* \"#utility.yul\":13395:13621   */\n      jump\t// out\n        /* \"#utility.yul\":13626:14032   */\n    tag_230:\n        /* \"#utility.yul\":13828:13830   */\n      0x20\n        /* \"#utility.yul\":13810:13831   */\n      dup1\n      dup3\n      mstore\n        /* \"#utility.yul\":13867:13869   */\n      0x2a\n        /* \"#utility.yul\":13847:13865   */\n      swap1\n      dup3\n      add\n        /* \"#utility.yul\":13840:13870   */\n      mstore\n        /* \"#utility.yul\":13906:13940   */\n      0x5553446d3a206e6577206d61737465724d696e74657220697320746865207a65\n        /* \"#utility.yul\":13901:13903   */\n      0x40\n        /* \"#utility.yul\":13886:13904   */\n      dup3\n      add\n        /* \"#utility.yul\":13879:13941   */\n      mstore\n      shl(0xb0, 0x726f2061646472657373)\n        /* \"#utility.yul\":13972:13974   */\n      0x60\n        /* \"#utility.yul\":13957:13975   */\n      dup3\n      add\n        /* \"#utility.yul\":13950:13990   */\n      mstore\n        /* \"#utility.yul\":14022:14025   */\n      0x80\n        /* \"#utility.yul\":14007:14026   */\n      add\n      swap1\n        /* \"#utility.yul\":13800:14032   */\n      jump\t// out\n        /* \"#utility.yul\":14037:14437   */\n    tag_233:\n        /* \"#utility.yul\":14239:14241   */\n      0x20\n        /* \"#utility.yul\":14221:14242   */\n      dup1\n      dup3\n      mstore\n        /* \"#utility.yul\":14278:14280   */\n      0x24\n        /* \"#utility.yul\":14258:14276   */\n      swap1\n      dup3\n      add\n        /* \"#utility.yul\":14251:14281   */\n      mstore\n        /* \"#utility.yul\":14317:14351   */\n      0x5553446d3a206e65772070617573657220697320746865207a65726f20616464\n        /* \"#utility.yul\":14312:14314   */\n      0x40\n        /* \"#utility.yul\":14297:14315   */\n      dup3\n      add\n        /* \"#utility.yul\":14290:14352   */\n      mstore\n      shl(0xe0, 0x72657373)\n        /* \"#utility.yul\":14383:14385   */\n      0x60\n        /* \"#utility.yul\":14368:14386   */\n      dup3\n      add\n        /* \"#utility.yul\":14361:14395   */\n      mstore\n        /* \"#utility.yul\":14427:14430   */\n      0x80\n        /* \"#utility.yul\":14412:14431   */\n      add\n      swap1\n        /* \"#utility.yul\":14211:14437   */\n      jump\t// out\n        /* \"#utility.yul\":14442:14842   */\n    tag_387:\n        /* \"#utility.yul\":14644:14646   */\n      0x20\n        /* \"#utility.yul\":14626:14647   */\n      dup1\n      dup3\n      mstore\n        /* \"#utility.yul\":14683:14685   */\n      0x24\n        /* \"#utility.yul\":14663:14681   */\n      swap1\n      dup3\n      add\n        /* \"#utility.yul\":14656:14686   */\n      mstore\n        /* \"#utility.yul\":14722:14756   */\n      0x45524332303a20617070726f76652066726f6d20746865207a65726f20616464\n        /* \"#utility.yul\":14717:14719   */\n      0x40\n        /* \"#utility.yul\":14702:14720   */\n      dup3\n      add\n        /* \"#utility.yul\":14695:14757   */\n      mstore\n      shl(0xe0, 0x72657373)\n        /* \"#utility.yul\":14788:14790   */\n      0x60\n        /* \"#utility.yul\":14773:14791   */\n      dup3\n      add\n        /* \"#utility.yul\":14766:14800   */\n      mstore\n        /* \"#utility.yul\":14832:14835   */\n      0x80\n        /* \"#utility.yul\":14817:14836   */\n      add\n      swap1\n        /* \"#utility.yul\":14616:14842   */\n      jump\t// out\n        /* \"#utility.yul\":14847:15200   */\n    tag_432:\n        /* \"#utility.yul\":15049:15051   */\n      0x20\n        /* \"#utility.yul\":15031:15052   */\n      dup1\n      dup3\n      mstore\n        /* \"#utility.yul\":15088:15090   */\n      0x1d\n        /* \"#utility.yul\":15068:15086   */\n      swap1\n      dup3\n      add\n        /* \"#utility.yul\":15061:15091   */\n      mstore\n        /* \"#utility.yul\":15127:15158   */\n      0x416464726573733a2063616c6c20746f206e6f6e2d636f6e7472616374000000\n        /* \"#utility.yul\":15122:15124   */\n      0x40\n        /* \"#utility.yul\":15107:15125   */\n      dup3\n      add\n        /* \"#utility.yul\":15100:15159   */\n      mstore\n        /* \"#utility.yul\":15191:15193   */\n      0x60\n        /* \"#utility.yul\":15176:15194   */\n      add\n      swap1\n        /* \"#utility.yul\":15021:15200   */\n      jump\t// out\n        /* \"#utility.yul\":15205:15628   */\n    tag_270:\n        /* \"#utility.yul\":15407:15409   */\n      0x20\n        /* \"#utility.yul\":15389:15410   */\n      dup1\n      dup3\n      mstore\n        /* \"#utility.yul\":15446:15448   */\n      0x3b\n        /* \"#utility.yul\":15426:15444   */\n      swap1\n      dup3\n      add\n        /* \"#utility.yul\":15419:15449   */\n      mstore\n        /* \"#utility.yul\":15485:15519   */\n      0x5553446d3a204d696e746572732063616e206f6e6c79206d696e7420746f6b65\n        /* \"#utility.yul\":15480:15482   */\n      0x40\n        /* \"#utility.yul\":15465:15483   */\n      dup3\n      add\n        /* \"#utility.yul\":15458:15520   */\n      mstore\n        /* \"#utility.yul\":15556:15585   */\n      0x6e7320746f206d6173746572206d696e74657220616464726573730000000000\n        /* \"#utility.yul\":15551:15553   */\n      0x60\n        /* \"#utility.yul\":15536:15554   */\n      dup3\n      add\n        /* \"#utility.yul\":15529:15586   */\n      mstore\n        /* \"#utility.yul\":15618:15621   */\n      0x80\n        /* \"#utility.yul\":15603:15622   */\n      add\n      swap1\n        /* \"#utility.yul\":15379:15628   */\n      jump\t// out\n        /* \"#utility.yul\":15633:16033   */\n    tag_222:\n        /* \"#utility.yul\":15835:15837   */\n      0x20\n        /* \"#utility.yul\":15817:15838   */\n      dup1\n      dup3\n      mstore\n        /* \"#utility.yul\":15874:15876   */\n      0x24\n        /* \"#utility.yul\":15854:15872   */\n      swap1\n      dup3\n      add\n        /* \"#utility.yul\":15847:15877   */\n      mstore\n        /* \"#utility.yul\":15913:15947   */\n      0x5553446d3a2063616c6c6572206973206e6f7420746865206d61737465724d69\n        /* \"#utility.yul\":15908:15910   */\n      0x40\n        /* \"#utility.yul\":15893:15911   */\n      dup3\n      add\n        /* \"#utility.yul\":15886:15948   */\n      mstore\n      shl(0xe1, 0x373a32b9)\n        /* \"#utility.yul\":15979:15981   */\n      0x60\n        /* \"#utility.yul\":15964:15982   */\n      dup3\n      add\n        /* \"#utility.yul\":15957:15991   */\n      mstore\n        /* \"#utility.yul\":16023:16026   */\n      0x80\n        /* \"#utility.yul\":16008:16027   */\n      add\n      swap1\n        /* \"#utility.yul\":15807:16033   */\n      jump\t// out\n        /* \"#utility.yul\":16038:16444   */\n    tag_420:\n        /* \"#utility.yul\":16240:16242   */\n      0x20\n        /* \"#utility.yul\":16222:16243   */\n      dup1\n      dup3\n      mstore\n        /* \"#utility.yul\":16279:16281   */\n      0x2a\n        /* \"#utility.yul\":16259:16277   */\n      swap1\n      dup3\n      add\n        /* \"#utility.yul\":16252:16282   */\n      mstore\n        /* \"#utility.yul\":16318:16352   */\n      0x5361666545524332303a204552433230206f7065726174696f6e20646964206e\n        /* \"#utility.yul\":16313:16315   */\n      0x40\n        /* \"#utility.yul\":16298:16316   */\n      dup3\n      add\n        /* \"#utility.yul\":16291:16353   */\n      mstore\n      shl(0xb2, 0x1bdd081cdd58d8d95959)\n        /* \"#utility.yul\":16384:16386   */\n      0x60\n        /* \"#utility.yul\":16369:16387   */\n      dup3\n      add\n        /* \"#utility.yul\":16362:16402   */\n      mstore\n        /* \"#utility.yul\":16434:16437   */\n      0x80\n        /* \"#utility.yul\":16419:16438   */\n      add\n      swap1\n        /* \"#utility.yul\":16212:16444   */\n      jump\t// out\n        /* \"#utility.yul\":16449:16863   */\n    tag_355:\n        /* \"#utility.yul\":16651:16653   */\n      0x20\n        /* \"#utility.yul\":16633:16654   */\n      dup1\n      dup3\n      mstore\n        /* \"#utility.yul\":16690:16692   */\n      0x32\n        /* \"#utility.yul\":16670:16688   */\n      swap1\n      dup3\n      add\n        /* \"#utility.yul\":16663:16693   */\n      mstore\n        /* \"#utility.yul\":16729:16763   */\n      0x426c61636b6c69737461626c653a206e657720626c61636b6c69737465722069\n        /* \"#utility.yul\":16724:16726   */\n      0x40\n        /* \"#utility.yul\":16709:16727   */\n      dup3\n      add\n        /* \"#utility.yul\":16702:16764   */\n      mstore\n      shl(0x70, 0x7320746865207a65726f2061646472657373)\n        /* \"#utility.yul\":16795:16797   */\n      0x60\n        /* \"#utility.yul\":16780:16798   */\n      dup3\n      add\n        /* \"#utility.yul\":16773:16821   */\n      mstore\n        /* \"#utility.yul\":16853:16856   */\n      0x80\n        /* \"#utility.yul\":16838:16857   */\n      add\n      swap1\n        /* \"#utility.yul\":16623:16863   */\n      jump\t// out\n        /* \"#utility.yul\":16868:17269   */\n    tag_174:\n        /* \"#utility.yul\":17070:17072   */\n      0x20\n        /* \"#utility.yul\":17052:17073   */\n      dup1\n      dup3\n      mstore\n        /* \"#utility.yul\":17109:17111   */\n      0x25\n        /* \"#utility.yul\":17089:17107   */\n      swap1\n      dup3\n      add\n        /* \"#utility.yul\":17082:17112   */\n      mstore\n        /* \"#utility.yul\":17148:17182   */\n      0x426c61636b6c69737461626c653a206163636f756e7420697320626c61636b6c\n        /* \"#utility.yul\":17143:17145   */\n      0x40\n        /* \"#utility.yul\":17128:17146   */\n      dup3\n      add\n        /* \"#utility.yul\":17121:17183   */\n      mstore\n      shl(0xda, 0x1a5cdd1959)\n        /* \"#utility.yul\":17214:17216   */\n      0x60\n        /* \"#utility.yul\":17199:17217   */\n      dup3\n      add\n        /* \"#utility.yul\":17192:17227   */\n      mstore\n        /* \"#utility.yul\":17259:17262   */\n      0x80\n        /* \"#utility.yul\":17244:17263   */\n      add\n      swap1\n        /* \"#utility.yul\":17042:17269   */\n      jump\t// out\n        /* \"#utility.yul\":17274:17628   */\n    tag_264:\n        /* \"#utility.yul\":17476:17478   */\n      0x20\n        /* \"#utility.yul\":17458:17479   */\n      dup1\n      dup3\n      mstore\n        /* \"#utility.yul\":17515:17517   */\n      0x1e\n        /* \"#utility.yul\":17495:17513   */\n      swap1\n      dup3\n      add\n        /* \"#utility.yul\":17488:17518   */\n      mstore\n        /* \"#utility.yul\":17554:17586   */\n      0x5553446d3a206d696e7420746f20746865207a65726f20616464726573730000\n        /* \"#utility.yul\":17549:17551   */\n      0x40\n        /* \"#utility.yul\":17534:17552   */\n      dup3\n      add\n        /* \"#utility.yul\":17527:17587   */\n      mstore\n        /* \"#utility.yul\":17619:17621   */\n      0x60\n        /* \"#utility.yul\":17604:17622   */\n      add\n      swap1\n        /* \"#utility.yul\":17448:17628   */\n      jump\t// out\n        /* \"#utility.yul\":17633:18030   */\n    tag_296:\n        /* \"#utility.yul\":17835:17837   */\n      0x20\n        /* \"#utility.yul\":17817:17838   */\n      dup1\n      dup3\n      mstore\n        /* \"#utility.yul\":17874:17876   */\n      0x21\n        /* \"#utility.yul\":17854:17872   */\n      swap1\n      dup3\n      add\n        /* \"#utility.yul\":17847:17877   */\n      mstore\n        /* \"#utility.yul\":17913:17947   */\n      0x5553446d3a206275726e20616d6f756e7420657863656564732062616c616e63\n        /* \"#utility.yul\":17908:17910   */\n      0x40\n        /* \"#utility.yul\":17893:17911   */\n      dup3\n      add\n        /* \"#utility.yul\":17886:17948   */\n      mstore\n      shl(0xf8, 0x65)\n        /* \"#utility.yul\":17979:17981   */\n      0x60\n        /* \"#utility.yul\":17964:17982   */\n      dup3\n      add\n        /* \"#utility.yul\":17957:17988   */\n      mstore\n        /* \"#utility.yul\":18020:18023   */\n      0x80\n        /* \"#utility.yul\":18005:18024   */\n      add\n      swap1\n        /* \"#utility.yul\":17807:18030   */\n      jump\t// out\n        /* \"#utility.yul\":18035:18212   */\n    tag_55:\n        /* \"#utility.yul\":18181:18206   */\n      swap1\n      dup2\n      mstore\n        /* \"#utility.yul\":18169:18171   */\n      0x20\n        /* \"#utility.yul\":18154:18172   */\n      add\n      swap1\n        /* \"#utility.yul\":18136:18212   */\n      jump\t// out\n        /* \"#utility.yul\":18217:18401   */\n    tag_75:\n        /* \"#utility.yul\":18389:18393   */\n      0xff\n        /* \"#utility.yul\":18377:18394   */\n      swap2\n      swap1\n      swap2\n      and\n        /* \"#utility.yul\":18359:18395   */\n      dup2\n      mstore\n        /* \"#utility.yul\":18347:18349   */\n      0x20\n        /* \"#utility.yul\":18332:18350   */\n      add\n      swap1\n        /* \"#utility.yul\":18314:18401   */\n      jump\t// out\n        /* \"#utility.yul\":18406:18534   */\n    tag_275:\n      0x00\n        /* \"#utility.yul\":18477:18478   */\n      dup3\n        /* \"#utility.yul\":18473:18479   */\n      not\n        /* \"#utility.yul\":18470:18471   */\n      dup3\n        /* \"#utility.yul\":18467:18480   */\n      gt\n        /* \"#utility.yul\":18464:18466   */\n      iszero\n      tag_552\n      jumpi\n        /* \"#utility.yul\":18483:18501   */\n      tag_552\n      tag_553\n      jump\t// in\n    tag_552:\n      pop\n        /* \"#utility.yul\":18519:18528   */\n      add\n      swap1\n        /* \"#utility.yul\":18454:18534   */\n      jump\t// out\n        /* \"#utility.yul\":18539:18664   */\n    tag_207:\n      0x00\n        /* \"#utility.yul\":18607:18608   */\n      dup3\n        /* \"#utility.yul\":18604:18605   */\n      dup3\n        /* \"#utility.yul\":18601:18609   */\n      lt\n        /* \"#utility.yul\":18598:18600   */\n      iszero\n      tag_556\n      jumpi\n        /* \"#utility.yul\":18612:18630   */\n      tag_556\n      tag_553\n      jump\t// in\n    tag_556:\n      pop\n        /* \"#utility.yul\":18649:18658   */\n      sub\n      swap1\n        /* \"#utility.yul\":18588:18664   */\n      jump\t// out\n        /* \"#utility.yul\":18669:18927   */\n    tag_512:\n        /* \"#utility.yul\":18741:18742   */\n      0x00\n        /* \"#utility.yul\":18751:18864   */\n    tag_558:\n        /* \"#utility.yul\":18765:18771   */\n      dup4\n        /* \"#utility.yul\":18762:18763   */\n      dup2\n        /* \"#utility.yul\":18759:18772   */\n      lt\n        /* \"#utility.yul\":18751:18864   */\n      iszero\n      tag_560\n      jumpi\n        /* \"#utility.yul\":18841:18852   */\n      dup2\n      dup2\n      add\n        /* \"#utility.yul\":18835:18853   */\n      mload\n        /* \"#utility.yul\":18822:18833   */\n      dup4\n      dup3\n      add\n        /* \"#utility.yul\":18815:18854   */\n      mstore\n        /* \"#utility.yul\":18787:18789   */\n      0x20\n        /* \"#utility.yul\":18780:18790   */\n      add\n        /* \"#utility.yul\":18751:18864   */\n      jump(tag_558)\n    tag_560:\n        /* \"#utility.yul\":18882:18888   */\n      dup4\n        /* \"#utility.yul\":18879:18880   */\n      dup2\n        /* \"#utility.yul\":18876:18889   */\n      gt\n        /* \"#utility.yul\":18873:18875   */\n      iszero\n      tag_561\n      jumpi\n        /* \"#utility.yul\":18917:18918   */\n      0x00\n        /* \"#utility.yul\":18908:18914   */\n      dup5\n        /* \"#utility.yul\":18903:18906   */\n      dup5\n        /* \"#utility.yul\":18899:18915   */\n      add\n        /* \"#utility.yul\":18892:18919   */\n      mstore\n        /* \"#utility.yul\":18873:18875   */\n    tag_561:\n      pop\n        /* \"#utility.yul\":18722:18927   */\n      pop\n      pop\n      pop\n      jump\t// out\n        /* \"#utility.yul\":18932:19312   */\n    tag_161:\n        /* \"#utility.yul\":19017:19018   */\n      0x02\n        /* \"#utility.yul\":19007:19019   */\n      dup2\n      div\n        /* \"#utility.yul\":19064:19065   */\n      0x01\n        /* \"#utility.yul\":19054:19066   */\n      dup3\n      and\n      dup1\n        /* \"#utility.yul\":19075:19077   */\n      tag_563\n      jumpi\n        /* \"#utility.yul\":19129:19133   */\n      0x7f\n        /* \"#utility.yul\":19121:19127   */\n      dup3\n        /* \"#utility.yul\":19117:19134   */\n      and\n        /* \"#utility.yul\":19107:19134   */\n      swap2\n      pop\n        /* \"#utility.yul\":19075:19077   */\n    tag_563:\n        /* \"#utility.yul\":19182:19184   */\n      0x20\n        /* \"#utility.yul\":19174:19180   */\n      dup3\n        /* \"#utility.yul\":19171:19185   */\n      lt\n        /* \"#utility.yul\":19151:19169   */\n      dup2\n        /* \"#utility.yul\":19148:19186   */\n      eq\n        /* \"#utility.yul\":19145:19147   */\n      iszero\n      tag_564\n      jumpi\n        /* \"#utility.yul\":19228:19238   */\n      0x4e487b71\n        /* \"#utility.yul\":19223:19226   */\n      0xe0\n        /* \"#utility.yul\":19219:19239   */\n      shl\n        /* \"#utility.yul\":19216:19217   */\n      0x00\n        /* \"#utility.yul\":19209:19240   */\n      mstore\n        /* \"#utility.yul\":19263:19267   */\n      0x22\n        /* \"#utility.yul\":19260:19261   */\n      0x04\n        /* \"#utility.yul\":19253:19268   */\n      mstore\n        /* \"#utility.yul\":19291:19295   */\n      0x24\n        /* \"#utility.yul\":19288:19289   */\n      0x00\n        /* \"#utility.yul\":19281:19296   */\n      revert\n        /* \"#utility.yul\":19145:19147   */\n    tag_564:\n      pop\n        /* \"#utility.yul\":18987:19312   */\n      swap2\n      swap1\n      pop\n      jump\t// out\n        /* \"#utility.yul\":19317:19444   */\n    tag_553:\n        /* \"#utility.yul\":19378:19388   */\n      0x4e487b71\n        /* \"#utility.yul\":19373:19376   */\n      0xe0\n        /* \"#utility.yul\":19369:19389   */\n      shl\n        /* \"#utility.yul\":19366:19367   */\n      0x00\n        /* \"#utility.yul\":19359:19390   */\n      mstore\n        /* \"#utility.yul\":19409:19413   */\n      0x11\n        /* \"#utility.yul\":19406:19407   */\n      0x04\n        /* \"#utility.yul\":19399:19414   */\n      mstore\n        /* \"#utility.yul\":19433:19437   */\n      0x24\n        /* \"#utility.yul\":19430:19431   */\n      0x00\n        /* \"#utility.yul\":19423:19438   */\n      revert\n        /* \"#utility.yul\":19449:19576   */\n    tag_467:\n        /* \"#utility.yul\":19510:19520   */\n      0x4e487b71\n        /* \"#utility.yul\":19505:19508   */\n      0xe0\n        /* \"#utility.yul\":19501:19521   */\n      shl\n        /* \"#utility.yul\":19498:19499   */\n      0x00\n        /* \"#utility.yul\":19491:19522   */\n      mstore\n        /* \"#utility.yul\":19541:19545   */\n      0x41\n        /* \"#utility.yul\":19538:19539   */\n      0x04\n        /* \"#utility.yul\":19531:19546   */\n      mstore\n        /* \"#utility.yul\":19565:19569   */\n      0x24\n        /* \"#utility.yul\":19562:19563   */\n      0x00\n        /* \"#utility.yul\":19555:19570   */\n      revert\n        /* \"#utility.yul\":19581:19714   */\n    tag_461:\n      sub(shl(0xa0, 0x01), 0x01)\n        /* \"#utility.yul\":19658:19689   */\n      dup2\n      and\n        /* \"#utility.yul\":19648:19690   */\n      dup2\n      eq\n        /* \"#utility.yul\":19638:19640   */\n      tag_378\n      jumpi\n        /* \"#utility.yul\":19704:19705   */\n      0x00\n        /* \"#utility.yul\":19701:19702   */\n      dup1\n        /* \"#utility.yul\":19694:19706   */\n      revert\n\n    auxdata: 0xa2646970667358221220b2bb6e313408e8027960d000e1d974f2d5bf9d576eb666ca334048cbb38ada9c64736f6c63430008010033\n}\n",
				"bytecode": {
					"linkReferences": {},
					"object": "60806040526000600c5534801561001557600080fd5b50610026610021610038565b61003c565b6001805460ff60a01b1916905561008c565b3390565b600080546001600160a01b038381166001600160a01b0319831681178455604051919092169283917f8be0079c531659141344cd1fd0a4f28419497f9722a3daafe3b4186f6b6457e09190a35050565b612426806200009c6000396000f3fe608060405234801561001057600080fd5b50600436106101f05760003560e01c8063715018a61161010f578063ad38bf22116100a2578063e5a6b10f11610071578063e5a6b10f146103dc578063f2fde38b146103e4578063f9f92be4146103f7578063fe575a871461040a576101f0565b8063ad38bf221461039b578063b2118a8d146103ae578063bd102430146103c1578063dd62ed3e146103c9576101f0565b80639fd0506d116100de5780639fd0506d1461035a578063a9059cbb14610362578063aa20e1e414610375578063aa271e1a14610388576101f0565b8063715018a61461032f5780638a6db9c3146103375780638da5cb5b1461034a57806395d89b4114610352576101f0565b80633357162b1161018757806342966c681161015657806342966c68146102ee5780634e44d956146103015780635c975abb1461031457806370a082311461031c576101f0565b80633357162b146102ab57806335d99f35146102be57806338a63183146102d357806340c10f19146102db576101f0565b806323b872dd116101c357806323b872dd1461025d5780632ab60045146102705780633092afd514610283578063313ce56714610296576101f0565b806306fdde03146101f5578063095ea7b31461021357806318160ddd146102335780631a89526614610248575b600080fd5b6101fd61041d565b60405161020a9190611ad2565b60405180910390f35b61022661022136600461192f565b6104ab565b60405161020a9190611ac7565b61023b61055c565b60405161020a91906122fe565b61025b61025636600461189b565b610562565b005b61022661026b3660046118ef565b6105d5565b61025b61027e36600461189b565b610751565b61022661029136600461189b565b610800565b61029e610889565b60405161020a9190612307565b61025b6102b936600461198e565b610892565b6102c6610a03565b60405161020a9190611a9a565b6102c6610a12565b6102266102e936600461192f565b610a21565b61025b6102fc366004611a66565b610c8d565b61022661030f36600461192f565b610e07565b610226610ec9565b61023b61032a36600461189b565b610ed9565b61025b610ef4565b61023b61034536600461189b565b610f3f565b6102c6610f5a565b6101fd610f69565b6102c6610f76565b61022661037036600461192f565b610f85565b61025b61038336600461189b565b611022565b61022661039636600461189b565b6110d7565b61025b6103a936600461189b565b6110f5565b61025b6103bc36600461197a565b6111aa565b6102c66111ed565b61023b6103d73660046118b7565b6111fc565b6101fd611227565b61025b6103f236600461189b565b611234565b61025b61040536600461189b565b6112a5565b61022661041836600461189b565b61131b565b6005805461042a90612374565b80601f016020809104026020016040519081016040528092919081815260200182805461045690612374565b80156104a35780601f10610478576101008083540402835291602001916104a3565b820191906000526020600020905b81548152906001019060200180831161048657829003601f168201915b505050505081565b60006104b5610ec9565b156104db5760405162461bcd60e51b81526004016104d290611dc3565b60405180910390fd5b3360008181526003602052604090205460ff161561050b5760405162461bcd60e51b81526004016104d290612241565b6001600160a01b038416600090815260036020526040902054849060ff16156105465760405162461bcd60e51b81526004016104d290612241565b610551338686611339565b506001949350505050565b600c5490565b6002546001600160a01b0316331461058c5760405162461bcd60e51b81526004016104d290611ca3565b6001600160a01b038116600081815260036020526040808220805460ff19169055517f117e3210bb9aa7d9baff172026820255c6f6c30ba8999d1c2fd88e2848137c4e9190a250565b60006105df610ec9565b156105fc5760405162461bcd60e51b81526004016104d290611dc3565b3360008181526003602052604090205460ff161561062c5760405162461bcd60e51b81526004016104d290612241565b6001600160a01b038516600090815260036020526040902054859060ff16156106675760405162461bcd60e51b81526004016104d290612241565b6001600160a01b038516600090815260036020526040902054859060ff16156106a25760405162461bcd60e51b81526004016104d290612241565b6001600160a01b0387166000908152600b602090815260408083203384529091529020548511156106e55760405162461bcd60e51b81526004016104d290611eb1565b6106f08787876113e0565b6001600160a01b0387166000908152600b6020908152604080832033845290915290205461071f90869061232d565b6001600160a01b0388166000908152600b60209081526040808320338452909152902055600193505050509392505050565b61075961150a565b6001600160a01b031661076a610f5a565b6001600160a01b0316146107905760405162461bcd60e51b81526004016104d290611ef9565b6001600160a01b0381166107b65760405162461bcd60e51b81526004016104d290611c13565b600480546001600160a01b0319166001600160a01b0383169081179091556040517fe475e580d85111348e40d8ca33cfdd74c30fe1655c2d8537a13abc10065ffa5a90600090a250565b6009546000906001600160a01b0316331461082d5760405162461bcd60e51b81526004016104d290612161565b6001600160a01b0382166000818152600d60209081526040808320805460ff19169055600e909152808220829055517fe94479a9f7e1952cc78f2d6baab678adc1b772d936c6583def489e524cb666929190a25060015b919050565b60075460ff1681565b600954600160a01b900460ff16156108bc5760405162461bcd60e51b81526004016104d290611cef565b6001600160a01b0384166108e25760405162461bcd60e51b81526004016104d290611ffb565b6001600160a01b0383166109085760405162461bcd60e51b81526004016104d290612045565b6001600160a01b03821661092e5760405162461bcd60e51b81526004016104d290611e24565b6001600160a01b0381166109545760405162461bcd60e51b81526004016104d290611b48565b87516109679060059060208b019061175f565b50865161097b9060069060208a019061175f565b50855161098f90600890602089019061175f565b506007805460ff191660ff8716179055600980546001600160a01b03199081166001600160a01b0387811691909117909255600180548216868416179055600280549091169184169190911790556109e68161150e565b50506009805460ff60a01b1916600160a01b179055505050505050565b6009546001600160a01b031681565b6004546001600160a01b031690565b6000610a2b610ec9565b15610a485760405162461bcd60e51b81526004016104d290611dc3565b336000908152600d602052604090205460ff16610a775760405162461bcd60e51b81526004016104d290611ded565b3360008181526003602052604090205460ff1615610aa75760405162461bcd60e51b81526004016104d290612241565b6001600160a01b038416600090815260036020526040902054849060ff1615610ae25760405162461bcd60e51b81526004016104d290612241565b6001600160a01b038516610b085760405162461bcd60e51b81526004016104d290612286565b60008411610b285760405162461bcd60e51b81526004016104d290611f2e565b6009546001600160a01b03868116911614610b555760405162461bcd60e51b81526004016104d290612104565b336000908152600e602052604090205480851115610b855760405162461bcd60e51b81526004016104d290611d34565b84600c54610b939190612315565b600c556001600160a01b0386166000908152600a6020526040902054610bba908690612315565b6001600160a01b0387166000908152600a6020526040902055610bdd858261232d565b336000818152600e6020526040908190209290925590516001600160a01b03881691907fab8530f87dc9b59234c4623bf917212bb2536d647574c8e7e5da92c2ede0c9f890610c2d9089906122fe565b60405180910390a3856001600160a01b031660006001600160a01b03167fddf252ad1be2c89b69c2b068fc378daa952ba7f163c4a11628f55a4df523b3ef87604051610c7991906122fe565b60405180910390a350600195945050505050565b610c95610ec9565b15610cb25760405162461bcd60e51b81526004016104d290611dc3565b336000908152600d602052604090205460ff16610ce15760405162461bcd60e51b81526004016104d290611ded565b3360008181526003602052604090205460ff1615610d115760405162461bcd60e51b81526004016104d290612241565b336000908152600a602052604090205482610d3e5760405162461bcd60e51b81526004016104d290611fb7565b82811015610d5e5760405162461bcd60e51b81526004016104d2906122bd565b82600c54610d6c919061232d565b600c55610d79838261232d565b336000818152600a6020526040908190209290925590517fcc16f5dbb4873280815c1ee09dbd06736cffcc184412cf7a71a0fdb75d397ca590610dbd9086906122fe565b60405180910390a260405160009033907fddf252ad1be2c89b69c2b068fc378daa952ba7f163c4a11628f55a4df523b3ef90610dfa9087906122fe565b60405180910390a3505050565b6000610e11610ec9565b15610e2e5760405162461bcd60e51b81526004016104d290611dc3565b6009546001600160a01b03163314610e585760405162461bcd60e51b81526004016104d290612161565b6001600160a01b0383166000818152600d60209081526040808320805460ff19166001179055600e90915290819020849055517f46980fca912ef9bcdbd36877427b6b90e860769f604e89c0e67720cece530d2090610eb89085906122fe565b60405180910390a250600192915050565b600154600160a01b900460ff1690565b6001600160a01b03166000908152600a602052604090205490565b610efc61150a565b6001600160a01b0316610f0d610f5a565b6001600160a01b031614610f335760405162461bcd60e51b81526004016104d290611ef9565b610f3d600061150e565b565b6001600160a01b03166000908152600e602052604090205490565b6000546001600160a01b031690565b6006805461042a90612374565b6001546001600160a01b031681565b6000610f8f610ec9565b15610fac5760405162461bcd60e51b81526004016104d290611dc3565b3360008181526003602052604090205460ff1615610fdc5760405162461bcd60e51b81526004016104d290612241565b6001600160a01b038416600090815260036020526040902054849060ff16156110175760405162461bcd60e51b81526004016104d290612241565b6105513386866113e0565b61102a61150a565b6001600160a01b031661103b610f5a565b6001600160a01b0316146110615760405162461bcd60e51b81526004016104d290611ef9565b6001600160a01b0381166110875760405162461bcd60e51b81526004016104d290611ffb565b600980546001600160a01b0319166001600160a01b0383811691909117918290556040519116907fdb66dfa9c6b8f5226fe9aac7e51897ae8ee94ac31dc70bb6c9900b2574b707e690600090a250565b6001600160a01b03166000908152600d602052604090205460ff1690565b6110fd61150a565b6001600160a01b031661110e610f5a565b6001600160a01b0316146111345760405162461bcd60e51b81526004016104d290611ef9565b6001600160a01b03811661115a5760405162461bcd60e51b81526004016104d2906121ef565b600280546001600160a01b0319166001600160a01b0383811691909117918290556040519116907fc67398012c111ce95ecb7429b933096c977380ee6c421175a71a4a4c6c88c06e90600090a250565b6004546001600160a01b031633146111d45760405162461bcd60e51b81526004016104d290611e6d565b6111e86001600160a01b038416838361155e565b505050565b6002546001600160a01b031681565b6001600160a01b039182166000908152600b6020908152604080832093909416825291909152205490565b6008805461042a90612374565b61123c61150a565b6001600160a01b031661124d610f5a565b6001600160a01b0316146112735760405162461bcd60e51b81526004016104d290611ef9565b6001600160a01b0381166112995760405162461bcd60e51b81526004016104d290611b8b565b6112a28161150e565b50565b6002546001600160a01b031633146112cf5760405162461bcd60e51b81526004016104d290611ca3565b6001600160a01b038116600081815260036020526040808220805460ff19166001179055517fffa4e6181777692565cf28528fc88fd1516ea86b56da075235fa575af6a4b8559190a250565b6001600160a01b031660009081526003602052604090205460ff1690565b6001600160a01b03831661135f5760405162461bcd60e51b81526004016104d290612089565b6001600160a01b0382166113855760405162461bcd60e51b81526004016104d290611bd1565b6001600160a01b038084166000818152600b602090815260408083209487168084529490915290819020849055517f8c5be1e5ebec7d5bd14f71427d1e84f3dd0314c0f7b2291e5b200ac8c7c3b92590610dfa9085906122fe565b6001600160a01b0383166114065760405162461bcd60e51b81526004016104d290611f72565b6001600160a01b03821661142c5760405162461bcd60e51b81526004016104d290611b05565b6001600160a01b0383166000908152600a60205260409020548111156114645760405162461bcd60e51b81526004016104d290611c5d565b6001600160a01b0383166000908152600a602052604090205461148890829061232d565b6001600160a01b038085166000908152600a602052604080822093909355908416815220546114b8908290612315565b6001600160a01b038084166000818152600a602052604090819020939093559151908516907fddf252ad1be2c89b69c2b068fc378daa952ba7f163c4a11628f55a4df523b3ef90610dfa9085906122fe565b3390565b600080546001600160a01b038381166001600160a01b0319831681178455604051919092169283917f8be0079c531659141344cd1fd0a4f28419497f9722a3daafe3b4186f6b6457e09190a35050565b6111e88363a9059cbb60e01b848460405160240161157d929190611aae565b60408051601f198184030181529190526020810180516001600160e01b03166001600160e01b0319909316929092179091526000611604826040518060400160405280602081526020017f5361666545524332303a206c6f772d6c6576656c2063616c6c206661696c6564815250856001600160a01b031661163e9092919063ffffffff16565b8051909150156111e85780806020019051810190611622919061195a565b6111e85760405162461bcd60e51b81526004016104d2906121a5565b606061164d8484600085611657565b90505b9392505050565b6060824710156116795760405162461bcd60e51b81526004016104d290611d7d565b61168285611717565b61169e5760405162461bcd60e51b81526004016104d2906120cd565b600080866001600160a01b031685876040516116ba9190611a7e565b60006040518083038185875af1925050503d80600081146116f7576040519150601f19603f3d011682016040523d82523d6000602084013e6116fc565b606091505b509150915061170c828286611726565b979650505050505050565b6001600160a01b03163b151590565b60608315611735575081611650565b8251156117455782518084602001fd5b8160405162461bcd60e51b81526004016104d29190611ad2565b82805461176b90612374565b90600052602060002090601f01602090048101928261178d57600085556117d3565b82601f106117a657805160ff19168380011785556117d3565b828001600101855582156117d3579182015b828111156117d35782518255916020019190600101906117b8565b506117df9291506117e3565b5090565b5b808211156117df57600081556001016117e4565b8035610884816123db565b600082601f830112611813578081fd5b813567ffffffffffffffff8082111561182e5761182e6123c5565b604051601f8301601f19908116603f01168101908282118183101715611856576118566123c5565b8160405283815286602085880101111561186e578485fd5b8360208701602083013792830160200193909352509392505050565b803560ff8116811461088457600080fd5b6000602082840312156118ac578081fd5b8135611650816123db565b600080604083850312156118c9578081fd5b82356118d4816123db565b915060208301356118e4816123db565b809150509250929050565b600080600060608486031215611903578081fd5b833561190e816123db565b9250602084013561191e816123db565b929592945050506040919091013590565b60008060408385031215611941578182fd5b823561194c816123db565b946020939093013593505050565b60006020828403121561196b578081fd5b81518015158114611650578182fd5b600080600060608486031215611903578283fd5b600080600080600080600080610100898b0312156119aa578384fd5b883567ffffffffffffffff808211156119c1578586fd5b6119cd8c838d01611803565b995060208b01359150808211156119e2578586fd5b6119ee8c838d01611803565b985060408b0135915080821115611a03578586fd5b50611a108b828c01611803565b965050611a1f60608a0161188a565b9450611a2d60808a016117f8565b9350611a3b60a08a016117f8565b9250611a4960c08a016117f8565b9150611a5760e08a016117f8565b90509295985092959890939650565b600060208284031215611a77578081fd5b5035919050565b60008251611a90818460208701612344565b9190910192915050565b6001600160a01b0391909116815260200190565b6001600160a01b03929092168252602082015260400190565b901515815260200190565b6000602082528251806020840152611af1816040850160208701612344565b601f01601f19169190910160400192915050565b60208082526023908201527f45524332303a207472616e7366657220746f20746865207a65726f206164647260408201526265737360e81b606082015260800190565b60208082526023908201527f5553446d3a206e6577206f776e657220697320746865207a65726f206164647260408201526265737360e81b606082015260800190565b60208082526026908201527f4f776e61626c653a206e6577206f776e657220697320746865207a65726f206160408201526564647265737360d01b606082015260800190565b60208082526022908201527f45524332303a20617070726f766520746f20746865207a65726f206164647265604082015261737360f01b606082015260800190565b6020808252602a908201527f526573637561626c653a206e6577207265736375657220697320746865207a65604082015269726f206164647265737360b01b606082015260800190565b60208082526026908201527f45524332303a207472616e7366657220616d6f756e7420657863656564732062604082015265616c616e636560d01b606082015260800190565b6020808252602c908201527f426c61636b6c69737461626c653a2063616c6c6572206973206e6f742074686560408201526b10313630b1b5b634b9ba32b960a11b606082015260800190565b60208082526025908201527f5553446d3a20636f6e747261637420697320616c726561647920696e697469616040820152641b1a5e995960da1b606082015260800190565b60208082526029908201527f5553446d3a206d696e7420616d6f756e742065786365656473206d696e746572604082015268416c6c6f77616e636560b81b606082015260800190565b60208082526026908201527f416464726573733a20696e73756666696369656e742062616c616e636520666f6040820152651c8818d85b1b60d21b606082015260800190565b60208082526010908201526f14185d5cd8589b194e881c185d5cd95960821b604082015260600190565b6020808252601c908201527f5553446d3a2063616c6c6572206973206e6f742061206d696e74657200000000604082015260600190565b60208082526029908201527f5553446d3a206e657720626c61636b6c697374657220697320746865207a65726040820152686f206164647265737360b81b606082015260800190565b60208082526024908201527f526573637561626c653a2063616c6c6572206973206e6f74207468652072657360408201526331bab2b960e11b606082015260800190565b60208082526028908201527f45524332303a207472616e7366657220616d6f756e74206578636565647320616040820152676c6c6f77616e636560c01b606082015260800190565b6020808252818101527f4f776e61626c653a2063616c6c6572206973206e6f7420746865206f776e6572604082015260600190565b60208082526024908201527f5553446d3a206d696e7420616d6f756e74206e6f7420677265617465722074686040820152630616e20360e41b606082015260800190565b60208082526025908201527f45524332303a207472616e736665722066726f6d20746865207a65726f206164604082015264647265737360d81b606082015260800190565b60208082526024908201527f5553446d3a206275726e20616d6f756e74206e6f7420677265617465722074686040820152630616e20360e41b606082015260800190565b6020808252602a908201527f5553446d3a206e6577206d61737465724d696e74657220697320746865207a65604082015269726f206164647265737360b01b606082015260800190565b60208082526024908201527f5553446d3a206e65772070617573657220697320746865207a65726f206164646040820152637265737360e01b606082015260800190565b60208082526024908201527f45524332303a20617070726f76652066726f6d20746865207a65726f206164646040820152637265737360e01b606082015260800190565b6020808252601d908201527f416464726573733a2063616c6c20746f206e6f6e2d636f6e7472616374000000604082015260600190565b6020808252603b908201527f5553446d3a204d696e746572732063616e206f6e6c79206d696e7420746f6b6560408201527f6e7320746f206d6173746572206d696e74657220616464726573730000000000606082015260800190565b60208082526024908201527f5553446d3a2063616c6c6572206973206e6f7420746865206d61737465724d69604082015263373a32b960e11b606082015260800190565b6020808252602a908201527f5361666545524332303a204552433230206f7065726174696f6e20646964206e6040820152691bdd081cdd58d8d9595960b21b606082015260800190565b60208082526032908201527f426c61636b6c69737461626c653a206e657720626c61636b6c697374657220696040820152717320746865207a65726f206164647265737360701b606082015260800190565b60208082526025908201527f426c61636b6c69737461626c653a206163636f756e7420697320626c61636b6c6040820152641a5cdd195960da1b606082015260800190565b6020808252601e908201527f5553446d3a206d696e7420746f20746865207a65726f20616464726573730000604082015260600190565b60208082526021908201527f5553446d3a206275726e20616d6f756e7420657863656564732062616c616e636040820152606560f81b606082015260800190565b90815260200190565b60ff91909116815260200190565b60008219821115612328576123286123af565b500190565b60008282101561233f5761233f6123af565b500390565b60005b8381101561235f578181015183820152602001612347565b8381111561236e576000848401525b50505050565b60028104600182168061238857607f821691505b602082108114156123a957634e487b7160e01b600052602260045260246000fd5b50919050565b634e487b7160e01b600052601160045260246000fd5b634e487b7160e01b600052604160045260246000fd5b6001600160a01b03811681146112a257600080fdfea2646970667358221220b2bb6e313408e8027960d000e1d974f2d5bf9d576eb666ca334048cbb38ada9c64736f6c63430008010033",
					"opcodes": "PUSH1 0x80 PUSH1 0x40 MSTORE PUSH1 0x0 PUSH1 0xC SSTORE CALLVALUE DUP1 ISZERO PUSH2 0x15 JUMPI PUSH1 0x0 DUP1 REVERT JUMPDEST POP PUSH2 0x26 PUSH2 0x21 PUSH2 0x38 JUMP JUMPDEST PUSH2 0x3C JUMP JUMPDEST PUSH1 0x1 DUP1 SLOAD PUSH1 0xFF PUSH1 0xA0 SHL NOT AND SWAP1 SSTORE PUSH2 0x8C JUMP JUMPDEST CALLER SWAP1 JUMP JUMPDEST PUSH1 0x0 DUP1 SLOAD PUSH1 0x1 PUSH1 0x1 PUSH1 0xA0 SHL SUB DUP4 DUP2 AND PUSH1 0x1 PUSH1 0x1 PUSH1 0xA0 SHL SUB NOT DUP4 AND DUP2 OR DUP5 SSTORE PUSH1 0x40 MLOAD SWAP2 SWAP1 SWAP3 AND SWAP3 DUP4 SWAP2 PUSH32 0x8BE0079C531659141344CD1FD0A4F28419497F9722A3DAAFE3B4186F6B6457E0 SWAP2 SWAP1 LOG3 POP POP JUMP JUMPDEST PUSH2 0x2426 DUP1 PUSH3 0x9C PUSH1 0x0 CODECOPY PUSH1 0x0 RETURN INVALID PUSH1 0x80 PUSH1 0x40 MSTORE CALLVALUE DUP1 ISZERO PUSH2 0x10 JUMPI PUSH1 0x0 DUP1 REVERT JUMPDEST POP PUSH1 0x4 CALLDATASIZE LT PUSH2 0x1F0 JUMPI PUSH1 0x0 CALLDATALOAD PUSH1 0xE0 SHR DUP1 PUSH4 0x715018A6 GT PUSH2 0x10F JUMPI DUP1 PUSH4 0xAD38BF22 GT PUSH2 0xA2 JUMPI DUP1 PUSH4 0xE5A6B10F GT PUSH2 0x71 JUMPI DUP1 PUSH4 0xE5A6B10F EQ PUSH2 0x3DC JUMPI DUP1 PUSH4 0xF2FDE38B EQ PUSH2 0x3E4 JUMPI DUP1 PUSH4 0xF9F92BE4 EQ PUSH2 0x3F7 JUMPI DUP1 PUSH4 0xFE575A87 EQ PUSH2 0x40A JUMPI PUSH2 0x1F0 JUMP JUMPDEST DUP1 PUSH4 0xAD38BF22 EQ PUSH2 0x39B JUMPI DUP1 PUSH4 0xB2118A8D EQ PUSH2 0x3AE JUMPI DUP1 PUSH4 0xBD102430 EQ PUSH2 0x3C1 JUMPI DUP1 PUSH4 0xDD62ED3E EQ PUSH2 0x3C9 JUMPI PUSH2 0x1F0 JUMP JUMPDEST DUP1 PUSH4 0x9FD0506D GT PUSH2 0xDE JUMPI DUP1 PUSH4 0x9FD0506D EQ PUSH2 0x35A JUMPI DUP1 PUSH4 0xA9059CBB EQ PUSH2 0x362 JUMPI DUP1 PUSH4 0xAA20E1E4 EQ PUSH2 0x375 JUMPI DUP1 PUSH4 0xAA271E1A EQ PUSH2 0x388 JUMPI PUSH2 0x1F0 JUMP JUMPDEST DUP1 PUSH4 0x715018A6 EQ PUSH2 0x32F JUMPI DUP1 PUSH4 0x8A6DB9C3 EQ PUSH2 0x337 JUMPI DUP1 PUSH4 0x8DA5CB5B EQ PUSH2 0x34A JUMPI DUP1 PUSH4 0x95D89B41 EQ PUSH2 0x352 JUMPI PUSH2 0x1F0 JUMP JUMPDEST DUP1 PUSH4 0x3357162B GT PUSH2 0x187 JUMPI DUP1 PUSH4 0x42966C68 GT PUSH2 0x156 JUMPI DUP1 PUSH4 0x42966C68 EQ PUSH2 0x2EE JUMPI DUP1 PUSH4 0x4E44D956 EQ PUSH2 0x301 JUMPI DUP1 PUSH4 0x5C975ABB EQ PUSH2 0x314 JUMPI DUP1 PUSH4 0x70A08231 EQ PUSH2 0x31C JUMPI PUSH2 0x1F0 JUMP JUMPDEST DUP1 PUSH4 0x3357162B EQ PUSH2 0x2AB JUMPI DUP1 PUSH4 0x35D99F35 EQ PUSH2 0x2BE JUMPI DUP1 PUSH4 0x38A63183 EQ PUSH2 0x2D3 JUMPI DUP1 PUSH4 0x40C10F19 EQ PUSH2 0x2DB JUMPI PUSH2 0x1F0 JUMP JUMPDEST DUP1 PUSH4 0x23B872DD GT PUSH2 0x1C3 JUMPI DUP1 PUSH4 0x23B872DD EQ PUSH2 0x25D JUMPI DUP1 PUSH4 0x2AB60045 EQ PUSH2 0x270 JUMPI DUP1 PUSH4 0x3092AFD5 EQ PUSH2 0x283 JUMPI DUP1 PUSH4 0x313CE567 EQ PUSH2 0x296 JUMPI PUSH2 0x1F0 JUMP JUMPDEST DUP1 PUSH4 0x6FDDE03 EQ PUSH2 0x1F5 JUMPI DUP1 PUSH4 0x95EA7B3 EQ PUSH2 0x213 JUMPI DUP1 PUSH4 0x18160DDD EQ PUSH2 0x233 JUMPI DUP1 PUSH4 0x1A895266 EQ PUSH2 0x248 JUMPI JUMPDEST PUSH1 0x0 DUP1 REVERT JUMPDEST PUSH2 0x1FD PUSH2 0x41D JUMP JUMPDEST PUSH1 0x40 MLOAD PUSH2 0x20A SWAP2 SWAP1 PUSH2 0x1AD2 JUMP JUMPDEST PUSH1 0x40 MLOAD DUP1 SWAP2 SUB SWAP1 RETURN JUMPDEST PUSH2 0x226 PUSH2 0x221 CALLDATASIZE PUSH1 0x4 PUSH2 0x192F JUMP JUMPDEST PUSH2 0x4AB JUMP JUMPDEST PUSH1 0x40 MLOAD PUSH2 0x20A SWAP2 SWAP1 PUSH2 0x1AC7 JUMP JUMPDEST PUSH2 0x23B PUSH2 0x55C JUMP JUMPDEST PUSH1 0x40 MLOAD PUSH2 0x20A SWAP2 SWAP1 PUSH2 0x22FE JUMP JUMPDEST PUSH2 0x25B PUSH2 0x256 CALLDATASIZE PUSH1 0x4 PUSH2 0x189B JUMP JUMPDEST PUSH2 0x562 JUMP JUMPDEST STOP JUMPDEST PUSH2 0x226 PUSH2 0x26B CALLDATASIZE PUSH1 0x4 PUSH2 0x18EF JUMP JUMPDEST PUSH2 0x5D5 JUMP JUMPDEST PUSH2 0x25B PUSH2 0x27E CALLDATASIZE PUSH1 0x4 PUSH2 0x189B JUMP JUMPDEST PUSH2 0x751 JUMP JUMPDEST PUSH2 0x226 PUSH2 0x291 CALLDATASIZE PUSH1 0x4 PUSH2 0x189B JUMP JUMPDEST PUSH2 0x800 JUMP JUMPDEST PUSH2 0x29E PUSH2 0x889 JUMP JUMPDEST PUSH1 0x40 MLOAD PUSH2 0x20A SWAP2 SWAP1 PUSH2 0x2307 JUMP JUMPDEST PUSH2 0x25B PUSH2 0x2B9 CALLDATASIZE PUSH1 0x4 PUSH2 0x198E JUMP JUMPDEST PUSH2 0x892 JUMP JUMPDEST PUSH2 0x2C6 PUSH2 0xA03 JUMP JUMPDEST PUSH1 0x40 MLOAD PUSH2 0x20A SWAP2 SWAP1 PUSH2 0x1A9A JUMP JUMPDEST PUSH2 0x2C6 PUSH2 0xA12 JUMP JUMPDEST PUSH2 0x226 PUSH2 0x2E9 CALLDATASIZE PUSH1 0x4 PUSH2 0x192F JUMP JUMPDEST PUSH2 0xA21 JUMP JUMPDEST PUSH2 0x25B PUSH2 0x2FC CALLDATASIZE PUSH1 0x4 PUSH2 0x1A66 JUMP JUMPDEST PUSH2 0xC8D JUMP JUMPDEST PUSH2 0x226 PUSH2 0x30F CALLDATASIZE PUSH1 0x4 PUSH2 0x192F JUMP JUMPDEST PUSH2 0xE07 JUMP JUMPDEST PUSH2 0x226 PUSH2 0xEC9 JUMP JUMPDEST PUSH2 0x23B PUSH2 0x32A CALLDATASIZE PUSH1 0x4 PUSH2 0x189B JUMP JUMPDEST PUSH2 0xED9 JUMP JUMPDEST PUSH2 0x25B PUSH2 0xEF4 JUMP JUMPDEST PUSH2 0x23B PUSH2 0x345 CALLDATASIZE PUSH1 0x4 PUSH2 0x189B JUMP JUMPDEST PUSH2 0xF3F JUMP JUMPDEST PUSH2 0x2C6 PUSH2 0xF5A JUMP JUMPDEST PUSH2 0x1FD PUSH2 0xF69 JUMP JUMPDEST PUSH2 0x2C6 PUSH2 0xF76 JUMP JUMPDEST PUSH2 0x226 PUSH2 0x370 CALLDATASIZE PUSH1 0x4 PUSH2 0x192F JUMP JUMPDEST PUSH2 0xF85 JUMP JUMPDEST PUSH2 0x25B PUSH2 0x383 CALLDATASIZE PUSH1 0x4 PUSH2 0x189B JUMP JUMPDEST PUSH2 0x1022 JUMP JUMPDEST PUSH2 0x226 PUSH2 0x396 CALLDATASIZE PUSH1 0x4 PUSH2 0x189B JUMP JUMPDEST PUSH2 0x10D7 JUMP JUMPDEST PUSH2 0x25B PUSH2 0x3A9 CALLDATASIZE PUSH1 0x4 PUSH2 0x189B JUMP JUMPDEST PUSH2 0x10F5 JUMP JUMPDEST PUSH2 0x25B PUSH2 0x3BC CALLDATASIZE PUSH1 0x4 PUSH2 0x197A JUMP JUMPDEST PUSH2 0x11AA JUMP JUMPDEST PUSH2 0x2C6 PUSH2 0x11ED JUMP JUMPDEST PUSH2 0x23B PUSH2 0x3D7 CALLDATASIZE PUSH1 0x4 PUSH2 0x18B7 JUMP JUMPDEST PUSH2 0x11FC JUMP JUMPDEST PUSH2 0x1FD PUSH2 0x1227 JUMP JUMPDEST PUSH2 0x25B PUSH2 0x3F2 CALLDATASIZE PUSH1 0x4 PUSH2 0x189B JUMP JUMPDEST PUSH2 0x1234 JUMP JUMPDEST PUSH2 0x25B PUSH2 0x405 CALLDATASIZE PUSH1 0x4 PUSH2 0x189B JUMP JUMPDEST PUSH2 0x12A5 JUMP JUMPDEST PUSH2 0x226 PUSH2 0x418 CALLDATASIZE PUSH1 0x4 PUSH2 0x189B JUMP JUMPDEST PUSH2 0x131B JUMP JUMPDEST PUSH1 0x5 DUP1 SLOAD PUSH2 0x42A SWAP1 PUSH2 0x2374 JUMP JUMPDEST DUP1 PUSH1 0x1F ADD PUSH1 0x20 DUP1 SWAP2 DIV MUL PUSH1 0x20 ADD PUSH1 0x40 MLOAD SWAP1 DUP2 ADD PUSH1 0x40 MSTORE DUP1 SWAP3 SWAP2 SWAP1 DUP2 DUP2 MSTORE PUSH1 0x20 ADD DUP3 DUP1 SLOAD PUSH2 0x456 SWAP1 PUSH2 0x2374 JUMP JUMPDEST DUP1 ISZERO PUSH2 0x4A3 JUMPI DUP1 PUSH1 0x1F LT PUSH2 0x478 JUMPI PUSH2 0x100 DUP1 DUP4 SLOAD DIV MUL DUP4 MSTORE SWAP2 PUSH1 0x20 ADD SWAP2 PUSH2 0x4A3 JUMP JUMPDEST DUP3 ADD SWAP2 SWAP1 PUSH1 0x0 MSTORE PUSH1 0x20 PUSH1 0x0 KECCAK256 SWAP1 JUMPDEST DUP2 SLOAD DUP2 MSTORE SWAP1 PUSH1 0x1 ADD SWAP1 PUSH1 0x20 ADD DUP1 DUP4 GT PUSH2 0x486 JUMPI DUP3 SWAP1 SUB PUSH1 0x1F AND DUP3 ADD SWAP2 JUMPDEST POP POP POP POP POP DUP2 JUMP JUMPDEST PUSH1 0x0 PUSH2 0x4B5 PUSH2 0xEC9 JUMP JUMPDEST ISZERO PUSH2 0x4DB JUMPI PUSH1 0x40 MLOAD PUSH3 0x461BCD PUSH1 0xE5 SHL DUP2 MSTORE PUSH1 0x4 ADD PUSH2 0x4D2 SWAP1 PUSH2 0x1DC3 JUMP JUMPDEST PUSH1 0x40 MLOAD DUP1 SWAP2 SUB SWAP1 REVERT JUMPDEST CALLER PUSH1 0x0 DUP2 DUP2 MSTORE PUSH1 0x3 PUSH1 0x20 MSTORE PUSH1 0x40 SWAP1 KECCAK256 SLOAD PUSH1 0xFF AND ISZERO PUSH2 0x50B JUMPI PUSH1 0x40 MLOAD PUSH3 0x461BCD PUSH1 0xE5 SHL DUP2 MSTORE PUSH1 0x4 ADD PUSH2 0x4D2 SWAP1 PUSH2 0x2241 JUMP JUMPDEST PUSH1 0x1 PUSH1 0x1 PUSH1 0xA0 SHL SUB DUP5 AND PUSH1 0x0 SWAP1 DUP2 MSTORE PUSH1 0x3 PUSH1 0x20 MSTORE PUSH1 0x40 SWAP1 KECCAK256 SLOAD DUP5 SWAP1 PUSH1 0xFF AND ISZERO PUSH2 0x546 JUMPI PUSH1 0x40 MLOAD PUSH3 0x461BCD PUSH1 0xE5 SHL DUP2 MSTORE PUSH1 0x4 ADD PUSH2 0x4D2 SWAP1 PUSH2 0x2241 JUMP JUMPDEST PUSH2 0x551 CALLER DUP7 DUP7 PUSH2 0x1339 JUMP JUMPDEST POP PUSH1 0x1 SWAP5 SWAP4 POP POP POP POP JUMP JUMPDEST PUSH1 0xC SLOAD SWAP1 JUMP JUMPDEST PUSH1 0x2 SLOAD PUSH1 0x1 PUSH1 0x1 PUSH1 0xA0 SHL SUB AND CALLER EQ PUSH2 0x58C JUMPI PUSH1 0x40 MLOAD PUSH3 0x461BCD PUSH1 0xE5 SHL DUP2 MSTORE PUSH1 0x4 ADD PUSH2 0x4D2 SWAP1 PUSH2 0x1CA3 JUMP JUMPDEST PUSH1 0x1 PUSH1 0x1 PUSH1 0xA0 SHL SUB DUP2 AND PUSH1 0x0 DUP2 DUP2 MSTORE PUSH1 0x3 PUSH1 0x20 MSTORE PUSH1 0x40 DUP1 DUP3 KECCAK256 DUP1 SLOAD PUSH1 0xFF NOT AND SWAP1 SSTORE MLOAD PUSH32 0x117E3210BB9AA7D9BAFF172026820255C6F6C30BA8999D1C2FD88E2848137C4E SWAP2 SWAP1 LOG2 POP JUMP JUMPDEST PUSH1 0x0 PUSH2 0x5DF PUSH2 0xEC9 JUMP JUMPDEST ISZERO PUSH2 0x5FC JUMPI PUSH1 0x40 MLOAD PUSH3 0x461BCD PUSH1 0xE5 SHL DUP2 MSTORE PUSH1 0x4 ADD PUSH2 0x4D2 SWAP1 PUSH2 0x1DC3 JUMP JUMPDEST CALLER PUSH1 0x0 DUP2 DUP2 MSTORE PUSH1 0x3 PUSH1 0x20 MSTORE PUSH1 0x40 SWAP1 KECCAK256 SLOAD PUSH1 0xFF AND ISZERO PUSH2 0x62C JUMPI PUSH1 0x40 MLOAD PUSH3 0x461BCD PUSH1 0xE5 SHL DUP2 MSTORE PUSH1 0x4 ADD PUSH2 0x4D2 SWAP1 PUSH2 0x2241 JUMP JUMPDEST PUSH1 0x1 PUSH1 0x1 PUSH1 0xA0 SHL SUB DUP6 AND PUSH1 0x0 SWAP1 DUP2 MSTORE PUSH1 0x3 PUSH1 0x20 MSTORE PUSH1 0x40 SWAP1 KECCAK256 SLOAD DUP6 SWAP1 PUSH1 0xFF AND ISZERO PUSH2 0x667 JUMPI PUSH1 0x40 MLOAD PUSH3 0x461BCD PUSH1 0xE5 SHL DUP2 MSTORE PUSH1 0x4 ADD PUSH2 0x4D2 SWAP1 PUSH2 0x2241 JUMP JUMPDEST PUSH1 0x1 PUSH1 0x1 PUSH1 0xA0 SHL SUB DUP6 AND PUSH1 0x0 SWAP1 DUP2 MSTORE PUSH1 0x3 PUSH1 0x20 MSTORE PUSH1 0x40 SWAP1 KECCAK256 SLOAD DUP6 SWAP1 PUSH1 0xFF AND ISZERO PUSH2 0x6A2 JUMPI PUSH1 0x40 MLOAD PUSH3 0x461BCD PUSH1 0xE5 SHL DUP2 MSTORE PUSH1 0x4 ADD PUSH2 0x4D2 SWAP1 PUSH2 0x2241 JUMP JUMPDEST PUSH1 0x1 PUSH1 0x1 PUSH1 0xA0 SHL SUB DUP8 AND PUSH1 0x0 SWAP1 DUP2 MSTORE PUSH1 0xB PUSH1 0x20 SWAP1 DUP2 MSTORE PUSH1 0x40 DUP1 DUP4 KECCAK256 CALLER DUP5 MSTORE SWAP1 SWAP2 MSTORE SWAP1 KECCAK256 SLOAD DUP6 GT ISZERO PUSH2 0x6E5 JUMPI PUSH1 0x40 MLOAD PUSH3 0x461BCD PUSH1 0xE5 SHL DUP2 MSTORE PUSH1 0x4 ADD PUSH2 0x4D2 SWAP1 PUSH2 0x1EB1 JUMP JUMPDEST PUSH2 0x6F0 DUP8 DUP8 DUP8 PUSH2 0x13E0 JUMP JUMPDEST PUSH1 0x1 PUSH1 0x1 PUSH1 0xA0 SHL SUB DUP8 AND PUSH1 0x0 SWAP1 DUP2 MSTORE PUSH1 0xB PUSH1 0x20 SWAP1 DUP2 MSTORE PUSH1 0x40 DUP1 DUP4 KECCAK256 CALLER DUP5 MSTORE SWAP1 SWAP2 MSTORE SWAP1 KECCAK256 SLOAD PUSH2 0x71F SWAP1 DUP7 SWAP1 PUSH2 0x232D JUMP JUMPDEST PUSH1 0x1 PUSH1 0x1 PUSH1 0xA0 SHL SUB DUP9 AND PUSH1 0x0 SWAP1 DUP2 MSTORE PUSH1 0xB PUSH1 0x20 SWAP1 DUP2 MSTORE PUSH1 0x40 DUP1 DUP4 KECCAK256 CALLER DUP5 MSTORE SWAP1 SWAP2 MSTORE SWAP1 KECCAK256 SSTORE PUSH1 0x1 SWAP4 POP POP POP POP SWAP4 SWAP3 POP POP POP JUMP JUMPDEST PUSH2 0x759 PUSH2 0x150A JUMP JUMPDEST PUSH1 0x1 PUSH1 0x1 PUSH1 0xA0 SHL SUB AND PUSH2 0x76A PUSH2 0xF5A JUMP JUMPDEST PUSH1 0x1 PUSH1 0x1 PUSH1 0xA0 SHL SUB AND EQ PUSH2 0x790 JUMPI PUSH1 0x40 MLOAD PUSH3 0x461BCD PUSH1 0xE5 SHL DUP2 MSTORE PUSH1 0x4 ADD PUSH2 0x4D2 SWAP1 PUSH2 0x1EF9 JUMP JUMPDEST PUSH1 0x1 PUSH1 0x1 PUSH1 0xA0 SHL SUB DUP2 AND PUSH2 0x7B6 JUMPI PUSH1 0x40 MLOAD PUSH3 0x461BCD PUSH1 0xE5 SHL DUP2 MSTORE PUSH1 0x4 ADD PUSH2 0x4D2 SWAP1 PUSH2 0x1C13 JUMP JUMPDEST PUSH1 0x4 DUP1 SLOAD PUSH1 0x1 PUSH1 0x1 PUSH1 0xA0 SHL SUB NOT AND PUSH1 0x1 PUSH1 0x1 PUSH1 0xA0 SHL SUB DUP4 AND SWAP1 DUP2 OR SWAP1 SWAP2 SSTORE PUSH1 0x40 MLOAD PUSH32 0xE475E580D85111348E40D8CA33CFDD74C30FE1655C2D8537A13ABC10065FFA5A SWAP1 PUSH1 0x0 SWAP1 LOG2 POP JUMP JUMPDEST PUSH1 0x9 SLOAD PUSH1 0x0 SWAP1 PUSH1 0x1 PUSH1 0x1 PUSH1 0xA0 SHL SUB AND CALLER EQ PUSH2 0x82D JUMPI PUSH1 0x40 MLOAD PUSH3 0x461BCD PUSH1 0xE5 SHL DUP2 MSTORE PUSH1 0x4 ADD PUSH2 0x4D2 SWAP1 PUSH2 0x2161 JUMP JUMPDEST PUSH1 0x1 PUSH1 0x1 PUSH1 0xA0 SHL SUB DUP3 AND PUSH1 0x0 DUP2 DUP2 MSTORE PUSH1 0xD PUSH1 0x20 SWAP1 DUP2 MSTORE PUSH1 0x40 DUP1 DUP4 KECCAK256 DUP1 SLOAD PUSH1 0xFF NOT AND SWAP1 SSTORE PUSH1 0xE SWAP1 SWAP2 MSTORE DUP1 DUP3 KECCAK256 DUP3 SWAP1 SSTORE MLOAD PUSH32 0xE94479A9F7E1952CC78F2D6BAAB678ADC1B772D936C6583DEF489E524CB66692 SWAP2 SWAP1 LOG2 POP PUSH1 0x1 JUMPDEST SWAP2 SWAP1 POP JUMP JUMPDEST PUSH1 0x7 SLOAD PUSH1 0xFF AND DUP2 JUMP JUMPDEST PUSH1 0x9 SLOAD PUSH1 0x1 PUSH1 0xA0 SHL SWAP1 DIV PUSH1 0xFF AND ISZERO PUSH2 0x8BC JUMPI PUSH1 0x40 MLOAD PUSH3 0x461BCD PUSH1 0xE5 SHL DUP2 MSTORE PUSH1 0x4 ADD PUSH2 0x4D2 SWAP1 PUSH2 0x1CEF JUMP JUMPDEST PUSH1 0x1 PUSH1 0x1 PUSH1 0xA0 SHL SUB DUP5 AND PUSH2 0x8E2 JUMPI PUSH1 0x40 MLOAD PUSH3 0x461BCD PUSH1 0xE5 SHL DUP2 MSTORE PUSH1 0x4 ADD PUSH2 0x4D2 SWAP1 PUSH2 0x1FFB JUMP JUMPDEST PUSH1 0x1 PUSH1 0x1 PUSH1 0xA0 SHL SUB DUP4 AND PUSH2 0x908 JUMPI PUSH1 0x40 MLOAD PUSH3 0x461BCD PUSH1 0xE5 SHL DUP2 MSTORE PUSH1 0x4 ADD PUSH2 0x4D2 SWAP1 PUSH2 0x2045 JUMP JUMPDEST PUSH1 0x1 PUSH1 0x1 PUSH1 0xA0 SHL SUB DUP3 AND PUSH2 0x92E JUMPI PUSH1 0x40 MLOAD PUSH3 0x461BCD PUSH1 0xE5 SHL DUP2 MSTORE PUSH1 0x4 ADD PUSH2 0x4D2 SWAP1 PUSH2 0x1E24 JUMP JUMPDEST PUSH1 0x1 PUSH1 0x1 PUSH1 0xA0 SHL SUB DUP2 AND PUSH2 0x954 JUMPI PUSH1 0x40 MLOAD PUSH3 0x461BCD PUSH1 0xE5 SHL DUP2 MSTORE PUSH1 0x4 ADD PUSH2 0x4D2 SWAP1 PUSH2 0x1B48 JUMP JUMPDEST DUP8 MLOAD PUSH2 0x967 SWAP1 PUSH1 0x5 SWAP1 PUSH1 0x20 DUP12 ADD SWAP1 PUSH2 0x175F JUMP JUMPDEST POP DUP7 MLOAD PUSH2 0x97B SWAP1 PUSH1 0x6 SWAP1 PUSH1 0x20 DUP11 ADD SWAP1 PUSH2 0x175F JUMP JUMPDEST POP DUP6 MLOAD PUSH2 0x98F SWAP1 PUSH1 0x8 SWAP1 PUSH1 0x20 DUP10 ADD SWAP1 PUSH2 0x175F JUMP JUMPDEST POP PUSH1 0x7 DUP1 SLOAD PUSH1 0xFF NOT AND PUSH1 0xFF DUP8 AND OR SWAP1 SSTORE PUSH1 0x9 DUP1 SLOAD PUSH1 0x1 PUSH1 0x1 PUSH1 0xA0 SHL SUB NOT SWAP1 DUP2 AND PUSH1 0x1 PUSH1 0x1 PUSH1 0xA0 SHL SUB DUP8 DUP2 AND SWAP2 SWAP1 SWAP2 OR SWAP1 SWAP3 SSTORE PUSH1 0x1 DUP1 SLOAD DUP3 AND DUP7 DUP5 AND OR SWAP1 SSTORE PUSH1 0x2 DUP1 SLOAD SWAP1 SWAP2 AND SWAP2 DUP5 AND SWAP2 SWAP1 SWAP2 OR SWAP1 SSTORE PUSH2 0x9E6 DUP2 PUSH2 0x150E JUMP JUMPDEST POP POP PUSH1 0x9 DUP1 SLOAD PUSH1 0xFF PUSH1 0xA0 SHL NOT AND PUSH1 0x1 PUSH1 0xA0 SHL OR SWAP1 SSTORE POP POP POP POP POP POP JUMP JUMPDEST PUSH1 0x9 SLOAD PUSH1 0x1 PUSH1 0x1 PUSH1 0xA0 SHL SUB AND DUP2 JUMP JUMPDEST PUSH1 0x4 SLOAD PUSH1 0x1 PUSH1 0x1 PUSH1 0xA0 SHL SUB AND SWAP1 JUMP JUMPDEST PUSH1 0x0 PUSH2 0xA2B PUSH2 0xEC9 JUMP JUMPDEST ISZERO PUSH2 0xA48 JUMPI PUSH1 0x40 MLOAD PUSH3 0x461BCD PUSH1 0xE5 SHL DUP2 MSTORE PUSH1 0x4 ADD PUSH2 0x4D2 SWAP1 PUSH2 0x1DC3 JUMP JUMPDEST CALLER PUSH1 0x0 SWAP1 DUP2 MSTORE PUSH1 0xD PUSH1 0x20 MSTORE PUSH1 0x40 SWAP1 KECCAK256 SLOAD PUSH1 0xFF AND PUSH2 0xA77 JUMPI PUSH1 0x40 MLOAD PUSH3 0x461BCD PUSH1 0xE5 SHL DUP2 MSTORE PUSH1 0x4 ADD PUSH2 0x4D2 SWAP1 PUSH2 0x1DED JUMP JUMPDEST CALLER PUSH1 0x0 DUP2 DUP2 MSTORE PUSH1 0x3 PUSH1 0x20 MSTORE PUSH1 0x40 SWAP1 KECCAK256 SLOAD PUSH1 0xFF AND ISZERO PUSH2 0xAA7 JUMPI PUSH1 0x40 MLOAD PUSH3 0x461BCD PUSH1 0xE5 SHL DUP2 MSTORE PUSH1 0x4 ADD PUSH2 0x4D2 SWAP1 PUSH2 0x2241 JUMP JUMPDEST PUSH1 0x1 PUSH1 0x1 PUSH1 0xA0 SHL SUB DUP5 AND PUSH1 0x0 SWAP1 DUP2 MSTORE PUSH1 0x3 PUSH1 0x20 MSTORE PUSH1 0x40 SWAP1 KECCAK256 SLOAD DUP5 SWAP1 PUSH1 0xFF AND ISZERO PUSH2 0xAE2 JUMPI PUSH1 0x40 MLOAD PUSH3 0x461BCD PUSH1 0xE5 SHL DUP2 MSTORE PUSH1 0x4 ADD PUSH2 0x4D2 SWAP1 PUSH2 0x2241 JUMP JUMPDEST PUSH1 0x1 PUSH1 0x1 PUSH1 0xA0 SHL SUB DUP6 AND PUSH2 0xB08 JUMPI PUSH1 0x40 MLOAD PUSH3 0x461BCD PUSH1 0xE5 SHL DUP2 MSTORE PUSH1 0x4 ADD PUSH2 0x4D2 SWAP1 PUSH2 0x2286 JUMP JUMPDEST PUSH1 0x0 DUP5 GT PUSH2 0xB28 JUMPI PUSH1 0x40 MLOAD PUSH3 0x461BCD PUSH1 0xE5 SHL DUP2 MSTORE PUSH1 0x4 ADD PUSH2 0x4D2 SWAP1 PUSH2 0x1F2E JUMP JUMPDEST PUSH1 0x9 SLOAD PUSH1 0x1 PUSH1 0x1 PUSH1 0xA0 SHL SUB DUP7 DUP2 AND SWAP2 AND EQ PUSH2 0xB55 JUMPI PUSH1 0x40 MLOAD PUSH3 0x461BCD PUSH1 0xE5 SHL DUP2 MSTORE PUSH1 0x4 ADD PUSH2 0x4D2 SWAP1 PUSH2 0x2104 JUMP JUMPDEST CALLER PUSH1 0x0 SWAP1 DUP2 MSTORE PUSH1 0xE PUSH1 0x20 MSTORE PUSH1 0x40 SWAP1 KECCAK256 SLOAD DUP1 DUP6 GT ISZERO PUSH2 0xB85 JUMPI PUSH1 0x40 MLOAD PUSH3 0x461BCD PUSH1 0xE5 SHL DUP2 MSTORE PUSH1 0x4 ADD PUSH2 0x4D2 SWAP1 PUSH2 0x1D34 JUMP JUMPDEST DUP5 PUSH1 0xC SLOAD PUSH2 0xB93 SWAP2 SWAP1 PUSH2 0x2315 JUMP JUMPDEST PUSH1 0xC SSTORE PUSH1 0x1 PUSH1 0x1 PUSH1 0xA0 SHL SUB DUP7 AND PUSH1 0x0 SWAP1 DUP2 MSTORE PUSH1 0xA PUSH1 0x20 MSTORE PUSH1 0x40 SWAP1 KECCAK256 SLOAD PUSH2 0xBBA SWAP1 DUP7 SWAP1 PUSH2 0x2315 JUMP JUMPDEST PUSH1 0x1 PUSH1 0x1 PUSH1 0xA0 SHL SUB DUP8 AND PUSH1 0x0 SWAP1 DUP2 MSTORE PUSH1 0xA PUSH1 0x20 MSTORE PUSH1 0x40 SWAP1 KECCAK256 SSTORE PUSH2 0xBDD DUP6 DUP3 PUSH2 0x232D JUMP JUMPDEST CALLER PUSH1 0x0 DUP2 DUP2 MSTORE PUSH1 0xE PUSH1 0x20 MSTORE PUSH1 0x40 SWAP1 DUP2 SWAP1 KECCAK256 SWAP3 SWAP1 SWAP3 SSTORE SWAP1 MLOAD PUSH1 0x1 PUSH1 0x1 PUSH1 0xA0 SHL SUB DUP9 AND SWAP2 SWAP1 PUSH32 0xAB8530F87DC9B59234C4623BF917212BB2536D647574C8E7E5DA92C2EDE0C9F8 SWAP1 PUSH2 0xC2D SWAP1 DUP10 SWAP1 PUSH2 0x22FE JUMP JUMPDEST PUSH1 0x40 MLOAD DUP1 SWAP2 SUB SWAP1 LOG3 DUP6 PUSH1 0x1 PUSH1 0x1 PUSH1 0xA0 SHL SUB AND PUSH1 0x0 PUSH1 0x1 PUSH1 0x1 PUSH1 0xA0 SHL SUB AND PUSH32 0xDDF252AD1BE2C89B69C2B068FC378DAA952BA7F163C4A11628F55A4DF523B3EF DUP8 PUSH1 0x40 MLOAD PUSH2 0xC79 SWAP2 SWAP1 PUSH2 0x22FE JUMP JUMPDEST PUSH1 0x40 MLOAD DUP1 SWAP2 SUB SWAP1 LOG3 POP PUSH1 0x1 SWAP6 SWAP5 POP POP POP POP POP JUMP JUMPDEST PUSH2 0xC95 PUSH2 0xEC9 JUMP JUMPDEST ISZERO PUSH2 0xCB2 JUMPI PUSH1 0x40 MLOAD PUSH3 0x461BCD PUSH1 0xE5 SHL DUP2 MSTORE PUSH1 0x4 ADD PUSH2 0x4D2 SWAP1 PUSH2 0x1DC3 JUMP JUMPDEST CALLER PUSH1 0x0 SWAP1 DUP2 MSTORE PUSH1 0xD PUSH1 0x20 MSTORE PUSH1 0x40 SWAP1 KECCAK256 SLOAD PUSH1 0xFF AND PUSH2 0xCE1 JUMPI PUSH1 0x40 MLOAD PUSH3 0x461BCD PUSH1 0xE5 SHL DUP2 MSTORE PUSH1 0x4 ADD PUSH2 0x4D2 SWAP1 PUSH2 0x1DED JUMP JUMPDEST CALLER PUSH1 0x0 DUP2 DUP2 MSTORE PUSH1 0x3 PUSH1 0x20 MSTORE PUSH1 0x40 SWAP1 KECCAK256 SLOAD PUSH1 0xFF AND ISZERO PUSH2 0xD11 JUMPI PUSH1 0x40 MLOAD PUSH3 0x461BCD PUSH1 0xE5 SHL DUP2 MSTORE PUSH1 0x4 ADD PUSH2 0x4D2 SWAP1 PUSH2 0x2241 JUMP JUMPDEST CALLER PUSH1 0x0 SWAP1 DUP2 MSTORE PUSH1 0xA PUSH1 0x20 MSTORE PUSH1 0x40 SWAP1 KECCAK256 SLOAD DUP3 PUSH2 0xD3E JUMPI PUSH1 0x40 MLOAD PUSH3 0x461BCD PUSH1 0xE5 SHL DUP2 MSTORE PUSH1 0x4 ADD PUSH2 0x4D2 SWAP1 PUSH2 0x1FB7 JUMP JUMPDEST DUP3 DUP2 LT ISZERO PUSH2 0xD5E JUMPI PUSH1 0x40 MLOAD PUSH3 0x461BCD PUSH1 0xE5 SHL DUP2 MSTORE PUSH1 0x4 ADD PUSH2 0x4D2 SWAP1 PUSH2 0x22BD JUMP JUMPDEST DUP3 PUSH1 0xC SLOAD PUSH2 0xD6C SWAP2 SWAP1 PUSH2 0x232D JUMP JUMPDEST PUSH1 0xC SSTORE PUSH2 0xD79 DUP4 DUP3 PUSH2 0x232D JUMP JUMPDEST CALLER PUSH1 0x0 DUP2 DUP2 MSTORE PUSH1 0xA PUSH1 0x20 MSTORE PUSH1 0x40 SWAP1 DUP2 SWAP1 KECCAK256 SWAP3 SWAP1 SWAP3 SSTORE SWAP1 MLOAD PUSH32 0xCC16F5DBB4873280815C1EE09DBD06736CFFCC184412CF7A71A0FDB75D397CA5 SWAP1 PUSH2 0xDBD SWAP1 DUP7 SWAP1 PUSH2 0x22FE JUMP JUMPDEST PUSH1 0x40 MLOAD DUP1 SWAP2 SUB SWAP1 LOG2 PUSH1 0x40 MLOAD PUSH1 0x0 SWAP1 CALLER SWAP1 PUSH32 0xDDF252AD1BE2C89B69C2B068FC378DAA952BA7F163C4A11628F55A4DF523B3EF SWAP1 PUSH2 0xDFA SWAP1 DUP8 SWAP1 PUSH2 0x22FE JUMP JUMPDEST PUSH1 0x40 MLOAD DUP1 SWAP2 SUB SWAP1 LOG3 POP POP POP JUMP JUMPDEST PUSH1 0x0 PUSH2 0xE11 PUSH2 0xEC9 JUMP JUMPDEST ISZERO PUSH2 0xE2E JUMPI PUSH1 0x40 MLOAD PUSH3 0x461BCD PUSH1 0xE5 SHL DUP2 MSTORE PUSH1 0x4 ADD PUSH2 0x4D2 SWAP1 PUSH2 0x1DC3 JUMP JUMPDEST PUSH1 0x9 SLOAD PUSH1 0x1 PUSH1 0x1 PUSH1 0xA0 SHL SUB AND CALLER EQ PUSH2 0xE58 JUMPI PUSH1 0x40 MLOAD PUSH3 0x461BCD PUSH1 0xE5 SHL DUP2 MSTORE PUSH1 0x4 ADD PUSH2 0x4D2 SWAP1 PUSH2 0x2161 JUMP JUMPDEST PUSH1 0x1 PUSH1 0x1 PUSH1 0xA0 SHL SUB DUP4 AND PUSH1 0x0 DUP2 DUP2 MSTORE PUSH1 0xD PUSH1 0x20 SWAP1 DUP2 MSTORE PUSH1 0x40 DUP1 DUP4 KECCAK256 DUP1 SLOAD PUSH1 0xFF NOT AND PUSH1 0x1 OR SWAP1 SSTORE PUSH1 0xE SWAP1 SWAP2 MSTORE SWAP1 DUP2 SWAP1 KECCAK256 DUP5 SWAP1 SSTORE MLOAD PUSH32 0x46980FCA912EF9BCDBD36877427B6B90E860769F604E89C0E67720CECE530D20 SWAP1 PUSH2 0xEB8 SWAP1 DUP6 SWAP1 PUSH2 0x22FE JUMP JUMPDEST PUSH1 0x40 MLOAD DUP1 SWAP2 SUB SWAP1 LOG2 POP PUSH1 0x1 SWAP3 SWAP2 POP POP JUMP JUMPDEST PUSH1 0x1 SLOAD PUSH1 0x1 PUSH1 0xA0 SHL SWAP1 DIV PUSH1 0xFF AND SWAP1 JUMP JUMPDEST PUSH1 0x1 PUSH1 0x1 PUSH1 0xA0 SHL SUB AND PUSH1 0x0 SWAP1 DUP2 MSTORE PUSH1 0xA PUSH1 0x20 MSTORE PUSH1 0x40 SWAP1 KECCAK256 SLOAD SWAP1 JUMP JUMPDEST PUSH2 0xEFC PUSH2 0x150A JUMP JUMPDEST PUSH1 0x1 PUSH1 0x1 PUSH1 0xA0 SHL SUB AND PUSH2 0xF0D PUSH2 0xF5A JUMP JUMPDEST PUSH1 0x1 PUSH1 0x1 PUSH1 0xA0 SHL SUB AND EQ PUSH2 0xF33 JUMPI PUSH1 0x40 MLOAD PUSH3 0x461BCD PUSH1 0xE5 SHL DUP2 MSTORE PUSH1 0x4 ADD PUSH2 0x4D2 SWAP1 PUSH2 0x1EF9 JUMP JUMPDEST PUSH2 0xF3D PUSH1 0x0 PUSH2 0x150E JUMP JUMPDEST JUMP JUMPDEST PUSH1 0x1 PUSH1 0x1 PUSH1 0xA0 SHL SUB AND PUSH1 0x0 SWAP1 DUP2 MSTORE PUSH1 0xE PUSH1 0x20 MSTORE PUSH1 0x40 SWAP1 KECCAK256 SLOAD SWAP1 JUMP JUMPDEST PUSH1 0x0 SLOAD PUSH1 0x1 PUSH1 0x1 PUSH1 0xA0 SHL SUB AND SWAP1 JUMP JUMPDEST PUSH1 0x6 DUP1 SLOAD PUSH2 0x42A SWAP1 PUSH2 0x2374 JUMP JUMPDEST PUSH1 0x1 SLOAD PUSH1 0x1 PUSH1 0x1 PUSH1 0xA0 SHL SUB AND DUP2 JUMP JUMPDEST PUSH1 0x0 PUSH2 0xF8F PUSH2 0xEC9 JUMP JUMPDEST ISZERO PUSH2 0xFAC JUMPI PUSH1 0x40 MLOAD PUSH3 0x461BCD PUSH1 0xE5 SHL DUP2 MSTORE PUSH1 0x4 ADD PUSH2 0x4D2 SWAP1 PUSH2 0x1DC3 JUMP JUMPDEST CALLER PUSH1 0x0 DUP2 DUP2 MSTORE PUSH1 0x3 PUSH1 0x20 MSTORE PUSH1 0x40 SWAP1 KECCAK256 SLOAD PUSH1 0xFF AND ISZERO PUSH2 0xFDC JUMPI PUSH1 0x40 MLOAD PUSH3 0x461BCD PUSH1 0xE5 SHL DUP2 MSTORE PUSH1 0x4 ADD PUSH2 0x4D2 SWAP1 PUSH2 0x2241 JUMP JUMPDEST PUSH1 0x1 PUSH1 0x1 PUSH1 0xA0 SHL SUB DUP5 AND PUSH1 0x0 SWAP1 DUP2 MSTORE PUSH1 0x3 PUSH1 0x20 MSTORE PUSH1 0x40 SWAP1 KECCAK256 SLOAD DUP5 SWAP1 PUSH1 0xFF AND ISZERO PUSH2 0x1017 JUMPI PUSH1 0x40 MLOAD PUSH3 0x461BCD PUSH1 0xE5 SHL DUP2 MSTORE PUSH1 0x4 ADD PUSH2 0x4D2 SWAP1 PUSH2 0x2241 JUMP JUMPDEST PUSH2 0x551 CALLER DUP7 DUP7 PUSH2 0x13E0 JUMP JUMPDEST PUSH2 0x102A PUSH2 0x150A JUMP JUMPDEST PUSH1 0x1 PUSH1 0x1 PUSH1 0xA0 SHL SUB AND PUSH2 0x103B PUSH2 0xF5A JUMP JUMPDEST PUSH1 0x1 PUSH1 0x1 PUSH1 0xA0 SHL SUB AND EQ PUSH2 0x1061 JUMPI PUSH1 0x40 MLOAD PUSH3 0x461BCD PUSH1 0xE5 SHL DUP2 MSTORE PUSH1 0x4 ADD PUSH2 0x4D2 SWAP1 PUSH2 0x1EF9 JUMP JUMPDEST PUSH1 0x1 PUSH1 0x1 PUSH1 0xA0 SHL SUB DUP2 AND PUSH2 0x1087 JUMPI PUSH1 0x40 MLOAD PUSH3 0x461BCD PUSH1 0xE5 SHL DUP2 MSTORE PUSH1 0x4 ADD PUSH2 0x4D2 SWAP1 PUSH2 0x1FFB JUMP JUMPDEST PUSH1 0x9 DUP1 SLOAD PUSH1 0x1 PUSH1 0x1 PUSH1 0xA0 SHL SUB NOT AND PUSH1 0x1 PUSH1 0x1 PUSH1 0xA0 SHL SUB DUP4 DUP2 AND SWAP2 SWAP1 SWAP2 OR SWAP2 DUP3 SWAP1 SSTORE PUSH1 0x40 MLOAD SWAP2 AND SWAP1 PUSH32 0xDB66DFA9C6B8F5226FE9AAC7E51897AE8EE94AC31DC70BB6C9900B2574B707E6 SWAP1 PUSH1 0x0 SWAP1 LOG2 POP JUMP JUMPDEST PUSH1 0x1 PUSH1 0x1 PUSH1 0xA0 SHL SUB AND PUSH1 0x0 SWAP1 DUP2 MSTORE PUSH1 0xD PUSH1 0x20 MSTORE PUSH1 0x40 SWAP1 KECCAK256 SLOAD PUSH1 0xFF AND SWAP1 JUMP JUMPDEST PUSH2 0x10FD PUSH2 0x150A JUMP JUMPDEST PUSH1 0x1 PUSH1 0x1 PUSH1 0xA0 SHL SUB AND PUSH2 0x110E PUSH2 0xF5A JUMP JUMPDEST PUSH1 0x1 PUSH1 0x1 PUSH1 0xA0 SHL SUB AND EQ PUSH2 0x1134 JUMPI PUSH1 0x40 MLOAD PUSH3 0x461BCD PUSH1 0xE5 SHL DUP2 MSTORE PUSH1 0x4 ADD PUSH2 0x4D2 SWAP1 PUSH2 0x1EF9 JUMP JUMPDEST PUSH1 0x1 PUSH1 0x1 PUSH1 0xA0 SHL SUB DUP2 AND PUSH2 0x115A JUMPI PUSH1 0x40 MLOAD PUSH3 0x461BCD PUSH1 0xE5 SHL DUP2 MSTORE PUSH1 0x4 ADD PUSH2 0x4D2 SWAP1 PUSH2 0x21EF JUMP JUMPDEST PUSH1 0x2 DUP1 SLOAD PUSH1 0x1 PUSH1 0x1 PUSH1 0xA0 SHL SUB NOT AND PUSH1 0x1 PUSH1 0x1 PUSH1 0xA0 SHL SUB DUP4 DUP2 AND SWAP2 SWAP1 SWAP2 OR SWAP2 DUP3 SWAP1 SSTORE PUSH1 0x40 MLOAD SWAP2 AND SWAP1 PUSH32 0xC67398012C111CE95ECB7429B933096C977380EE6C421175A71A4A4C6C88C06E SWAP1 PUSH1 0x0 SWAP1 LOG2 POP JUMP JUMPDEST PUSH1 0x4 SLOAD PUSH1 0x1 PUSH1 0x1 PUSH1 0xA0 SHL SUB AND CALLER EQ PUSH2 0x11D4 JUMPI PUSH1 0x40 MLOAD PUSH3 0x461BCD PUSH1 0xE5 SHL DUP2 MSTORE PUSH1 0x4 ADD PUSH2 0x4D2 SWAP1 PUSH2 0x1E6D JUMP JUMPDEST PUSH2 0x11E8 PUSH1 0x1 PUSH1 0x1 PUSH1 0xA0 SHL SUB DUP5 AND DUP4 DUP4 PUSH2 0x155E JUMP JUMPDEST POP POP POP JUMP JUMPDEST PUSH1 0x2 SLOAD PUSH1 0x1 PUSH1 0x1 PUSH1 0xA0 SHL SUB AND DUP2 JUMP JUMPDEST PUSH1 0x1 PUSH1 0x1 PUSH1 0xA0 SHL SUB SWAP2 DUP3 AND PUSH1 0x0 SWAP1 DUP2 MSTORE PUSH1 0xB PUSH1 0x20 SWAP1 DUP2 MSTORE PUSH1 0x40 DUP1 DUP4 KECCAK256 SWAP4 SWAP1 SWAP5 AND DUP3 MSTORE SWAP2 SWAP1 SWAP2 MSTORE KECCAK256 SLOAD SWAP1 JUMP JUMPDEST PUSH1 0x8 DUP1 SLOAD PUSH2 0x42A SWAP1 PUSH2 0x2374 JUMP JUMPDEST PUSH2 0x123C PUSH2 0x150A JUMP JUMPDEST PUSH1 0x1 PUSH1 0x1 PUSH1 0xA0 SHL SUB AND PUSH2 0x124D PUSH2 0xF5A JUMP JUMPDEST PUSH1 0x1 PUSH1 0x1 PUSH1 0xA0 SHL SUB AND EQ PUSH2 0x1273 JUMPI PUSH1 0x40 MLOAD PUSH3 0x461BCD PUSH1 0xE5 SHL DUP2 MSTORE PUSH1 0x4 ADD PUSH2 0x4D2 SWAP1 PUSH2 0x1EF9 JUMP JUMPDEST PUSH1 0x1 PUSH1 0x1 PUSH1 0xA0 SHL SUB DUP2 AND PUSH2 0x1299 JUMPI PUSH1 0x40 MLOAD PUSH3 0x461BCD PUSH1 0xE5 SHL DUP2 MSTORE PUSH1 0x4 ADD PUSH2 0x4D2 SWAP1 PUSH2 0x1B8B JUMP JUMPDEST PUSH2 0x12A2 DUP2 PUSH2 0x150E JUMP JUMPDEST POP JUMP JUMPDEST PUSH1 0x2 SLOAD PUSH1 0x1 PUSH1 0x1 PUSH1 0xA0 SHL SUB AND CALLER EQ PUSH2 0x12CF JUMPI PUSH1 0x40 MLOAD PUSH3 0x461BCD PUSH1 0xE5 SHL DUP2 MSTORE PUSH1 0x4 ADD PUSH2 0x4D2 SWAP1 PUSH2 0x1CA3 JUMP JUMPDEST PUSH1 0x1 PUSH1 0x1 PUSH1 0xA0 SHL SUB DUP2 AND PUSH1 0x0 DUP2 DUP2 MSTORE PUSH1 0x3 PUSH1 0x20 MSTORE PUSH1 0x40 DUP1 DUP3 KECCAK256 DUP1 SLOAD PUSH1 0xFF NOT AND PUSH1 0x1 OR SWAP1 SSTORE MLOAD PUSH32 0xFFA4E6181777692565CF28528FC88FD1516EA86B56DA075235FA575AF6A4B855 SWAP2 SWAP1 LOG2 POP JUMP JUMPDEST PUSH1 0x1 PUSH1 0x1 PUSH1 0xA0 SHL SUB AND PUSH1 0x0 SWAP1 DUP2 MSTORE PUSH1 0x3 PUSH1 0x20 MSTORE PUSH1 0x40 SWAP1 KECCAK256 SLOAD PUSH1 0xFF AND SWAP1 JUMP JUMPDEST PUSH1 0x1 PUSH1 0x1 PUSH1 0xA0 SHL SUB DUP4 AND PUSH2 0x135F JUMPI PUSH1 0x40 MLOAD PUSH3 0x461BCD PUSH1 0xE5 SHL DUP2 MSTORE PUSH1 0x4 ADD PUSH2 0x4D2 SWAP1 PUSH2 0x2089 JUMP JUMPDEST PUSH1 0x1 PUSH1 0x1 PUSH1 0xA0 SHL SUB DUP3 AND PUSH2 0x1385 JUMPI PUSH1 0x40 MLOAD PUSH3 0x461BCD PUSH1 0xE5 SHL DUP2 MSTORE PUSH1 0x4 ADD PUSH2 0x4D2 SWAP1 PUSH2 0x1BD1 JUMP JUMPDEST PUSH1 0x1 PUSH1 0x1 PUSH1 0xA0 SHL SUB DUP1 DUP5 AND PUSH1 0x0 DUP2 DUP2 MSTORE PUSH1 0xB PUSH1 0x20 SWAP1 DUP2 MSTORE PUSH1 0x40 DUP1 DUP4 KECCAK256 SWAP5 DUP8 AND DUP1 DUP5 MSTORE SWAP5 SWAP1 SWAP2 MSTORE SWAP1 DUP2 SWAP1 KECCAK256 DUP5 SWAP1 SSTORE MLOAD PUSH32 0x8C5BE1E5EBEC7D5BD14F71427D1E84F3DD0314C0F7B2291E5B200AC8C7C3B925 SWAP1 PUSH2 0xDFA SWAP1 DUP6 SWAP1 PUSH2 0x22FE JUMP JUMPDEST PUSH1 0x1 PUSH1 0x1 PUSH1 0xA0 SHL SUB DUP4 AND PUSH2 0x1406 JUMPI PUSH1 0x40 MLOAD PUSH3 0x461BCD PUSH1 0xE5 SHL DUP2 MSTORE PUSH1 0x4 ADD PUSH2 0x4D2 SWAP1 PUSH2 0x1F72 JUMP JUMPDEST PUSH1 0x1 PUSH1 0x1 PUSH1 0xA0 SHL SUB DUP3 AND PUSH2 0x142C JUMPI PUSH1 0x40 MLOAD PUSH3 0x461BCD PUSH1 0xE5 SHL DUP2 MSTORE PUSH1 0x4 ADD PUSH2 0x4D2 SWAP1 PUSH2 0x1B05 JUMP JUMPDEST PUSH1 0x1 PUSH1 0x1 PUSH1 0xA0 SHL SUB DUP4 AND PUSH1 0x0 SWAP1 DUP2 MSTORE PUSH1 0xA PUSH1 0x20 MSTORE PUSH1 0x40 SWAP1 KECCAK256 SLOAD DUP2 GT ISZERO PUSH2 0x1464 JUMPI PUSH1 0x40 MLOAD PUSH3 0x461BCD PUSH1 0xE5 SHL DUP2 MSTORE PUSH1 0x4 ADD PUSH2 0x4D2 SWAP1 PUSH2 0x1C5D JUMP JUMPDEST PUSH1 0x1 PUSH1 0x1 PUSH1 0xA0 SHL SUB DUP4 AND PUSH1 0x0 SWAP1 DUP2 MSTORE PUSH1 0xA PUSH1 0x20 MSTORE PUSH1 0x40 SWAP1 KECCAK256 SLOAD PUSH2 0x1488 SWAP1 DUP3 SWAP1 PUSH2 0x232D JUMP JUMPDEST PUSH1 0x1 PUSH1 0x1 PUSH1 0xA0 SHL SUB DUP1 DUP6 AND PUSH1 0x0 SWAP1 DUP2 MSTORE PUSH1 0xA PUSH1 0x20 MSTORE PUSH1 0x40 DUP1 DUP3 KECCAK256 SWAP4 SWAP1 SWAP4 SSTORE SWAP1 DUP5 AND DUP2 MSTORE KECCAK256 SLOAD PUSH2 0x14B8 SWAP1 DUP3 SWAP1 PUSH2 0x2315 JUMP JUMPDEST PUSH1 0x1 PUSH1 0x1 PUSH1 0xA0 SHL SUB DUP1 DUP5 AND PUSH1 0x0 DUP2 DUP2 MSTORE PUSH1 0xA PUSH1 0x20 MSTORE PUSH1 0x40 SWAP1 DUP2 SWAP1 KECCAK256 SWAP4 SWAP1 SWAP4 SSTORE SWAP2 MLOAD SWAP1 DUP6 AND SWAP1 PUSH32 0xDDF252AD1BE2C89B69C2B068FC378DAA952BA7F163C4A11628F55A4DF523B3EF SWAP1 PUSH2 0xDFA SWAP1 DUP6 SWAP1 PUSH2 0x22FE JUMP JUMPDEST CALLER SWAP1 JUMP JUMPDEST PUSH1 0x0 DUP1 SLOAD PUSH1 0x1 PUSH1 0x1 PUSH1 0xA0 SHL SUB DUP4 DUP2 AND PUSH1 0x1 PUSH1 0x1 PUSH1 0xA0 SHL SUB NOT DUP4 AND DUP2 OR DUP5 SSTORE PUSH1 0x40 MLOAD SWAP2 SWAP1 SWAP3 AND SWAP3 DUP4 SWAP2 PUSH32 0x8BE0079C531659141344CD1FD0A4F28419497F9722A3DAAFE3B4186F6B6457E0 SWAP2 SWAP1 LOG3 POP POP JUMP JUMPDEST PUSH2 0x11E8 DUP4 PUSH4 0xA9059CBB PUSH1 0xE0 SHL DUP5 DUP5 PUSH1 0x40 MLOAD PUSH1 0x24 ADD PUSH2 0x157D SWAP3 SWAP2 SWAP1 PUSH2 0x1AAE JUMP JUMPDEST PUSH1 0x40 DUP1 MLOAD PUSH1 0x1F NOT DUP2 DUP5 SUB ADD DUP2 MSTORE SWAP2 SWAP1 MSTORE PUSH1 0x20 DUP2 ADD DUP1 MLOAD PUSH1 0x1 PUSH1 0x1 PUSH1 0xE0 SHL SUB AND PUSH1 0x1 PUSH1 0x1 PUSH1 0xE0 SHL SUB NOT SWAP1 SWAP4 AND SWAP3 SWAP1 SWAP3 OR SWAP1 SWAP2 MSTORE PUSH1 0x0 PUSH2 0x1604 DUP3 PUSH1 0x40 MLOAD DUP1 PUSH1 0x40 ADD PUSH1 0x40 MSTORE DUP1 PUSH1 0x20 DUP2 MSTORE PUSH1 0x20 ADD PUSH32 0x5361666545524332303A206C6F772D6C6576656C2063616C6C206661696C6564 DUP2 MSTORE POP DUP6 PUSH1 0x1 PUSH1 0x1 PUSH1 0xA0 SHL SUB AND PUSH2 0x163E SWAP1 SWAP3 SWAP2 SWAP1 PUSH4 0xFFFFFFFF AND JUMP JUMPDEST DUP1 MLOAD SWAP1 SWAP2 POP ISZERO PUSH2 0x11E8 JUMPI DUP1 DUP1 PUSH1 0x20 ADD SWAP1 MLOAD DUP2 ADD SWAP1 PUSH2 0x1622 SWAP2 SWAP1 PUSH2 0x195A JUMP JUMPDEST PUSH2 0x11E8 JUMPI PUSH1 0x40 MLOAD PUSH3 0x461BCD PUSH1 0xE5 SHL DUP2 MSTORE PUSH1 0x4 ADD PUSH2 0x4D2 SWAP1 PUSH2 0x21A5 JUMP JUMPDEST PUSH1 0x60 PUSH2 0x164D DUP5 DUP5 PUSH1 0x0 DUP6 PUSH2 0x1657 JUMP JUMPDEST SWAP1 POP JUMPDEST SWAP4 SWAP3 POP POP POP JUMP JUMPDEST PUSH1 0x60 DUP3 SELFBALANCE LT ISZERO PUSH2 0x1679 JUMPI PUSH1 0x40 MLOAD PUSH3 0x461BCD PUSH1 0xE5 SHL DUP2 MSTORE PUSH1 0x4 ADD PUSH2 0x4D2 SWAP1 PUSH2 0x1D7D JUMP JUMPDEST PUSH2 0x1682 DUP6 PUSH2 0x1717 JUMP JUMPDEST PUSH2 0x169E JUMPI PUSH1 0x40 MLOAD PUSH3 0x461BCD PUSH1 0xE5 SHL DUP2 MSTORE PUSH1 0x4 ADD PUSH2 0x4D2 SWAP1 PUSH2 0x20CD JUMP JUMPDEST PUSH1 0x0 DUP1 DUP7 PUSH1 0x1 PUSH1 0x1 PUSH1 0xA0 SHL SUB AND DUP6 DUP8 PUSH1 0x40 MLOAD PUSH2 0x16BA SWAP2 SWAP1 PUSH2 0x1A7E JUMP JUMPDEST PUSH1 0x0 PUSH1 0x40 MLOAD DUP1 DUP4 SUB DUP2 DUP6 DUP8 GAS CALL SWAP3 POP POP POP RETURNDATASIZE DUP1 PUSH1 0x0 DUP2 EQ PUSH2 0x16F7 JUMPI PUSH1 0x40 MLOAD SWAP2 POP PUSH1 0x1F NOT PUSH1 0x3F RETURNDATASIZE ADD AND DUP3 ADD PUSH1 0x40 MSTORE RETURNDATASIZE DUP3 MSTORE RETURNDATASIZE PUSH1 0x0 PUSH1 0x20 DUP5 ADD RETURNDATACOPY PUSH2 0x16FC JUMP JUMPDEST PUSH1 0x60 SWAP2 POP JUMPDEST POP SWAP2 POP SWAP2 POP PUSH2 0x170C DUP3 DUP3 DUP7 PUSH2 0x1726 JUMP JUMPDEST SWAP8 SWAP7 POP POP POP POP POP POP POP JUMP JUMPDEST PUSH1 0x1 PUSH1 0x1 PUSH1 0xA0 SHL SUB AND EXTCODESIZE ISZERO ISZERO SWAP1 JUMP JUMPDEST PUSH1 0x60 DUP4 ISZERO PUSH2 0x1735 JUMPI POP DUP2 PUSH2 0x1650 JUMP JUMPDEST DUP3 MLOAD ISZERO PUSH2 0x1745 JUMPI DUP3 MLOAD DUP1 DUP5 PUSH1 0x20 ADD REVERT JUMPDEST DUP2 PUSH1 0x40 MLOAD PUSH3 0x461BCD PUSH1 0xE5 SHL DUP2 MSTORE PUSH1 0x4 ADD PUSH2 0x4D2 SWAP2 SWAP1 PUSH2 0x1AD2 JUMP JUMPDEST DUP3 DUP1 SLOAD PUSH2 0x176B SWAP1 PUSH2 0x2374 JUMP JUMPDEST SWAP1 PUSH1 0x0 MSTORE PUSH1 0x20 PUSH1 0x0 KECCAK256 SWAP1 PUSH1 0x1F ADD PUSH1 0x20 SWAP1 DIV DUP2 ADD SWAP3 DUP3 PUSH2 0x178D JUMPI PUSH1 0x0 DUP6 SSTORE PUSH2 0x17D3 JUMP JUMPDEST DUP3 PUSH1 0x1F LT PUSH2 0x17A6 JUMPI DUP1 MLOAD PUSH1 0xFF NOT AND DUP4 DUP1 ADD OR DUP6 SSTORE PUSH2 0x17D3 JUMP JUMPDEST DUP3 DUP1 ADD PUSH1 0x1 ADD DUP6 SSTORE DUP3 ISZERO PUSH2 0x17D3 JUMPI SWAP2 DUP3 ADD JUMPDEST DUP3 DUP2 GT ISZERO PUSH2 0x17D3 JUMPI DUP3 MLOAD DUP3 SSTORE SWAP2 PUSH1 0x20 ADD SWAP2 SWAP1 PUSH1 0x1 ADD SWAP1 PUSH2 0x17B8 JUMP JUMPDEST POP PUSH2 0x17DF SWAP3 SWAP2 POP PUSH2 0x17E3 JUMP JUMPDEST POP SWAP1 JUMP JUMPDEST JUMPDEST DUP1 DUP3 GT ISZERO PUSH2 0x17DF JUMPI PUSH1 0x0 DUP2 SSTORE PUSH1 0x1 ADD PUSH2 0x17E4 JUMP JUMPDEST DUP1 CALLDATALOAD PUSH2 0x884 DUP2 PUSH2 0x23DB JUMP JUMPDEST PUSH1 0x0 DUP3 PUSH1 0x1F DUP4 ADD SLT PUSH2 0x1813 JUMPI DUP1 DUP2 REVERT JUMPDEST DUP2 CALLDATALOAD PUSH8 0xFFFFFFFFFFFFFFFF DUP1 DUP3 GT ISZERO PUSH2 0x182E JUMPI PUSH2 0x182E PUSH2 0x23C5 JUMP JUMPDEST PUSH1 0x40 MLOAD PUSH1 0x1F DUP4 ADD PUSH1 0x1F NOT SWAP1 DUP2 AND PUSH1 0x3F ADD AND DUP2 ADD SWAP1 DUP3 DUP3 GT DUP2 DUP4 LT OR ISZERO PUSH2 0x1856 JUMPI PUSH2 0x1856 PUSH2 0x23C5 JUMP JUMPDEST DUP2 PUSH1 0x40 MSTORE DUP4 DUP2 MSTORE DUP7 PUSH1 0x20 DUP6 DUP9 ADD ADD GT ISZERO PUSH2 0x186E JUMPI DUP5 DUP6 REVERT JUMPDEST DUP4 PUSH1 0x20 DUP8 ADD PUSH1 0x20 DUP4 ADD CALLDATACOPY SWAP3 DUP4 ADD PUSH1 0x20 ADD SWAP4 SWAP1 SWAP4 MSTORE POP SWAP4 SWAP3 POP POP POP JUMP JUMPDEST DUP1 CALLDATALOAD PUSH1 0xFF DUP2 AND DUP2 EQ PUSH2 0x884 JUMPI PUSH1 0x0 DUP1 REVERT JUMPDEST PUSH1 0x0 PUSH1 0x20 DUP3 DUP5 SUB SLT ISZERO PUSH2 0x18AC JUMPI DUP1 DUP2 REVERT JUMPDEST DUP2 CALLDATALOAD PUSH2 0x1650 DUP2 PUSH2 0x23DB JUMP JUMPDEST PUSH1 0x0 DUP1 PUSH1 0x40 DUP4 DUP6 SUB SLT ISZERO PUSH2 0x18C9 JUMPI DUP1 DUP2 REVERT JUMPDEST DUP3 CALLDATALOAD PUSH2 0x18D4 DUP2 PUSH2 0x23DB JUMP JUMPDEST SWAP2 POP PUSH1 0x20 DUP4 ADD CALLDATALOAD PUSH2 0x18E4 DUP2 PUSH2 0x23DB JUMP JUMPDEST DUP1 SWAP2 POP POP SWAP3 POP SWAP3 SWAP1 POP JUMP JUMPDEST PUSH1 0x0 DUP1 PUSH1 0x0 PUSH1 0x60 DUP5 DUP7 SUB SLT ISZERO PUSH2 0x1903 JUMPI DUP1 DUP2 REVERT JUMPDEST DUP4 CALLDATALOAD PUSH2 0x190E DUP2 PUSH2 0x23DB JUMP JUMPDEST SWAP3 POP PUSH1 0x20 DUP5 ADD CALLDATALOAD PUSH2 0x191E DUP2 PUSH2 0x23DB JUMP JUMPDEST SWAP3 SWAP6 SWAP3 SWAP5 POP POP POP PUSH1 0x40 SWAP2 SWAP1 SWAP2 ADD CALLDATALOAD SWAP1 JUMP JUMPDEST PUSH1 0x0 DUP1 PUSH1 0x40 DUP4 DUP6 SUB SLT ISZERO PUSH2 0x1941 JUMPI DUP2 DUP3 REVERT JUMPDEST DUP3 CALLDATALOAD PUSH2 0x194C DUP2 PUSH2 0x23DB JUMP JUMPDEST SWAP5 PUSH1 0x20 SWAP4 SWAP1 SWAP4 ADD CALLDATALOAD SWAP4 POP POP POP JUMP JUMPDEST PUSH1 0x0 PUSH1 0x20 DUP3 DUP5 SUB SLT ISZERO PUSH2 0x196B JUMPI DUP1 DUP2 REVERT JUMPDEST DUP2 MLOAD DUP1 ISZERO ISZERO DUP2 EQ PUSH2 0x1650 JUMPI DUP2 DUP3 REVERT JUMPDEST PUSH1 0x0 DUP1 PUSH1 0x0 PUSH1 0x60 DUP5 DUP7 SUB SLT ISZERO PUSH2 0x1903 JUMPI DUP3 DUP4 REVERT JUMPDEST PUSH1 0x0 DUP1 PUSH1 0x0 DUP1 PUSH1 0x0 DUP1 PUSH1 0x0 DUP1 PUSH2 0x100 DUP10 DUP12 SUB SLT ISZERO PUSH2 0x19AA JUMPI DUP4 DUP5 REVERT JUMPDEST DUP9 CALLDATALOAD PUSH8 0xFFFFFFFFFFFFFFFF DUP1 DUP3 GT ISZERO PUSH2 0x19C1 JUMPI DUP6 DUP7 REVERT JUMPDEST PUSH2 0x19CD DUP13 DUP4 DUP14 ADD PUSH2 0x1803 JUMP JUMPDEST SWAP10 POP PUSH1 0x20 DUP12 ADD CALLDATALOAD SWAP2 POP DUP1 DUP3 GT ISZERO PUSH2 0x19E2 JUMPI DUP6 DUP7 REVERT JUMPDEST PUSH2 0x19EE DUP13 DUP4 DUP14 ADD PUSH2 0x1803 JUMP JUMPDEST SWAP9 POP PUSH1 0x40 DUP12 ADD CALLDATALOAD SWAP2 POP DUP1 DUP3 GT ISZERO PUSH2 0x1A03 JUMPI DUP6 DUP7 REVERT JUMPDEST POP PUSH2 0x1A10 DUP12 DUP3 DUP13 ADD PUSH2 0x1803 JUMP JUMPDEST SWAP7 POP POP PUSH2 0x1A1F PUSH1 0x60 DUP11 ADD PUSH2 0x188A JUMP JUMPDEST SWAP5 POP PUSH2 0x1A2D PUSH1 0x80 DUP11 ADD PUSH2 0x17F8 JUMP JUMPDEST SWAP4 POP PUSH2 0x1A3B PUSH1 0xA0 DUP11 ADD PUSH2 0x17F8 JUMP JUMPDEST SWAP3 POP PUSH2 0x1A49 PUSH1 0xC0 DUP11 ADD PUSH2 0x17F8 JUMP JUMPDEST SWAP2 POP PUSH2 0x1A57 PUSH1 0xE0 DUP11 ADD PUSH2 0x17F8 JUMP JUMPDEST SWAP1 POP SWAP3 SWAP6 SWAP9 POP SWAP3 SWAP6 SWAP9 SWAP1 SWAP4 SWAP7 POP JUMP JUMPDEST PUSH1 0x0 PUSH1 0x20 DUP3 DUP5 SUB SLT ISZERO PUSH2 0x1A77 JUMPI DUP1 DUP2 REVERT JUMPDEST POP CALLDATALOAD SWAP2 SWAP1 POP JUMP JUMPDEST PUSH1 0x0 DUP3 MLOAD PUSH2 0x1A90 DUP2 DUP5 PUSH1 0x20 DUP8 ADD PUSH2 0x2344 JUMP JUMPDEST SWAP2 SWAP1 SWAP2 ADD SWAP3 SWAP2 POP POP JUMP JUMPDEST PUSH1 0x1 PUSH1 0x1 PUSH1 0xA0 SHL SUB SWAP2 SWAP1 SWAP2 AND DUP2 MSTORE PUSH1 0x20 ADD SWAP1 JUMP JUMPDEST PUSH1 0x1 PUSH1 0x1 PUSH1 0xA0 SHL SUB SWAP3 SWAP1 SWAP3 AND DUP3 MSTORE PUSH1 0x20 DUP3 ADD MSTORE PUSH1 0x40 ADD SWAP1 JUMP JUMPDEST SWAP1 ISZERO ISZERO DUP2 MSTORE PUSH1 0x20 ADD SWAP1 JUMP JUMPDEST PUSH1 0x0 PUSH1 0x20 DUP3 MSTORE DUP3 MLOAD DUP1 PUSH1 0x20 DUP5 ADD MSTORE PUSH2 0x1AF1 DUP2 PUSH1 0x40 DUP6 ADD PUSH1 0x20 DUP8 ADD PUSH2 0x2344 JUMP JUMPDEST PUSH1 0x1F ADD PUSH1 0x1F NOT AND SWAP2 SWAP1 SWAP2 ADD PUSH1 0x40 ADD SWAP3 SWAP2 POP POP JUMP JUMPDEST PUSH1 0x20 DUP1 DUP3 MSTORE PUSH1 0x23 SWAP1 DUP3 ADD MSTORE PUSH32 0x45524332303A207472616E7366657220746F20746865207A65726F2061646472 PUSH1 0x40 DUP3 ADD MSTORE PUSH3 0x657373 PUSH1 0xE8 SHL PUSH1 0x60 DUP3 ADD MSTORE PUSH1 0x80 ADD SWAP1 JUMP JUMPDEST PUSH1 0x20 DUP1 DUP3 MSTORE PUSH1 0x23 SWAP1 DUP3 ADD MSTORE PUSH32 0x5553446D3A206E6577206F776E657220697320746865207A65726F2061646472 PUSH1 0x40 DUP3 ADD MSTORE PUSH3 0x657373 PUSH1 0xE8 SHL PUSH1 0x60 DUP3 ADD MSTORE PUSH1 0x80 ADD SWAP1 JUMP JUMPDEST PUSH1 0x20 DUP1 DUP3 MSTORE PUSH1 0x26 SWAP1 DUP3 ADD MSTORE PUSH32 0x4F776E61626C653A206E6577206F776E657220697320746865207A65726F2061 PUSH1 0x40 DUP3 ADD MSTORE PUSH6 0x646472657373 PUSH1 0xD0 SHL PUSH1 0x60 DUP3 ADD MSTORE PUSH1 0x80 ADD SWAP1 JUMP JUMPDEST PUSH1 0x20 DUP1 DUP3 MSTORE PUSH1 0x22 SWAP1 DUP3 ADD MSTORE PUSH32 0x45524332303A20617070726F766520746F20746865207A65726F206164647265 PUSH1 0x40 DUP3 ADD MSTORE PUSH2 0x7373 PUSH1 0xF0 SHL PUSH1 0x60 DUP3 ADD MSTORE PUSH1 0x80 ADD SWAP1 JUMP JUMPDEST PUSH1 0x20 DUP1 DUP3 MSTORE PUSH1 0x2A SWAP1 DUP3 ADD MSTORE PUSH32 0x526573637561626C653A206E6577207265736375657220697320746865207A65 PUSH1 0x40 DUP3 ADD MSTORE PUSH10 0x726F2061646472657373 PUSH1 0xB0 SHL PUSH1 0x60 DUP3 ADD MSTORE PUSH1 0x80 ADD SWAP1 JUMP JUMPDEST PUSH1 0x20 DUP1 DUP3 MSTORE PUSH1 0x26 SWAP1 DUP3 ADD MSTORE PUSH32 0x45524332303A207472616E7366657220616D6F756E7420657863656564732062 PUSH1 0x40 DUP3 ADD MSTORE PUSH6 0x616C616E6365 PUSH1 0xD0 SHL PUSH1 0x60 DUP3 ADD MSTORE PUSH1 0x80 ADD SWAP1 JUMP JUMPDEST PUSH1 0x20 DUP1 DUP3 MSTORE PUSH1 0x2C SWAP1 DUP3 ADD MSTORE PUSH32 0x426C61636B6C69737461626C653A2063616C6C6572206973206E6F7420746865 PUSH1 0x40 DUP3 ADD MSTORE PUSH12 0x10313630B1B5B634B9BA32B9 PUSH1 0xA1 SHL PUSH1 0x60 DUP3 ADD MSTORE PUSH1 0x80 ADD SWAP1 JUMP JUMPDEST PUSH1 0x20 DUP1 DUP3 MSTORE PUSH1 0x25 SWAP1 DUP3 ADD MSTORE PUSH32 0x5553446D3A20636F6E747261637420697320616C726561647920696E69746961 PUSH1 0x40 DUP3 ADD MSTORE PUSH5 0x1B1A5E9959 PUSH1 0xDA SHL PUSH1 0x60 DUP3 ADD MSTORE PUSH1 0x80 ADD SWAP1 JUMP JUMPDEST PUSH1 0x20 DUP1 DUP3 MSTORE PUSH1 0x29 SWAP1 DUP3 ADD MSTORE PUSH32 0x5553446D3A206D696E7420616D6F756E742065786365656473206D696E746572 PUSH1 0x40 DUP3 ADD MSTORE PUSH9 0x416C6C6F77616E6365 PUSH1 0xB8 SHL PUSH1 0x60 DUP3 ADD MSTORE PUSH1 0x80 ADD SWAP1 JUMP JUMPDEST PUSH1 0x20 DUP1 DUP3 MSTORE PUSH1 0x26 SWAP1 DUP3 ADD MSTORE PUSH32 0x416464726573733A20696E73756666696369656E742062616C616E636520666F PUSH1 0x40 DUP3 ADD MSTORE PUSH6 0x1C8818D85B1B PUSH1 0xD2 SHL PUSH1 0x60 DUP3 ADD MSTORE PUSH1 0x80 ADD SWAP1 JUMP JUMPDEST PUSH1 0x20 DUP1 DUP3 MSTORE PUSH1 0x10 SWAP1 DUP3 ADD MSTORE PUSH16 0x14185D5CD8589B194E881C185D5CD959 PUSH1 0x82 SHL PUSH1 0x40 DUP3 ADD MSTORE PUSH1 0x60 ADD SWAP1 JUMP JUMPDEST PUSH1 0x20 DUP1 DUP3 MSTORE PUSH1 0x1C SWAP1 DUP3 ADD MSTORE PUSH32 0x5553446D3A2063616C6C6572206973206E6F742061206D696E74657200000000 PUSH1 0x40 DUP3 ADD MSTORE PUSH1 0x60 ADD SWAP1 JUMP JUMPDEST PUSH1 0x20 DUP1 DUP3 MSTORE PUSH1 0x29 SWAP1 DUP3 ADD MSTORE PUSH32 0x5553446D3A206E657720626C61636B6C697374657220697320746865207A6572 PUSH1 0x40 DUP3 ADD MSTORE PUSH9 0x6F2061646472657373 PUSH1 0xB8 SHL PUSH1 0x60 DUP3 ADD MSTORE PUSH1 0x80 ADD SWAP1 JUMP JUMPDEST PUSH1 0x20 DUP1 DUP3 MSTORE PUSH1 0x24 SWAP1 DUP3 ADD MSTORE PUSH32 0x526573637561626C653A2063616C6C6572206973206E6F742074686520726573 PUSH1 0x40 DUP3 ADD MSTORE PUSH4 0x31BAB2B9 PUSH1 0xE1 SHL PUSH1 0x60 DUP3 ADD MSTORE PUSH1 0x80 ADD SWAP1 JUMP JUMPDEST PUSH1 0x20 DUP1 DUP3 MSTORE PUSH1 0x28 SWAP1 DUP3 ADD MSTORE PUSH32 0x45524332303A207472616E7366657220616D6F756E7420657863656564732061 PUSH1 0x40 DUP3 ADD MSTORE PUSH8 0x6C6C6F77616E6365 PUSH1 0xC0 SHL PUSH1 0x60 DUP3 ADD MSTORE PUSH1 0x80 ADD SWAP1 JUMP JUMPDEST PUSH1 0x20 DUP1 DUP3 MSTORE DUP2 DUP2 ADD MSTORE PUSH32 0x4F776E61626C653A2063616C6C6572206973206E6F7420746865206F776E6572 PUSH1 0x40 DUP3 ADD MSTORE PUSH1 0x60 ADD SWAP1 JUMP JUMPDEST PUSH1 0x20 DUP1 DUP3 MSTORE PUSH1 0x24 SWAP1 DUP3 ADD MSTORE PUSH32 0x5553446D3A206D696E7420616D6F756E74206E6F742067726561746572207468 PUSH1 0x40 DUP3 ADD MSTORE PUSH4 0x616E203 PUSH1 0xE4 SHL PUSH1 0x60 DUP3 ADD MSTORE PUSH1 0x80 ADD SWAP1 JUMP JUMPDEST PUSH1 0x20 DUP1 DUP3 MSTORE PUSH1 0x25 SWAP1 DUP3 ADD MSTORE PUSH32 0x45524332303A207472616E736665722066726F6D20746865207A65726F206164 PUSH1 0x40 DUP3 ADD MSTORE PUSH5 0x6472657373 PUSH1 0xD8 SHL PUSH1 0x60 DUP3 ADD MSTORE PUSH1 0x80 ADD SWAP1 JUMP JUMPDEST PUSH1 0x20 DUP1 DUP3 MSTORE PUSH1 0x24 SWAP1 DUP3 ADD MSTORE PUSH32 0x5553446D3A206275726E20616D6F756E74206E6F742067726561746572207468 PUSH1 0x40 DUP3 ADD MSTORE PUSH4 0x616E203 PUSH1 0xE4 SHL PUSH1 0x60 DUP3 ADD MSTORE PUSH1 0x80 ADD SWAP1 JUMP JUMPDEST PUSH1 0x20 DUP1 DUP3 MSTORE PUSH1 0x2A SWAP1 DUP3 ADD MSTORE PUSH32 0x5553446D3A206E6577206D61737465724D696E74657220697320746865207A65 PUSH1 0x40 DUP3 ADD MSTORE PUSH10 0x726F2061646472657373 PUSH1 0xB0 SHL PUSH1 0x60 DUP3 ADD MSTORE PUSH1 0x80 ADD SWAP1 JUMP JUMPDEST PUSH1 0x20 DUP1 DUP3 MSTORE PUSH1 0x24 SWAP1 DUP3 ADD MSTORE PUSH32 0x5553446D3A206E65772070617573657220697320746865207A65726F20616464 PUSH1 0x40 DUP3 ADD MSTORE PUSH4 0x72657373 PUSH1 0xE0 SHL PUSH1 0x60 DUP3 ADD MSTORE PUSH1 0x80 ADD SWAP1 JUMP JUMPDEST PUSH1 0x20 DUP1 DUP3 MSTORE PUSH1 0x24 SWAP1 DUP3 ADD MSTORE PUSH32 0x45524332303A20617070726F76652066726F6D20746865207A65726F20616464 PUSH1 0x40 DUP3 ADD MSTORE PUSH4 0x72657373 PUSH1 0xE0 SHL PUSH1 0x60 DUP3 ADD MSTORE PUSH1 0x80 ADD SWAP1 JUMP JUMPDEST PUSH1 0x20 DUP1 DUP3 MSTORE PUSH1 0x1D SWAP1 DUP3 ADD MSTORE PUSH32 0x416464726573733A2063616C6C20746F206E6F6E2D636F6E7472616374000000 PUSH1 0x40 DUP3 ADD MSTORE PUSH1 0x60 ADD SWAP1 JUMP JUMPDEST PUSH1 0x20 DUP1 DUP3 MSTORE PUSH1 0x3B SWAP1 DUP3 ADD MSTORE PUSH32 0x5553446D3A204D696E746572732063616E206F6E6C79206D696E7420746F6B65 PUSH1 0x40 DUP3 ADD MSTORE PUSH32 0x6E7320746F206D6173746572206D696E74657220616464726573730000000000 PUSH1 0x60 DUP3 ADD MSTORE PUSH1 0x80 ADD SWAP1 JUMP JUMPDEST PUSH1 0x20 DUP1 DUP3 MSTORE PUSH1 0x24 SWAP1 DUP3 ADD MSTORE PUSH32 0x5553446D3A2063616C6C6572206973206E6F7420746865206D61737465724D69 PUSH1 0x40 DUP3 ADD MSTORE PUSH4 0x373A32B9 PUSH1 0xE1 SHL PUSH1 0x60 DUP3 ADD MSTORE PUSH1 0x80 ADD SWAP1 JUMP JUMPDEST PUSH1 0x20 DUP1 DUP3 MSTORE PUSH1 0x2A SWAP1 DUP3 ADD MSTORE PUSH32 0x5361666545524332303A204552433230206F7065726174696F6E20646964206E PUSH1 0x40 DUP3 ADD MSTORE PUSH10 0x1BDD081CDD58D8D95959 PUSH1 0xB2 SHL PUSH1 0x60 DUP3 ADD MSTORE PUSH1 0x80 ADD SWAP1 JUMP JUMPDEST PUSH1 0x20 DUP1 DUP3 MSTORE PUSH1 0x32 SWAP1 DUP3 ADD MSTORE PUSH32 0x426C61636B6C69737461626C653A206E657720626C61636B6C69737465722069 PUSH1 0x40 DUP3 ADD MSTORE PUSH18 0x7320746865207A65726F2061646472657373 PUSH1 0x70 SHL PUSH1 0x60 DUP3 ADD MSTORE PUSH1 0x80 ADD SWAP1 JUMP JUMPDEST PUSH1 0x20 DUP1 DUP3 MSTORE PUSH1 0x25 SWAP1 DUP3 ADD MSTORE PUSH32 0x426C61636B6C69737461626C653A206163636F756E7420697320626C61636B6C PUSH1 0x40 DUP3 ADD MSTORE PUSH5 0x1A5CDD1959 PUSH1 0xDA SHL PUSH1 0x60 DUP3 ADD MSTORE PUSH1 0x80 ADD SWAP1 JUMP JUMPDEST PUSH1 0x20 DUP1 DUP3 MSTORE PUSH1 0x1E SWAP1 DUP3 ADD MSTORE PUSH32 0x5553446D3A206D696E7420746F20746865207A65726F20616464726573730000 PUSH1 0x40 DUP3 ADD MSTORE PUSH1 0x60 ADD SWAP1 JUMP JUMPDEST PUSH1 0x20 DUP1 DUP3 MSTORE PUSH1 0x21 SWAP1 DUP3 ADD MSTORE PUSH32 0x5553446D3A206275726E20616D6F756E7420657863656564732062616C616E63 PUSH1 0x40 DUP3 ADD MSTORE PUSH1 0x65 PUSH1 0xF8 SHL PUSH1 0x60 DUP3 ADD MSTORE PUSH1 0x80 ADD SWAP1 JUMP JUMPDEST SWAP1 DUP2 MSTORE PUSH1 0x20 ADD SWAP1 JUMP JUMPDEST PUSH1 0xFF SWAP2 SWAP1 SWAP2 AND DUP2 MSTORE PUSH1 0x20 ADD SWAP1 JUMP JUMPDEST PUSH1 0x0 DUP3 NOT DUP3 GT ISZERO PUSH2 0x2328 JUMPI PUSH2 0x2328 PUSH2 0x23AF JUMP JUMPDEST POP ADD SWAP1 JUMP JUMPDEST PUSH1 0x0 DUP3 DUP3 LT ISZERO PUSH2 0x233F JUMPI PUSH2 0x233F PUSH2 0x23AF JUMP JUMPDEST POP SUB SWAP1 JUMP JUMPDEST PUSH1 0x0 JUMPDEST DUP4 DUP2 LT ISZERO PUSH2 0x235F JUMPI DUP2 DUP2 ADD MLOAD DUP4 DUP3 ADD MSTORE PUSH1 0x20 ADD PUSH2 0x2347 JUMP JUMPDEST DUP4 DUP2 GT ISZERO PUSH2 0x236E JUMPI PUSH1 0x0 DUP5 DUP5 ADD MSTORE JUMPDEST POP POP POP POP JUMP JUMPDEST PUSH1 0x2 DUP2 DIV PUSH1 0x1 DUP3 AND DUP1 PUSH2 0x2388 JUMPI PUSH1 0x7F DUP3 AND SWAP2 POP JUMPDEST PUSH1 0x20 DUP3 LT DUP2 EQ ISZERO PUSH2 0x23A9 JUMPI PUSH4 0x4E487B71 PUSH1 0xE0 SHL PUSH1 0x0 MSTORE PUSH1 0x22 PUSH1 0x4 MSTORE PUSH1 0x24 PUSH1 0x0 REVERT JUMPDEST POP SWAP2 SWAP1 POP JUMP JUMPDEST PUSH4 0x4E487B71 PUSH1 0xE0 SHL PUSH1 0x0 MSTORE PUSH1 0x11 PUSH1 0x4 MSTORE PUSH1 0x24 PUSH1 0x0 REVERT JUMPDEST PUSH4 0x4E487B71 PUSH1 0xE0 SHL PUSH1 0x0 MSTORE PUSH1 0x41 PUSH1 0x4 MSTORE PUSH1 0x24 PUSH1 0x0 REVERT JUMPDEST PUSH1 0x1 PUSH1 0x1 PUSH1 0xA0 SHL SUB DUP2 AND DUP2 EQ PUSH2 0x12A2 JUMPI PUSH1 0x0 DUP1 REVERT INVALID LOG2 PUSH5 0x6970667358 0x22 SLT KECCAK256 0xB2 0xBB PUSH15 0x313408E8027960D000E1D974F2D5BF SWAP14 JUMPI PUSH15 0xB666CA334048CBB38ADA9C64736F6C PUSH4 0x43000801 STOP CALLER "
				},
				"gasEstimates": {
					"creation": {
						"codeDepositCost": "1850800",
						"executionCost": "50253",
						"totalCost": "1901053"
					},
					"external": {
						"allowance(address,address)": "infinite",
						"approve(address,uint256)": "25306",
						"balanceOf(address)": "1375",
						"blacklist(address)": "23277",
						"blacklister()": "1159",
						"burn(uint256)": "infinite",
						"configureMinter(address,uint256)": "44644",
						"currency()": "infinite",
						"decimals()": "1158",
						"initialize(string,string,string,uint8,address,address,address,address)": "infinite",
						"isBlacklisted(address)": "1386",
						"isMinter(address)": "1387",
						"masterMinter()": "1138",
						"mint(address,uint256)": "infinite",
						"minterAllowance(address)": "1332",
						"name()": "infinite",
						"owner()": "1160",
						"paused()": "1146",
						"pauser()": "1115",
						"removeMinter(address)": "28447",
						"renounceOwnership()": "23550",
						"rescueERC20(address,address,uint256)": "infinite",
						"rescuer()": "1160",
						"symbol()": "infinite",
						"totalSupply()": "1119",
						"transfer(address,uint256)": "48146",
						"transferFrom(address,address,uint256)": "infinite",
						"transferOwnership(address)": "infinite",
						"unBlacklist(address)": "23296",
						"updateBlacklister(address)": "23332",
						"updateMasterMinter(address)": "23376",
						"updateRescuer(address)": "23337"
					},
					"internal": {
						"_approve(address,address,uint256)": "infinite",
						"_transfer(address,address,uint256)": "infinite"
					}
				},
				"methodIdentifiers": {
					"allowance(address,address)": "dd62ed3e",
					"approve(address,uint256)": "095ea7b3",
					"balanceOf(address)": "70a08231",
					"blacklist(address)": "f9f92be4",
					"blacklister()": "bd102430",
					"burn(uint256)": "42966c68",
					"configureMinter(address,uint256)": "4e44d956",
					"currency()": "e5a6b10f",
					"decimals()": "313ce567",
					"initialize(string,string,string,uint8,address,address,address,address)": "3357162b",
					"isBlacklisted(address)": "fe575a87",
					"isMinter(address)": "aa271e1a",
					"masterMinter()": "35d99f35",
					"mint(address,uint256)": "40c10f19",
					"minterAllowance(address)": "8a6db9c3",
					"name()": "06fdde03",
					"owner()": "8da5cb5b",
					"paused()": "5c975abb",
					"pauser()": "9fd0506d",
					"removeMinter(address)": "3092afd5",
					"renounceOwnership()": "715018a6",
					"rescueERC20(address,address,uint256)": "b2118a8d",
					"rescuer()": "38a63183",
					"symbol()": "95d89b41",
					"totalSupply()": "18160ddd",
					"transfer(address,uint256)": "a9059cbb",
					"transferFrom(address,address,uint256)": "23b872dd",
					"transferOwnership(address)": "f2fde38b",
					"unBlacklist(address)": "1a895266",
					"updateBlacklister(address)": "ad38bf22",
					"updateMasterMinter(address)": "aa20e1e4",
					"updateRescuer(address)": "2ab60045"
				}
			},
			"storageLayout": {
				"storage": [
					{
						"astId": 557,
						"contract": "USDm.sol:USDm",
						"label": "_owner",
						"offset": 0,
						"slot": "0",
						"type": "t_address"
					},
					{
						"astId": 662,
						"contract": "USDm.sol:USDm",
						"label": "pauser",
						"offset": 0,
						"slot": "1",
						"type": "t_address"
					},
					{
						"astId": 674,
						"contract": "USDm.sol:USDm",
						"label": "_paused",
						"offset": 20,
						"slot": "1",
						"type": "t_bool"
					},
					{
						"astId": 327,
						"contract": "USDm.sol:USDm",
						"label": "blacklister",
						"offset": 0,
						"slot": "2",
						"type": "t_address"
					},
					{
						"astId": 331,
						"contract": "USDm.sol:USDm",
						"label": "blacklisted",
						"offset": 0,
						"slot": "3",
						"type": "t_mapping(t_address,t_bool)"
					},
					{
						"astId": 785,
						"contract": "USDm.sol:USDm",
						"label": "_rescuer",
						"offset": 0,
						"slot": "4",
						"type": "t_address"
					},
					{
						"astId": 1104,
						"contract": "USDm.sol:USDm",
						"label": "name",
						"offset": 0,
						"slot": "5",
						"type": "t_string_storage"
					},
					{
						"astId": 1106,
						"contract": "USDm.sol:USDm",
						"label": "symbol",
						"offset": 0,
						"slot": "6",
						"type": "t_string_storage"
					},
					{
						"astId": 1108,
						"contract": "USDm.sol:USDm",
						"label": "decimals",
						"offset": 0,
						"slot": "7",
						"type": "t_uint8"
					},
					{
						"astId": 1110,
						"contract": "USDm.sol:USDm",
						"label": "currency",
						"offset": 0,
						"slot": "8",
						"type": "t_string_storage"
					},
					{
						"astId": 1112,
						"contract": "USDm.sol:USDm",
						"label": "masterMinter",
						"offset": 0,
						"slot": "9",
						"type": "t_address"
					},
					{
						"astId": 1114,
						"contract": "USDm.sol:USDm",
						"label": "initialized",
						"offset": 20,
						"slot": "9",
						"type": "t_bool"
					},
					{
						"astId": 1118,
						"contract": "USDm.sol:USDm",
						"label": "balances",
						"offset": 0,
						"slot": "10",
						"type": "t_mapping(t_address,t_uint256)"
					},
					{
						"astId": 1124,
						"contract": "USDm.sol:USDm",
						"label": "allowed",
						"offset": 0,
						"slot": "11",
						"type": "t_mapping(t_address,t_mapping(t_address,t_uint256))"
					},
					{
						"astId": 1127,
						"contract": "USDm.sol:USDm",
						"label": "totalSupply_",
						"offset": 0,
						"slot": "12",
						"type": "t_uint256"
					},
					{
						"astId": 1131,
						"contract": "USDm.sol:USDm",
						"label": "minters",
						"offset": 0,
						"slot": "13",
						"type": "t_mapping(t_address,t_bool)"
					},
					{
						"astId": 1135,
						"contract": "USDm.sol:USDm",
						"label": "minterAllowed",
						"offset": 0,
						"slot": "14",
						"type": "t_mapping(t_address,t_uint256)"
					}
				],
				"types": {
					"t_address": {
						"encoding": "inplace",
						"label": "address",
						"numberOfBytes": "20"
					},
					"t_bool": {
						"encoding": "inplace",
						"label": "bool",
						"numberOfBytes": "1"
					},
					"t_mapping(t_address,t_bool)": {
						"encoding": "mapping",
						"key": "t_address",
						"label": "mapping(address => bool)",
						"numberOfBytes": "32",
						"value": "t_bool"
					},
					"t_mapping(t_address,t_mapping(t_address,t_uint256))": {
						"encoding": "mapping",
						"key": "t_address",
						"label": "mapping(address => mapping(address => uint256))",
						"numberOfBytes": "32",
						"value": "t_mapping(t_address,t_uint256)"
					},
					"t_mapping(t_address,t_uint256)": {
						"encoding": "mapping",
						"key": "t_address",
						"label": "mapping(address => uint256)",
						"numberOfBytes": "32",
						"value": "t_uint256"
					},
					"t_string_storage": {
						"encoding": "bytes",
						"label": "string",
						"numberOfBytes": "32"
					},
					"t_uint256": {
						"encoding": "inplace",
						"label": "uint256",
						"numberOfBytes": "32"
					},
					"t_uint8": {
						"encoding": "inplace",
						"label": "uint8",
						"numberOfBytes": "1"
					}
				}
			},
			"userdoc": {
				"kind": "user",
				"methods": {
					"allowance(address,address)": {
						"notice": "Amount of remaining tokens spender is allowed to transfer on behalf of the token owner"
					},
					"approve(address,uint256)": {
						"notice": "Set spender's allowance over the caller's tokens to be a given value."
					},
					"rescueERC20(address,address,uint256)": {
						"notice": "Rescue ERC20 tokens locked up in this contract."
					},
					"rescuer()": {
						"notice": "Returns current rescuer"
					},
					"transfer(address,uint256)": {
						"notice": "Transfer tokens from the caller"
					},
					"transferFrom(address,address,uint256)": {
						"notice": "Transfer tokens by spending allowance"
					},
					"updateRescuer(address)": {
						"notice": "Assign the rescuer role to a given address."
					}
				},
				"version": 1
			}
		}
	}
}