{
	"Blacklistable.sol": {
		"Blacklistable": {
			"abi": [
				{
					"anonymous": false,
					"inputs": [
						{
							"indexed": true,
							"internalType": "address",
							"name": "_account",
							"type": "address"
						}
					],
					"name": "Blacklisted",
					"type": "event"
				},
				{
					"anonymous": false,
					"inputs": [
						{
							"indexed": true,
							"internalType": "address",
							"name": "newBlacklister",
							"type": "address"
						}
					],
					"name": "BlacklisterChanged",
					"type": "event"
				},
				{
					"anonymous": false,
					"inputs": [
						{
							"indexed": true,
							"internalType": "address",
							"name": "previousOwner",
							"type": "address"
						},
						{
							"indexed": true,
							"internalType": "address",
							"name": "newOwner",
							"type": "address"
						}
					],
					"name": "OwnershipTransferred",
					"type": "event"
				},
				{
					"anonymous": false,
					"inputs": [
						{
							"indexed": true,
							"internalType": "address",
							"name": "_account",
							"type": "address"
						}
					],
					"name": "UnBlacklisted",
					"type": "event"
				},
				{
					"inputs": [
						{
							"internalType": "address",
							"name": "_account",
							"type": "address"
						}
					],
					"name": "blacklist",
					"outputs": [],
					"stateMutability": "nonpayable",
					"type": "function"
				},
				{
					"inputs": [],
					"name": "blacklister",
					"outputs": [
						{
							"internalType": "address",
							"name": "",
							"type": "address"
						}
					],
					"stateMutability": "view",
					"type": "function"
				},
				{
					"inputs": [
						{
							"internalType": "address",
							"name": "_account",
							"type": "address"
						}
					],
					"name": "isBlacklisted",
					"outputs": [
						{
							"internalType": "bool",
							"name": "",
							"type": "bool"
						}
					],
					"stateMutability": "view",
					"type": "function"
				},
				{
					"inputs": [],
					"name": "owner",
					"outputs": [
						{
							"internalType": "address",
							"name": "",
							"type": "address"
						}
					],
					"stateMutability": "view",
					"type": "function"
				},
				{
					"inputs": [],
					"name": "renounceOwnership",
					"outputs": [],
					"stateMutability": "nonpayable",
					"type": "function"
				},
				{
					"inputs": [
						{
							"internalType": "address",
							"name": "newOwner",
							"type": "address"
						}
					],
					"name": "transferOwnership",
					"outputs": [],
					"stateMutability": "nonpayable",
					"type": "function"
				},
				{
					"inputs": [
						{
							"internalType": "address",
							"name": "_account",
							"type": "address"
						}
					],
					"name": "unBlacklist",
					"outputs": [],
					"stateMutability": "nonpayable",
					"type": "function"
				},
				{
					"inputs": [
						{
							"internalType": "address",
							"name": "_newBlacklister",
							"type": "address"
						}
					],
					"name": "updateBlacklister",
					"outputs": [],
					"stateMutability": "nonpayable",
					"type": "function"
				}
			],
			"devdoc": {
				"details": "Allows accounts to be blacklisted by a \"blacklister\" role",
				"kind": "dev",
				"methods": {
					"blacklist(address)": {
						"details": "Adds account to blacklist",
						"params": {
							"_account": "The address to blacklist"
						}
					},
					"isBlacklisted(address)": {
						"details": "Checks if account is blacklisted",
						"params": {
							"_account": "The address to check"
						}
					},
					"owner()": {
						"details": "Returns the address of the current owner."
					},
					"renounceOwnership()": {
						"details": "Leaves the contract without owner. It will not be possible to call `onlyOwner` functions anymore. Can only be called by the current owner. NOTE: Renouncing ownership will leave the contract without an owner, thereby removing any functionality that is only available to the owner."
					},
					"transferOwnership(address)": {
						"details": "Transfers ownership of the contract to a new account (`newOwner`). Can only be called by the current owner."
					},
					"unBlacklist(address)": {
						"details": "Removes account from blacklist",
						"params": {
							"_account": "The address to remove from the blacklist"
						}
					}
				},
				"title": "Blacklistable Token",
				"version": 1
			},
			"evm": {
				"assembly": "    /* \"Blacklistable.sol\":1356:3323  contract Blacklistable is Ownable {\r... */\n  mstore(0x40, 0x80)\n  callvalue\n  dup1\n  iszero\n  tag_1\n  jumpi\n  0x00\n  dup1\n  revert\ntag_1:\n  pop\n    /* \"Ownable.sol\":942:974  _transferOwnership(_msgSender()) */\n  tag_4\n    /* \"Ownable.sol\":961:973  _msgSender() */\n  tag_5\n    /* \"Ownable.sol\":961:971  _msgSender */\n  tag_6\n    /* \"Ownable.sol\":961:973  _msgSender() */\n  jump\t// in\ntag_5:\n    /* \"Ownable.sol\":942:960  _transferOwnership */\n  tag_7\n    /* \"Ownable.sol\":942:974  _transferOwnership(_msgSender()) */\n  jump\t// in\ntag_4:\n    /* \"Blacklistable.sol\":1356:3323  contract Blacklistable is Ownable {\r... */\n  jump(tag_8)\n    /* \"Context.sol\":656:754  function _msgSender() internal view virtual returns (address) {\r... */\ntag_6:\n    /* \"Context.sol\":736:746  msg.sender */\n  caller\n    /* \"Context.sol\":656:754  function _msgSender() internal view virtual returns (address) {\r... */\n  swap1\n  jump\t// out\n    /* \"Ownable.sol\":2333:2524  function _transferOwnership(address newOwner) internal virtual {\r... */\ntag_7:\n    /* \"Ownable.sol\":2407:2423  address oldOwner */\n  0x00\n    /* \"Ownable.sol\":2426:2432  _owner */\n  dup1\n  sload\n  sub(shl(0xa0, 0x01), 0x01)\n    /* \"Ownable.sol\":2443:2460  _owner = newOwner */\n  dup4\n  dup2\n  and\n  not(sub(shl(0xa0, 0x01), 0x01))\n  dup4\n  and\n  dup2\n  or\n  dup5\n  sstore\n    /* \"Ownable.sol\":2476:2516  OwnershipTransferred(oldOwner, newOwner) */\n  mload(0x40)\n    /* \"Ownable.sol\":2426:2432  _owner */\n  swap2\n  swap1\n  swap3\n  and\n  swap3\n  dup4\n  swap2\n    /* \"Ownable.sol\":2476:2516  OwnershipTransferred(oldOwner, newOwner) */\n  0x8be0079c531659141344cd1fd0a4f28419497f9722a3daafe3b4186f6b6457e0\n  swap2\n    /* \"Ownable.sol\":2407:2423  address oldOwner */\n  swap1\n    /* \"Ownable.sol\":2476:2516  OwnershipTransferred(oldOwner, newOwner) */\n  log3\n    /* \"Ownable.sol\":2333:2524  function _transferOwnership(address newOwner) internal virtual {\r... */\n  pop\n  pop\n  jump\t// out\n    /* \"Blacklistable.sol\":1356:3323  contract Blacklistable is Ownable {\r... */\ntag_8:\n  dataSize(sub_0)\n  dup1\n  dataOffset(sub_0)\n  0x00\n  codecopy\n  0x00\n  return\nstop\n\nsub_0: assembly {\n        /* \"Blacklistable.sol\":1356:3323  contract Blacklistable is Ownable {\r... */\n      mstore(0x40, 0x80)\n      callvalue\n      dup1\n      iszero\n      tag_1\n      jumpi\n      0x00\n      dup1\n      revert\n    tag_1:\n      pop\n      jumpi(tag_2, lt(calldatasize, 0x04))\n      shr(0xe0, calldataload(0x00))\n      dup1\n      0xbd102430\n      gt\n      tag_11\n      jumpi\n      dup1\n      0xbd102430\n      eq\n      tag_7\n      jumpi\n      dup1\n      0xf2fde38b\n      eq\n      tag_8\n      jumpi\n      dup1\n      0xf9f92be4\n      eq\n      tag_9\n      jumpi\n      dup1\n      0xfe575a87\n      eq\n      tag_10\n      jumpi\n      jump(tag_2)\n    tag_11:\n      dup1\n      0x1a895266\n      eq\n      tag_3\n      jumpi\n      dup1\n      0x715018a6\n      eq\n      tag_4\n      jumpi\n      dup1\n      0x8da5cb5b\n      eq\n      tag_5\n      jumpi\n      dup1\n      0xad38bf22\n      eq\n      tag_6\n      jumpi\n    tag_2:\n      0x00\n      dup1\n      revert\n        /* \"Blacklistable.sol\":2855:3006  function unBlacklist(address _account) external onlyBlacklister {\r... */\n    tag_3:\n      tag_12\n      tag_13\n      calldatasize\n      0x04\n      tag_14\n      jump\t// in\n    tag_13:\n      tag_15\n      jump\t// in\n    tag_12:\n      stop\n        /* \"Ownable.sol\":1714:1817  function renounceOwnership() public virtual onlyOwner {\r... */\n    tag_4:\n      tag_12\n      tag_17\n      jump\t// in\n        /* \"Ownable.sol\":1063:1150  function owner() public view virtual returns (address) {\r... */\n    tag_5:\n      tag_18\n      tag_19\n      jump\t// in\n    tag_18:\n      mload(0x40)\n      tag_20\n      swap2\n      swap1\n      tag_21\n      jump\t// in\n    tag_20:\n      mload(0x40)\n      dup1\n      swap2\n      sub\n      swap1\n      return\n        /* \"Blacklistable.sol\":3014:3320  function updateBlacklister(address _newBlacklister) external onlyOwner {\r... */\n    tag_6:\n      tag_12\n      tag_23\n      calldatasize\n      0x04\n      tag_14\n      jump\t// in\n    tag_23:\n      tag_24\n      jump\t// in\n        /* \"Blacklistable.sol\":1397:1423  address public blacklister */\n    tag_7:\n      tag_18\n      tag_26\n      jump\t// in\n        /* \"Ownable.sol\":1972:2173  function transferOwnership(address newOwner) public virtual onlyOwner {\r... */\n    tag_8:\n      tag_12\n      tag_29\n      calldatasize\n      0x04\n      tag_14\n      jump\t// in\n    tag_29:\n      tag_30\n      jump\t// in\n        /* \"Blacklistable.sol\":2574:2720  function blacklist(address _account) external onlyBlacklister {\r... */\n    tag_9:\n      tag_12\n      tag_32\n      calldatasize\n      0x04\n      tag_14\n      jump\t// in\n    tag_32:\n      tag_33\n      jump\t// in\n        /* \"Blacklistable.sol\":2343:2460  function isBlacklisted(address _account) external view returns (bool) {\r... */\n    tag_10:\n      tag_34\n      tag_35\n      calldatasize\n      0x04\n      tag_14\n      jump\t// in\n    tag_35:\n      tag_36\n      jump\t// in\n    tag_34:\n      mload(0x40)\n      tag_20\n      swap2\n      swap1\n      tag_38\n      jump\t// in\n        /* \"Blacklistable.sol\":2855:3006  function unBlacklist(address _account) external onlyBlacklister {\r... */\n    tag_15:\n        /* \"Blacklistable.sol\":1815:1826  blacklister */\n      and(sub(shl(0xa0, 0x01), 0x01), sload(0x01))\n        /* \"Blacklistable.sol\":1801:1811  msg.sender */\n      caller\n        /* \"Blacklistable.sol\":1801:1826  msg.sender == blacklister */\n      eq\n        /* \"Blacklistable.sol\":1779:1898  require(\r... */\n      tag_40\n      jumpi\n      mload(0x40)\n      shl(0xe5, 0x461bcd)\n      dup2\n      mstore\n      0x04\n      add\n      tag_41\n      swap1\n      tag_42\n      jump\t// in\n    tag_41:\n      mload(0x40)\n      dup1\n      swap2\n      sub\n      swap1\n      revert\n    tag_40:\n      sub(shl(0xa0, 0x01), 0x01)\n        /* \"Blacklistable.sol\":2930:2951  blacklisted[_account] */\n      dup2\n      and\n        /* \"Blacklistable.sol\":2954:2959  false */\n      0x00\n        /* \"Blacklistable.sol\":2930:2951  blacklisted[_account] */\n      dup2\n      dup2\n      mstore\n        /* \"Blacklistable.sol\":2930:2941  blacklisted */\n      0x02\n        /* \"Blacklistable.sol\":2930:2951  blacklisted[_account] */\n      0x20\n      mstore\n      0x40\n      dup1\n      dup3\n      keccak256\n        /* \"Blacklistable.sol\":2930:2959  blacklisted[_account] = false */\n      dup1\n      sload\n      not(0xff)\n      and\n      swap1\n      sstore\n        /* \"Blacklistable.sol\":2975:2998  UnBlacklisted(_account) */\n      mload\n      0x117e3210bb9aa7d9baff172026820255c6f6c30ba8999d1c2fd88e2848137c4e\n      swap2\n        /* \"Blacklistable.sol\":2954:2959  false */\n      swap1\n        /* \"Blacklistable.sol\":2975:2998  UnBlacklisted(_account) */\n      log2\n        /* \"Blacklistable.sol\":2855:3006  function unBlacklist(address _account) external onlyBlacklister {\r... */\n      pop\n      jump\t// out\n        /* \"Ownable.sol\":1714:1817  function renounceOwnership() public virtual onlyOwner {\r... */\n    tag_17:\n        /* \"Ownable.sol\":1294:1306  _msgSender() */\n      tag_45\n        /* \"Ownable.sol\":1294:1304  _msgSender */\n      tag_46\n        /* \"Ownable.sol\":1294:1306  _msgSender() */\n      jump\t// in\n    tag_45:\n      sub(shl(0xa0, 0x01), 0x01)\n        /* \"Ownable.sol\":1283:1306  owner() == _msgSender() */\n      and\n        /* \"Ownable.sol\":1283:1290  owner() */\n      tag_47\n        /* \"Ownable.sol\":1283:1288  owner */\n      tag_19\n        /* \"Ownable.sol\":1283:1290  owner() */\n      jump\t// in\n    tag_47:\n      sub(shl(0xa0, 0x01), 0x01)\n        /* \"Ownable.sol\":1283:1306  owner() == _msgSender() */\n      and\n      eq\n        /* \"Ownable.sol\":1275:1343  require(owner() == _msgSender(), \"Ownable: caller is not the owner\") */\n      tag_48\n      jumpi\n      mload(0x40)\n      shl(0xe5, 0x461bcd)\n      dup2\n      mstore\n      0x04\n      add\n      tag_41\n      swap1\n      tag_50\n      jump\t// in\n    tag_48:\n        /* \"Ownable.sol\":1779:1809  _transferOwnership(address(0)) */\n      tag_52\n        /* \"Ownable.sol\":1806:1807  0 */\n      0x00\n        /* \"Ownable.sol\":1779:1797  _transferOwnership */\n      tag_53\n        /* \"Ownable.sol\":1779:1809  _transferOwnership(address(0)) */\n      jump\t// in\n    tag_52:\n        /* \"Ownable.sol\":1714:1817  function renounceOwnership() public virtual onlyOwner {\r... */\n      jump\t// out\n        /* \"Ownable.sol\":1063:1150  function owner() public view virtual returns (address) {\r... */\n    tag_19:\n        /* \"Ownable.sol\":1109:1116  address */\n      0x00\n        /* \"Ownable.sol\":1136:1142  _owner */\n      sload\n      sub(shl(0xa0, 0x01), 0x01)\n      and\n        /* \"Ownable.sol\":1063:1150  function owner() public view virtual returns (address) {\r... */\n      swap1\n      jump\t// out\n        /* \"Blacklistable.sol\":3014:3320  function updateBlacklister(address _newBlacklister) external onlyOwner {\r... */\n    tag_24:\n        /* \"Ownable.sol\":1294:1306  _msgSender() */\n      tag_56\n        /* \"Ownable.sol\":1294:1304  _msgSender */\n      tag_46\n        /* \"Ownable.sol\":1294:1306  _msgSender() */\n      jump\t// in\n    tag_56:\n      sub(shl(0xa0, 0x01), 0x01)\n        /* \"Ownable.sol\":1283:1306  owner() == _msgSender() */\n      and\n        /* \"Ownable.sol\":1283:1290  owner() */\n      tag_57\n        /* \"Ownable.sol\":1283:1288  owner */\n      tag_19\n        /* \"Ownable.sol\":1283:1290  owner() */\n      jump\t// in\n    tag_57:\n      sub(shl(0xa0, 0x01), 0x01)\n        /* \"Ownable.sol\":1283:1306  owner() == _msgSender() */\n      and\n      eq\n        /* \"Ownable.sol\":1275:1343  require(owner() == _msgSender(), \"Ownable: caller is not the owner\") */\n      tag_58\n      jumpi\n      mload(0x40)\n      shl(0xe5, 0x461bcd)\n      dup2\n      mstore\n      0x04\n      add\n      tag_41\n      swap1\n      tag_50\n      jump\t// in\n    tag_58:\n      sub(shl(0xa0, 0x01), 0x01)\n        /* \"Blacklistable.sol\":3118:3147  _newBlacklister != address(0) */\n      dup2\n      and\n        /* \"Blacklistable.sol\":3096:3225  require(\r... */\n      tag_61\n      jumpi\n      mload(0x40)\n      shl(0xe5, 0x461bcd)\n      dup2\n      mstore\n      0x04\n      add\n      tag_41\n      swap1\n      tag_63\n      jump\t// in\n    tag_61:\n        /* \"Blacklistable.sol\":3236:3247  blacklister */\n      0x01\n        /* \"Blacklistable.sol\":3236:3265  blacklister = _newBlacklister */\n      dup1\n      sload\n      not(sub(shl(0xa0, 0x01), 0x01))\n      and\n      sub(shl(0xa0, 0x01), 0x01)\n      dup4\n      dup2\n      and\n      swap2\n      swap1\n      swap2\n      or\n      swap2\n      dup3\n      swap1\n      sstore\n        /* \"Blacklistable.sol\":3281:3312  BlacklisterChanged(blacklister) */\n      mload(0x40)\n        /* \"Blacklistable.sol\":3300:3311  blacklister */\n      swap2\n      and\n      swap1\n        /* \"Blacklistable.sol\":3281:3312  BlacklisterChanged(blacklister) */\n      0xc67398012c111ce95ecb7429b933096c977380ee6c421175a71a4a4c6c88c06e\n      swap1\n      0x00\n      swap1\n      log2\n        /* \"Blacklistable.sol\":3014:3320  function updateBlacklister(address _newBlacklister) external onlyOwner {\r... */\n      pop\n      jump\t// out\n        /* \"Blacklistable.sol\":1397:1423  address public blacklister */\n    tag_26:\n      and(sub(shl(0xa0, 0x01), 0x01), sload(0x01))\n      dup2\n      jump\t// out\n        /* \"Ownable.sol\":1972:2173  function transferOwnership(address newOwner) public virtual onlyOwner {\r... */\n    tag_30:\n        /* \"Ownable.sol\":1294:1306  _msgSender() */\n      tag_65\n        /* \"Ownable.sol\":1294:1304  _msgSender */\n      tag_46\n        /* \"Ownable.sol\":1294:1306  _msgSender() */\n      jump\t// in\n    tag_65:\n      sub(shl(0xa0, 0x01), 0x01)\n        /* \"Ownable.sol\":1283:1306  owner() == _msgSender() */\n      and\n        /* \"Ownable.sol\":1283:1290  owner() */\n      tag_66\n        /* \"Ownable.sol\":1283:1288  owner */\n      tag_19\n        /* \"Ownable.sol\":1283:1290  owner() */\n      jump\t// in\n    tag_66:\n      sub(shl(0xa0, 0x01), 0x01)\n        /* \"Ownable.sol\":1283:1306  owner() == _msgSender() */\n      and\n      eq\n        /* \"Ownable.sol\":1275:1343  require(owner() == _msgSender(), \"Ownable: caller is not the owner\") */\n      tag_67\n      jumpi\n      mload(0x40)\n      shl(0xe5, 0x461bcd)\n      dup2\n      mstore\n      0x04\n      add\n      tag_41\n      swap1\n      tag_50\n      jump\t// in\n    tag_67:\n      sub(shl(0xa0, 0x01), 0x01)\n        /* \"Ownable.sol\":2061:2083  newOwner != address(0) */\n      dup2\n      and\n        /* \"Ownable.sol\":2053:2126  require(newOwner != address(0), \"Ownable: new owner is the zero address\") */\n      tag_70\n      jumpi\n      mload(0x40)\n      shl(0xe5, 0x461bcd)\n      dup2\n      mstore\n      0x04\n      add\n      tag_41\n      swap1\n      tag_72\n      jump\t// in\n    tag_70:\n        /* \"Ownable.sol\":2137:2165  _transferOwnership(newOwner) */\n      tag_73\n        /* \"Ownable.sol\":2156:2164  newOwner */\n      dup2\n        /* \"Ownable.sol\":2137:2155  _transferOwnership */\n      tag_53\n        /* \"Ownable.sol\":2137:2165  _transferOwnership(newOwner) */\n      jump\t// in\n    tag_73:\n        /* \"Ownable.sol\":1972:2173  function transferOwnership(address newOwner) public virtual onlyOwner {\r... */\n      pop\n      jump\t// out\n        /* \"Blacklistable.sol\":2574:2720  function blacklist(address _account) external onlyBlacklister {\r... */\n    tag_33:\n        /* \"Blacklistable.sol\":1815:1826  blacklister */\n      and(sub(shl(0xa0, 0x01), 0x01), sload(0x01))\n        /* \"Blacklistable.sol\":1801:1811  msg.sender */\n      caller\n        /* \"Blacklistable.sol\":1801:1826  msg.sender == blacklister */\n      eq\n        /* \"Blacklistable.sol\":1779:1898  require(\r... */\n      tag_75\n      jumpi\n      mload(0x40)\n      shl(0xe5, 0x461bcd)\n      dup2\n      mstore\n      0x04\n      add\n      tag_41\n      swap1\n      tag_42\n      jump\t// in\n    tag_75:\n      sub(shl(0xa0, 0x01), 0x01)\n        /* \"Blacklistable.sol\":2647:2668  blacklisted[_account] */\n      dup2\n      and\n      0x00\n      dup2\n      dup2\n      mstore\n        /* \"Blacklistable.sol\":2647:2658  blacklisted */\n      0x02\n        /* \"Blacklistable.sol\":2647:2668  blacklisted[_account] */\n      0x20\n      mstore\n      0x40\n      dup1\n      dup3\n      keccak256\n        /* \"Blacklistable.sol\":2647:2675  blacklisted[_account] = true */\n      dup1\n      sload\n      not(0xff)\n      and\n        /* \"Blacklistable.sol\":2671:2675  true */\n      0x01\n        /* \"Blacklistable.sol\":2647:2675  blacklisted[_account] = true */\n      or\n      swap1\n      sstore\n        /* \"Blacklistable.sol\":2691:2712  Blacklisted(_account) */\n      mload\n      0xffa4e6181777692565cf28528fc88fd1516ea86b56da075235fa575af6a4b855\n      swap2\n        /* \"Blacklistable.sol\":2647:2668  blacklisted[_account] */\n      swap1\n        /* \"Blacklistable.sol\":2691:2712  Blacklisted(_account) */\n      log2\n        /* \"Blacklistable.sol\":2574:2720  function blacklist(address _account) external onlyBlacklister {\r... */\n      pop\n      jump\t// out\n        /* \"Blacklistable.sol\":2343:2460  function isBlacklisted(address _account) external view returns (bool) {\r... */\n    tag_36:\n      sub(shl(0xa0, 0x01), 0x01)\n        /* \"Blacklistable.sol\":2431:2452  blacklisted[_account] */\n      and\n        /* \"Blacklistable.sol\":2407:2411  bool */\n      0x00\n        /* \"Blacklistable.sol\":2431:2452  blacklisted[_account] */\n      swap1\n      dup2\n      mstore\n        /* \"Blacklistable.sol\":2431:2442  blacklisted */\n      0x02\n        /* \"Blacklistable.sol\":2431:2452  blacklisted[_account] */\n      0x20\n      mstore\n      0x40\n      swap1\n      keccak256\n      sload\n      0xff\n      and\n      swap1\n        /* \"Blacklistable.sol\":2343:2460  function isBlacklisted(address _account) external view returns (bool) {\r... */\n      jump\t// out\n        /* \"Context.sol\":656:754  function _msgSender() internal view virtual returns (address) {\r... */\n    tag_46:\n        /* \"Context.sol\":736:746  msg.sender */\n      caller\n        /* \"Context.sol\":656:754  function _msgSender() internal view virtual returns (address) {\r... */\n      swap1\n      jump\t// out\n        /* \"Ownable.sol\":2333:2524  function _transferOwnership(address newOwner) internal virtual {\r... */\n    tag_53:\n        /* \"Ownable.sol\":2407:2423  address oldOwner */\n      0x00\n        /* \"Ownable.sol\":2426:2432  _owner */\n      dup1\n      sload\n      sub(shl(0xa0, 0x01), 0x01)\n        /* \"Ownable.sol\":2443:2460  _owner = newOwner */\n      dup4\n      dup2\n      and\n      not(sub(shl(0xa0, 0x01), 0x01))\n      dup4\n      and\n      dup2\n      or\n      dup5\n      sstore\n        /* \"Ownable.sol\":2476:2516  OwnershipTransferred(oldOwner, newOwner) */\n      mload(0x40)\n        /* \"Ownable.sol\":2426:2432  _owner */\n      swap2\n      swap1\n      swap3\n      and\n      swap3\n      dup4\n      swap2\n        /* \"Ownable.sol\":2476:2516  OwnershipTransferred(oldOwner, newOwner) */\n      0x8be0079c531659141344cd1fd0a4f28419497f9722a3daafe3b4186f6b6457e0\n      swap2\n        /* \"Ownable.sol\":2407:2423  address oldOwner */\n      swap1\n        /* \"Ownable.sol\":2476:2516  OwnershipTransferred(oldOwner, newOwner) */\n      log3\n        /* \"Ownable.sol\":2333:2524  function _transferOwnership(address newOwner) internal virtual {\r... */\n      pop\n      pop\n      jump\t// out\n        /* \"#utility.yul\":14:320   */\n    tag_14:\n      0x00\n        /* \"#utility.yul\":126:128   */\n      0x20\n        /* \"#utility.yul\":114:123   */\n      dup3\n        /* \"#utility.yul\":105:112   */\n      dup5\n        /* \"#utility.yul\":101:124   */\n      sub\n        /* \"#utility.yul\":97:129   */\n      slt\n        /* \"#utility.yul\":94:96   */\n      iszero\n      tag_83\n      jumpi\n        /* \"#utility.yul\":147:153   */\n      dup1\n        /* \"#utility.yul\":139:145   */\n      dup2\n        /* \"#utility.yul\":132:154   */\n      revert\n        /* \"#utility.yul\":94:96   */\n    tag_83:\n        /* \"#utility.yul\":178:201   */\n      dup2\n      calldataload\n      sub(shl(0xa0, 0x01), 0x01)\n        /* \"#utility.yul\":230:261   */\n      dup2\n      and\n        /* \"#utility.yul\":220:262   */\n      dup2\n      eq\n        /* \"#utility.yul\":210:212   */\n      tag_84\n      jumpi\n        /* \"#utility.yul\":281:287   */\n      dup2\n        /* \"#utility.yul\":273:279   */\n      dup3\n        /* \"#utility.yul\":266:288   */\n      revert\n        /* \"#utility.yul\":210:212   */\n    tag_84:\n        /* \"#utility.yul\":309:314   */\n      swap4\n        /* \"#utility.yul\":84:320   */\n      swap3\n      pop\n      pop\n      pop\n      jump\t// out\n        /* \"#utility.yul\":325:528   */\n    tag_21:\n      sub(shl(0xa0, 0x01), 0x01)\n        /* \"#utility.yul\":489:521   */\n      swap2\n      swap1\n      swap2\n      and\n        /* \"#utility.yul\":471:522   */\n      dup2\n      mstore\n        /* \"#utility.yul\":459:461   */\n      0x20\n        /* \"#utility.yul\":444:462   */\n      add\n      swap1\n        /* \"#utility.yul\":426:528   */\n      jump\t// out\n        /* \"#utility.yul\":533:720   */\n    tag_38:\n        /* \"#utility.yul\":698:712   */\n      swap1\n      iszero\n        /* \"#utility.yul\":691:713   */\n      iszero\n        /* \"#utility.yul\":673:714   */\n      dup2\n      mstore\n        /* \"#utility.yul\":661:663   */\n      0x20\n        /* \"#utility.yul\":646:664   */\n      add\n      swap1\n        /* \"#utility.yul\":628:720   */\n      jump\t// out\n        /* \"#utility.yul\":725:1127   */\n    tag_72:\n        /* \"#utility.yul\":927:929   */\n      0x20\n        /* \"#utility.yul\":909:930   */\n      dup1\n      dup3\n      mstore\n        /* \"#utility.yul\":966:968   */\n      0x26\n        /* \"#utility.yul\":946:964   */\n      swap1\n      dup3\n      add\n        /* \"#utility.yul\":939:969   */\n      mstore\n        /* \"#utility.yul\":1005:1039   */\n      0x4f776e61626c653a206e6577206f776e657220697320746865207a65726f2061\n        /* \"#utility.yul\":1000:1002   */\n      0x40\n        /* \"#utility.yul\":985:1003   */\n      dup3\n      add\n        /* \"#utility.yul\":978:1040   */\n      mstore\n      shl(0xd0, 0x646472657373)\n        /* \"#utility.yul\":1071:1073   */\n      0x60\n        /* \"#utility.yul\":1056:1074   */\n      dup3\n      add\n        /* \"#utility.yul\":1049:1085   */\n      mstore\n        /* \"#utility.yul\":1117:1120   */\n      0x80\n        /* \"#utility.yul\":1102:1121   */\n      add\n      swap1\n        /* \"#utility.yul\":899:1127   */\n      jump\t// out\n        /* \"#utility.yul\":1132:1540   */\n    tag_42:\n        /* \"#utility.yul\":1334:1336   */\n      0x20\n        /* \"#utility.yul\":1316:1337   */\n      dup1\n      dup3\n      mstore\n        /* \"#utility.yul\":1373:1375   */\n      0x2c\n        /* \"#utility.yul\":1353:1371   */\n      swap1\n      dup3\n      add\n        /* \"#utility.yul\":1346:1376   */\n      mstore\n        /* \"#utility.yul\":1412:1446   */\n      0x426c61636b6c69737461626c653a2063616c6c6572206973206e6f7420746865\n        /* \"#utility.yul\":1407:1409   */\n      0x40\n        /* \"#utility.yul\":1392:1410   */\n      dup3\n      add\n        /* \"#utility.yul\":1385:1447   */\n      mstore\n      shl(0xa1, 0x10313630b1b5b634b9ba32b9)\n        /* \"#utility.yul\":1478:1480   */\n      0x60\n        /* \"#utility.yul\":1463:1481   */\n      dup3\n      add\n        /* \"#utility.yul\":1456:1498   */\n      mstore\n        /* \"#utility.yul\":1530:1533   */\n      0x80\n        /* \"#utility.yul\":1515:1534   */\n      add\n      swap1\n        /* \"#utility.yul\":1306:1540   */\n      jump\t// out\n        /* \"#utility.yul\":1545:1901   */\n    tag_50:\n        /* \"#utility.yul\":1747:1749   */\n      0x20\n        /* \"#utility.yul\":1729:1750   */\n      dup1\n      dup3\n      mstore\n        /* \"#utility.yul\":1766:1784   */\n      dup2\n      dup2\n      add\n        /* \"#utility.yul\":1759:1789   */\n      mstore\n        /* \"#utility.yul\":1825:1859   */\n      0x4f776e61626c653a2063616c6c6572206973206e6f7420746865206f776e6572\n        /* \"#utility.yul\":1820:1822   */\n      0x40\n        /* \"#utility.yul\":1805:1823   */\n      dup3\n      add\n        /* \"#utility.yul\":1798:1860   */\n      mstore\n        /* \"#utility.yul\":1892:1894   */\n      0x60\n        /* \"#utility.yul\":1877:1895   */\n      add\n      swap1\n        /* \"#utility.yul\":1719:1901   */\n      jump\t// out\n        /* \"#utility.yul\":1906:2320   */\n    tag_63:\n        /* \"#utility.yul\":2108:2110   */\n      0x20\n        /* \"#utility.yul\":2090:2111   */\n      dup1\n      dup3\n      mstore\n        /* \"#utility.yul\":2147:2149   */\n      0x32\n        /* \"#utility.yul\":2127:2145   */\n      swap1\n      dup3\n      add\n        /* \"#utility.yul\":2120:2150   */\n      mstore\n        /* \"#utility.yul\":2186:2220   */\n      0x426c61636b6c69737461626c653a206e657720626c61636b6c69737465722069\n        /* \"#utility.yul\":2181:2183   */\n      0x40\n        /* \"#utility.yul\":2166:2184   */\n      dup3\n      add\n        /* \"#utility.yul\":2159:2221   */\n      mstore\n      shl(0x70, 0x7320746865207a65726f2061646472657373)\n        /* \"#utility.yul\":2252:2254   */\n      0x60\n        /* \"#utility.yul\":2237:2255   */\n      dup3\n      add\n        /* \"#utility.yul\":2230:2278   */\n      mstore\n        /* \"#utility.yul\":2310:2313   */\n      0x80\n        /* \"#utility.yul\":2295:2314   */\n      add\n      swap1\n        /* \"#utility.yul\":2080:2320   */\n      jump\t// out\n\n    auxdata: 0xa2646970667358221220e7a7ef9172cdd0ae6d288e09d73dab4dfafbc176725a18d7a6283926694a0bb564736f6c63430008010033\n}\n",
				"bytecode": {
					"linkReferences": {},
					"object": "608060405234801561001057600080fd5b5061002161001c610026565b61002a565b61007a565b3390565b600080546001600160a01b038381166001600160a01b0319831681178455604051919092169283917f8be0079c531659141344cd1fd0a4f28419497f9722a3daafe3b4186f6b6457e09190a35050565b6105b8806100896000396000f3fe608060405234801561001057600080fd5b50600436106100885760003560e01c8063bd1024301161005b578063bd102430146100db578063f2fde38b146100e3578063f9f92be4146100f6578063fe575a871461010957610088565b80631a8952661461008d578063715018a6146100a25780638da5cb5b146100aa578063ad38bf22146100c8575b600080fd5b6100a061009b36600461041c565b610129565b005b6100a06101a5565b6100b26101f0565b6040516100bf919061044a565b60405180910390f35b6100a06100d636600461041c565b6101ff565b6100b26102b4565b6100a06100f136600461041c565b6102c3565b6100a061010436600461041c565b610334565b61011c61011736600461041c565b6103aa565b6040516100bf919061045e565b6001546001600160a01b0316331461015c5760405162461bcd60e51b8152600401610153906104af565b60405180910390fd5b6001600160a01b038116600081815260026020526040808220805460ff19169055517f117e3210bb9aa7d9baff172026820255c6f6c30ba8999d1c2fd88e2848137c4e9190a250565b6101ad6103c8565b6001600160a01b03166101be6101f0565b6001600160a01b0316146101e45760405162461bcd60e51b8152600401610153906104fb565b6101ee60006103cc565b565b6000546001600160a01b031690565b6102076103c8565b6001600160a01b03166102186101f0565b6001600160a01b03161461023e5760405162461bcd60e51b8152600401610153906104fb565b6001600160a01b0381166102645760405162461bcd60e51b815260040161015390610530565b600180546001600160a01b0319166001600160a01b0383811691909117918290556040519116907fc67398012c111ce95ecb7429b933096c977380ee6c421175a71a4a4c6c88c06e90600090a250565b6001546001600160a01b031681565b6102cb6103c8565b6001600160a01b03166102dc6101f0565b6001600160a01b0316146103025760405162461bcd60e51b8152600401610153906104fb565b6001600160a01b0381166103285760405162461bcd60e51b815260040161015390610469565b610331816103cc565b50565b6001546001600160a01b0316331461035e5760405162461bcd60e51b8152600401610153906104af565b6001600160a01b038116600081815260026020526040808220805460ff19166001179055517fffa4e6181777692565cf28528fc88fd1516ea86b56da075235fa575af6a4b8559190a250565b6001600160a01b031660009081526002602052604090205460ff1690565b3390565b600080546001600160a01b038381166001600160a01b0319831681178455604051919092169283917f8be0079c531659141344cd1fd0a4f28419497f9722a3daafe3b4186f6b6457e09190a35050565b60006020828403121561042d578081fd5b81356001600160a01b0381168114610443578182fd5b9392505050565b6001600160a01b0391909116815260200190565b901515815260200190565b60208082526026908201527f4f776e61626c653a206e6577206f776e657220697320746865207a65726f206160408201526564647265737360d01b606082015260800190565b6020808252602c908201527f426c61636b6c69737461626c653a2063616c6c6572206973206e6f742074686560408201526b10313630b1b5b634b9ba32b960a11b606082015260800190565b6020808252818101527f4f776e61626c653a2063616c6c6572206973206e6f7420746865206f776e6572604082015260600190565b60208082526032908201527f426c61636b6c69737461626c653a206e657720626c61636b6c697374657220696040820152717320746865207a65726f206164647265737360701b60608201526080019056fea2646970667358221220e7a7ef9172cdd0ae6d288e09d73dab4dfafbc176725a18d7a6283926694a0bb564736f6c63430008010033",
					"opcodes": "PUSH1 0x80 PUSH1 0x40 MSTORE CALLVALUE DUP1 ISZERO PUSH2 0x10 JUMPI PUSH1 0x0 DUP1 REVERT JUMPDEST POP PUSH2 0x21 PUSH2 0x1C PUSH2 0x26 JUMP JUMPDEST PUSH2 0x2A JUMP JUMPDEST PUSH2 0x7A JUMP JUMPDEST CALLER SWAP1 JUMP JUMPDEST PUSH1 0x0 DUP1 SLOAD PUSH1 0x1 PUSH1 0x1 PUSH1 0xA0 SHL SUB DUP4 DUP2 AND PUSH1 0x1 PUSH1 0x1 PUSH1 0xA0 SHL SUB NOT DUP4 AND DUP2 OR DUP5 SSTORE PUSH1 0x40 MLOAD SWAP2 SWAP1 SWAP3 AND SWAP3 DUP4 SWAP2 PUSH32 0x8BE0079C531659141344CD1FD0A4F28419497F9722A3DAAFE3B4186F6B6457E0 SWAP2 SWAP1 LOG3 POP POP JUMP JUMPDEST PUSH2 0x5B8 DUP1 PUSH2 0x89 PUSH1 0x0 CODECOPY PUSH1 0x0 RETURN INVALID PUSH1 0x80 PUSH1 0x40 MSTORE CALLVALUE DUP1 ISZERO PUSH2 0x10 JUMPI PUSH1 0x0 DUP1 REVERT JUMPDEST POP PUSH1 0x4 CALLDATASIZE LT PUSH2 0x88 JUMPI PUSH1 0x0 CALLDATALOAD PUSH1 0xE0 SHR DUP1 PUSH4 0xBD102430 GT PUSH2 0x5B JUMPI DUP1 PUSH4 0xBD102430 EQ PUSH2 0xDB JUMPI DUP1 PUSH4 0xF2FDE38B EQ PUSH2 0xE3 JUMPI DUP1 PUSH4 0xF9F92BE4 EQ PUSH2 0xF6 JUMPI DUP1 PUSH4 0xFE575A87 EQ PUSH2 0x109 JUMPI PUSH2 0x88 JUMP JUMPDEST DUP1 PUSH4 0x1A895266 EQ PUSH2 0x8D JUMPI DUP1 PUSH4 0x715018A6 EQ PUSH2 0xA2 JUMPI DUP1 PUSH4 0x8DA5CB5B EQ PUSH2 0xAA JUMPI DUP1 PUSH4 0xAD38BF22 EQ PUSH2 0xC8 JUMPI JUMPDEST PUSH1 0x0 DUP1 REVERT JUMPDEST PUSH2 0xA0 PUSH2 0x9B CALLDATASIZE PUSH1 0x4 PUSH2 0x41C JUMP JUMPDEST PUSH2 0x129 JUMP JUMPDEST STOP JUMPDEST PUSH2 0xA0 PUSH2 0x1A5 JUMP JUMPDEST PUSH2 0xB2 PUSH2 0x1F0 JUMP JUMPDEST PUSH1 0x40 MLOAD PUSH2 0xBF SWAP2 SWAP1 PUSH2 0x44A JUMP JUMPDEST PUSH1 0x40 MLOAD DUP1 SWAP2 SUB SWAP1 RETURN JUMPDEST PUSH2 0xA0 PUSH2 0xD6 CALLDATASIZE PUSH1 0x4 PUSH2 0x41C JUMP JUMPDEST PUSH2 0x1FF JUMP JUMPDEST PUSH2 0xB2 PUSH2 0x2B4 JUMP JUMPDEST PUSH2 0xA0 PUSH2 0xF1 CALLDATASIZE PUSH1 0x4 PUSH2 0x41C JUMP JUMPDEST PUSH2 0x2C3 JUMP JUMPDEST PUSH2 0xA0 PUSH2 0x104 CALLDATASIZE PUSH1 0x4 PUSH2 0x41C JUMP JUMPDEST PUSH2 0x334 JUMP JUMPDEST PUSH2 0x11C PUSH2 0x117 CALLDATASIZE PUSH1 0x4 PUSH2 0x41C JUMP JUMPDEST PUSH2 0x3AA JUMP JUMPDEST PUSH1 0x40 MLOAD PUSH2 0xBF SWAP2 SWAP1 PUSH2 0x45E JUMP JUMPDEST PUSH1 0x1 SLOAD PUSH1 0x1 PUSH1 0x1 PUSH1 0xA0 SHL SUB AND CALLER EQ PUSH2 0x15C JUMPI PUSH1 0x40 MLOAD PUSH3 0x461BCD PUSH1 0xE5 SHL DUP2 MSTORE PUSH1 0x4 ADD PUSH2 0x153 SWAP1 PUSH2 0x4AF JUMP JUMPDEST PUSH1 0x40 MLOAD DUP1 SWAP2 SUB SWAP1 REVERT JUMPDEST PUSH1 0x1 PUSH1 0x1 PUSH1 0xA0 SHL SUB DUP2 AND PUSH1 0x0 DUP2 DUP2 MSTORE PUSH1 0x2 PUSH1 0x20 MSTORE PUSH1 0x40 DUP1 DUP3 KECCAK256 DUP1 SLOAD PUSH1 0xFF NOT AND SWAP1 SSTORE MLOAD PUSH32 0x117E3210BB9AA7D9BAFF172026820255C6F6C30BA8999D1C2FD88E2848137C4E SWAP2 SWAP1 LOG2 POP JUMP JUMPDEST PUSH2 0x1AD PUSH2 0x3C8 JUMP JUMPDEST PUSH1 0x1 PUSH1 0x1 PUSH1 0xA0 SHL SUB AND PUSH2 0x1BE PUSH2 0x1F0 JUMP JUMPDEST PUSH1 0x1 PUSH1 0x1 PUSH1 0xA0 SHL SUB AND EQ PUSH2 0x1E4 JUMPI PUSH1 0x40 MLOAD PUSH3 0x461BCD PUSH1 0xE5 SHL DUP2 MSTORE PUSH1 0x4 ADD PUSH2 0x153 SWAP1 PUSH2 0x4FB JUMP JUMPDEST PUSH2 0x1EE PUSH1 0x0 PUSH2 0x3CC JUMP JUMPDEST JUMP JUMPDEST PUSH1 0x0 SLOAD PUSH1 0x1 PUSH1 0x1 PUSH1 0xA0 SHL SUB AND SWAP1 JUMP JUMPDEST PUSH2 0x207 PUSH2 0x3C8 JUMP JUMPDEST PUSH1 0x1 PUSH1 0x1 PUSH1 0xA0 SHL SUB AND PUSH2 0x218 PUSH2 0x1F0 JUMP JUMPDEST PUSH1 0x1 PUSH1 0x1 PUSH1 0xA0 SHL SUB AND EQ PUSH2 0x23E JUMPI PUSH1 0x40 MLOAD PUSH3 0x461BCD PUSH1 0xE5 SHL DUP2 MSTORE PUSH1 0x4 ADD PUSH2 0x153 SWAP1 PUSH2 0x4FB JUMP JUMPDEST PUSH1 0x1 PUSH1 0x1 PUSH1 0xA0 SHL SUB DUP2 AND PUSH2 0x264 JUMPI PUSH1 0x40 MLOAD PUSH3 0x461BCD PUSH1 0xE5 SHL DUP2 MSTORE PUSH1 0x4 ADD PUSH2 0x153 SWAP1 PUSH2 0x530 JUMP JUMPDEST PUSH1 0x1 DUP1 SLOAD PUSH1 0x1 PUSH1 0x1 PUSH1 0xA0 SHL SUB NOT AND PUSH1 0x1 PUSH1 0x1 PUSH1 0xA0 SHL SUB DUP4 DUP2 AND SWAP2 SWAP1 SWAP2 OR SWAP2 DUP3 SWAP1 SSTORE PUSH1 0x40 MLOAD SWAP2 AND SWAP1 PUSH32 0xC67398012C111CE95ECB7429B933096C977380EE6C421175A71A4A4C6C88C06E SWAP1 PUSH1 0x0 SWAP1 LOG2 POP JUMP JUMPDEST PUSH1 0x1 SLOAD PUSH1 0x1 PUSH1 0x1 PUSH1 0xA0 SHL SUB AND DUP2 JUMP JUMPDEST PUSH2 0x2CB PUSH2 0x3C8 JUMP JUMPDEST PUSH1 0x1 PUSH1 0x1 PUSH1 0xA0 SHL SUB AND PUSH2 0x2DC PUSH2 0x1F0 JUMP JUMPDEST PUSH1 0x1 PUSH1 0x1 PUSH1 0xA0 SHL SUB AND EQ PUSH2 0x302 JUMPI PUSH1 0x40 MLOAD PUSH3 0x461BCD PUSH1 0xE5 SHL DUP2 MSTORE PUSH1 0x4 ADD PUSH2 0x153 SWAP1 PUSH2 0x4FB JUMP JUMPDEST PUSH1 0x1 PUSH1 0x1 PUSH1 0xA0 SHL SUB DUP2 AND PUSH2 0x328 JUMPI PUSH1 0x40 MLOAD PUSH3 0x461BCD PUSH1 0xE5 SHL DUP2 MSTORE PUSH1 0x4 ADD PUSH2 0x153 SWAP1 PUSH2 0x469 JUMP JUMPDEST PUSH2 0x331 DUP2 PUSH2 0x3CC JUMP JUMPDEST POP JUMP JUMPDEST PUSH1 0x1 SLOAD PUSH1 0x1 PUSH1 0x1 PUSH1 0xA0 SHL SUB AND CALLER EQ PUSH2 0x35E JUMPI PUSH1 0x40 MLOAD PUSH3 0x461BCD PUSH1 0xE5 SHL DUP2 MSTORE PUSH1 0x4 ADD PUSH2 0x153 SWAP1 PUSH2 0x4AF JUMP JUMPDEST PUSH1 0x1 PUSH1 0x1 PUSH1 0xA0 SHL SUB DUP2 AND PUSH1 0x0 DUP2 DUP2 MSTORE PUSH1 0x2 PUSH1 0x20 MSTORE PUSH1 0x40 DUP1 DUP3 KECCAK256 DUP1 SLOAD PUSH1 0xFF NOT AND PUSH1 0x1 OR SWAP1 SSTORE MLOAD PUSH32 0xFFA4E6181777692565CF28528FC88FD1516EA86B56DA075235FA575AF6A4B855 SWAP2 SWAP1 LOG2 POP JUMP JUMPDEST PUSH1 0x1 PUSH1 0x1 PUSH1 0xA0 SHL SUB AND PUSH1 0x0 SWAP1 DUP2 MSTORE PUSH1 0x2 PUSH1 0x20 MSTORE PUSH1 0x40 SWAP1 KECCAK256 SLOAD PUSH1 0xFF AND SWAP1 JUMP JUMPDEST CALLER SWAP1 JUMP JUMPDEST PUSH1 0x0 DUP1 SLOAD PUSH1 0x1 PUSH1 0x1 PUSH1 0xA0 SHL SUB DUP4 DUP2 AND PUSH1 0x1 PUSH1 0x1 PUSH1 0xA0 SHL SUB NOT DUP4 AND DUP2 OR DUP5 SSTORE PUSH1 0x40 MLOAD SWAP2 SWAP1 SWAP3 AND SWAP3 DUP4 SWAP2 PUSH32 0x8BE0079C531659141344CD1FD0A4F28419497F9722A3DAAFE3B4186F6B6457E0 SWAP2 SWAP1 LOG3 POP POP JUMP JUMPDEST PUSH1 0x0 PUSH1 0x20 DUP3 DUP5 SUB SLT ISZERO PUSH2 0x42D JUMPI DUP1 DUP2 REVERT JUMPDEST DUP2 CALLDATALOAD PUSH1 0x1 PUSH1 0x1 PUSH1 0xA0 SHL SUB DUP2 AND DUP2 EQ PUSH2 0x443 JUMPI DUP2 DUP3 REVERT JUMPDEST SWAP4 SWAP3 POP POP POP JUMP JUMPDEST PUSH1 0x1 PUSH1 0x1 PUSH1 0xA0 SHL SUB SWAP2 SWAP1 SWAP2 AND DUP2 MSTORE PUSH1 0x20 ADD SWAP1 JUMP JUMPDEST SWAP1 ISZERO ISZERO DUP2 MSTORE PUSH1 0x20 ADD SWAP1 JUMP JUMPDEST PUSH1 0x20 DUP1 DUP3 MSTORE PUSH1 0x26 SWAP1 DUP3 ADD MSTORE PUSH32 0x4F776E61626C653A206E6577206F776E657220697320746865207A65726F2061 PUSH1 0x40 DUP3 ADD MSTORE PUSH6 0x646472657373 PUSH1 0xD0 SHL PUSH1 0x60 DUP3 ADD MSTORE PUSH1 0x80 ADD SWAP1 JUMP JUMPDEST PUSH1 0x20 DUP1 DUP3 MSTORE PUSH1 0x2C SWAP1 DUP3 ADD MSTORE PUSH32 0x426C61636B6C69737461626C653A2063616C6C6572206973206E6F7420746865 PUSH1 0x40 DUP3 ADD MSTORE PUSH12 0x10313630B1B5B634B9BA32B9 PUSH1 0xA1 SHL PUSH1 0x60 DUP3 ADD MSTORE PUSH1 0x80 ADD SWAP1 JUMP JUMPDEST PUSH1 0x20 DUP1 DUP3 MSTORE DUP2 DUP2 ADD MSTORE PUSH32 0x4F776E61626C653A2063616C6C6572206973206E6F7420746865206F776E6572 PUSH1 0x40 DUP3 ADD MSTORE PUSH1 0x60 ADD SWAP1 JUMP JUMPDEST PUSH1 0x20 DUP1 DUP3 MSTORE PUSH1 0x32 SWAP1 DUP3 ADD MSTORE PUSH32 0x426C61636B6C69737461626C653A206E657720626C61636B6C69737465722069 PUSH1 0x40 DUP3 ADD MSTORE PUSH18 0x7320746865207A65726F2061646472657373 PUSH1 0x70 SHL PUSH1 0x60 DUP3 ADD MSTORE PUSH1 0x80 ADD SWAP1 JUMP INVALID LOG2 PUSH5 0x6970667358 0x22 SLT KECCAK256 0xE7 0xA7 0xEF SWAP2 PUSH19 0xCDD0AE6D288E09D73DAB4DFAFBC176725A18D7 0xA6 0x28 CODECOPY 0x26 PUSH10 0x4A0BB564736F6C634300 ADDMOD ADD STOP CALLER "
				},
				"gasEstimates": {
					"creation": {
						"codeDepositCost": "292800",
						"executionCost": "22799",
						"totalCost": "315599"
					},
					"external": {
						"blacklist(address)": "23204",
						"blacklister()": "1070",
						"isBlacklisted(address)": "1313",
						"owner()": "1115",
						"renounceOwnership()": "23527",
						"transferOwnership(address)": "23686",
						"unBlacklist(address)": "23155",
						"updateBlacklister(address)": "23325"
					}
				},
				"methodIdentifiers": {
					"blacklist(address)": "f9f92be4",
					"blacklister()": "bd102430",
					"isBlacklisted(address)": "fe575a87",
					"owner()": "8da5cb5b",
					"renounceOwnership()": "715018a6",
					"transferOwnership(address)": "f2fde38b",
					"unBlacklist(address)": "1a895266",
					"updateBlacklister(address)": "ad38bf22"
				}
			},
			"storageLayout": {
				"storage": [
					{
						"astId": 557,
						"contract": "Blacklistable.sol:Blacklistable",
						"label": "_owner",
						"offset": 0,
						"slot": "0",
						"type": "t_address"
					},
					{
						"astId": 327,
						"contract": "Blacklistable.sol:Blacklistable",
						"label": "blacklister",
						"offset": 0,
						"slot": "1",
						"type": "t_address"
					},
					{
						"astId": 331,
						"contract": "Blacklistable.sol:Blacklistable",
						"label": "blacklisted",
						"offset": 0,
						"slot": "2",
						"type": "t_mapping(t_address,t_bool)"
					}
				],
				"types": {
					"t_address": {
						"encoding": "inplace",
						"label": "address",
						"numberOfBytes": "20"
					},
					"t_bool": {
						"encoding": "inplace",
						"label": "bool",
						"numberOfBytes": "1"
					},
					"t_mapping(t_address,t_bool)": {
						"encoding": "mapping",
						"key": "t_address",
						"label": "mapping(address => bool)",
						"numberOfBytes": "32",
						"value": "t_bool"
					}
				}
			},
			"userdoc": {
				"kind": "user",
				"methods": {},
				"version": 1
			}
		}
	}
}