{
	"USDm.sol": {
		"USDm": {
			"abi": [
				{
					"anonymous": false,
					"inputs": [
						{
							"indexed": true,
							"internalType": "address",
							"name": "owner",
							"type": "address"
						},
						{
							"indexed": true,
							"internalType": "address",
							"name": "spender",
							"type": "address"
						},
						{
							"indexed": false,
							"internalType": "uint256",
							"name": "value",
							"type": "uint256"
						}
					],
					"name": "Approval",
					"type": "event"
				},
				{
					"anonymous": false,
					"inputs": [
						{
							"indexed": true,
							"internalType": "address",
							"name": "_account",
							"type": "address"
						}
					],
					"name": "Blacklisted",
					"type": "event"
				},
				{
					"anonymous": false,
					"inputs": [
						{
							"indexed": true,
							"internalType": "address",
							"name": "newBlacklister",
							"type": "address"
						}
					],
					"name": "BlacklisterChanged",
					"type": "event"
				},
				{
					"anonymous": false,
					"inputs": [
						{
							"indexed": true,
							"internalType": "address",
							"name": "burner",
							"type": "address"
						},
						{
							"indexed": false,
							"internalType": "uint256",
							"name": "amount",
							"type": "uint256"
						}
					],
					"name": "Burn",
					"type": "event"
				},
				{
					"anonymous": false,
					"inputs": [
						{
							"indexed": true,
							"internalType": "address",
							"name": "newMasterMinter",
							"type": "address"
						}
					],
					"name": "MasterMinterChanged",
					"type": "event"
				},
				{
					"anonymous": false,
					"inputs": [
						{
							"indexed": true,
							"internalType": "address",
							"name": "minter",
							"type": "address"
						},
						{
							"indexed": true,
							"internalType": "address",
							"name": "to",
							"type": "address"
						},
						{
							"indexed": false,
							"internalType": "uint256",
							"name": "amount",
							"type": "uint256"
						}
					],
					"name": "Mint",
					"type": "event"
				},
				{
					"anonymous": false,
					"inputs": [
						{
							"indexed": true,
							"internalType": "address",
							"name": "masterMinter",
							"type": "address"
						},
						{
							"indexed": true,
							"internalType": "address",
							"name": "to",
							"type": "address"
						},
						{
							"indexed": false,
							"internalType": "uint256",
							"name": "amount",
							"type": "uint256"
						}
					],
					"name": "MintByMaster",
					"type": "event"
				},
				{
					"anonymous": false,
					"inputs": [
						{
							"indexed": true,
							"internalType": "address",
							"name": "minter",
							"type": "address"
						},
						{
							"indexed": false,
							"internalType": "uint256",
							"name": "minterAllowedAmount",
							"type": "uint256"
						}
					],
					"name": "MinterConfigured",
					"type": "event"
				},
				{
					"anonymous": false,
					"inputs": [
						{
							"indexed": true,
							"internalType": "address",
							"name": "oldMinter",
							"type": "address"
						}
					],
					"name": "MinterRemoved",
					"type": "event"
				},
				{
					"anonymous": false,
					"inputs": [
						{
							"indexed": true,
							"internalType": "address",
							"name": "previousOwner",
							"type": "address"
						},
						{
							"indexed": true,
							"internalType": "address",
							"name": "newOwner",
							"type": "address"
						}
					],
					"name": "OwnershipTransferred",
					"type": "event"
				},
				{
					"anonymous": false,
					"inputs": [
						{
							"indexed": false,
							"internalType": "address",
							"name": "account",
							"type": "address"
						}
					],
					"name": "Paused",
					"type": "event"
				},
				{
					"anonymous": false,
					"inputs": [
						{
							"indexed": true,
							"internalType": "address",
							"name": "newAddress",
							"type": "address"
						}
					],
					"name": "PauserChanged",
					"type": "event"
				},
				{
					"anonymous": false,
					"inputs": [
						{
							"indexed": true,
							"internalType": "address",
							"name": "newRescuer",
							"type": "address"
						}
					],
					"name": "RescuerChanged",
					"type": "event"
				},
				{
					"anonymous": false,
					"inputs": [
						{
							"indexed": true,
							"internalType": "address",
							"name": "from",
							"type": "address"
						},
						{
							"indexed": true,
							"internalType": "address",
							"name": "to",
							"type": "address"
						},
						{
							"indexed": false,
							"internalType": "uint256",
							"name": "value",
							"type": "uint256"
						}
					],
					"name": "Transfer",
					"type": "event"
				},
				{
					"anonymous": false,
					"inputs": [
						{
							"indexed": true,
							"internalType": "address",
							"name": "_account",
							"type": "address"
						}
					],
					"name": "UnBlacklisted",
					"type": "event"
				},
				{
					"anonymous": false,
					"inputs": [
						{
							"indexed": false,
							"internalType": "address",
							"name": "account",
							"type": "address"
						}
					],
					"name": "Unpaused",
					"type": "event"
				},
				{
					"inputs": [
						{
							"internalType": "address",
							"name": "owner",
							"type": "address"
						},
						{
							"internalType": "address",
							"name": "spender",
							"type": "address"
						}
					],
					"name": "allowance",
					"outputs": [
						{
							"internalType": "uint256",
							"name": "",
							"type": "uint256"
						}
					],
					"stateMutability": "view",
					"type": "function"
				},
				{
					"inputs": [
						{
							"internalType": "address",
							"name": "spender",
							"type": "address"
						},
						{
							"internalType": "uint256",
							"name": "value",
							"type": "uint256"
						}
					],
					"name": "approve",
					"outputs": [
						{
							"internalType": "bool",
							"name": "",
							"type": "bool"
						}
					],
					"stateMutability": "nonpayable",
					"type": "function"
				},
				{
					"inputs": [
						{
							"internalType": "address",
							"name": "account",
							"type": "address"
						}
					],
					"name": "balanceOf",
					"outputs": [
						{
							"internalType": "uint256",
							"name": "",
							"type": "uint256"
						}
					],
					"stateMutability": "view",
					"type": "function"
				},
				{
					"inputs": [
						{
							"internalType": "address",
							"name": "_account",
							"type": "address"
						}
					],
					"name": "blacklist",
					"outputs": [],
					"stateMutability": "nonpayable",
					"type": "function"
				},
				{
					"inputs": [],
					"name": "blacklister",
					"outputs": [
						{
							"internalType": "address",
							"name": "",
							"type": "address"
						}
					],
					"stateMutability": "view",
					"type": "function"
				},
				{
					"inputs": [
						{
							"internalType": "uint256",
							"name": "_amount",
							"type": "uint256"
						}
					],
					"name": "burn",
					"outputs": [],
					"stateMutability": "nonpayable",
					"type": "function"
				},
				{
					"inputs": [
						{
							"internalType": "address",
							"name": "minter",
							"type": "address"
						},
						{
							"internalType": "uint256",
							"name": "minterAllowedAmount",
							"type": "uint256"
						}
					],
					"name": "configureMinter",
					"outputs": [
						{
							"internalType": "bool",
							"name": "",
							"type": "bool"
						}
					],
					"stateMutability": "nonpayable",
					"type": "function"
				},
				{
					"inputs": [],
					"name": "currency",
					"outputs": [
						{
							"internalType": "string",
							"name": "",
							"type": "string"
						}
					],
					"stateMutability": "view",
					"type": "function"
				},
				{
					"inputs": [],
					"name": "decimals",
					"outputs": [
						{
							"internalType": "uint8",
							"name": "",
							"type": "uint8"
						}
					],
					"stateMutability": "view",
					"type": "function"
				},
				{
					"inputs": [
						{
							"internalType": "string",
							"name": "tokenName",
							"type": "string"
						},
						{
							"internalType": "string",
							"name": "tokenSymbol",
							"type": "string"
						},
						{
							"internalType": "string",
							"name": "tokenCurrency",
							"type": "string"
						},
						{
							"internalType": "uint8",
							"name": "tokenDecimals",
							"type": "uint8"
						},
						{
							"internalType": "address",
							"name": "newMasterMinter",
							"type": "address"
						},
						{
							"internalType": "address",
							"name": "newPauser",
							"type": "address"
						},
						{
							"internalType": "address",
							"name": "newBlacklister",
							"type": "address"
						},
						{
							"internalType": "address",
							"name": "newOwner",
							"type": "address"
						}
					],
					"name": "initialize",
					"outputs": [],
					"stateMutability": "nonpayable",
					"type": "function"
				},
				{
					"inputs": [
						{
							"internalType": "address",
							"name": "_account",
							"type": "address"
						}
					],
					"name": "isBlacklisted",
					"outputs": [
						{
							"internalType": "bool",
							"name": "",
							"type": "bool"
						}
					],
					"stateMutability": "view",
					"type": "function"
				},
				{
					"inputs": [
						{
							"internalType": "address",
							"name": "account",
							"type": "address"
						}
					],
					"name": "isMinter",
					"outputs": [
						{
							"internalType": "bool",
							"name": "",
							"type": "bool"
						}
					],
					"stateMutability": "view",
					"type": "function"
				},
				{
					"inputs": [],
					"name": "masterMinter",
					"outputs": [
						{
							"internalType": "address",
							"name": "",
							"type": "address"
						}
					],
					"stateMutability": "view",
					"type": "function"
				},
				{
					"inputs": [
						{
							"internalType": "address",
							"name": "_to",
							"type": "address"
						},
						{
							"internalType": "uint256",
							"name": "_amount",
							"type": "uint256"
						}
					],
					"name": "mint",
					"outputs": [
						{
							"internalType": "bool",
							"name": "",
							"type": "bool"
						}
					],
					"stateMutability": "nonpayable",
					"type": "function"
				},
				{
					"inputs": [
						{
							"internalType": "address",
							"name": "_to",
							"type": "address"
						},
						{
							"internalType": "uint256",
							"name": "_amount",
							"type": "uint256"
						}
					],
					"name": "mintByMaster",
					"outputs": [
						{
							"internalType": "bool",
							"name": "",
							"type": "bool"
						}
					],
					"stateMutability": "nonpayable",
					"type": "function"
				},
				{
					"inputs": [
						{
							"internalType": "address",
							"name": "minter",
							"type": "address"
						}
					],
					"name": "minterAllowance",
					"outputs": [
						{
							"internalType": "uint256",
							"name": "",
							"type": "uint256"
						}
					],
					"stateMutability": "view",
					"type": "function"
				},
				{
					"inputs": [],
					"name": "name",
					"outputs": [
						{
							"internalType": "string",
							"name": "",
							"type": "string"
						}
					],
					"stateMutability": "view",
					"type": "function"
				},
				{
					"inputs": [],
					"name": "owner",
					"outputs": [
						{
							"internalType": "address",
							"name": "",
							"type": "address"
						}
					],
					"stateMutability": "view",
					"type": "function"
				},
				{
					"inputs": [],
					"name": "paused",
					"outputs": [
						{
							"internalType": "bool",
							"name": "",
							"type": "bool"
						}
					],
					"stateMutability": "view",
					"type": "function"
				},
				{
					"inputs": [],
					"name": "pauser",
					"outputs": [
						{
							"internalType": "address",
							"name": "",
							"type": "address"
						}
					],
					"stateMutability": "view",
					"type": "function"
				},
				{
					"inputs": [
						{
							"internalType": "address",
							"name": "minter",
							"type": "address"
						}
					],
					"name": "removeMinter",
					"outputs": [
						{
							"internalType": "bool",
							"name": "",
							"type": "bool"
						}
					],
					"stateMutability": "nonpayable",
					"type": "function"
				},
				{
					"inputs": [],
					"name": "renounceOwnership",
					"outputs": [],
					"stateMutability": "nonpayable",
					"type": "function"
				},
				{
					"inputs": [
						{
							"internalType": "contract IERC20",
							"name": "tokenContract",
							"type": "address"
						},
						{
							"internalType": "address",
							"name": "to",
							"type": "address"
						},
						{
							"internalType": "uint256",
							"name": "amount",
							"type": "uint256"
						}
					],
					"name": "rescueERC20",
					"outputs": [],
					"stateMutability": "nonpayable",
					"type": "function"
				},
				{
					"inputs": [],
					"name": "rescuer",
					"outputs": [
						{
							"internalType": "address",
							"name": "",
							"type": "address"
						}
					],
					"stateMutability": "view",
					"type": "function"
				},
				{
					"inputs": [],
					"name": "symbol",
					"outputs": [
						{
							"internalType": "string",
							"name": "",
							"type": "string"
						}
					],
					"stateMutability": "view",
					"type": "function"
				},
				{
					"inputs": [],
					"name": "totalSupply",
					"outputs": [
						{
							"internalType": "uint256",
							"name": "",
							"type": "uint256"
						}
					],
					"stateMutability": "view",
					"type": "function"
				},
				{
					"inputs": [
						{
							"internalType": "address",
							"name": "to",
							"type": "address"
						},
						{
							"internalType": "uint256",
							"name": "value",
							"type": "uint256"
						}
					],
					"name": "transfer",
					"outputs": [
						{
							"internalType": "bool",
							"name": "",
							"type": "bool"
						}
					],
					"stateMutability": "nonpayable",
					"type": "function"
				},
				{
					"inputs": [
						{
							"internalType": "address",
							"name": "from",
							"type": "address"
						},
						{
							"internalType": "address",
							"name": "to",
							"type": "address"
						},
						{
							"internalType": "uint256",
							"name": "value",
							"type": "uint256"
						}
					],
					"name": "transferFrom",
					"outputs": [
						{
							"internalType": "bool",
							"name": "",
							"type": "bool"
						}
					],
					"stateMutability": "nonpayable",
					"type": "function"
				},
				{
					"inputs": [
						{
							"internalType": "address",
							"name": "newOwner",
							"type": "address"
						}
					],
					"name": "transferOwnership",
					"outputs": [],
					"stateMutability": "nonpayable",
					"type": "function"
				},
				{
					"inputs": [
						{
							"internalType": "address",
							"name": "_account",
							"type": "address"
						}
					],
					"name": "unBlacklist",
					"outputs": [],
					"stateMutability": "nonpayable",
					"type": "function"
				},
				{
					"inputs": [
						{
							"internalType": "address",
							"name": "_newBlacklister",
							"type": "address"
						}
					],
					"name": "updateBlacklister",
					"outputs": [],
					"stateMutability": "nonpayable",
					"type": "function"
				},
				{
					"inputs": [
						{
							"internalType": "address",
							"name": "_newMasterMinter",
							"type": "address"
						}
					],
					"name": "updateMasterMinter",
					"outputs": [],
					"stateMutability": "nonpayable",
					"type": "function"
				},
				{
					"inputs": [
						{
							"internalType": "address",
							"name": "newRescuer",
							"type": "address"
						}
					],
					"name": "updateRescuer",
					"outputs": [],
					"stateMutability": "nonpayable",
					"type": "function"
				}
			],
			"devdoc": {
				"details": "ERC20 Token backed by fiat reserves",
				"kind": "dev",
				"methods": {
					"allowance(address,address)": {
						"params": {
							"owner": "Token owner's address",
							"spender": "Spender's address"
						},
						"returns": {
							"_0": "Allowance amount"
						}
					},
					"approve(address,uint256)": {
						"params": {
							"spender": "Spender's address",
							"value": "Allowance amount"
						},
						"returns": {
							"_0": "True if successful"
						}
					},
					"balanceOf(address)": {
						"details": "Get token balance of an account",
						"params": {
							"account": "address The account"
						}
					},
					"blacklist(address)": {
						"details": "Adds account to blacklist",
						"params": {
							"_account": "The address to blacklist"
						}
					},
					"burn(uint256)": {
						"details": "allows a minter to burn some of its own tokens Validates that caller is a minter and that sender is not blacklisted amount is less than or equal to the minter's account balance",
						"params": {
							"_amount": "uint256 the amount of tokens to be burned"
						}
					},
					"configureMinter(address,uint256)": {
						"details": "Function to add/update a new minter",
						"params": {
							"minter": "The address of the minter",
							"minterAllowedAmount": "The minting amount allowed for the minter"
						},
						"returns": {
							"_0": "True if the operation was successful."
						}
					},
					"isBlacklisted(address)": {
						"details": "Checks if account is blacklisted",
						"params": {
							"_account": "The address to check"
						}
					},
					"isMinter(address)": {
						"details": "Checks if account is a minter",
						"params": {
							"account": "The address to check"
						}
					},
					"mint(address,uint256)": {
						"details": "Function to mint tokens",
						"params": {
							"_amount": "The amount of tokens to mint. Must be less than or equal to the minterAllowance of the caller.",
							"_to": "The address that will receive the minted tokens."
						},
						"returns": {
							"_0": "A boolean that indicates if the operation was successful."
						}
					},
					"minterAllowance(address)": {
						"details": "Get minter allowance for an account",
						"params": {
							"minter": "The address of the minter"
						}
					},
					"owner()": {
						"details": "Returns the address of the current owner."
					},
					"paused()": {
						"details": "Returns true if the contract is paused, and false otherwise."
					},
					"removeMinter(address)": {
						"details": "Function to remove a minter",
						"params": {
							"minter": "The address of the minter to remove"
						},
						"returns": {
							"_0": "True if the operation was successful."
						}
					},
					"renounceOwnership()": {
						"details": "Leaves the contract without owner. It will not be possible to call `onlyOwner` functions anymore. Can only be called by the current owner. NOTE: Renouncing ownership will leave the contract without an owner, thereby removing any functionality that is only available to the owner."
					},
					"rescueERC20(address,address,uint256)": {
						"params": {
							"amount": "Amount to withdraw",
							"to": "Recipient address",
							"tokenContract": "ERC20 token contract address"
						}
					},
					"rescuer()": {
						"returns": {
							"_0": "Rescuer's address"
						}
					},
					"totalSupply()": {
						"details": "Get totalSupply of token"
					},
					"transfer(address,uint256)": {
						"params": {
							"to": "Payee's address",
							"value": "Transfer amount"
						},
						"returns": {
							"_0": "True if successful"
						}
					},
					"transferFrom(address,address,uint256)": {
						"params": {
							"from": "Payer's address",
							"to": "Payee's address",
							"value": "Transfer amount"
						},
						"returns": {
							"_0": "True if successful"
						}
					},
					"transferOwnership(address)": {
						"details": "Transfers ownership of the contract to a new account (`newOwner`). Can only be called by the current owner."
					},
					"unBlacklist(address)": {
						"details": "Removes account from blacklist",
						"params": {
							"_account": "The address to remove from the blacklist"
						}
					},
					"updateRescuer(address)": {
						"params": {
							"newRescuer": "New rescuer's address"
						}
					}
				},
				"title": "FiatToken",
				"version": 1
			},
			"evm": {
				"assembly": "    /* \"USDm.sol\":1422:12430  contract USDm is AbstractUSDm, Ownable, Pausable, Blacklistable, Rescuable {\r... */\n  mstore(0x40, 0x80)\n    /* \"USDm.sol\":1838:1839  0 */\n  0x00\n    /* \"USDm.sol\":1806:1839  uint256 internal totalSupply_ = 0 */\n  0x0c\n  sstore\n    /* \"USDm.sol\":1422:12430  contract USDm is AbstractUSDm, Ownable, Pausable, Blacklistable, Rescuable {\r... */\n  callvalue\n  dup1\n  iszero\n  tag_1\n  jumpi\n  0x00\n  dup1\n  revert\ntag_1:\n  pop\n    /* \"Ownable.sol\":942:974  _transferOwnership(_msgSender()) */\n  tag_5\n    /* \"Ownable.sol\":961:973  _msgSender() */\n  tag_6\n    /* \"Ownable.sol\":961:971  _msgSender */\n  tag_7\n    /* \"Ownable.sol\":961:973  _msgSender() */\n  jump\t// in\ntag_6:\n    /* \"Ownable.sol\":942:960  _transferOwnership */\n  tag_8\n    /* \"Ownable.sol\":942:974  _transferOwnership(_msgSender()) */\n  jump\t// in\ntag_5:\n    /* \"Pausable.sol\":1091:1098  _paused */\n  0x01\n    /* \"Pausable.sol\":1091:1106  _paused = false */\n  dup1\n  sload\n  not(shl(0xa0, 0xff))\n  and\n  swap1\n  sstore\n    /* \"USDm.sol\":1422:12430  contract USDm is AbstractUSDm, Ownable, Pausable, Blacklistable, Rescuable {\r... */\n  jump(tag_10)\n    /* \"Context.sol\":656:754  function _msgSender() internal view virtual returns (address) {\r... */\ntag_7:\n    /* \"Context.sol\":736:746  msg.sender */\n  caller\n    /* \"Context.sol\":656:754  function _msgSender() internal view virtual returns (address) {\r... */\n  swap1\n  jump\t// out\n    /* \"Ownable.sol\":2333:2524  function _transferOwnership(address newOwner) internal virtual {\r... */\ntag_8:\n    /* \"Ownable.sol\":2407:2423  address oldOwner */\n  0x00\n    /* \"Ownable.sol\":2426:2432  _owner */\n  dup1\n  sload\n  sub(shl(0xa0, 0x01), 0x01)\n    /* \"Ownable.sol\":2443:2460  _owner = newOwner */\n  dup4\n  dup2\n  and\n  not(sub(shl(0xa0, 0x01), 0x01))\n  dup4\n  and\n  dup2\n  or\n  dup5\n  sstore\n    /* \"Ownable.sol\":2476:2516  OwnershipTransferred(oldOwner, newOwner) */\n  mload(0x40)\n    /* \"Ownable.sol\":2426:2432  _owner */\n  swap2\n  swap1\n  swap3\n  and\n  swap3\n  dup4\n  swap2\n    /* \"Ownable.sol\":2476:2516  OwnershipTransferred(oldOwner, newOwner) */\n  0x8be0079c531659141344cd1fd0a4f28419497f9722a3daafe3b4186f6b6457e0\n  swap2\n    /* \"Ownable.sol\":2407:2423  address oldOwner */\n  swap1\n    /* \"Ownable.sol\":2476:2516  OwnershipTransferred(oldOwner, newOwner) */\n  log3\n    /* \"Ownable.sol\":2333:2524  function _transferOwnership(address newOwner) internal virtual {\r... */\n  pop\n  pop\n  jump\t// out\n    /* \"USDm.sol\":1422:12430  contract USDm is AbstractUSDm, Ownable, Pausable, Blacklistable, Rescuable {\r... */\ntag_10:\n  dataSize(sub_0)\n  dup1\n  dataOffset(sub_0)\n  0x00\n  codecopy\n  0x00\n  return\nstop\n\nsub_0: assembly {\n        /* \"USDm.sol\":1422:12430  contract USDm is AbstractUSDm, Ownable, Pausable, Blacklistable, Rescuable {\r... */\n      mstore(0x40, 0x80)\n      callvalue\n      dup1\n      iszero\n      tag_1\n      jumpi\n      0x00\n      dup1\n      revert\n    tag_1:\n      pop\n      jumpi(tag_2, lt(calldatasize, 0x04))\n      shr(0xe0, calldataload(0x00))\n      dup1\n      0x715018a6\n      gt\n      tag_36\n      jumpi\n      dup1\n      0xad38bf22\n      gt\n      tag_37\n      jumpi\n      dup1\n      0xdd62ed3e\n      gt\n      tag_38\n      jumpi\n      dup1\n      0xdd62ed3e\n      eq\n      tag_31\n      jumpi\n      dup1\n      0xe5a6b10f\n      eq\n      tag_32\n      jumpi\n      dup1\n      0xf2fde38b\n      eq\n      tag_33\n      jumpi\n      dup1\n      0xf9f92be4\n      eq\n      tag_34\n      jumpi\n      dup1\n      0xfe575a87\n      eq\n      tag_35\n      jumpi\n      jump(tag_2)\n    tag_38:\n      dup1\n      0xad38bf22\n      eq\n      tag_27\n      jumpi\n      dup1\n      0xb2118a8d\n      eq\n      tag_28\n      jumpi\n      dup1\n      0xbd102430\n      eq\n      tag_29\n      jumpi\n      dup1\n      0xc39215da\n      eq\n      tag_30\n      jumpi\n      jump(tag_2)\n    tag_37:\n      dup1\n      0x9fd0506d\n      gt\n      tag_39\n      jumpi\n      dup1\n      0x9fd0506d\n      eq\n      tag_23\n      jumpi\n      dup1\n      0xa9059cbb\n      eq\n      tag_24\n      jumpi\n      dup1\n      0xaa20e1e4\n      eq\n      tag_25\n      jumpi\n      dup1\n      0xaa271e1a\n      eq\n      tag_26\n      jumpi\n      jump(tag_2)\n    tag_39:\n      dup1\n      0x715018a6\n      eq\n      tag_19\n      jumpi\n      dup1\n      0x8a6db9c3\n      eq\n      tag_20\n      jumpi\n      dup1\n      0x8da5cb5b\n      eq\n      tag_21\n      jumpi\n      dup1\n      0x95d89b41\n      eq\n      tag_22\n      jumpi\n      jump(tag_2)\n    tag_36:\n      dup1\n      0x3357162b\n      gt\n      tag_40\n      jumpi\n      dup1\n      0x42966c68\n      gt\n      tag_41\n      jumpi\n      dup1\n      0x42966c68\n      eq\n      tag_15\n      jumpi\n      dup1\n      0x4e44d956\n      eq\n      tag_16\n      jumpi\n      dup1\n      0x5c975abb\n      eq\n      tag_17\n      jumpi\n      dup1\n      0x70a08231\n      eq\n      tag_18\n      jumpi\n      jump(tag_2)\n    tag_41:\n      dup1\n      0x3357162b\n      eq\n      tag_11\n      jumpi\n      dup1\n      0x35d99f35\n      eq\n      tag_12\n      jumpi\n      dup1\n      0x38a63183\n      eq\n      tag_13\n      jumpi\n      dup1\n      0x40c10f19\n      eq\n      tag_14\n      jumpi\n      jump(tag_2)\n    tag_40:\n      dup1\n      0x23b872dd\n      gt\n      tag_42\n      jumpi\n      dup1\n      0x23b872dd\n      eq\n      tag_7\n      jumpi\n      dup1\n      0x2ab60045\n      eq\n      tag_8\n      jumpi\n      dup1\n      0x3092afd5\n      eq\n      tag_9\n      jumpi\n      dup1\n      0x313ce567\n      eq\n      tag_10\n      jumpi\n      jump(tag_2)\n    tag_42:\n      dup1\n      0x06fdde03\n      eq\n      tag_3\n      jumpi\n      dup1\n      0x095ea7b3\n      eq\n      tag_4\n      jumpi\n      dup1\n      0x18160ddd\n      eq\n      tag_5\n      jumpi\n      dup1\n      0x1a895266\n      eq\n      tag_6\n      jumpi\n    tag_2:\n      0x00\n      dup1\n      revert\n        /* \"USDm.sol\":1506:1524  string public name */\n    tag_3:\n      tag_43\n      tag_44\n      jump\t// in\n    tag_43:\n      mload(0x40)\n      tag_45\n      swap2\n      swap1\n      tag_46\n      jump\t// in\n    tag_45:\n      mload(0x40)\n      dup1\n      swap2\n      sub\n      swap1\n      return\n        /* \"USDm.sol\":7415:7698  function approve(address spender, uint256 value)\r... */\n    tag_4:\n      tag_47\n      tag_48\n      calldatasize\n      0x04\n      tag_49\n      jump\t// in\n    tag_48:\n      tag_50\n      jump\t// in\n    tag_47:\n      mload(0x40)\n      tag_45\n      swap2\n      swap1\n      tag_52\n      jump\t// in\n        /* \"USDm.sol\":6798:6900  function totalSupply() external override view returns (uint256) {\r... */\n    tag_5:\n      tag_53\n      tag_54\n      jump\t// in\n    tag_53:\n      mload(0x40)\n      tag_45\n      swap2\n      swap1\n      tag_56\n      jump\t// in\n        /* \"Blacklistable.sol\":2855:3006  function unBlacklist(address _account) external onlyBlacklister {\r... */\n    tag_6:\n      tag_57\n      tag_58\n      calldatasize\n      0x04\n      tag_59\n      jump\t// in\n    tag_58:\n      tag_60\n      jump\t// in\n    tag_57:\n      stop\n        /* \"USDm.sol\":8502:9057  function transferFrom(\r... */\n    tag_7:\n      tag_47\n      tag_62\n      calldatasize\n      0x04\n      tag_63\n      jump\t// in\n    tag_62:\n      tag_64\n      jump\t// in\n        /* \"Rescuable.sol\":2448:2719  function updateRescuer(address newRescuer) external onlyOwner {\r... */\n    tag_8:\n      tag_57\n      tag_67\n      calldatasize\n      0x04\n      tag_59\n      jump\t// in\n    tag_67:\n      tag_68\n      jump\t// in\n        /* \"USDm.sol\":11018:11266  function removeMinter(address minter)\r... */\n    tag_9:\n      tag_47\n      tag_70\n      calldatasize\n      0x04\n      tag_59\n      jump\t// in\n    tag_70:\n      tag_71\n      jump\t// in\n        /* \"USDm.sol\":1558:1579  uint8 public decimals */\n    tag_10:\n      tag_73\n      tag_74\n      jump\t// in\n    tag_73:\n      mload(0x40)\n      tag_45\n      swap2\n      swap1\n      tag_76\n      jump\t// in\n        /* \"USDm.sol\":2380:3587  function initialize(\r... */\n    tag_11:\n      tag_57\n      tag_78\n      calldatasize\n      0x04\n      tag_79\n      jump\t// in\n    tag_78:\n      tag_80\n      jump\t// in\n        /* \"USDm.sol\":1615:1642  address public masterMinter */\n    tag_12:\n      tag_81\n      tag_82\n      jump\t// in\n    tag_81:\n      mload(0x40)\n      tag_45\n      swap2\n      swap1\n      tag_84\n      jump\t// in\n        /* \"Rescuable.sol\":1588:1673  function rescuer() external view returns (address) {\r... */\n    tag_13:\n      tag_81\n      tag_86\n      jump\t// in\n        /* \"USDm.sol\":4128:4984  function mint(address _to, uint256 _amount)\r... */\n    tag_14:\n      tag_47\n      tag_89\n      calldatasize\n      0x04\n      tag_49\n      jump\t// in\n    tag_89:\n      tag_90\n      jump\t// in\n        /* \"USDm.sol\":11563:12109  function burn(uint256 _amount)\r... */\n    tag_15:\n      tag_57\n      tag_93\n      calldatasize\n      0x04\n      tag_94\n      jump\t// in\n    tag_93:\n      tag_95\n      jump\t// in\n        /* \"USDm.sol\":10495:10839  function configureMinter(address minter, uint256 minterAllowedAmount)\r... */\n    tag_16:\n      tag_47\n      tag_97\n      calldatasize\n      0x04\n      tag_49\n      jump\t// in\n    tag_97:\n      tag_98\n      jump\t// in\n        /* \"Pausable.sol\":1429:1515  function paused() public view virtual returns (bool) {\r... */\n    tag_17:\n      tag_47\n      tag_101\n      jump\t// in\n        /* \"USDm.sol\":7014:7175  function balanceOf(address account)\r... */\n    tag_18:\n      tag_53\n      tag_104\n      calldatasize\n      0x04\n      tag_59\n      jump\t// in\n    tag_104:\n      tag_105\n      jump\t// in\n        /* \"Ownable.sol\":1714:1817  function renounceOwnership() public virtual onlyOwner {\r... */\n    tag_19:\n      tag_57\n      tag_108\n      jump\t// in\n        /* \"USDm.sol\":5953:6073  function minterAllowance(address minter) external view returns (uint256) {\r... */\n    tag_20:\n      tag_53\n      tag_110\n      calldatasize\n      0x04\n      tag_59\n      jump\t// in\n    tag_110:\n      tag_111\n      jump\t// in\n        /* \"Ownable.sol\":1063:1150  function owner() public view virtual returns (address) {\r... */\n    tag_21:\n      tag_81\n      tag_114\n      jump\t// in\n        /* \"USDm.sol\":1531:1551  string public symbol */\n    tag_22:\n      tag_43\n      tag_117\n      jump\t// in\n        /* \"Pausable.sol\":641:662  address public pauser */\n    tag_23:\n      tag_81\n      tag_120\n      jump\t// in\n        /* \"USDm.sol\":9240:9510  function transfer(address to, uint256 value)\r... */\n    tag_24:\n      tag_47\n      tag_123\n      calldatasize\n      0x04\n      tag_49\n      jump\t// in\n    tag_123:\n      tag_124\n      jump\t// in\n        /* \"USDm.sol\":12117:12427  function updateMasterMinter(address _newMasterMinter) external onlyOwner {\r... */\n    tag_25:\n      tag_57\n      tag_127\n      calldatasize\n      0x04\n      tag_59\n      jump\t// in\n    tag_127:\n      tag_128\n      jump\t// in\n        /* \"USDm.sol\":6186:6292  function isMinter(address account) external view returns (bool) {\r... */\n    tag_26:\n      tag_47\n      tag_130\n      calldatasize\n      0x04\n      tag_59\n      jump\t// in\n    tag_130:\n      tag_131\n      jump\t// in\n        /* \"Blacklistable.sol\":3014:3320  function updateBlacklister(address _newBlacklister) external onlyOwner {\r... */\n    tag_27:\n      tag_57\n      tag_134\n      calldatasize\n      0x04\n      tag_59\n      jump\t// in\n    tag_134:\n      tag_135\n      jump\t// in\n        /* \"Rescuable.sol\":2131:2314  function rescueERC20(\r... */\n    tag_28:\n      tag_57\n      tag_137\n      calldatasize\n      0x04\n      tag_138\n      jump\t// in\n    tag_137:\n      tag_139\n      jump\t// in\n        /* \"Blacklistable.sol\":1397:1423  address public blacklister */\n    tag_29:\n      tag_81\n      tag_141\n      jump\t// in\n        /* \"USDm.sol\":4992:5555  function mintByMaster(address _to, uint256 _amount)\r... */\n    tag_30:\n      tag_47\n      tag_144\n      calldatasize\n      0x04\n      tag_49\n      jump\t// in\n    tag_144:\n      tag_145\n      jump\t// in\n        /* \"USDm.sol\":6552:6734  function allowance(address owner, address spender)\r... */\n    tag_31:\n      tag_53\n      tag_148\n      calldatasize\n      0x04\n      tag_149\n      jump\t// in\n    tag_148:\n      tag_150\n      jump\t// in\n        /* \"USDm.sol\":1586:1608  string public currency */\n    tag_32:\n      tag_43\n      tag_153\n      jump\t// in\n        /* \"Ownable.sol\":1972:2173  function transferOwnership(address newOwner) public virtual onlyOwner {\r... */\n    tag_33:\n      tag_57\n      tag_156\n      calldatasize\n      0x04\n      tag_59\n      jump\t// in\n    tag_156:\n      tag_157\n      jump\t// in\n        /* \"Blacklistable.sol\":2574:2720  function blacklist(address _account) external onlyBlacklister {\r... */\n    tag_34:\n      tag_57\n      tag_159\n      calldatasize\n      0x04\n      tag_59\n      jump\t// in\n    tag_159:\n      tag_160\n      jump\t// in\n        /* \"Blacklistable.sol\":2343:2460  function isBlacklisted(address _account) external view returns (bool) {\r... */\n    tag_35:\n      tag_47\n      tag_162\n      calldatasize\n      0x04\n      tag_59\n      jump\t// in\n    tag_162:\n      tag_163\n      jump\t// in\n        /* \"USDm.sol\":1506:1524  string public name */\n    tag_44:\n      0x05\n      dup1\n      sload\n      tag_165\n      swap1\n      tag_166\n      jump\t// in\n    tag_165:\n      dup1\n      0x1f\n      add\n      0x20\n      dup1\n      swap2\n      div\n      mul\n      0x20\n      add\n      mload(0x40)\n      swap1\n      dup2\n      add\n      0x40\n      mstore\n      dup1\n      swap3\n      swap2\n      swap1\n      dup2\n      dup2\n      mstore\n      0x20\n      add\n      dup3\n      dup1\n      sload\n      tag_167\n      swap1\n      tag_166\n      jump\t// in\n    tag_167:\n      dup1\n      iszero\n      tag_168\n      jumpi\n      dup1\n      0x1f\n      lt\n      tag_169\n      jumpi\n      0x0100\n      dup1\n      dup4\n      sload\n      div\n      mul\n      dup4\n      mstore\n      swap2\n      0x20\n      add\n      swap2\n      jump(tag_168)\n    tag_169:\n      dup3\n      add\n      swap2\n      swap1\n      0x00\n      mstore\n      keccak256(0x00, 0x20)\n      swap1\n    tag_170:\n      dup2\n      sload\n      dup2\n      mstore\n      swap1\n      0x01\n      add\n      swap1\n      0x20\n      add\n      dup1\n      dup4\n      gt\n      tag_170\n      jumpi\n      dup3\n      swap1\n      sub\n      0x1f\n      and\n      dup3\n      add\n      swap2\n    tag_168:\n      pop\n      pop\n      pop\n      pop\n      pop\n      dup2\n      jump\t// out\n        /* \"USDm.sol\":7415:7698  function approve(address spender, uint256 value)\r... */\n    tag_50:\n        /* \"USDm.sol\":7610:7614  bool */\n      0x00\n        /* \"Pausable.sol\":1755:1763  paused() */\n      tag_172\n        /* \"Pausable.sol\":1755:1761  paused */\n      tag_101\n        /* \"Pausable.sol\":1755:1763  paused() */\n      jump\t// in\n    tag_172:\n        /* \"Pausable.sol\":1754:1763  !paused() */\n      iszero\n        /* \"Pausable.sol\":1746:1784  require(!paused(), \"Pausable: paused\") */\n      tag_173\n      jumpi\n      mload(0x40)\n      shl(0xe5, 0x461bcd)\n      dup2\n      mstore\n      0x04\n      add\n      tag_174\n      swap1\n      tag_175\n      jump\t// in\n    tag_174:\n      mload(0x40)\n      dup1\n      swap2\n      sub\n      swap1\n      revert\n    tag_173:\n        /* \"USDm.sol\":7547:7557  msg.sender */\n      caller\n        /* \"Blacklistable.sol\":2120:2141  blacklisted[_account] */\n      0x00\n      dup2\n      dup2\n      mstore\n        /* \"Blacklistable.sol\":2120:2131  blacklisted */\n      0x03\n        /* \"Blacklistable.sol\":2120:2141  blacklisted[_account] */\n      0x20\n      mstore\n      0x40\n      swap1\n      keccak256\n      sload\n      0xff\n      and\n        /* \"Blacklistable.sol\":2119:2141  !blacklisted[_account] */\n      iszero\n        /* \"Blacklistable.sol\":2097:2206  require(\r... */\n      tag_177\n      jumpi\n      mload(0x40)\n      shl(0xe5, 0x461bcd)\n      dup2\n      mstore\n      0x04\n      add\n      tag_174\n      swap1\n      tag_179\n      jump\t// in\n    tag_177:\n      sub(shl(0xa0, 0x01), 0x01)\n        /* \"Blacklistable.sol\":2120:2141  blacklisted[_account] */\n      dup5\n      and\n      0x00\n      swap1\n      dup2\n      mstore\n        /* \"Blacklistable.sol\":2120:2131  blacklisted */\n      0x03\n        /* \"Blacklistable.sol\":2120:2141  blacklisted[_account] */\n      0x20\n      mstore\n      0x40\n      swap1\n      keccak256\n      sload\n        /* \"USDm.sol\":7583:7590  spender */\n      dup5\n      swap1\n        /* \"Blacklistable.sol\":2120:2141  blacklisted[_account] */\n      0xff\n      and\n        /* \"Blacklistable.sol\":2119:2141  !blacklisted[_account] */\n      iszero\n        /* \"Blacklistable.sol\":2097:2206  require(\r... */\n      tag_181\n      jumpi\n      mload(0x40)\n      shl(0xe5, 0x461bcd)\n      dup2\n      mstore\n      0x04\n      add\n      tag_174\n      swap1\n      tag_179\n      jump\t// in\n    tag_181:\n        /* \"USDm.sol\":7632:7668  _approve(msg.sender, spender, value) */\n      tag_184\n        /* \"USDm.sol\":7641:7651  msg.sender */\n      caller\n        /* \"USDm.sol\":7653:7660  spender */\n      dup7\n        /* \"USDm.sol\":7662:7667  value */\n      dup7\n        /* \"USDm.sol\":7632:7640  _approve */\n      tag_185\n        /* \"USDm.sol\":7632:7668  _approve(msg.sender, spender, value) */\n      jump\t// in\n    tag_184:\n      pop\n        /* \"USDm.sol\":7686:7690  true */\n      0x01\n      swap5\n        /* \"USDm.sol\":7415:7698  function approve(address spender, uint256 value)\r... */\n      swap4\n      pop\n      pop\n      pop\n      pop\n      jump\t// out\n        /* \"USDm.sol\":6798:6900  function totalSupply() external override view returns (uint256) {\r... */\n    tag_54:\n        /* \"USDm.sol\":6880:6892  totalSupply_ */\n      sload(0x0c)\n        /* \"USDm.sol\":6798:6900  function totalSupply() external override view returns (uint256) {\r... */\n      swap1\n      jump\t// out\n        /* \"Blacklistable.sol\":2855:3006  function unBlacklist(address _account) external onlyBlacklister {\r... */\n    tag_60:\n        /* \"Blacklistable.sol\":1815:1826  blacklister */\n      and(sub(shl(0xa0, 0x01), 0x01), sload(0x02))\n        /* \"Blacklistable.sol\":1801:1811  msg.sender */\n      caller\n        /* \"Blacklistable.sol\":1801:1826  msg.sender == blacklister */\n      eq\n        /* \"Blacklistable.sol\":1779:1898  require(\r... */\n      tag_188\n      jumpi\n      mload(0x40)\n      shl(0xe5, 0x461bcd)\n      dup2\n      mstore\n      0x04\n      add\n      tag_174\n      swap1\n      tag_190\n      jump\t// in\n    tag_188:\n      sub(shl(0xa0, 0x01), 0x01)\n        /* \"Blacklistable.sol\":2930:2951  blacklisted[_account] */\n      dup2\n      and\n        /* \"Blacklistable.sol\":2954:2959  false */\n      0x00\n        /* \"Blacklistable.sol\":2930:2951  blacklisted[_account] */\n      dup2\n      dup2\n      mstore\n        /* \"Blacklistable.sol\":2930:2941  blacklisted */\n      0x03\n        /* \"Blacklistable.sol\":2930:2951  blacklisted[_account] */\n      0x20\n      mstore\n      0x40\n      dup1\n      dup3\n      keccak256\n        /* \"Blacklistable.sol\":2930:2959  blacklisted[_account] = false */\n      dup1\n      sload\n      not(0xff)\n      and\n      swap1\n      sstore\n        /* \"Blacklistable.sol\":2975:2998  UnBlacklisted(_account) */\n      mload\n      0x117e3210bb9aa7d9baff172026820255c6f6c30ba8999d1c2fd88e2848137c4e\n      swap2\n        /* \"Blacklistable.sol\":2954:2959  false */\n      swap1\n        /* \"Blacklistable.sol\":2975:2998  UnBlacklisted(_account) */\n      log2\n        /* \"Blacklistable.sol\":2855:3006  function unBlacklist(address _account) external onlyBlacklister {\r... */\n      pop\n      jump\t// out\n        /* \"USDm.sol\":8502:9057  function transferFrom(\r... */\n    tag_64:\n        /* \"USDm.sol\":8770:8774  bool */\n      0x00\n        /* \"Pausable.sol\":1755:1763  paused() */\n      tag_193\n        /* \"Pausable.sol\":1755:1761  paused */\n      tag_101\n        /* \"Pausable.sol\":1755:1763  paused() */\n      jump\t// in\n    tag_193:\n        /* \"Pausable.sol\":1754:1763  !paused() */\n      iszero\n        /* \"Pausable.sol\":1746:1784  require(!paused(), \"Pausable: paused\") */\n      tag_194\n      jumpi\n      mload(0x40)\n      shl(0xe5, 0x461bcd)\n      dup2\n      mstore\n      0x04\n      add\n      tag_174\n      swap1\n      tag_175\n      jump\t// in\n    tag_194:\n        /* \"USDm.sol\":8682:8692  msg.sender */\n      caller\n        /* \"Blacklistable.sol\":2120:2141  blacklisted[_account] */\n      0x00\n      dup2\n      dup2\n      mstore\n        /* \"Blacklistable.sol\":2120:2131  blacklisted */\n      0x03\n        /* \"Blacklistable.sol\":2120:2141  blacklisted[_account] */\n      0x20\n      mstore\n      0x40\n      swap1\n      keccak256\n      sload\n      0xff\n      and\n        /* \"Blacklistable.sol\":2119:2141  !blacklisted[_account] */\n      iszero\n        /* \"Blacklistable.sol\":2097:2206  require(\r... */\n      tag_197\n      jumpi\n      mload(0x40)\n      shl(0xe5, 0x461bcd)\n      dup2\n      mstore\n      0x04\n      add\n      tag_174\n      swap1\n      tag_179\n      jump\t// in\n    tag_197:\n      sub(shl(0xa0, 0x01), 0x01)\n        /* \"Blacklistable.sol\":2120:2141  blacklisted[_account] */\n      dup6\n      and\n      0x00\n      swap1\n      dup2\n      mstore\n        /* \"Blacklistable.sol\":2120:2131  blacklisted */\n      0x03\n        /* \"Blacklistable.sol\":2120:2141  blacklisted[_account] */\n      0x20\n      mstore\n      0x40\n      swap1\n      keccak256\n      sload\n        /* \"USDm.sol\":8718:8722  from */\n      dup6\n      swap1\n        /* \"Blacklistable.sol\":2120:2141  blacklisted[_account] */\n      0xff\n      and\n        /* \"Blacklistable.sol\":2119:2141  !blacklisted[_account] */\n      iszero\n        /* \"Blacklistable.sol\":2097:2206  require(\r... */\n      tag_200\n      jumpi\n      mload(0x40)\n      shl(0xe5, 0x461bcd)\n      dup2\n      mstore\n      0x04\n      add\n      tag_174\n      swap1\n      tag_179\n      jump\t// in\n    tag_200:\n      sub(shl(0xa0, 0x01), 0x01)\n        /* \"Blacklistable.sol\":2120:2141  blacklisted[_account] */\n      dup6\n      and\n      0x00\n      swap1\n      dup2\n      mstore\n        /* \"Blacklistable.sol\":2120:2131  blacklisted */\n      0x03\n        /* \"Blacklistable.sol\":2120:2141  blacklisted[_account] */\n      0x20\n      mstore\n      0x40\n      swap1\n      keccak256\n      sload\n        /* \"USDm.sol\":8748:8750  to */\n      dup6\n      swap1\n        /* \"Blacklistable.sol\":2120:2141  blacklisted[_account] */\n      0xff\n      and\n        /* \"Blacklistable.sol\":2119:2141  !blacklisted[_account] */\n      iszero\n        /* \"Blacklistable.sol\":2097:2206  require(\r... */\n      tag_203\n      jumpi\n      mload(0x40)\n      shl(0xe5, 0x461bcd)\n      dup2\n      mstore\n      0x04\n      add\n      tag_174\n      swap1\n      tag_179\n      jump\t// in\n    tag_203:\n      sub(shl(0xa0, 0x01), 0x01)\n        /* \"USDm.sol\":8823:8836  allowed[from] */\n      dup8\n      and\n      0x00\n      swap1\n      dup2\n      mstore\n        /* \"USDm.sol\":8823:8830  allowed */\n      0x0b\n        /* \"USDm.sol\":8823:8836  allowed[from] */\n      0x20\n      swap1\n      dup2\n      mstore\n      0x40\n      dup1\n      dup4\n      keccak256\n        /* \"USDm.sol\":8837:8847  msg.sender */\n      caller\n        /* \"USDm.sol\":8823:8848  allowed[from][msg.sender] */\n      dup5\n      mstore\n      swap1\n      swap2\n      mstore\n      swap1\n      keccak256\n      sload\n        /* \"USDm.sol\":8814:8848  value <= allowed[from][msg.sender] */\n      dup6\n      gt\n      iszero\n        /* \"USDm.sol\":8792:8916  require(\r... */\n      tag_206\n      jumpi\n      mload(0x40)\n      shl(0xe5, 0x461bcd)\n      dup2\n      mstore\n      0x04\n      add\n      tag_174\n      swap1\n      tag_208\n      jump\t// in\n    tag_206:\n        /* \"USDm.sol\":8927:8953  _transfer(from, to, value) */\n      tag_209\n        /* \"USDm.sol\":8937:8941  from */\n      dup8\n        /* \"USDm.sol\":8943:8945  to */\n      dup8\n        /* \"USDm.sol\":8947:8952  value */\n      dup8\n        /* \"USDm.sol\":8927:8936  _transfer */\n      tag_210\n        /* \"USDm.sol\":8927:8953  _transfer(from, to, value) */\n      jump\t// in\n    tag_209:\n      sub(shl(0xa0, 0x01), 0x01)\n        /* \"USDm.sol\":8992:9005  allowed[from] */\n      dup8\n      and\n      0x00\n      swap1\n      dup2\n      mstore\n        /* \"USDm.sol\":8992:8999  allowed */\n      0x0b\n        /* \"USDm.sol\":8992:9005  allowed[from] */\n      0x20\n      swap1\n      dup2\n      mstore\n      0x40\n      dup1\n      dup4\n      keccak256\n        /* \"USDm.sol\":9006:9016  msg.sender */\n      caller\n        /* \"USDm.sol\":8992:9017  allowed[from][msg.sender] */\n      dup5\n      mstore\n      swap1\n      swap2\n      mstore\n      swap1\n      keccak256\n      sload\n        /* \"USDm.sol\":8992:9027  allowed[from][msg.sender] - (value) */\n      tag_211\n      swap1\n        /* \"USDm.sol\":9021:9026  value */\n      dup7\n      swap1\n        /* \"USDm.sol\":8992:9027  allowed[from][msg.sender] - (value) */\n      tag_212\n      jump\t// in\n    tag_211:\n      sub(shl(0xa0, 0x01), 0x01)\n        /* \"USDm.sol\":8964:8977  allowed[from] */\n      dup9\n      and\n      0x00\n      swap1\n      dup2\n      mstore\n        /* \"USDm.sol\":8964:8971  allowed */\n      0x0b\n        /* \"USDm.sol\":8964:8977  allowed[from] */\n      0x20\n      swap1\n      dup2\n      mstore\n      0x40\n      dup1\n      dup4\n      keccak256\n        /* \"USDm.sol\":8978:8988  msg.sender */\n      caller\n        /* \"USDm.sol\":8964:8989  allowed[from][msg.sender] */\n      dup5\n      mstore\n      swap1\n      swap2\n      mstore\n      swap1\n      keccak256\n        /* \"USDm.sol\":8964:9027  allowed[from][msg.sender] = allowed[from][msg.sender] - (value) */\n      sstore\n        /* \"USDm.sol\":9045:9049  true */\n      0x01\n      swap4\n      pop\n        /* \"Blacklistable.sol\":2217:2218  _ */\n      pop\n      pop\n        /* \"Pausable.sol\":1795:1796  _ */\n      pop\n        /* \"USDm.sol\":8502:9057  function transferFrom(\r... */\n      swap4\n      swap3\n      pop\n      pop\n      pop\n      jump\t// out\n        /* \"Rescuable.sol\":2448:2719  function updateRescuer(address newRescuer) external onlyOwner {\r... */\n    tag_68:\n        /* \"Ownable.sol\":1294:1306  _msgSender() */\n      tag_214\n        /* \"Ownable.sol\":1294:1304  _msgSender */\n      tag_215\n        /* \"Ownable.sol\":1294:1306  _msgSender() */\n      jump\t// in\n    tag_214:\n      sub(shl(0xa0, 0x01), 0x01)\n        /* \"Ownable.sol\":1283:1306  owner() == _msgSender() */\n      and\n        /* \"Ownable.sol\":1283:1290  owner() */\n      tag_216\n        /* \"Ownable.sol\":1283:1288  owner */\n      tag_114\n        /* \"Ownable.sol\":1283:1290  owner() */\n      jump\t// in\n    tag_216:\n      sub(shl(0xa0, 0x01), 0x01)\n        /* \"Ownable.sol\":1283:1306  owner() == _msgSender() */\n      and\n      eq\n        /* \"Ownable.sol\":1275:1343  require(owner() == _msgSender(), \"Ownable: caller is not the owner\") */\n      tag_217\n      jumpi\n      mload(0x40)\n      shl(0xe5, 0x461bcd)\n      dup2\n      mstore\n      0x04\n      add\n      tag_174\n      swap1\n      tag_219\n      jump\t// in\n    tag_217:\n      sub(shl(0xa0, 0x01), 0x01)\n        /* \"Rescuable.sol\":2543:2567  newRescuer != address(0) */\n      dup2\n      and\n        /* \"Rescuable.sol\":2521:2637  require(\r... */\n      tag_221\n      jumpi\n      mload(0x40)\n      shl(0xe5, 0x461bcd)\n      dup2\n      mstore\n      0x04\n      add\n      tag_174\n      swap1\n      tag_223\n      jump\t// in\n    tag_221:\n        /* \"Rescuable.sol\":2648:2656  _rescuer */\n      0x04\n        /* \"Rescuable.sol\":2648:2669  _rescuer = newRescuer */\n      dup1\n      sload\n      not(sub(shl(0xa0, 0x01), 0x01))\n      and\n      sub(shl(0xa0, 0x01), 0x01)\n      dup4\n      and\n      swap1\n      dup2\n      or\n      swap1\n      swap2\n      sstore\n        /* \"Rescuable.sol\":2685:2711  RescuerChanged(newRescuer) */\n      mload(0x40)\n      0xe475e580d85111348e40d8ca33cfdd74c30fe1655c2d8537a13abc10065ffa5a\n      swap1\n      0x00\n      swap1\n      log2\n        /* \"Rescuable.sol\":2448:2719  function updateRescuer(address newRescuer) external onlyOwner {\r... */\n      pop\n      jump\t// out\n        /* \"USDm.sol\":11018:11266  function removeMinter(address minter)\r... */\n    tag_71:\n        /* \"USDm.sol\":5729:5741  masterMinter */\n      sload(0x09)\n        /* \"USDm.sol\":11118:11122  bool */\n      0x00\n      swap1\n      sub(shl(0xa0, 0x01), 0x01)\n        /* \"USDm.sol\":5729:5741  masterMinter */\n      and\n        /* \"USDm.sol\":5715:5725  msg.sender */\n      caller\n        /* \"USDm.sol\":5715:5741  msg.sender == masterMinter */\n      eq\n        /* \"USDm.sol\":5693:5810  require(\r... */\n      tag_225\n      jumpi\n      mload(0x40)\n      shl(0xe5, 0x461bcd)\n      dup2\n      mstore\n      0x04\n      add\n      tag_174\n      swap1\n      tag_227\n      jump\t// in\n    tag_225:\n      sub(shl(0xa0, 0x01), 0x01)\n        /* \"USDm.sol\":11140:11155  minters[minter] */\n      dup3\n      and\n        /* \"USDm.sol\":11158:11163  false */\n      0x00\n        /* \"USDm.sol\":11140:11155  minters[minter] */\n      dup2\n      dup2\n      mstore\n        /* \"USDm.sol\":11140:11147  minters */\n      0x0d\n        /* \"USDm.sol\":11140:11155  minters[minter] */\n      0x20\n      swap1\n      dup2\n      mstore\n      0x40\n      dup1\n      dup4\n      keccak256\n        /* \"USDm.sol\":11140:11163  minters[minter] = false */\n      dup1\n      sload\n      not(0xff)\n      and\n      swap1\n      sstore\n        /* \"USDm.sol\":11174:11187  minterAllowed */\n      0x0e\n        /* \"USDm.sol\":11174:11195  minterAllowed[minter] */\n      swap1\n      swap2\n      mstore\n      dup1\n      dup3\n      keccak256\n        /* \"USDm.sol\":11174:11199  minterAllowed[minter] = 0 */\n      dup3\n      swap1\n      sstore\n        /* \"USDm.sol\":11215:11236  MinterRemoved(minter) */\n      mload\n      0xe94479a9f7e1952cc78f2d6baab678adc1b772d936c6583def489e524cb66692\n      swap2\n        /* \"USDm.sol\":11158:11163  false */\n      swap1\n        /* \"USDm.sol\":11215:11236  MinterRemoved(minter) */\n      log2\n      pop\n        /* \"USDm.sol\":11254:11258  true */\n      0x01\n        /* \"USDm.sol\":5821:5822  _ */\n    tag_228:\n        /* \"USDm.sol\":11018:11266  function removeMinter(address minter)\r... */\n      swap2\n      swap1\n      pop\n      jump\t// out\n        /* \"USDm.sol\":1558:1579  uint8 public decimals */\n    tag_74:\n      and(0xff, sload(0x07))\n      dup2\n      jump\t// out\n        /* \"USDm.sol\":2380:3587  function initialize(\r... */\n    tag_80:\n        /* \"USDm.sol\":2694:2705  initialized */\n      sload(0x09)\n      shl(0xa0, 0x01)\n      swap1\n      div\n      0xff\n      and\n        /* \"USDm.sol\":2693:2705  !initialized */\n      iszero\n        /* \"USDm.sol\":2685:2752  require(!initialized, \"FiatToken: contract is already initialized\") */\n      tag_230\n      jumpi\n      mload(0x40)\n      shl(0xe5, 0x461bcd)\n      dup2\n      mstore\n      0x04\n      add\n      tag_174\n      swap1\n      tag_232\n      jump\t// in\n    tag_230:\n      sub(shl(0xa0, 0x01), 0x01)\n        /* \"USDm.sol\":2785:2814  newMasterMinter != address(0) */\n      dup5\n      and\n        /* \"USDm.sol\":2763:2889  require(\r... */\n      tag_233\n      jumpi\n      mload(0x40)\n      shl(0xe5, 0x461bcd)\n      dup2\n      mstore\n      0x04\n      add\n      tag_174\n      swap1\n      tag_235\n      jump\t// in\n    tag_233:\n      sub(shl(0xa0, 0x01), 0x01)\n        /* \"USDm.sol\":2922:2945  newPauser != address(0) */\n      dup4\n      and\n        /* \"USDm.sol\":2900:3014  require(\r... */\n      tag_236\n      jumpi\n      mload(0x40)\n      shl(0xe5, 0x461bcd)\n      dup2\n      mstore\n      0x04\n      add\n      tag_174\n      swap1\n      tag_238\n      jump\t// in\n    tag_236:\n      sub(shl(0xa0, 0x01), 0x01)\n        /* \"USDm.sol\":3047:3075  newBlacklister != address(0) */\n      dup3\n      and\n        /* \"USDm.sol\":3025:3149  require(\r... */\n      tag_239\n      jumpi\n      mload(0x40)\n      shl(0xe5, 0x461bcd)\n      dup2\n      mstore\n      0x04\n      add\n      tag_174\n      swap1\n      tag_241\n      jump\t// in\n    tag_239:\n      sub(shl(0xa0, 0x01), 0x01)\n        /* \"USDm.sol\":3182:3204  newOwner != address(0) */\n      dup2\n      and\n        /* \"USDm.sol\":3160:3272  require(\r... */\n      tag_242\n      jumpi\n      mload(0x40)\n      shl(0xe5, 0x461bcd)\n      dup2\n      mstore\n      0x04\n      add\n      tag_174\n      swap1\n      tag_244\n      jump\t// in\n    tag_242:\n        /* \"USDm.sol\":3285:3301  name = tokenName */\n      dup8\n      mload\n      tag_245\n      swap1\n        /* \"USDm.sol\":3285:3289  name */\n      0x05\n      swap1\n        /* \"USDm.sol\":3285:3301  name = tokenName */\n      0x20\n      dup12\n      add\n      swap1\n      tag_246\n      jump\t// in\n    tag_245:\n      pop\n        /* \"USDm.sol\":3312:3332  symbol = tokenSymbol */\n      dup7\n      mload\n      tag_247\n      swap1\n        /* \"USDm.sol\":3312:3318  symbol */\n      0x06\n      swap1\n        /* \"USDm.sol\":3312:3332  symbol = tokenSymbol */\n      0x20\n      dup11\n      add\n      swap1\n      tag_246\n      jump\t// in\n    tag_247:\n      pop\n        /* \"USDm.sol\":3343:3367  currency = tokenCurrency */\n      dup6\n      mload\n      tag_248\n      swap1\n        /* \"USDm.sol\":3343:3351  currency */\n      0x08\n      swap1\n        /* \"USDm.sol\":3343:3367  currency = tokenCurrency */\n      0x20\n      dup10\n      add\n      swap1\n      tag_246\n      jump\t// in\n    tag_248:\n      pop\n        /* \"USDm.sol\":3378:3386  decimals */\n      0x07\n        /* \"USDm.sol\":3378:3402  decimals = tokenDecimals */\n      dup1\n      sload\n      not(0xff)\n      and\n      0xff\n      dup8\n      and\n      or\n      swap1\n      sstore\n        /* \"USDm.sol\":3413:3425  masterMinter */\n      0x09\n        /* \"USDm.sol\":3413:3443  masterMinter = newMasterMinter */\n      dup1\n      sload\n      not(sub(shl(0xa0, 0x01), 0x01))\n      swap1\n      dup2\n      and\n      sub(shl(0xa0, 0x01), 0x01)\n      dup8\n      dup2\n      and\n      swap2\n      swap1\n      swap2\n      or\n      swap1\n      swap3\n      sstore\n      0x01\n        /* \"USDm.sol\":3454:3472  pauser = newPauser */\n      dup1\n      sload\n      dup3\n      and\n      dup7\n      dup5\n      and\n      or\n      swap1\n      sstore\n        /* \"USDm.sol\":3483:3494  blacklister */\n      0x02\n        /* \"USDm.sol\":3483:3511  blacklister = newBlacklister */\n      dup1\n      sload\n      swap1\n      swap2\n      and\n      swap2\n      dup5\n      and\n      swap2\n      swap1\n      swap2\n      or\n      swap1\n      sstore\n        /* \"USDm.sol\":3522:3550  _transferOwnership(newOwner) */\n      tag_249\n        /* \"USDm.sol\":3541:3549  newOwner */\n      dup2\n        /* \"USDm.sol\":3522:3540  _transferOwnership */\n      tag_250\n        /* \"USDm.sol\":3522:3550  _transferOwnership(newOwner) */\n      jump\t// in\n    tag_249:\n      pop\n      pop\n        /* \"USDm.sol\":3561:3572  initialized */\n      0x09\n        /* \"USDm.sol\":3561:3579  initialized = true */\n      dup1\n      sload\n      not(shl(0xa0, 0xff))\n      and\n      shl(0xa0, 0x01)\n      or\n      swap1\n      sstore\n      pop\n      pop\n      pop\n      pop\n      pop\n      pop\n        /* \"USDm.sol\":2380:3587  function initialize(\r... */\n      jump\t// out\n        /* \"USDm.sol\":1615:1642  address public masterMinter */\n    tag_82:\n      and(sub(shl(0xa0, 0x01), 0x01), sload(0x09))\n      dup2\n      jump\t// out\n        /* \"Rescuable.sol\":1588:1673  function rescuer() external view returns (address) {\r... */\n    tag_86:\n        /* \"Rescuable.sol\":1657:1665  _rescuer */\n      and(sub(shl(0xa0, 0x01), 0x01), sload(0x04))\n        /* \"Rescuable.sol\":1588:1673  function rescuer() external view returns (address) {\r... */\n      swap1\n      jump\t// out\n        /* \"USDm.sol\":4128:4984  function mint(address _to, uint256 _amount)\r... */\n    tag_90:\n        /* \"USDm.sol\":4317:4321  bool */\n      0x00\n        /* \"Pausable.sol\":1755:1763  paused() */\n      tag_253\n        /* \"Pausable.sol\":1755:1761  paused */\n      tag_101\n        /* \"Pausable.sol\":1755:1763  paused() */\n      jump\t// in\n    tag_253:\n        /* \"Pausable.sol\":1754:1763  !paused() */\n      iszero\n        /* \"Pausable.sol\":1746:1784  require(!paused(), \"Pausable: paused\") */\n      tag_254\n      jumpi\n      mload(0x40)\n      shl(0xe5, 0x461bcd)\n      dup2\n      mstore\n      0x04\n      add\n      tag_174\n      swap1\n      tag_175\n      jump\t// in\n    tag_254:\n        /* \"USDm.sol\":3728:3738  msg.sender */\n      caller\n        /* \"USDm.sol\":3720:3739  minters[msg.sender] */\n      0x00\n      swap1\n      dup2\n      mstore\n        /* \"USDm.sol\":3720:3727  minters */\n      0x0d\n        /* \"USDm.sol\":3720:3739  minters[msg.sender] */\n      0x20\n      mstore\n      0x40\n      swap1\n      keccak256\n      sload\n      0xff\n      and\n        /* \"USDm.sol\":3712:3777  require(minters[msg.sender], \"FiatToken: caller is not a minter\") */\n      tag_257\n      jumpi\n      mload(0x40)\n      shl(0xe5, 0x461bcd)\n      dup2\n      mstore\n      0x04\n      add\n      tag_174\n      swap1\n      tag_259\n      jump\t// in\n    tag_257:\n        /* \"USDm.sol\":4258:4268  msg.sender */\n      caller\n        /* \"Blacklistable.sol\":2120:2141  blacklisted[_account] */\n      0x00\n      dup2\n      dup2\n      mstore\n        /* \"Blacklistable.sol\":2120:2131  blacklisted */\n      0x03\n        /* \"Blacklistable.sol\":2120:2141  blacklisted[_account] */\n      0x20\n      mstore\n      0x40\n      swap1\n      keccak256\n      sload\n      0xff\n      and\n        /* \"Blacklistable.sol\":2119:2141  !blacklisted[_account] */\n      iszero\n        /* \"Blacklistable.sol\":2097:2206  require(\r... */\n      tag_261\n      jumpi\n      mload(0x40)\n      shl(0xe5, 0x461bcd)\n      dup2\n      mstore\n      0x04\n      add\n      tag_174\n      swap1\n      tag_179\n      jump\t// in\n    tag_261:\n      sub(shl(0xa0, 0x01), 0x01)\n        /* \"Blacklistable.sol\":2120:2141  blacklisted[_account] */\n      dup5\n      and\n      0x00\n      swap1\n      dup2\n      mstore\n        /* \"Blacklistable.sol\":2120:2131  blacklisted */\n      0x03\n        /* \"Blacklistable.sol\":2120:2141  blacklisted[_account] */\n      0x20\n      mstore\n      0x40\n      swap1\n      keccak256\n      sload\n        /* \"USDm.sol\":4294:4297  _to */\n      dup5\n      swap1\n        /* \"Blacklistable.sol\":2120:2141  blacklisted[_account] */\n      0xff\n      and\n        /* \"Blacklistable.sol\":2119:2141  !blacklisted[_account] */\n      iszero\n        /* \"Blacklistable.sol\":2097:2206  require(\r... */\n      tag_264\n      jumpi\n      mload(0x40)\n      shl(0xe5, 0x461bcd)\n      dup2\n      mstore\n      0x04\n      add\n      tag_174\n      swap1\n      tag_179\n      jump\t// in\n    tag_264:\n      sub(shl(0xa0, 0x01), 0x01)\n        /* \"USDm.sol\":4347:4364  _to != address(0) */\n      dup6\n      and\n        /* \"USDm.sol\":4339:4404  require(_to != address(0), \"FiatToken: mint to the zero address\") */\n      tag_267\n      jumpi\n      mload(0x40)\n      shl(0xe5, 0x461bcd)\n      dup2\n      mstore\n      0x04\n      add\n      tag_174\n      swap1\n      tag_269\n      jump\t// in\n    tag_267:\n        /* \"USDm.sol\":4433:4434  0 */\n      0x00\n        /* \"USDm.sol\":4423:4430  _amount */\n      dup5\n        /* \"USDm.sol\":4423:4434  _amount > 0 */\n      gt\n        /* \"USDm.sol\":4415:4480  require(_amount > 0, \"FiatToken: mint amount not greater than 0\") */\n      tag_270\n      jumpi\n      mload(0x40)\n      shl(0xe5, 0x461bcd)\n      dup2\n      mstore\n      0x04\n      add\n      tag_174\n      swap1\n      tag_272\n      jump\t// in\n    tag_270:\n        /* \"USDm.sol\":4538:4548  msg.sender */\n      caller\n        /* \"USDm.sol\":4493:4521  uint256 mintingAllowedAmount */\n      0x00\n        /* \"USDm.sol\":4524:4549  minterAllowed[msg.sender] */\n      swap1\n      dup2\n      mstore\n        /* \"USDm.sol\":4524:4537  minterAllowed */\n      0x0e\n        /* \"USDm.sol\":4524:4549  minterAllowed[msg.sender] */\n      0x20\n      mstore\n      0x40\n      swap1\n      keccak256\n      sload\n        /* \"USDm.sol\":4582:4613  _amount <= mintingAllowedAmount */\n      dup1\n      dup6\n      gt\n      iszero\n        /* \"USDm.sol\":4560:4687  require(\r... */\n      tag_273\n      jumpi\n      mload(0x40)\n      shl(0xe5, 0x461bcd)\n      dup2\n      mstore\n      0x04\n      add\n      tag_174\n      swap1\n      tag_275\n      jump\t// in\n    tag_273:\n        /* \"USDm.sol\":4730:4737  _amount */\n      dup5\n        /* \"USDm.sol\":4715:4727  totalSupply_ */\n      sload(0x0c)\n        /* \"USDm.sol\":4715:4737  totalSupply_ + _amount */\n      tag_276\n      swap2\n      swap1\n      tag_277\n      jump\t// in\n    tag_276:\n        /* \"USDm.sol\":4700:4712  totalSupply_ */\n      0x0c\n        /* \"USDm.sol\":4700:4737  totalSupply_ = totalSupply_ + _amount */\n      sstore\n      sub(shl(0xa0, 0x01), 0x01)\n        /* \"USDm.sol\":4764:4777  balances[_to] */\n      dup7\n      and\n      0x00\n      swap1\n      dup2\n      mstore\n        /* \"USDm.sol\":4764:4772  balances */\n      0x0a\n        /* \"USDm.sol\":4764:4777  balances[_to] */\n      0x20\n      mstore\n      0x40\n      swap1\n      keccak256\n      sload\n        /* \"USDm.sol\":4764:4787  balances[_to] + _amount */\n      tag_278\n      swap1\n        /* \"USDm.sol\":4780:4787  _amount */\n      dup7\n      swap1\n        /* \"USDm.sol\":4764:4787  balances[_to] + _amount */\n      tag_277\n      jump\t// in\n    tag_278:\n      sub(shl(0xa0, 0x01), 0x01)\n        /* \"USDm.sol\":4748:4761  balances[_to] */\n      dup8\n      and\n      0x00\n      swap1\n      dup2\n      mstore\n        /* \"USDm.sol\":4748:4756  balances */\n      0x0a\n        /* \"USDm.sol\":4748:4761  balances[_to] */\n      0x20\n      mstore\n      0x40\n      swap1\n      keccak256\n        /* \"USDm.sol\":4748:4787  balances[_to] = balances[_to] + _amount */\n      sstore\n        /* \"USDm.sol\":4826:4858  mintingAllowedAmount - (_amount) */\n      tag_279\n        /* \"USDm.sol\":4850:4857  _amount */\n      dup6\n        /* \"USDm.sol\":4826:4846  mintingAllowedAmount */\n      dup3\n        /* \"USDm.sol\":4826:4858  mintingAllowedAmount - (_amount) */\n      tag_212\n      jump\t// in\n    tag_279:\n        /* \"USDm.sol\":4812:4822  msg.sender */\n      caller\n        /* \"USDm.sol\":4798:4823  minterAllowed[msg.sender] */\n      0x00\n      dup2\n      dup2\n      mstore\n        /* \"USDm.sol\":4798:4811  minterAllowed */\n      0x0e\n        /* \"USDm.sol\":4798:4823  minterAllowed[msg.sender] */\n      0x20\n      mstore\n      0x40\n      swap1\n      dup2\n      swap1\n      keccak256\n        /* \"USDm.sol\":4798:4858  minterAllowed[msg.sender] = mintingAllowedAmount - (_amount) */\n      swap3\n      swap1\n      swap3\n      sstore\n        /* \"USDm.sol\":4874:4904  Mint(msg.sender, _to, _amount) */\n      swap1\n      mload\n      sub(shl(0xa0, 0x01), 0x01)\n      dup9\n      and\n      swap2\n        /* \"USDm.sol\":4812:4822  msg.sender */\n      swap1\n        /* \"USDm.sol\":4874:4904  Mint(msg.sender, _to, _amount) */\n      0xab8530f87dc9b59234c4623bf917212bb2536d647574c8e7e5da92c2ede0c9f8\n      swap1\n      tag_280\n      swap1\n        /* \"USDm.sol\":4896:4903  _amount */\n      dup10\n      swap1\n        /* \"USDm.sol\":4874:4904  Mint(msg.sender, _to, _amount) */\n      tag_56\n      jump\t// in\n    tag_280:\n      mload(0x40)\n      dup1\n      swap2\n      sub\n      swap1\n      log3\n        /* \"USDm.sol\":4941:4944  _to */\n      dup6\n      sub(shl(0xa0, 0x01), 0x01)\n        /* \"USDm.sol\":4920:4954  Transfer(address(0), _to, _amount) */\n      and\n        /* \"USDm.sol\":4937:4938  0 */\n      0x00\n      sub(shl(0xa0, 0x01), 0x01)\n        /* \"USDm.sol\":4920:4954  Transfer(address(0), _to, _amount) */\n      and\n      0x00\n      dup1\n      mload\n      0x20\n      data_ada389e1fc24a8587c776340efb91b36e675792ab631816100d55df0b5cf3cbc\n      dup4\n      codecopy\n      dup2\n      mload\n      swap2\n      mstore\n        /* \"USDm.sol\":4946:4953  _amount */\n      dup8\n        /* \"USDm.sol\":4920:4954  Transfer(address(0), _to, _amount) */\n      mload(0x40)\n      tag_281\n      swap2\n      swap1\n      tag_56\n      jump\t// in\n    tag_281:\n      mload(0x40)\n      dup1\n      swap2\n      sub\n      swap1\n      log3\n      pop\n        /* \"USDm.sol\":4972:4976  true */\n      0x01\n      swap6\n        /* \"USDm.sol\":4128:4984  function mint(address _to, uint256 _amount)\r... */\n      swap5\n      pop\n      pop\n      pop\n      pop\n      pop\n      jump\t// out\n        /* \"USDm.sol\":11563:12109  function burn(uint256 _amount)\r... */\n    tag_95:\n        /* \"Pausable.sol\":1755:1763  paused() */\n      tag_283\n        /* \"Pausable.sol\":1755:1761  paused */\n      tag_101\n        /* \"Pausable.sol\":1755:1763  paused() */\n      jump\t// in\n    tag_283:\n        /* \"Pausable.sol\":1754:1763  !paused() */\n      iszero\n        /* \"Pausable.sol\":1746:1784  require(!paused(), \"Pausable: paused\") */\n      tag_284\n      jumpi\n      mload(0x40)\n      shl(0xe5, 0x461bcd)\n      dup2\n      mstore\n      0x04\n      add\n      tag_174\n      swap1\n      tag_175\n      jump\t// in\n    tag_284:\n        /* \"USDm.sol\":3728:3738  msg.sender */\n      caller\n        /* \"USDm.sol\":3720:3739  minters[msg.sender] */\n      0x00\n      swap1\n      dup2\n      mstore\n        /* \"USDm.sol\":3720:3727  minters */\n      0x0d\n        /* \"USDm.sol\":3720:3739  minters[msg.sender] */\n      0x20\n      mstore\n      0x40\n      swap1\n      keccak256\n      sload\n      0xff\n      and\n        /* \"USDm.sol\":3712:3777  require(minters[msg.sender], \"FiatToken: caller is not a minter\") */\n      tag_287\n      jumpi\n      mload(0x40)\n      shl(0xe5, 0x461bcd)\n      dup2\n      mstore\n      0x04\n      add\n      tag_174\n      swap1\n      tag_259\n      jump\t// in\n    tag_287:\n        /* \"USDm.sol\":11680:11690  msg.sender */\n      caller\n        /* \"Blacklistable.sol\":2120:2141  blacklisted[_account] */\n      0x00\n      dup2\n      dup2\n      mstore\n        /* \"Blacklistable.sol\":2120:2131  blacklisted */\n      0x03\n        /* \"Blacklistable.sol\":2120:2141  blacklisted[_account] */\n      0x20\n      mstore\n      0x40\n      swap1\n      keccak256\n      sload\n      0xff\n      and\n        /* \"Blacklistable.sol\":2119:2141  !blacklisted[_account] */\n      iszero\n        /* \"Blacklistable.sol\":2097:2206  require(\r... */\n      tag_290\n      jumpi\n      mload(0x40)\n      shl(0xe5, 0x461bcd)\n      dup2\n      mstore\n      0x04\n      add\n      tag_174\n      swap1\n      tag_179\n      jump\t// in\n    tag_290:\n        /* \"USDm.sol\":11735:11745  msg.sender */\n      caller\n        /* \"USDm.sol\":11708:11723  uint256 balance */\n      0x00\n        /* \"USDm.sol\":11726:11746  balances[msg.sender] */\n      swap1\n      dup2\n      mstore\n        /* \"USDm.sol\":11726:11734  balances */\n      0x0a\n        /* \"USDm.sol\":11726:11746  balances[msg.sender] */\n      0x20\n      mstore\n      0x40\n      swap1\n      keccak256\n      sload\n        /* \"USDm.sol\":11765:11776  _amount > 0 */\n      dup3\n        /* \"USDm.sol\":11757:11822  require(_amount > 0, \"FiatToken: burn amount not greater than 0\") */\n      tag_293\n      jumpi\n      mload(0x40)\n      shl(0xe5, 0x461bcd)\n      dup2\n      mstore\n      0x04\n      add\n      tag_174\n      swap1\n      tag_295\n      jump\t// in\n    tag_293:\n        /* \"USDm.sol\":11852:11859  _amount */\n      dup3\n        /* \"USDm.sol\":11841:11848  balance */\n      dup2\n        /* \"USDm.sol\":11841:11859  balance >= _amount */\n      lt\n      iszero\n        /* \"USDm.sol\":11833:11902  require(balance >= _amount, \"FiatToken: burn amount exceeds balance\") */\n      tag_296\n      jumpi\n      mload(0x40)\n      shl(0xe5, 0x461bcd)\n      dup2\n      mstore\n      0x04\n      add\n      tag_174\n      swap1\n      tag_298\n      jump\t// in\n    tag_296:\n        /* \"USDm.sol\":11945:11952  _amount */\n      dup3\n        /* \"USDm.sol\":11930:11942  totalSupply_ */\n      sload(0x0c)\n        /* \"USDm.sol\":11930:11952  totalSupply_ - _amount */\n      tag_299\n      swap2\n      swap1\n      tag_212\n      jump\t// in\n    tag_299:\n        /* \"USDm.sol\":11915:11927  totalSupply_ */\n      0x0c\n        /* \"USDm.sol\":11915:11952  totalSupply_ = totalSupply_ - _amount */\n      sstore\n        /* \"USDm.sol\":11986:12003  balance - _amount */\n      tag_300\n        /* \"USDm.sol\":11996:12003  _amount */\n      dup4\n        /* \"USDm.sol\":11986:11993  balance */\n      dup3\n        /* \"USDm.sol\":11986:12003  balance - _amount */\n      tag_212\n      jump\t// in\n    tag_300:\n        /* \"USDm.sol\":11972:11982  msg.sender */\n      caller\n        /* \"USDm.sol\":11963:11983  balances[msg.sender] */\n      0x00\n      dup2\n      dup2\n      mstore\n        /* \"USDm.sol\":11963:11971  balances */\n      0x0a\n        /* \"USDm.sol\":11963:11983  balances[msg.sender] */\n      0x20\n      mstore\n      0x40\n      swap1\n      dup2\n      swap1\n      keccak256\n        /* \"USDm.sol\":11963:12003  balances[msg.sender] = balance - _amount */\n      swap3\n      swap1\n      swap3\n      sstore\n        /* \"USDm.sol\":12019:12044  Burn(msg.sender, _amount) */\n      swap1\n      mload\n      0xcc16f5dbb4873280815c1ee09dbd06736cffcc184412cf7a71a0fdb75d397ca5\n      swap1\n      tag_301\n      swap1\n        /* \"USDm.sol\":12036:12043  _amount */\n      dup7\n      swap1\n        /* \"USDm.sol\":12019:12044  Burn(msg.sender, _amount) */\n      tag_56\n      jump\t// in\n    tag_301:\n      mload(0x40)\n      dup1\n      swap2\n      sub\n      swap1\n      log2\n        /* \"USDm.sol\":12060:12101  Transfer(msg.sender, address(0), _amount) */\n      mload(0x40)\n        /* \"USDm.sol\":12089:12090  0 */\n      0x00\n      swap1\n        /* \"USDm.sol\":12069:12079  msg.sender */\n      caller\n      swap1\n      0x00\n      dup1\n      mload\n      0x20\n      data_ada389e1fc24a8587c776340efb91b36e675792ab631816100d55df0b5cf3cbc\n      dup4\n      codecopy\n      dup2\n      mload\n      swap2\n      mstore\n        /* \"USDm.sol\":12060:12101  Transfer(msg.sender, address(0), _amount) */\n      swap1\n      tag_302\n      swap1\n        /* \"USDm.sol\":12093:12100  _amount */\n      dup8\n      swap1\n        /* \"USDm.sol\":12060:12101  Transfer(msg.sender, address(0), _amount) */\n      tag_56\n      jump\t// in\n    tag_302:\n      mload(0x40)\n      dup1\n      swap2\n      sub\n      swap1\n      log3\n        /* \"Blacklistable.sol\":2217:2218  _ */\n      pop\n        /* \"USDm.sol\":3788:3789  _ */\n      pop\n        /* \"USDm.sol\":11563:12109  function burn(uint256 _amount)\r... */\n      pop\n      jump\t// out\n        /* \"USDm.sol\":10495:10839  function configureMinter(address minter, uint256 minterAllowedAmount)\r... */\n    tag_98:\n        /* \"USDm.sol\":10650:10654  bool */\n      0x00\n        /* \"Pausable.sol\":1755:1763  paused() */\n      tag_304\n        /* \"Pausable.sol\":1755:1761  paused */\n      tag_101\n        /* \"Pausable.sol\":1755:1763  paused() */\n      jump\t// in\n    tag_304:\n        /* \"Pausable.sol\":1754:1763  !paused() */\n      iszero\n        /* \"Pausable.sol\":1746:1784  require(!paused(), \"Pausable: paused\") */\n      tag_305\n      jumpi\n      mload(0x40)\n      shl(0xe5, 0x461bcd)\n      dup2\n      mstore\n      0x04\n      add\n      tag_174\n      swap1\n      tag_175\n      jump\t// in\n    tag_305:\n        /* \"USDm.sol\":5729:5741  masterMinter */\n      and(sub(shl(0xa0, 0x01), 0x01), sload(0x09))\n        /* \"USDm.sol\":5715:5725  msg.sender */\n      caller\n        /* \"USDm.sol\":5715:5741  msg.sender == masterMinter */\n      eq\n        /* \"USDm.sol\":5693:5810  require(\r... */\n      tag_308\n      jumpi\n      mload(0x40)\n      shl(0xe5, 0x461bcd)\n      dup2\n      mstore\n      0x04\n      add\n      tag_174\n      swap1\n      tag_227\n      jump\t// in\n    tag_308:\n      sub(shl(0xa0, 0x01), 0x01)\n        /* \"USDm.sol\":10672:10687  minters[minter] */\n      dup4\n      and\n      0x00\n      dup2\n      dup2\n      mstore\n        /* \"USDm.sol\":10672:10679  minters */\n      0x0d\n        /* \"USDm.sol\":10672:10687  minters[minter] */\n      0x20\n      swap1\n      dup2\n      mstore\n      0x40\n      dup1\n      dup4\n      keccak256\n        /* \"USDm.sol\":10672:10694  minters[minter] = true */\n      dup1\n      sload\n      not(0xff)\n      and\n        /* \"USDm.sol\":10690:10694  true */\n      0x01\n        /* \"USDm.sol\":10672:10694  minters[minter] = true */\n      or\n      swap1\n      sstore\n        /* \"USDm.sol\":10705:10718  minterAllowed */\n      0x0e\n        /* \"USDm.sol\":10705:10726  minterAllowed[minter] */\n      swap1\n      swap2\n      mstore\n      swap1\n      dup2\n      swap1\n      keccak256\n        /* \"USDm.sol\":10705:10748  minterAllowed[minter] = minterAllowedAmount */\n      dup5\n      swap1\n      sstore\n        /* \"USDm.sol\":10764:10809  MinterConfigured(minter, minterAllowedAmount) */\n      mload\n      0x46980fca912ef9bcdbd36877427b6b90e860769f604e89c0e67720cece530d20\n      swap1\n      tag_311\n      swap1\n        /* \"USDm.sol\":10729:10748  minterAllowedAmount */\n      dup6\n      swap1\n        /* \"USDm.sol\":10764:10809  MinterConfigured(minter, minterAllowedAmount) */\n      tag_56\n      jump\t// in\n    tag_311:\n      mload(0x40)\n      dup1\n      swap2\n      sub\n      swap1\n      log2\n      pop\n        /* \"USDm.sol\":10827:10831  true */\n      0x01\n        /* \"USDm.sol\":10495:10839  function configureMinter(address minter, uint256 minterAllowedAmount)\r... */\n      swap3\n      swap2\n      pop\n      pop\n      jump\t// out\n        /* \"Pausable.sol\":1429:1515  function paused() public view virtual returns (bool) {\r... */\n    tag_101:\n        /* \"Pausable.sol\":1500:1507  _paused */\n      sload(0x01)\n      shl(0xa0, 0x01)\n      swap1\n      div\n      0xff\n      and\n      swap1\n        /* \"Pausable.sol\":1429:1515  function paused() public view virtual returns (bool) {\r... */\n      jump\t// out\n        /* \"USDm.sol\":7014:7175  function balanceOf(address account)\r... */\n    tag_105:\n      sub(shl(0xa0, 0x01), 0x01)\n        /* \"USDm.sol\":7150:7167  balances[account] */\n      and\n        /* \"USDm.sol\":7118:7125  uint256 */\n      0x00\n        /* \"USDm.sol\":7150:7167  balances[account] */\n      swap1\n      dup2\n      mstore\n        /* \"USDm.sol\":7150:7158  balances */\n      0x0a\n        /* \"USDm.sol\":7150:7167  balances[account] */\n      0x20\n      mstore\n      0x40\n      swap1\n      keccak256\n      sload\n      swap1\n        /* \"USDm.sol\":7014:7175  function balanceOf(address account)\r... */\n      jump\t// out\n        /* \"Ownable.sol\":1714:1817  function renounceOwnership() public virtual onlyOwner {\r... */\n    tag_108:\n        /* \"Ownable.sol\":1294:1306  _msgSender() */\n      tag_315\n        /* \"Ownable.sol\":1294:1304  _msgSender */\n      tag_215\n        /* \"Ownable.sol\":1294:1306  _msgSender() */\n      jump\t// in\n    tag_315:\n      sub(shl(0xa0, 0x01), 0x01)\n        /* \"Ownable.sol\":1283:1306  owner() == _msgSender() */\n      and\n        /* \"Ownable.sol\":1283:1290  owner() */\n      tag_316\n        /* \"Ownable.sol\":1283:1288  owner */\n      tag_114\n        /* \"Ownable.sol\":1283:1290  owner() */\n      jump\t// in\n    tag_316:\n      sub(shl(0xa0, 0x01), 0x01)\n        /* \"Ownable.sol\":1283:1306  owner() == _msgSender() */\n      and\n      eq\n        /* \"Ownable.sol\":1275:1343  require(owner() == _msgSender(), \"Ownable: caller is not the owner\") */\n      tag_317\n      jumpi\n      mload(0x40)\n      shl(0xe5, 0x461bcd)\n      dup2\n      mstore\n      0x04\n      add\n      tag_174\n      swap1\n      tag_219\n      jump\t// in\n    tag_317:\n        /* \"Ownable.sol\":1779:1809  _transferOwnership(address(0)) */\n      tag_320\n        /* \"Ownable.sol\":1806:1807  0 */\n      0x00\n        /* \"Ownable.sol\":1779:1797  _transferOwnership */\n      tag_250\n        /* \"Ownable.sol\":1779:1809  _transferOwnership(address(0)) */\n      jump\t// in\n    tag_320:\n        /* \"Ownable.sol\":1714:1817  function renounceOwnership() public virtual onlyOwner {\r... */\n      jump\t// out\n        /* \"USDm.sol\":5953:6073  function minterAllowance(address minter) external view returns (uint256) {\r... */\n    tag_111:\n      sub(shl(0xa0, 0x01), 0x01)\n        /* \"USDm.sol\":6044:6065  minterAllowed[minter] */\n      and\n        /* \"USDm.sol\":6017:6024  uint256 */\n      0x00\n        /* \"USDm.sol\":6044:6065  minterAllowed[minter] */\n      swap1\n      dup2\n      mstore\n        /* \"USDm.sol\":6044:6057  minterAllowed */\n      0x0e\n        /* \"USDm.sol\":6044:6065  minterAllowed[minter] */\n      0x20\n      mstore\n      0x40\n      swap1\n      keccak256\n      sload\n      swap1\n        /* \"USDm.sol\":5953:6073  function minterAllowance(address minter) external view returns (uint256) {\r... */\n      jump\t// out\n        /* \"Ownable.sol\":1063:1150  function owner() public view virtual returns (address) {\r... */\n    tag_114:\n        /* \"Ownable.sol\":1109:1116  address */\n      0x00\n        /* \"Ownable.sol\":1136:1142  _owner */\n      sload\n      sub(shl(0xa0, 0x01), 0x01)\n      and\n        /* \"Ownable.sol\":1063:1150  function owner() public view virtual returns (address) {\r... */\n      swap1\n      jump\t// out\n        /* \"USDm.sol\":1531:1551  string public symbol */\n    tag_117:\n      0x06\n      dup1\n      sload\n      tag_165\n      swap1\n      tag_166\n      jump\t// in\n        /* \"Pausable.sol\":641:662  address public pauser */\n    tag_120:\n      and(sub(shl(0xa0, 0x01), 0x01), sload(0x01))\n      dup2\n      jump\t// out\n        /* \"USDm.sol\":9240:9510  function transfer(address to, uint256 value)\r... */\n    tag_124:\n        /* \"USDm.sol\":9426:9430  bool */\n      0x00\n        /* \"Pausable.sol\":1755:1763  paused() */\n      tag_329\n        /* \"Pausable.sol\":1755:1761  paused */\n      tag_101\n        /* \"Pausable.sol\":1755:1763  paused() */\n      jump\t// in\n    tag_329:\n        /* \"Pausable.sol\":1754:1763  !paused() */\n      iszero\n        /* \"Pausable.sol\":1746:1784  require(!paused(), \"Pausable: paused\") */\n      tag_330\n      jumpi\n      mload(0x40)\n      shl(0xe5, 0x461bcd)\n      dup2\n      mstore\n      0x04\n      add\n      tag_174\n      swap1\n      tag_175\n      jump\t// in\n    tag_330:\n        /* \"USDm.sol\":9368:9378  msg.sender */\n      caller\n        /* \"Blacklistable.sol\":2120:2141  blacklisted[_account] */\n      0x00\n      dup2\n      dup2\n      mstore\n        /* \"Blacklistable.sol\":2120:2131  blacklisted */\n      0x03\n        /* \"Blacklistable.sol\":2120:2141  blacklisted[_account] */\n      0x20\n      mstore\n      0x40\n      swap1\n      keccak256\n      sload\n      0xff\n      and\n        /* \"Blacklistable.sol\":2119:2141  !blacklisted[_account] */\n      iszero\n        /* \"Blacklistable.sol\":2097:2206  require(\r... */\n      tag_333\n      jumpi\n      mload(0x40)\n      shl(0xe5, 0x461bcd)\n      dup2\n      mstore\n      0x04\n      add\n      tag_174\n      swap1\n      tag_179\n      jump\t// in\n    tag_333:\n      sub(shl(0xa0, 0x01), 0x01)\n        /* \"Blacklistable.sol\":2120:2141  blacklisted[_account] */\n      dup5\n      and\n      0x00\n      swap1\n      dup2\n      mstore\n        /* \"Blacklistable.sol\":2120:2131  blacklisted */\n      0x03\n        /* \"Blacklistable.sol\":2120:2141  blacklisted[_account] */\n      0x20\n      mstore\n      0x40\n      swap1\n      keccak256\n      sload\n        /* \"USDm.sol\":9404:9406  to */\n      dup5\n      swap1\n        /* \"Blacklistable.sol\":2120:2141  blacklisted[_account] */\n      0xff\n      and\n        /* \"Blacklistable.sol\":2119:2141  !blacklisted[_account] */\n      iszero\n        /* \"Blacklistable.sol\":2097:2206  require(\r... */\n      tag_336\n      jumpi\n      mload(0x40)\n      shl(0xe5, 0x461bcd)\n      dup2\n      mstore\n      0x04\n      add\n      tag_174\n      swap1\n      tag_179\n      jump\t// in\n    tag_336:\n        /* \"USDm.sol\":9448:9480  _transfer(msg.sender, to, value) */\n      tag_184\n        /* \"USDm.sol\":9458:9468  msg.sender */\n      caller\n        /* \"USDm.sol\":9470:9472  to */\n      dup7\n        /* \"USDm.sol\":9474:9479  value */\n      dup7\n        /* \"USDm.sol\":9448:9457  _transfer */\n      tag_210\n        /* \"USDm.sol\":9448:9480  _transfer(msg.sender, to, value) */\n      jump\t// in\n        /* \"USDm.sol\":12117:12427  function updateMasterMinter(address _newMasterMinter) external onlyOwner {\r... */\n    tag_128:\n        /* \"Ownable.sol\":1294:1306  _msgSender() */\n      tag_341\n        /* \"Ownable.sol\":1294:1304  _msgSender */\n      tag_215\n        /* \"Ownable.sol\":1294:1306  _msgSender() */\n      jump\t// in\n    tag_341:\n      sub(shl(0xa0, 0x01), 0x01)\n        /* \"Ownable.sol\":1283:1306  owner() == _msgSender() */\n      and\n        /* \"Ownable.sol\":1283:1290  owner() */\n      tag_342\n        /* \"Ownable.sol\":1283:1288  owner */\n      tag_114\n        /* \"Ownable.sol\":1283:1290  owner() */\n      jump\t// in\n    tag_342:\n      sub(shl(0xa0, 0x01), 0x01)\n        /* \"Ownable.sol\":1283:1306  owner() == _msgSender() */\n      and\n      eq\n        /* \"Ownable.sol\":1275:1343  require(owner() == _msgSender(), \"Ownable: caller is not the owner\") */\n      tag_343\n      jumpi\n      mload(0x40)\n      shl(0xe5, 0x461bcd)\n      dup2\n      mstore\n      0x04\n      add\n      tag_174\n      swap1\n      tag_219\n      jump\t// in\n    tag_343:\n      sub(shl(0xa0, 0x01), 0x01)\n        /* \"USDm.sol\":12223:12253  _newMasterMinter != address(0) */\n      dup2\n      and\n        /* \"USDm.sol\":12201:12328  require(\r... */\n      tag_346\n      jumpi\n      mload(0x40)\n      shl(0xe5, 0x461bcd)\n      dup2\n      mstore\n      0x04\n      add\n      tag_174\n      swap1\n      tag_235\n      jump\t// in\n    tag_346:\n        /* \"USDm.sol\":12339:12351  masterMinter */\n      0x09\n        /* \"USDm.sol\":12339:12370  masterMinter = _newMasterMinter */\n      dup1\n      sload\n      not(sub(shl(0xa0, 0x01), 0x01))\n      and\n      sub(shl(0xa0, 0x01), 0x01)\n      dup4\n      dup2\n      and\n      swap2\n      swap1\n      swap2\n      or\n      swap2\n      dup3\n      swap1\n      sstore\n        /* \"USDm.sol\":12386:12419  MasterMinterChanged(masterMinter) */\n      mload(0x40)\n        /* \"USDm.sol\":12406:12418  masterMinter */\n      swap2\n      and\n      swap1\n        /* \"USDm.sol\":12386:12419  MasterMinterChanged(masterMinter) */\n      0xdb66dfa9c6b8f5226fe9aac7e51897ae8ee94ac31dc70bb6c9900b2574b707e6\n      swap1\n      0x00\n      swap1\n      log2\n        /* \"USDm.sol\":12117:12427  function updateMasterMinter(address _newMasterMinter) external onlyOwner {\r... */\n      pop\n      jump\t// out\n        /* \"USDm.sol\":6186:6292  function isMinter(address account) external view returns (bool) {\r... */\n    tag_131:\n      sub(shl(0xa0, 0x01), 0x01)\n        /* \"USDm.sol\":6268:6284  minters[account] */\n      and\n        /* \"USDm.sol\":6244:6248  bool */\n      0x00\n        /* \"USDm.sol\":6268:6284  minters[account] */\n      swap1\n      dup2\n      mstore\n        /* \"USDm.sol\":6268:6275  minters */\n      0x0d\n        /* \"USDm.sol\":6268:6284  minters[account] */\n      0x20\n      mstore\n      0x40\n      swap1\n      keccak256\n      sload\n      0xff\n      and\n      swap1\n        /* \"USDm.sol\":6186:6292  function isMinter(address account) external view returns (bool) {\r... */\n      jump\t// out\n        /* \"Blacklistable.sol\":3014:3320  function updateBlacklister(address _newBlacklister) external onlyOwner {\r... */\n    tag_135:\n        /* \"Ownable.sol\":1294:1306  _msgSender() */\n      tag_350\n        /* \"Ownable.sol\":1294:1304  _msgSender */\n      tag_215\n        /* \"Ownable.sol\":1294:1306  _msgSender() */\n      jump\t// in\n    tag_350:\n      sub(shl(0xa0, 0x01), 0x01)\n        /* \"Ownable.sol\":1283:1306  owner() == _msgSender() */\n      and\n        /* \"Ownable.sol\":1283:1290  owner() */\n      tag_351\n        /* \"Ownable.sol\":1283:1288  owner */\n      tag_114\n        /* \"Ownable.sol\":1283:1290  owner() */\n      jump\t// in\n    tag_351:\n      sub(shl(0xa0, 0x01), 0x01)\n        /* \"Ownable.sol\":1283:1306  owner() == _msgSender() */\n      and\n      eq\n        /* \"Ownable.sol\":1275:1343  require(owner() == _msgSender(), \"Ownable: caller is not the owner\") */\n      tag_352\n      jumpi\n      mload(0x40)\n      shl(0xe5, 0x461bcd)\n      dup2\n      mstore\n      0x04\n      add\n      tag_174\n      swap1\n      tag_219\n      jump\t// in\n    tag_352:\n      sub(shl(0xa0, 0x01), 0x01)\n        /* \"Blacklistable.sol\":3118:3147  _newBlacklister != address(0) */\n      dup2\n      and\n        /* \"Blacklistable.sol\":3096:3225  require(\r... */\n      tag_355\n      jumpi\n      mload(0x40)\n      shl(0xe5, 0x461bcd)\n      dup2\n      mstore\n      0x04\n      add\n      tag_174\n      swap1\n      tag_357\n      jump\t// in\n    tag_355:\n        /* \"Blacklistable.sol\":3236:3247  blacklister */\n      0x02\n        /* \"Blacklistable.sol\":3236:3265  blacklister = _newBlacklister */\n      dup1\n      sload\n      not(sub(shl(0xa0, 0x01), 0x01))\n      and\n      sub(shl(0xa0, 0x01), 0x01)\n      dup4\n      dup2\n      and\n      swap2\n      swap1\n      swap2\n      or\n      swap2\n      dup3\n      swap1\n      sstore\n        /* \"Blacklistable.sol\":3281:3312  BlacklisterChanged(blacklister) */\n      mload(0x40)\n        /* \"Blacklistable.sol\":3300:3311  blacklister */\n      swap2\n      and\n      swap1\n        /* \"Blacklistable.sol\":3281:3312  BlacklisterChanged(blacklister) */\n      0xc67398012c111ce95ecb7429b933096c977380ee6c421175a71a4a4c6c88c06e\n      swap1\n      0x00\n      swap1\n      log2\n        /* \"Blacklistable.sol\":3014:3320  function updateBlacklister(address _newBlacklister) external onlyOwner {\r... */\n      pop\n      jump\t// out\n        /* \"Rescuable.sol\":2131:2314  function rescueERC20(\r... */\n    tag_139:\n        /* \"Rescuable.sol\":1827:1835  _rescuer */\n      and(sub(shl(0xa0, 0x01), 0x01), sload(0x04))\n        /* \"Rescuable.sol\":1813:1823  msg.sender */\n      caller\n        /* \"Rescuable.sol\":1813:1835  msg.sender == _rescuer */\n      eq\n        /* \"Rescuable.sol\":1805:1876  require(msg.sender == _rescuer, \"Rescuable: caller is not the rescuer\") */\n      tag_359\n      jumpi\n      mload(0x40)\n      shl(0xe5, 0x461bcd)\n      dup2\n      mstore\n      0x04\n      add\n      tag_174\n      swap1\n      tag_361\n      jump\t// in\n    tag_359:\n        /* \"Rescuable.sol\":2268:2306  tokenContract.safeTransfer(to, amount) */\n      tag_363\n      sub(shl(0xa0, 0x01), 0x01)\n        /* \"Rescuable.sol\":2268:2294  tokenContract.safeTransfer */\n      dup5\n      and\n        /* \"Rescuable.sol\":2295:2297  to */\n      dup4\n        /* \"Rescuable.sol\":2299:2305  amount */\n      dup4\n        /* \"Rescuable.sol\":2268:2294  tokenContract.safeTransfer */\n      tag_364\n        /* \"Rescuable.sol\":2268:2306  tokenContract.safeTransfer(to, amount) */\n      jump\t// in\n    tag_363:\n        /* \"Rescuable.sol\":2131:2314  function rescueERC20(\r... */\n      pop\n      pop\n      pop\n      jump\t// out\n        /* \"Blacklistable.sol\":1397:1423  address public blacklister */\n    tag_141:\n      and(sub(shl(0xa0, 0x01), 0x01), sload(0x02))\n      dup2\n      jump\t// out\n        /* \"USDm.sol\":4992:5555  function mintByMaster(address _to, uint256 _amount)\r... */\n    tag_145:\n        /* \"USDm.sol\":5158:5162  bool */\n      0x00\n        /* \"Pausable.sol\":1755:1763  paused() */\n      tag_366\n        /* \"Pausable.sol\":1755:1761  paused */\n      tag_101\n        /* \"Pausable.sol\":1755:1763  paused() */\n      jump\t// in\n    tag_366:\n        /* \"Pausable.sol\":1754:1763  !paused() */\n      iszero\n        /* \"Pausable.sol\":1746:1784  require(!paused(), \"Pausable: paused\") */\n      tag_367\n      jumpi\n      mload(0x40)\n      shl(0xe5, 0x461bcd)\n      dup2\n      mstore\n      0x04\n      add\n      tag_174\n      swap1\n      tag_175\n      jump\t// in\n    tag_367:\n        /* \"USDm.sol\":5729:5741  masterMinter */\n      and(sub(shl(0xa0, 0x01), 0x01), sload(0x09))\n        /* \"USDm.sol\":5715:5725  msg.sender */\n      caller\n        /* \"USDm.sol\":5715:5741  msg.sender == masterMinter */\n      eq\n        /* \"USDm.sol\":5693:5810  require(\r... */\n      tag_370\n      jumpi\n      mload(0x40)\n      shl(0xe5, 0x461bcd)\n      dup2\n      mstore\n      0x04\n      add\n      tag_174\n      swap1\n      tag_227\n      jump\t// in\n    tag_370:\n      sub(shl(0xa0, 0x01), 0x01)\n        /* \"Blacklistable.sol\":2120:2141  blacklisted[_account] */\n      dup4\n      and\n      0x00\n      swap1\n      dup2\n      mstore\n        /* \"Blacklistable.sol\":2120:2131  blacklisted */\n      0x03\n        /* \"Blacklistable.sol\":2120:2141  blacklisted[_account] */\n      0x20\n      mstore\n      0x40\n      swap1\n      keccak256\n      sload\n        /* \"USDm.sol\":5135:5138  _to */\n      dup4\n      swap1\n        /* \"Blacklistable.sol\":2120:2141  blacklisted[_account] */\n      0xff\n      and\n        /* \"Blacklistable.sol\":2119:2141  !blacklisted[_account] */\n      iszero\n        /* \"Blacklistable.sol\":2097:2206  require(\r... */\n      tag_373\n      jumpi\n      mload(0x40)\n      shl(0xe5, 0x461bcd)\n      dup2\n      mstore\n      0x04\n      add\n      tag_174\n      swap1\n      tag_179\n      jump\t// in\n    tag_373:\n      sub(shl(0xa0, 0x01), 0x01)\n        /* \"USDm.sol\":5188:5205  _to != address(0) */\n      dup5\n      and\n        /* \"USDm.sol\":5180:5245  require(_to != address(0), \"FiatToken: mint to the zero address\") */\n      tag_376\n      jumpi\n      mload(0x40)\n      shl(0xe5, 0x461bcd)\n      dup2\n      mstore\n      0x04\n      add\n      tag_174\n      swap1\n      tag_269\n      jump\t// in\n    tag_376:\n        /* \"USDm.sol\":5274:5275  0 */\n      0x00\n        /* \"USDm.sol\":5264:5271  _amount */\n      dup4\n        /* \"USDm.sol\":5264:5275  _amount > 0 */\n      gt\n        /* \"USDm.sol\":5256:5321  require(_amount > 0, \"FiatToken: mint amount not greater than 0\") */\n      tag_378\n      jumpi\n      mload(0x40)\n      shl(0xe5, 0x461bcd)\n      dup2\n      mstore\n      0x04\n      add\n      tag_174\n      swap1\n      tag_272\n      jump\t// in\n    tag_378:\n        /* \"USDm.sol\":5364:5371  _amount */\n      dup3\n        /* \"USDm.sol\":5349:5361  totalSupply_ */\n      sload(0x0c)\n        /* \"USDm.sol\":5349:5371  totalSupply_ + _amount */\n      tag_380\n      swap2\n      swap1\n      tag_277\n      jump\t// in\n    tag_380:\n        /* \"USDm.sol\":5334:5346  totalSupply_ */\n      0x0c\n        /* \"USDm.sol\":5334:5371  totalSupply_ = totalSupply_ + _amount */\n      sstore\n      sub(shl(0xa0, 0x01), 0x01)\n        /* \"USDm.sol\":5398:5411  balances[_to] */\n      dup5\n      and\n      0x00\n      swap1\n      dup2\n      mstore\n        /* \"USDm.sol\":5398:5406  balances */\n      0x0a\n        /* \"USDm.sol\":5398:5411  balances[_to] */\n      0x20\n      mstore\n      0x40\n      swap1\n      keccak256\n      sload\n        /* \"USDm.sol\":5398:5421  balances[_to] + _amount */\n      tag_381\n      swap1\n        /* \"USDm.sol\":5414:5421  _amount */\n      dup5\n      swap1\n        /* \"USDm.sol\":5398:5421  balances[_to] + _amount */\n      tag_277\n      jump\t// in\n    tag_381:\n      sub(shl(0xa0, 0x01), 0x01)\n        /* \"USDm.sol\":5382:5395  balances[_to] */\n      dup6\n      and\n      0x00\n      dup2\n      dup2\n      mstore\n        /* \"USDm.sol\":5382:5390  balances */\n      0x0a\n        /* \"USDm.sol\":5382:5395  balances[_to] */\n      0x20\n      mstore\n      0x40\n      swap1\n      dup2\n      swap1\n      keccak256\n        /* \"USDm.sol\":5382:5421  balances[_to] = balances[_to] + _amount */\n      swap3\n      swap1\n      swap3\n      sstore\n        /* \"USDm.sol\":5437:5475  MintByMaster(msg.sender, _to, _amount) */\n      swap1\n      mload\n        /* \"USDm.sol\":5450:5460  msg.sender */\n      caller\n      swap1\n        /* \"USDm.sol\":5437:5475  MintByMaster(msg.sender, _to, _amount) */\n      0xafdc92bd1a5033525da4a5cf97b444b2d7cefd24c1ef18c9ce43f34a80831a7a\n      swap1\n      tag_382\n      swap1\n        /* \"USDm.sol\":5467:5474  _amount */\n      dup8\n      swap1\n        /* \"USDm.sol\":5437:5475  MintByMaster(msg.sender, _to, _amount) */\n      tag_56\n      jump\t// in\n    tag_382:\n      mload(0x40)\n      dup1\n      swap2\n      sub\n      swap1\n      log3\n        /* \"USDm.sol\":5512:5515  _to */\n      dup4\n      sub(shl(0xa0, 0x01), 0x01)\n        /* \"USDm.sol\":5491:5525  Transfer(address(0), _to, _amount) */\n      and\n        /* \"USDm.sol\":5508:5509  0 */\n      0x00\n      sub(shl(0xa0, 0x01), 0x01)\n        /* \"USDm.sol\":5491:5525  Transfer(address(0), _to, _amount) */\n      and\n      0x00\n      dup1\n      mload\n      0x20\n      data_ada389e1fc24a8587c776340efb91b36e675792ab631816100d55df0b5cf3cbc\n      dup4\n      codecopy\n      dup2\n      mload\n      swap2\n      mstore\n        /* \"USDm.sol\":5517:5524  _amount */\n      dup6\n        /* \"USDm.sol\":5491:5525  Transfer(address(0), _to, _amount) */\n      mload(0x40)\n      tag_383\n      swap2\n      swap1\n      tag_56\n      jump\t// in\n    tag_383:\n      mload(0x40)\n      dup1\n      swap2\n      sub\n      swap1\n      log3\n      pop\n        /* \"USDm.sol\":5543:5547  true */\n      0x01\n      swap4\n        /* \"USDm.sol\":4992:5555  function mintByMaster(address _to, uint256 _amount)\r... */\n      swap3\n      pop\n      pop\n      pop\n      jump\t// out\n        /* \"USDm.sol\":6552:6734  function allowance(address owner, address spender)\r... */\n    tag_150:\n      sub(shl(0xa0, 0x01), 0x01)\n        /* \"USDm.sol\":6703:6717  allowed[owner] */\n      swap2\n      dup3\n      and\n        /* \"USDm.sol\":6671:6678  uint256 */\n      0x00\n        /* \"USDm.sol\":6703:6717  allowed[owner] */\n      swap1\n      dup2\n      mstore\n        /* \"USDm.sol\":6703:6710  allowed */\n      0x0b\n        /* \"USDm.sol\":6703:6717  allowed[owner] */\n      0x20\n      swap1\n      dup2\n      mstore\n      0x40\n      dup1\n      dup4\n      keccak256\n        /* \"USDm.sol\":6703:6726  allowed[owner][spender] */\n      swap4\n      swap1\n      swap5\n      and\n      dup3\n      mstore\n      swap2\n      swap1\n      swap2\n      mstore\n      keccak256\n      sload\n      swap1\n        /* \"USDm.sol\":6552:6734  function allowance(address owner, address spender)\r... */\n      jump\t// out\n        /* \"USDm.sol\":1586:1608  string public currency */\n    tag_153:\n      0x08\n      dup1\n      sload\n      tag_165\n      swap1\n      tag_166\n      jump\t// in\n        /* \"Ownable.sol\":1972:2173  function transferOwnership(address newOwner) public virtual onlyOwner {\r... */\n    tag_157:\n        /* \"Ownable.sol\":1294:1306  _msgSender() */\n      tag_391\n        /* \"Ownable.sol\":1294:1304  _msgSender */\n      tag_215\n        /* \"Ownable.sol\":1294:1306  _msgSender() */\n      jump\t// in\n    tag_391:\n      sub(shl(0xa0, 0x01), 0x01)\n        /* \"Ownable.sol\":1283:1306  owner() == _msgSender() */\n      and\n        /* \"Ownable.sol\":1283:1290  owner() */\n      tag_392\n        /* \"Ownable.sol\":1283:1288  owner */\n      tag_114\n        /* \"Ownable.sol\":1283:1290  owner() */\n      jump\t// in\n    tag_392:\n      sub(shl(0xa0, 0x01), 0x01)\n        /* \"Ownable.sol\":1283:1306  owner() == _msgSender() */\n      and\n      eq\n        /* \"Ownable.sol\":1275:1343  require(owner() == _msgSender(), \"Ownable: caller is not the owner\") */\n      tag_393\n      jumpi\n      mload(0x40)\n      shl(0xe5, 0x461bcd)\n      dup2\n      mstore\n      0x04\n      add\n      tag_174\n      swap1\n      tag_219\n      jump\t// in\n    tag_393:\n      sub(shl(0xa0, 0x01), 0x01)\n        /* \"Ownable.sol\":2061:2083  newOwner != address(0) */\n      dup2\n      and\n        /* \"Ownable.sol\":2053:2126  require(newOwner != address(0), \"Ownable: new owner is the zero address\") */\n      tag_396\n      jumpi\n      mload(0x40)\n      shl(0xe5, 0x461bcd)\n      dup2\n      mstore\n      0x04\n      add\n      tag_174\n      swap1\n      tag_398\n      jump\t// in\n    tag_396:\n        /* \"Ownable.sol\":2137:2165  _transferOwnership(newOwner) */\n      tag_399\n        /* \"Ownable.sol\":2156:2164  newOwner */\n      dup2\n        /* \"Ownable.sol\":2137:2155  _transferOwnership */\n      tag_250\n        /* \"Ownable.sol\":2137:2165  _transferOwnership(newOwner) */\n      jump\t// in\n    tag_399:\n        /* \"Ownable.sol\":1972:2173  function transferOwnership(address newOwner) public virtual onlyOwner {\r... */\n      pop\n      jump\t// out\n        /* \"Blacklistable.sol\":2574:2720  function blacklist(address _account) external onlyBlacklister {\r... */\n    tag_160:\n        /* \"Blacklistable.sol\":1815:1826  blacklister */\n      and(sub(shl(0xa0, 0x01), 0x01), sload(0x02))\n        /* \"Blacklistable.sol\":1801:1811  msg.sender */\n      caller\n        /* \"Blacklistable.sol\":1801:1826  msg.sender == blacklister */\n      eq\n        /* \"Blacklistable.sol\":1779:1898  require(\r... */\n      tag_401\n      jumpi\n      mload(0x40)\n      shl(0xe5, 0x461bcd)\n      dup2\n      mstore\n      0x04\n      add\n      tag_174\n      swap1\n      tag_190\n      jump\t// in\n    tag_401:\n      sub(shl(0xa0, 0x01), 0x01)\n        /* \"Blacklistable.sol\":2647:2668  blacklisted[_account] */\n      dup2\n      and\n      0x00\n      dup2\n      dup2\n      mstore\n        /* \"Blacklistable.sol\":2647:2658  blacklisted */\n      0x03\n        /* \"Blacklistable.sol\":2647:2668  blacklisted[_account] */\n      0x20\n      mstore\n      0x40\n      dup1\n      dup3\n      keccak256\n        /* \"Blacklistable.sol\":2647:2675  blacklisted[_account] = true */\n      dup1\n      sload\n      not(0xff)\n      and\n        /* \"Blacklistable.sol\":2671:2675  true */\n      0x01\n        /* \"Blacklistable.sol\":2647:2675  blacklisted[_account] = true */\n      or\n      swap1\n      sstore\n        /* \"Blacklistable.sol\":2691:2712  Blacklisted(_account) */\n      mload\n      0xffa4e6181777692565cf28528fc88fd1516ea86b56da075235fa575af6a4b855\n      swap2\n        /* \"Blacklistable.sol\":2647:2668  blacklisted[_account] */\n      swap1\n        /* \"Blacklistable.sol\":2691:2712  Blacklisted(_account) */\n      log2\n        /* \"Blacklistable.sol\":2574:2720  function blacklist(address _account) external onlyBlacklister {\r... */\n      pop\n      jump\t// out\n        /* \"Blacklistable.sol\":2343:2460  function isBlacklisted(address _account) external view returns (bool) {\r... */\n    tag_163:\n      sub(shl(0xa0, 0x01), 0x01)\n        /* \"Blacklistable.sol\":2431:2452  blacklisted[_account] */\n      and\n        /* \"Blacklistable.sol\":2407:2411  bool */\n      0x00\n        /* \"Blacklistable.sol\":2431:2452  blacklisted[_account] */\n      swap1\n      dup2\n      mstore\n        /* \"Blacklistable.sol\":2431:2442  blacklisted */\n      0x03\n        /* \"Blacklistable.sol\":2431:2452  blacklisted[_account] */\n      0x20\n      mstore\n      0x40\n      swap1\n      keccak256\n      sload\n      0xff\n      and\n      swap1\n        /* \"Blacklistable.sol\":2343:2460  function isBlacklisted(address _account) external view returns (bool) {\r... */\n      jump\t// out\n        /* \"USDm.sol\":7904:8276  function _approve(\r... */\n    tag_185:\n      sub(shl(0xa0, 0x01), 0x01)\n        /* \"USDm.sol\":8040:8059  owner != address(0) */\n      dup4\n      and\n        /* \"USDm.sol\":8032:8100  require(owner != address(0), \"ERC20: approve from the zero address\") */\n      tag_406\n      jumpi\n      mload(0x40)\n      shl(0xe5, 0x461bcd)\n      dup2\n      mstore\n      0x04\n      add\n      tag_174\n      swap1\n      tag_408\n      jump\t// in\n    tag_406:\n      sub(shl(0xa0, 0x01), 0x01)\n        /* \"USDm.sol\":8119:8140  spender != address(0) */\n      dup3\n      and\n        /* \"USDm.sol\":8111:8179  require(spender != address(0), \"ERC20: approve to the zero address\") */\n      tag_409\n      jumpi\n      mload(0x40)\n      shl(0xe5, 0x461bcd)\n      dup2\n      mstore\n      0x04\n      add\n      tag_174\n      swap1\n      tag_411\n      jump\t// in\n    tag_409:\n      sub(shl(0xa0, 0x01), 0x01)\n        /* \"USDm.sol\":8190:8204  allowed[owner] */\n      dup1\n      dup5\n      and\n      0x00\n      dup2\n      dup2\n      mstore\n        /* \"USDm.sol\":8190:8197  allowed */\n      0x0b\n        /* \"USDm.sol\":8190:8204  allowed[owner] */\n      0x20\n      swap1\n      dup2\n      mstore\n      0x40\n      dup1\n      dup4\n      keccak256\n        /* \"USDm.sol\":8190:8213  allowed[owner][spender] */\n      swap5\n      dup8\n      and\n      dup1\n      dup5\n      mstore\n      swap5\n      swap1\n      swap2\n      mstore\n      swap1\n      dup2\n      swap1\n      keccak256\n        /* \"USDm.sol\":8190:8221  allowed[owner][spender] = value */\n      dup5\n      swap1\n      sstore\n        /* \"USDm.sol\":8237:8268  Approval(owner, spender, value) */\n      mload\n      0x8c5be1e5ebec7d5bd14f71427d1e84f3dd0314c0f7b2291e5b200ac8c7c3b925\n      swap1\n      tag_302\n      swap1\n        /* \"USDm.sol\":8216:8221  value */\n      dup6\n      swap1\n        /* \"USDm.sol\":8237:8268  Approval(owner, spender, value) */\n      tag_56\n      jump\t// in\n        /* \"USDm.sol\":9702:10241  function _transfer(\r... */\n    tag_210:\n      sub(shl(0xa0, 0x01), 0x01)\n        /* \"USDm.sol\":9833:9851  from != address(0) */\n      dup4\n      and\n        /* \"USDm.sol\":9825:9893  require(from != address(0), \"ERC20: transfer from the zero address\") */\n      tag_414\n      jumpi\n      mload(0x40)\n      shl(0xe5, 0x461bcd)\n      dup2\n      mstore\n      0x04\n      add\n      tag_174\n      swap1\n      tag_416\n      jump\t// in\n    tag_414:\n      sub(shl(0xa0, 0x01), 0x01)\n        /* \"USDm.sol\":9912:9928  to != address(0) */\n      dup3\n      and\n        /* \"USDm.sol\":9904:9968  require(to != address(0), \"ERC20: transfer to the zero address\") */\n      tag_417\n      jumpi\n      mload(0x40)\n      shl(0xe5, 0x461bcd)\n      dup2\n      mstore\n      0x04\n      add\n      tag_174\n      swap1\n      tag_419\n      jump\t// in\n    tag_417:\n      sub(shl(0xa0, 0x01), 0x01)\n        /* \"USDm.sol\":10010:10024  balances[from] */\n      dup4\n      and\n      0x00\n      swap1\n      dup2\n      mstore\n        /* \"USDm.sol\":10010:10018  balances */\n      0x0a\n        /* \"USDm.sol\":10010:10024  balances[from] */\n      0x20\n      mstore\n      0x40\n      swap1\n      keccak256\n      sload\n        /* \"USDm.sol\":10001:10024  value <= balances[from] */\n      dup2\n      gt\n      iszero\n        /* \"USDm.sol\":9979:10090  require(\r... */\n      tag_420\n      jumpi\n      mload(0x40)\n      shl(0xe5, 0x461bcd)\n      dup2\n      mstore\n      0x04\n      add\n      tag_174\n      swap1\n      tag_422\n      jump\t// in\n    tag_420:\n      sub(shl(0xa0, 0x01), 0x01)\n        /* \"USDm.sol\":10120:10134  balances[from] */\n      dup4\n      and\n      0x00\n      swap1\n      dup2\n      mstore\n        /* \"USDm.sol\":10120:10128  balances */\n      0x0a\n        /* \"USDm.sol\":10120:10134  balances[from] */\n      0x20\n      mstore\n      0x40\n      swap1\n      keccak256\n      sload\n        /* \"USDm.sol\":10120:10144  balances[from] - (value) */\n      tag_423\n      swap1\n        /* \"USDm.sol\":10138:10143  value */\n      dup3\n      swap1\n        /* \"USDm.sol\":10120:10144  balances[from] - (value) */\n      tag_212\n      jump\t// in\n    tag_423:\n      sub(shl(0xa0, 0x01), 0x01)\n        /* \"USDm.sol\":10103:10117  balances[from] */\n      dup1\n      dup6\n      and\n      0x00\n      swap1\n      dup2\n      mstore\n        /* \"USDm.sol\":10103:10111  balances */\n      0x0a\n        /* \"USDm.sol\":10103:10117  balances[from] */\n      0x20\n      mstore\n      0x40\n      dup1\n      dup3\n      keccak256\n        /* \"USDm.sol\":10103:10144  balances[from] = balances[from] - (value) */\n      swap4\n      swap1\n      swap4\n      sstore\n        /* \"USDm.sol\":10170:10182  balances[to] */\n      swap1\n      dup5\n      and\n      dup2\n      mstore\n      keccak256\n      sload\n        /* \"USDm.sol\":10170:10192  balances[to] + (value) */\n      tag_424\n      swap1\n        /* \"USDm.sol\":10186:10191  value */\n      dup3\n      swap1\n        /* \"USDm.sol\":10170:10192  balances[to] + (value) */\n      tag_277\n      jump\t// in\n    tag_424:\n      sub(shl(0xa0, 0x01), 0x01)\n        /* \"USDm.sol\":10155:10167  balances[to] */\n      dup1\n      dup5\n      and\n      0x00\n      dup2\n      dup2\n      mstore\n        /* \"USDm.sol\":10155:10163  balances */\n      0x0a\n        /* \"USDm.sol\":10155:10167  balances[to] */\n      0x20\n      mstore\n      0x40\n      swap1\n      dup2\n      swap1\n      keccak256\n        /* \"USDm.sol\":10155:10192  balances[to] = balances[to] + (value) */\n      swap4\n      swap1\n      swap4\n      sstore\n        /* \"USDm.sol\":10208:10233  Transfer(from, to, value) */\n      swap2\n      mload\n      swap1\n      dup6\n      and\n      swap1\n      0x00\n      dup1\n      mload\n      0x20\n      data_ada389e1fc24a8587c776340efb91b36e675792ab631816100d55df0b5cf3cbc\n      dup4\n      codecopy\n      dup2\n      mload\n      swap2\n      mstore\n      swap1\n      tag_302\n      swap1\n        /* \"USDm.sol\":10227:10232  value */\n      dup6\n      swap1\n        /* \"USDm.sol\":10208:10233  Transfer(from, to, value) */\n      tag_56\n      jump\t// in\n        /* \"Context.sol\":656:754  function _msgSender() internal view virtual returns (address) {\r... */\n    tag_215:\n        /* \"Context.sol\":736:746  msg.sender */\n      caller\n        /* \"Context.sol\":656:754  function _msgSender() internal view virtual returns (address) {\r... */\n      swap1\n      jump\t// out\n        /* \"Ownable.sol\":2333:2524  function _transferOwnership(address newOwner) internal virtual {\r... */\n    tag_250:\n        /* \"Ownable.sol\":2407:2423  address oldOwner */\n      0x00\n        /* \"Ownable.sol\":2426:2432  _owner */\n      dup1\n      sload\n      sub(shl(0xa0, 0x01), 0x01)\n        /* \"Ownable.sol\":2443:2460  _owner = newOwner */\n      dup4\n      dup2\n      and\n      not(sub(shl(0xa0, 0x01), 0x01))\n      dup4\n      and\n      dup2\n      or\n      dup5\n      sstore\n        /* \"Ownable.sol\":2476:2516  OwnershipTransferred(oldOwner, newOwner) */\n      mload(0x40)\n        /* \"Ownable.sol\":2426:2432  _owner */\n      swap2\n      swap1\n      swap3\n      and\n      swap3\n      dup4\n      swap2\n        /* \"Ownable.sol\":2476:2516  OwnershipTransferred(oldOwner, newOwner) */\n      0x8be0079c531659141344cd1fd0a4f28419497f9722a3daafe3b4186f6b6457e0\n      swap2\n        /* \"Ownable.sol\":2407:2423  address oldOwner */\n      swap1\n        /* \"Ownable.sol\":2476:2516  OwnershipTransferred(oldOwner, newOwner) */\n      log3\n        /* \"Ownable.sol\":2333:2524  function _transferOwnership(address newOwner) internal virtual {\r... */\n      pop\n      pop\n      jump\t// out\n        /* \"SafeERC20.sol\":707:918  function safeTransfer(\r... */\n    tag_364:\n        /* \"SafeERC20.sol\":824:910  _callOptionalReturn(token, abi.encodeWithSelector(token.transfer.selector, to, value)) */\n      tag_363\n        /* \"SafeERC20.sol\":844:849  token */\n      dup4\n        /* \"SafeERC20.sol\":874:897  token.transfer.selector */\n      shl(0xe0, 0xa9059cbb)\n        /* \"SafeERC20.sol\":899:901  to */\n      dup5\n        /* \"SafeERC20.sol\":903:908  value */\n      dup5\n        /* \"SafeERC20.sol\":851:909  abi.encodeWithSelector(token.transfer.selector, to, value) */\n      add(0x24, mload(0x40))\n      tag_430\n      swap3\n      swap2\n      swap1\n      tag_431\n      jump\t// in\n    tag_430:\n      0x40\n      dup1\n      mload\n      not(0x1f)\n      dup2\n      dup5\n      sub\n      add\n      dup2\n      mstore\n      swap2\n      swap1\n      mstore\n      0x20\n      dup2\n      add\n      dup1\n      mload\n      sub(shl(0xe0, 0x01), 0x01)\n      and\n      not(sub(shl(0xe0, 0x01), 0x01))\n      swap1\n      swap4\n      and\n      swap3\n      swap1\n      swap3\n      or\n      swap1\n      swap2\n      mstore\n        /* \"SafeERC20.sol\":3704:3727  bytes memory returndata */\n      0x00\n        /* \"SafeERC20.sol\":3730:3799  address(token).functionCall(data, \"SafeERC20: low-level call failed\") */\n      tag_434\n        /* \"SafeERC20.sol\":3758:3762  data */\n      dup3\n        /* \"SafeERC20.sol\":3730:3799  address(token).functionCall(data, \"SafeERC20: low-level call failed\") */\n      mload(0x40)\n      dup1\n      0x40\n      add\n      0x40\n      mstore\n      dup1\n      0x20\n      dup2\n      mstore\n      0x20\n      add\n      0x5361666545524332303a206c6f772d6c6576656c2063616c6c206661696c6564\n      dup2\n      mstore\n      pop\n        /* \"SafeERC20.sol\":3738:3743  token */\n      dup6\n      sub(shl(0xa0, 0x01), 0x01)\n        /* \"SafeERC20.sol\":3730:3757  address(token).functionCall */\n      and\n      tag_435\n      swap1\n        /* \"SafeERC20.sol\":3730:3799  address(token).functionCall(data, \"SafeERC20: low-level call failed\") */\n      swap3\n      swap2\n      swap1\n      0xffffffff\n      and\n      jump\t// in\n    tag_434:\n        /* \"SafeERC20.sol\":3814:3831  returndata.length */\n      dup1\n      mload\n        /* \"SafeERC20.sol\":3704:3799  bytes memory returndata = address(token).functionCall(data, \"SafeERC20: low-level call failed\") */\n      swap1\n      swap2\n      pop\n        /* \"SafeERC20.sol\":3814:3835  returndata.length > 0 */\n      iszero\n        /* \"SafeERC20.sol\":3810:3989  if (returndata.length > 0) {\r... */\n      tag_363\n      jumpi\n        /* \"SafeERC20.sol\":3911:3921  returndata */\n      dup1\n        /* \"SafeERC20.sol\":3900:3930  abi.decode(returndata, (bool)) */\n      dup1\n      0x20\n      add\n      swap1\n      mload\n      dup2\n      add\n      swap1\n      tag_437\n      swap2\n      swap1\n      tag_438\n      jump\t// in\n    tag_437:\n        /* \"SafeERC20.sol\":3892:3977  require(abi.decode(returndata, (bool)), \"SafeERC20: ERC20 operation did not succeed\") */\n      tag_363\n      jumpi\n      mload(0x40)\n      shl(0xe5, 0x461bcd)\n      dup2\n      mstore\n      0x04\n      add\n      tag_174\n      swap1\n      tag_441\n      jump\t// in\n        /* \"Address.sol\":3955:4184  function functionCall(\r... */\n    tag_435:\n        /* \"Address.sol\":4092:4104  bytes memory */\n      0x60\n        /* \"Address.sol\":4124:4176  functionCallWithValue(target, data, 0, errorMessage) */\n      tag_443\n        /* \"Address.sol\":4146:4152  target */\n      dup5\n        /* \"Address.sol\":4154:4158  data */\n      dup5\n        /* \"Address.sol\":4160:4161  0 */\n      0x00\n        /* \"Address.sol\":4163:4175  errorMessage */\n      dup6\n        /* \"Address.sol\":4124:4145  functionCallWithValue */\n      tag_444\n        /* \"Address.sol\":4124:4176  functionCallWithValue(target, data, 0, errorMessage) */\n      jump\t// in\n    tag_443:\n        /* \"Address.sol\":4117:4176  return functionCallWithValue(target, data, 0, errorMessage) */\n      swap1\n      pop\n        /* \"Address.sol\":3955:4184  function functionCall(\r... */\n    tag_442:\n      swap4\n      swap3\n      pop\n      pop\n      pop\n      jump\t// out\n        /* \"Address.sol\":5075:5585  function functionCallWithValue(\r... */\n    tag_444:\n        /* \"Address.sol\":5245:5257  bytes memory */\n      0x60\n        /* \"Address.sol\":5303:5308  value */\n      dup3\n        /* \"Address.sol\":5278:5299  address(this).balance */\n      selfbalance\n        /* \"Address.sol\":5278:5308  address(this).balance >= value */\n      lt\n      iszero\n        /* \"Address.sol\":5270:5351  require(address(this).balance >= value, \"Address: insufficient balance for call\") */\n      tag_446\n      jumpi\n      mload(0x40)\n      shl(0xe5, 0x461bcd)\n      dup2\n      mstore\n      0x04\n      add\n      tag_174\n      swap1\n      tag_448\n      jump\t// in\n    tag_446:\n        /* \"Address.sol\":5370:5388  isContract(target) */\n      tag_449\n        /* \"Address.sol\":5381:5387  target */\n      dup6\n        /* \"Address.sol\":5370:5380  isContract */\n      tag_450\n        /* \"Address.sol\":5370:5388  isContract(target) */\n      jump\t// in\n    tag_449:\n        /* \"Address.sol\":5362:5422  require(isContract(target), \"Address: call to non-contract\") */\n      tag_451\n      jumpi\n      mload(0x40)\n      shl(0xe5, 0x461bcd)\n      dup2\n      mstore\n      0x04\n      add\n      tag_174\n      swap1\n      tag_453\n      jump\t// in\n    tag_451:\n        /* \"Address.sol\":5436:5448  bool success */\n      0x00\n        /* \"Address.sol\":5450:5473  bytes memory returndata */\n      dup1\n        /* \"Address.sol\":5477:5483  target */\n      dup7\n      sub(shl(0xa0, 0x01), 0x01)\n        /* \"Address.sol\":5477:5488  target.call */\n      and\n        /* \"Address.sol\":5496:5501  value */\n      dup6\n        /* \"Address.sol\":5503:5507  data */\n      dup8\n        /* \"Address.sol\":5477:5508  target.call{value: value}(data) */\n      mload(0x40)\n      tag_454\n      swap2\n      swap1\n      tag_455\n      jump\t// in\n    tag_454:\n      0x00\n      mload(0x40)\n      dup1\n      dup4\n      sub\n      dup2\n      dup6\n      dup8\n      gas\n      call\n      swap3\n      pop\n      pop\n      pop\n      returndatasize\n      dup1\n      0x00\n      dup2\n      eq\n      tag_458\n      jumpi\n      mload(0x40)\n      swap2\n      pop\n      and(add(returndatasize, 0x3f), not(0x1f))\n      dup3\n      add\n      0x40\n      mstore\n      returndatasize\n      dup3\n      mstore\n      returndatasize\n      0x00\n      0x20\n      dup5\n      add\n      returndatacopy\n      jump(tag_457)\n    tag_458:\n      0x60\n      swap2\n      pop\n    tag_457:\n      pop\n        /* \"Address.sol\":5435:5508  (bool success, bytes memory returndata) = target.call{value: value}(data) */\n      swap2\n      pop\n      swap2\n      pop\n        /* \"Address.sol\":5526:5577  verifyCallResult(success, returndata, errorMessage) */\n      tag_459\n        /* \"Address.sol\":5543:5550  success */\n      dup3\n        /* \"Address.sol\":5552:5562  returndata */\n      dup3\n        /* \"Address.sol\":5564:5576  errorMessage */\n      dup7\n        /* \"Address.sol\":5526:5542  verifyCallResult */\n      tag_460\n        /* \"Address.sol\":5526:5577  verifyCallResult(success, returndata, errorMessage) */\n      jump\t// in\n    tag_459:\n        /* \"Address.sol\":5519:5577  return verifyCallResult(success, returndata, errorMessage) */\n      swap8\n        /* \"Address.sol\":5075:5585  function functionCallWithValue(\r... */\n      swap7\n      pop\n      pop\n      pop\n      pop\n      pop\n      pop\n      pop\n      jump\t// out\n        /* \"Address.sol\":1210:1536  function isContract(address account) internal view returns (bool) {\r... */\n    tag_450:\n      sub(shl(0xa0, 0x01), 0x01)\n        /* \"Address.sol\":1505:1524  account.code.length */\n      and\n      extcodesize\n        /* \"Address.sol\":1505:1528  account.code.length > 0 */\n      iszero\n      iszero\n      swap1\n        /* \"Address.sol\":1210:1536  function isContract(address account) internal view returns (bool) {\r... */\n      jump\t// out\n        /* \"Address.sol\":7761:8523  function verifyCallResult(\r... */\n    tag_460:\n        /* \"Address.sol\":7911:7923  bytes memory */\n      0x60\n        /* \"Address.sol\":7940:7947  success */\n      dup4\n        /* \"Address.sol\":7936:8516  if (success) {\r... */\n      iszero\n      tag_463\n      jumpi\n      pop\n        /* \"Address.sol\":7971:7981  returndata */\n      dup2\n        /* \"Address.sol\":7964:7981  return returndata */\n      jump(tag_442)\n        /* \"Address.sol\":7936:8516  if (success) {\r... */\n    tag_463:\n        /* \"Address.sol\":8085:8102  returndata.length */\n      dup3\n      mload\n        /* \"Address.sol\":8085:8106  returndata.length > 0 */\n      iszero\n        /* \"Address.sol\":8081:8505  if (returndata.length > 0) {\r... */\n      tag_465\n      jumpi\n        /* \"Address.sol\":8333:8343  returndata */\n      dup3\n        /* \"Address.sol\":8327:8344  mload(returndata) */\n      mload\n        /* \"Address.sol\":8394:8409  returndata_size */\n      dup1\n        /* \"Address.sol\":8381:8391  returndata */\n      dup5\n        /* \"Address.sol\":8377:8379  32 */\n      0x20\n        /* \"Address.sol\":8373:8392  add(32, returndata) */\n      add\n        /* \"Address.sol\":8366:8410  revert(add(32, returndata), returndata_size) */\n      revert\n        /* \"Address.sol\":8281:8429  {\r... */\n    tag_465:\n        /* \"Address.sol\":8476:8488  errorMessage */\n      dup2\n        /* \"Address.sol\":8469:8489  revert(errorMessage) */\n      mload(0x40)\n      shl(0xe5, 0x461bcd)\n      dup2\n      mstore\n      0x04\n      add\n      tag_174\n      swap2\n      swap1\n      tag_46\n      jump\t// in\n    tag_246:\n      dup3\n      dup1\n      sload\n      tag_468\n      swap1\n      tag_166\n      jump\t// in\n    tag_468:\n      swap1\n      0x00\n      mstore\n      keccak256(0x00, 0x20)\n      swap1\n      0x1f\n      add\n      0x20\n      swap1\n      div\n      dup2\n      add\n      swap3\n      dup3\n      tag_470\n      jumpi\n      0x00\n      dup6\n      sstore\n      jump(tag_473)\n    tag_470:\n      dup3\n      0x1f\n      lt\n      tag_471\n      jumpi\n      dup1\n      mload\n      not(0xff)\n      and\n      dup4\n      dup1\n      add\n      or\n      dup6\n      sstore\n      jump(tag_473)\n    tag_471:\n      dup3\n      dup1\n      add\n      0x01\n      add\n      dup6\n      sstore\n      dup3\n      iszero\n      tag_473\n      jumpi\n      swap2\n      dup3\n      add\n    tag_472:\n      dup3\n      dup2\n      gt\n      iszero\n      tag_473\n      jumpi\n      dup3\n      mload\n      dup3\n      sstore\n      swap2\n      0x20\n      add\n      swap2\n      swap1\n      0x01\n      add\n      swap1\n      jump(tag_472)\n    tag_473:\n      pop\n      tag_474\n      swap3\n      swap2\n      pop\n      tag_475\n      jump\t// in\n    tag_474:\n      pop\n      swap1\n      jump\t// out\n    tag_475:\n    tag_476:\n      dup1\n      dup3\n      gt\n      iszero\n      tag_474\n      jumpi\n      0x00\n      dup2\n      sstore\n      0x01\n      add\n      jump(tag_476)\n        /* \"#utility.yul\":14:152   */\n    tag_479:\n        /* \"#utility.yul\":84:104   */\n      dup1\n      calldataload\n        /* \"#utility.yul\":113:146   */\n      tag_228\n        /* \"#utility.yul\":84:104   */\n      dup2\n        /* \"#utility.yul\":113:146   */\n      tag_482\n      jump\t// in\n        /* \"#utility.yul\":157:898   */\n    tag_483:\n      0x00\n        /* \"#utility.yul\":255:258   */\n      dup3\n        /* \"#utility.yul\":248:252   */\n      0x1f\n        /* \"#utility.yul\":240:246   */\n      dup4\n        /* \"#utility.yul\":236:253   */\n      add\n        /* \"#utility.yul\":232:259   */\n      slt\n        /* \"#utility.yul\":222:224   */\n      tag_485\n      jumpi\n        /* \"#utility.yul\":277:282   */\n      dup1\n        /* \"#utility.yul\":270:275   */\n      dup2\n        /* \"#utility.yul\":263:283   */\n      revert\n        /* \"#utility.yul\":222:224   */\n    tag_485:\n        /* \"#utility.yul\":317:323   */\n      dup2\n        /* \"#utility.yul\":304:324   */\n      calldataload\n        /* \"#utility.yul\":343:361   */\n      0xffffffffffffffff\n        /* \"#utility.yul\":380:382   */\n      dup1\n        /* \"#utility.yul\":376:378   */\n      dup3\n        /* \"#utility.yul\":373:383   */\n      gt\n        /* \"#utility.yul\":370:372   */\n      iszero\n      tag_487\n      jumpi\n        /* \"#utility.yul\":386:404   */\n      tag_487\n      tag_488\n      jump\t// in\n    tag_487:\n        /* \"#utility.yul\":461:463   */\n      0x40\n        /* \"#utility.yul\":455:464   */\n      mload\n        /* \"#utility.yul\":429:431   */\n      0x1f\n        /* \"#utility.yul\":515:528   */\n      dup4\n      add\n      not(0x1f)\n        /* \"#utility.yul\":511:533   */\n      swap1\n      dup2\n      and\n        /* \"#utility.yul\":535:537   */\n      0x3f\n        /* \"#utility.yul\":507:538   */\n      add\n        /* \"#utility.yul\":503:543   */\n      and\n        /* \"#utility.yul\":491:544   */\n      dup2\n      add\n      swap1\n        /* \"#utility.yul\":559:577   */\n      dup3\n      dup3\n      gt\n        /* \"#utility.yul\":579:601   */\n      dup2\n      dup4\n      lt\n        /* \"#utility.yul\":556:602   */\n      or\n        /* \"#utility.yul\":553:555   */\n      iszero\n      tag_490\n      jumpi\n        /* \"#utility.yul\":605:623   */\n      tag_490\n      tag_488\n      jump\t// in\n    tag_490:\n        /* \"#utility.yul\":645:655   */\n      dup2\n        /* \"#utility.yul\":641:643   */\n      0x40\n        /* \"#utility.yul\":634:656   */\n      mstore\n        /* \"#utility.yul\":680:682   */\n      dup4\n        /* \"#utility.yul\":672:678   */\n      dup2\n        /* \"#utility.yul\":665:683   */\n      mstore\n        /* \"#utility.yul\":726:729   */\n      dup7\n        /* \"#utility.yul\":719:723   */\n      0x20\n        /* \"#utility.yul\":714:716   */\n      dup6\n        /* \"#utility.yul\":706:712   */\n      dup9\n        /* \"#utility.yul\":702:717   */\n      add\n        /* \"#utility.yul\":698:724   */\n      add\n        /* \"#utility.yul\":695:730   */\n      gt\n        /* \"#utility.yul\":692:694   */\n      iszero\n      tag_491\n      jumpi\n        /* \"#utility.yul\":747:752   */\n      dup5\n        /* \"#utility.yul\":740:745   */\n      dup6\n        /* \"#utility.yul\":733:753   */\n      revert\n        /* \"#utility.yul\":692:694   */\n    tag_491:\n        /* \"#utility.yul\":815:817   */\n      dup4\n        /* \"#utility.yul\":808:812   */\n      0x20\n        /* \"#utility.yul\":800:806   */\n      dup8\n        /* \"#utility.yul\":796:813   */\n      add\n        /* \"#utility.yul\":789:793   */\n      0x20\n        /* \"#utility.yul\":781:787   */\n      dup4\n        /* \"#utility.yul\":777:794   */\n      add\n        /* \"#utility.yul\":764:818   */\n      calldatacopy\n        /* \"#utility.yul\":838:853   */\n      swap3\n      dup4\n      add\n        /* \"#utility.yul\":855:859   */\n      0x20\n        /* \"#utility.yul\":834:860   */\n      add\n        /* \"#utility.yul\":827:868   */\n      swap4\n      swap1\n      swap4\n      mstore\n      pop\n        /* \"#utility.yul\":842:848   */\n      swap4\n        /* \"#utility.yul\":212:898   */\n      swap3\n      pop\n      pop\n      pop\n      jump\t// out\n        /* \"#utility.yul\":903:1061   */\n    tag_492:\n        /* \"#utility.yul\":971:991   */\n      dup1\n      calldataload\n        /* \"#utility.yul\":1031:1035   */\n      0xff\n        /* \"#utility.yul\":1020:1036   */\n      dup2\n      and\n        /* \"#utility.yul\":1010:1037   */\n      dup2\n      eq\n        /* \"#utility.yul\":1000:1002   */\n      tag_228\n      jumpi\n        /* \"#utility.yul\":1051:1052   */\n      0x00\n        /* \"#utility.yul\":1048:1049   */\n      dup1\n        /* \"#utility.yul\":1041:1053   */\n      revert\n        /* \"#utility.yul\":1066:1325   */\n    tag_59:\n      0x00\n        /* \"#utility.yul\":1178:1180   */\n      0x20\n        /* \"#utility.yul\":1166:1175   */\n      dup3\n        /* \"#utility.yul\":1157:1164   */\n      dup5\n        /* \"#utility.yul\":1153:1176   */\n      sub\n        /* \"#utility.yul\":1149:1181   */\n      slt\n        /* \"#utility.yul\":1146:1148   */\n      iszero\n      tag_496\n      jumpi\n        /* \"#utility.yul\":1199:1205   */\n      dup1\n        /* \"#utility.yul\":1191:1197   */\n      dup2\n        /* \"#utility.yul\":1184:1206   */\n      revert\n        /* \"#utility.yul\":1146:1148   */\n    tag_496:\n        /* \"#utility.yul\":1243:1252   */\n      dup2\n        /* \"#utility.yul\":1230:1253   */\n      calldataload\n        /* \"#utility.yul\":1262:1295   */\n      tag_442\n        /* \"#utility.yul\":1289:1294   */\n      dup2\n        /* \"#utility.yul\":1262:1295   */\n      tag_482\n      jump\t// in\n        /* \"#utility.yul\":1330:1732   */\n    tag_149:\n      0x00\n      dup1\n        /* \"#utility.yul\":1459:1461   */\n      0x40\n        /* \"#utility.yul\":1447:1456   */\n      dup4\n        /* \"#utility.yul\":1438:1445   */\n      dup6\n        /* \"#utility.yul\":1434:1457   */\n      sub\n        /* \"#utility.yul\":1430:1462   */\n      slt\n        /* \"#utility.yul\":1427:1429   */\n      iszero\n      tag_499\n      jumpi\n        /* \"#utility.yul\":1480:1486   */\n      dup1\n        /* \"#utility.yul\":1472:1478   */\n      dup2\n        /* \"#utility.yul\":1465:1487   */\n      revert\n        /* \"#utility.yul\":1427:1429   */\n    tag_499:\n        /* \"#utility.yul\":1524:1533   */\n      dup3\n        /* \"#utility.yul\":1511:1534   */\n      calldataload\n        /* \"#utility.yul\":1543:1576   */\n      tag_500\n        /* \"#utility.yul\":1570:1575   */\n      dup2\n        /* \"#utility.yul\":1543:1576   */\n      tag_482\n      jump\t// in\n    tag_500:\n        /* \"#utility.yul\":1595:1600   */\n      swap2\n      pop\n        /* \"#utility.yul\":1652:1654   */\n      0x20\n        /* \"#utility.yul\":1637:1655   */\n      dup4\n      add\n        /* \"#utility.yul\":1624:1656   */\n      calldataload\n        /* \"#utility.yul\":1665:1700   */\n      tag_501\n        /* \"#utility.yul\":1624:1656   */\n      dup2\n        /* \"#utility.yul\":1665:1700   */\n      tag_482\n      jump\t// in\n    tag_501:\n        /* \"#utility.yul\":1719:1726   */\n      dup1\n        /* \"#utility.yul\":1709:1726   */\n      swap2\n      pop\n      pop\n        /* \"#utility.yul\":1417:1732   */\n      swap3\n      pop\n      swap3\n      swap1\n      pop\n      jump\t// out\n        /* \"#utility.yul\":1737:2207   */\n    tag_63:\n      0x00\n      dup1\n      0x00\n        /* \"#utility.yul\":1883:1885   */\n      0x60\n        /* \"#utility.yul\":1871:1880   */\n      dup5\n        /* \"#utility.yul\":1862:1869   */\n      dup7\n        /* \"#utility.yul\":1858:1881   */\n      sub\n        /* \"#utility.yul\":1854:1886   */\n      slt\n        /* \"#utility.yul\":1851:1853   */\n      iszero\n      tag_503\n      jumpi\n        /* \"#utility.yul\":1904:1910   */\n      dup1\n        /* \"#utility.yul\":1896:1902   */\n      dup2\n        /* \"#utility.yul\":1889:1911   */\n      revert\n        /* \"#utility.yul\":1851:1853   */\n    tag_503:\n        /* \"#utility.yul\":1948:1957   */\n      dup4\n        /* \"#utility.yul\":1935:1958   */\n      calldataload\n        /* \"#utility.yul\":1967:2000   */\n      tag_504\n        /* \"#utility.yul\":1994:1999   */\n      dup2\n        /* \"#utility.yul\":1967:2000   */\n      tag_482\n      jump\t// in\n    tag_504:\n        /* \"#utility.yul\":2019:2024   */\n      swap3\n      pop\n        /* \"#utility.yul\":2076:2078   */\n      0x20\n        /* \"#utility.yul\":2061:2079   */\n      dup5\n      add\n        /* \"#utility.yul\":2048:2080   */\n      calldataload\n        /* \"#utility.yul\":2089:2124   */\n      tag_505\n        /* \"#utility.yul\":2048:2080   */\n      dup2\n        /* \"#utility.yul\":2089:2124   */\n      tag_482\n      jump\t// in\n    tag_505:\n        /* \"#utility.yul\":1841:2207   */\n      swap3\n      swap6\n        /* \"#utility.yul\":2143:2150   */\n      swap3\n      swap5\n      pop\n      pop\n      pop\n        /* \"#utility.yul\":2197:2199   */\n      0x40\n        /* \"#utility.yul\":2182:2200   */\n      swap2\n      swap1\n      swap2\n      add\n        /* \"#utility.yul\":2169:2201   */\n      calldataload\n      swap1\n        /* \"#utility.yul\":1841:2207   */\n      jump\t// out\n        /* \"#utility.yul\":2212:2539   */\n    tag_49:\n      0x00\n      dup1\n        /* \"#utility.yul\":2341:2343   */\n      0x40\n        /* \"#utility.yul\":2329:2338   */\n      dup4\n        /* \"#utility.yul\":2320:2327   */\n      dup6\n        /* \"#utility.yul\":2316:2339   */\n      sub\n        /* \"#utility.yul\":2312:2344   */\n      slt\n        /* \"#utility.yul\":2309:2311   */\n      iszero\n      tag_507\n      jumpi\n        /* \"#utility.yul\":2362:2368   */\n      dup2\n        /* \"#utility.yul\":2354:2360   */\n      dup3\n        /* \"#utility.yul\":2347:2369   */\n      revert\n        /* \"#utility.yul\":2309:2311   */\n    tag_507:\n        /* \"#utility.yul\":2406:2415   */\n      dup3\n        /* \"#utility.yul\":2393:2416   */\n      calldataload\n        /* \"#utility.yul\":2425:2458   */\n      tag_508\n        /* \"#utility.yul\":2452:2457   */\n      dup2\n        /* \"#utility.yul\":2425:2458   */\n      tag_482\n      jump\t// in\n    tag_508:\n        /* \"#utility.yul\":2477:2482   */\n      swap5\n        /* \"#utility.yul\":2529:2531   */\n      0x20\n        /* \"#utility.yul\":2514:2532   */\n      swap4\n      swap1\n      swap4\n      add\n        /* \"#utility.yul\":2501:2533   */\n      calldataload\n      swap4\n      pop\n      pop\n      pop\n        /* \"#utility.yul\":2299:2539   */\n      jump\t// out\n        /* \"#utility.yul\":2544:2841   */\n    tag_438:\n      0x00\n        /* \"#utility.yul\":2664:2666   */\n      0x20\n        /* \"#utility.yul\":2652:2661   */\n      dup3\n        /* \"#utility.yul\":2643:2650   */\n      dup5\n        /* \"#utility.yul\":2639:2662   */\n      sub\n        /* \"#utility.yul\":2635:2667   */\n      slt\n        /* \"#utility.yul\":2632:2634   */\n      iszero\n      tag_510\n      jumpi\n        /* \"#utility.yul\":2685:2691   */\n      dup1\n        /* \"#utility.yul\":2677:2683   */\n      dup2\n        /* \"#utility.yul\":2670:2692   */\n      revert\n        /* \"#utility.yul\":2632:2634   */\n    tag_510:\n        /* \"#utility.yul\":2722:2731   */\n      dup2\n        /* \"#utility.yul\":2716:2732   */\n      mload\n        /* \"#utility.yul\":2775:2780   */\n      dup1\n        /* \"#utility.yul\":2768:2781   */\n      iszero\n        /* \"#utility.yul\":2761:2782   */\n      iszero\n        /* \"#utility.yul\":2754:2759   */\n      dup2\n        /* \"#utility.yul\":2751:2783   */\n      eq\n        /* \"#utility.yul\":2741:2743   */\n      tag_442\n      jumpi\n        /* \"#utility.yul\":2802:2808   */\n      dup2\n        /* \"#utility.yul\":2794:2800   */\n      dup3\n        /* \"#utility.yul\":2787:2809   */\n      revert\n        /* \"#utility.yul\":2846:3330   */\n    tag_138:\n      0x00\n      dup1\n      0x00\n        /* \"#utility.yul\":3006:3008   */\n      0x60\n        /* \"#utility.yul\":2994:3003   */\n      dup5\n        /* \"#utility.yul\":2985:2992   */\n      dup7\n        /* \"#utility.yul\":2981:3004   */\n      sub\n        /* \"#utility.yul\":2977:3009   */\n      slt\n        /* \"#utility.yul\":2974:2976   */\n      iszero\n      tag_503\n      jumpi\n        /* \"#utility.yul\":3027:3033   */\n      dup3\n        /* \"#utility.yul\":3019:3025   */\n      dup4\n        /* \"#utility.yul\":3012:3034   */\n      revert\n        /* \"#utility.yul\":3335:4505   */\n    tag_79:\n      0x00\n      dup1\n      0x00\n      dup1\n      0x00\n      dup1\n      0x00\n      dup1\n        /* \"#utility.yul\":3594:3597   */\n      0x0100\n        /* \"#utility.yul\":3582:3591   */\n      dup10\n        /* \"#utility.yul\":3573:3580   */\n      dup12\n        /* \"#utility.yul\":3569:3592   */\n      sub\n        /* \"#utility.yul\":3565:3598   */\n      slt\n        /* \"#utility.yul\":3562:3564   */\n      iszero\n      tag_517\n      jumpi\n        /* \"#utility.yul\":3616:3622   */\n      dup4\n        /* \"#utility.yul\":3608:3614   */\n      dup5\n        /* \"#utility.yul\":3601:3623   */\n      revert\n        /* \"#utility.yul\":3562:3564   */\n    tag_517:\n        /* \"#utility.yul\":3661:3670   */\n      dup9\n        /* \"#utility.yul\":3648:3671   */\n      calldataload\n        /* \"#utility.yul\":3690:3708   */\n      0xffffffffffffffff\n        /* \"#utility.yul\":3731:3733   */\n      dup1\n        /* \"#utility.yul\":3723:3729   */\n      dup3\n        /* \"#utility.yul\":3720:3734   */\n      gt\n        /* \"#utility.yul\":3717:3719   */\n      iszero\n      tag_518\n      jumpi\n        /* \"#utility.yul\":3752:3758   */\n      dup6\n        /* \"#utility.yul\":3744:3750   */\n      dup7\n        /* \"#utility.yul\":3737:3759   */\n      revert\n        /* \"#utility.yul\":3717:3719   */\n    tag_518:\n        /* \"#utility.yul\":3780:3832   */\n      tag_519\n        /* \"#utility.yul\":3824:3831   */\n      dup13\n        /* \"#utility.yul\":3815:3821   */\n      dup4\n        /* \"#utility.yul\":3804:3813   */\n      dup14\n        /* \"#utility.yul\":3800:3822   */\n      add\n        /* \"#utility.yul\":3780:3832   */\n      tag_483\n      jump\t// in\n    tag_519:\n        /* \"#utility.yul\":3770:3832   */\n      swap10\n      pop\n        /* \"#utility.yul\":3885:3887   */\n      0x20\n        /* \"#utility.yul\":3874:3883   */\n      dup12\n        /* \"#utility.yul\":3870:3888   */\n      add\n        /* \"#utility.yul\":3857:3889   */\n      calldataload\n        /* \"#utility.yul\":3841:3889   */\n      swap2\n      pop\n        /* \"#utility.yul\":3914:3916   */\n      dup1\n        /* \"#utility.yul\":3904:3912   */\n      dup3\n        /* \"#utility.yul\":3901:3917   */\n      gt\n        /* \"#utility.yul\":3898:3900   */\n      iszero\n      tag_520\n      jumpi\n        /* \"#utility.yul\":3935:3941   */\n      dup6\n        /* \"#utility.yul\":3927:3933   */\n      dup7\n        /* \"#utility.yul\":3920:3942   */\n      revert\n        /* \"#utility.yul\":3898:3900   */\n    tag_520:\n        /* \"#utility.yul\":3963:4017   */\n      tag_521\n        /* \"#utility.yul\":4009:4016   */\n      dup13\n        /* \"#utility.yul\":3998:4006   */\n      dup4\n        /* \"#utility.yul\":3987:3996   */\n      dup14\n        /* \"#utility.yul\":3983:4007   */\n      add\n        /* \"#utility.yul\":3963:4017   */\n      tag_483\n      jump\t// in\n    tag_521:\n        /* \"#utility.yul\":3953:4017   */\n      swap9\n      pop\n        /* \"#utility.yul\":4070:4072   */\n      0x40\n        /* \"#utility.yul\":4059:4068   */\n      dup12\n        /* \"#utility.yul\":4055:4073   */\n      add\n        /* \"#utility.yul\":4042:4074   */\n      calldataload\n        /* \"#utility.yul\":4026:4074   */\n      swap2\n      pop\n        /* \"#utility.yul\":4099:4101   */\n      dup1\n        /* \"#utility.yul\":4089:4097   */\n      dup3\n        /* \"#utility.yul\":4086:4102   */\n      gt\n        /* \"#utility.yul\":4083:4085   */\n      iszero\n      tag_522\n      jumpi\n        /* \"#utility.yul\":4120:4126   */\n      dup6\n        /* \"#utility.yul\":4112:4118   */\n      dup7\n        /* \"#utility.yul\":4105:4127   */\n      revert\n        /* \"#utility.yul\":4083:4085   */\n    tag_522:\n      pop\n        /* \"#utility.yul\":4148:4202   */\n      tag_523\n        /* \"#utility.yul\":4194:4201   */\n      dup12\n        /* \"#utility.yul\":4183:4191   */\n      dup3\n        /* \"#utility.yul\":4172:4181   */\n      dup13\n        /* \"#utility.yul\":4168:4192   */\n      add\n        /* \"#utility.yul\":4148:4202   */\n      tag_483\n      jump\t// in\n    tag_523:\n        /* \"#utility.yul\":4138:4202   */\n      swap7\n      pop\n      pop\n        /* \"#utility.yul\":4221:4259   */\n      tag_524\n        /* \"#utility.yul\":4255:4257   */\n      0x60\n        /* \"#utility.yul\":4244:4253   */\n      dup11\n        /* \"#utility.yul\":4240:4258   */\n      add\n        /* \"#utility.yul\":4221:4259   */\n      tag_492\n      jump\t// in\n    tag_524:\n        /* \"#utility.yul\":4211:4259   */\n      swap5\n      pop\n        /* \"#utility.yul\":4278:4319   */\n      tag_525\n        /* \"#utility.yul\":4314:4317   */\n      0x80\n        /* \"#utility.yul\":4303:4312   */\n      dup11\n        /* \"#utility.yul\":4299:4318   */\n      add\n        /* \"#utility.yul\":4278:4319   */\n      tag_479\n      jump\t// in\n    tag_525:\n        /* \"#utility.yul\":4268:4319   */\n      swap4\n      pop\n        /* \"#utility.yul\":4338:4379   */\n      tag_526\n        /* \"#utility.yul\":4374:4377   */\n      0xa0\n        /* \"#utility.yul\":4363:4372   */\n      dup11\n        /* \"#utility.yul\":4359:4378   */\n      add\n        /* \"#utility.yul\":4338:4379   */\n      tag_479\n      jump\t// in\n    tag_526:\n        /* \"#utility.yul\":4328:4379   */\n      swap3\n      pop\n        /* \"#utility.yul\":4398:4439   */\n      tag_527\n        /* \"#utility.yul\":4434:4437   */\n      0xc0\n        /* \"#utility.yul\":4423:4432   */\n      dup11\n        /* \"#utility.yul\":4419:4438   */\n      add\n        /* \"#utility.yul\":4398:4439   */\n      tag_479\n      jump\t// in\n    tag_527:\n        /* \"#utility.yul\":4388:4439   */\n      swap2\n      pop\n        /* \"#utility.yul\":4458:4499   */\n      tag_528\n        /* \"#utility.yul\":4494:4497   */\n      0xe0\n        /* \"#utility.yul\":4483:4492   */\n      dup11\n        /* \"#utility.yul\":4479:4498   */\n      add\n        /* \"#utility.yul\":4458:4499   */\n      tag_479\n      jump\t// in\n    tag_528:\n        /* \"#utility.yul\":4448:4499   */\n      swap1\n      pop\n        /* \"#utility.yul\":3552:4505   */\n      swap3\n      swap6\n      swap9\n      pop\n      swap3\n      swap6\n      swap9\n      swap1\n      swap4\n      swap7\n      pop\n      jump\t// out\n        /* \"#utility.yul\":4510:4700   */\n    tag_94:\n      0x00\n        /* \"#utility.yul\":4622:4624   */\n      0x20\n        /* \"#utility.yul\":4610:4619   */\n      dup3\n        /* \"#utility.yul\":4601:4608   */\n      dup5\n        /* \"#utility.yul\":4597:4620   */\n      sub\n        /* \"#utility.yul\":4593:4625   */\n      slt\n        /* \"#utility.yul\":4590:4592   */\n      iszero\n      tag_530\n      jumpi\n        /* \"#utility.yul\":4643:4649   */\n      dup1\n        /* \"#utility.yul\":4635:4641   */\n      dup2\n        /* \"#utility.yul\":4628:4650   */\n      revert\n        /* \"#utility.yul\":4590:4592   */\n    tag_530:\n      pop\n        /* \"#utility.yul\":4671:4694   */\n      calldataload\n      swap2\n        /* \"#utility.yul\":4580:4700   */\n      swap1\n      pop\n      jump\t// out\n        /* \"#utility.yul\":4705:4979   */\n    tag_455:\n      0x00\n        /* \"#utility.yul\":4872:4878   */\n      dup3\n        /* \"#utility.yul\":4866:4879   */\n      mload\n        /* \"#utility.yul\":4888:4941   */\n      tag_532\n        /* \"#utility.yul\":4934:4940   */\n      dup2\n        /* \"#utility.yul\":4929:4932   */\n      dup5\n        /* \"#utility.yul\":4922:4926   */\n      0x20\n        /* \"#utility.yul\":4914:4920   */\n      dup8\n        /* \"#utility.yul\":4910:4927   */\n      add\n        /* \"#utility.yul\":4888:4941   */\n      tag_533\n      jump\t// in\n    tag_532:\n        /* \"#utility.yul\":4957:4973   */\n      swap2\n      swap1\n      swap2\n      add\n      swap3\n        /* \"#utility.yul\":4842:4979   */\n      swap2\n      pop\n      pop\n      jump\t// out\n        /* \"#utility.yul\":4984:5187   */\n    tag_84:\n      sub(shl(0xa0, 0x01), 0x01)\n        /* \"#utility.yul\":5148:5180   */\n      swap2\n      swap1\n      swap2\n      and\n        /* \"#utility.yul\":5130:5181   */\n      dup2\n      mstore\n        /* \"#utility.yul\":5118:5120   */\n      0x20\n        /* \"#utility.yul\":5103:5121   */\n      add\n      swap1\n        /* \"#utility.yul\":5085:5187   */\n      jump\t// out\n        /* \"#utility.yul\":5192:5466   */\n    tag_431:\n      sub(shl(0xa0, 0x01), 0x01)\n        /* \"#utility.yul\":5384:5416   */\n      swap3\n      swap1\n      swap3\n      and\n        /* \"#utility.yul\":5366:5417   */\n      dup3\n      mstore\n        /* \"#utility.yul\":5448:5450   */\n      0x20\n        /* \"#utility.yul\":5433:5451   */\n      dup3\n      add\n        /* \"#utility.yul\":5426:5460   */\n      mstore\n        /* \"#utility.yul\":5354:5356   */\n      0x40\n        /* \"#utility.yul\":5339:5357   */\n      add\n      swap1\n        /* \"#utility.yul\":5321:5466   */\n      jump\t// out\n        /* \"#utility.yul\":5471:5658   */\n    tag_52:\n        /* \"#utility.yul\":5636:5650   */\n      swap1\n      iszero\n        /* \"#utility.yul\":5629:5651   */\n      iszero\n        /* \"#utility.yul\":5611:5652   */\n      dup2\n      mstore\n        /* \"#utility.yul\":5599:5601   */\n      0x20\n        /* \"#utility.yul\":5584:5602   */\n      add\n      swap1\n        /* \"#utility.yul\":5566:5658   */\n      jump\t// out\n        /* \"#utility.yul\":5663:6046   */\n    tag_46:\n      0x00\n        /* \"#utility.yul\":5812:5814   */\n      0x20\n        /* \"#utility.yul\":5801:5810   */\n      dup3\n        /* \"#utility.yul\":5794:5815   */\n      mstore\n        /* \"#utility.yul\":5844:5850   */\n      dup3\n        /* \"#utility.yul\":5838:5851   */\n      mload\n        /* \"#utility.yul\":5887:5893   */\n      dup1\n        /* \"#utility.yul\":5882:5884   */\n      0x20\n        /* \"#utility.yul\":5871:5880   */\n      dup5\n        /* \"#utility.yul\":5867:5885   */\n      add\n        /* \"#utility.yul\":5860:5894   */\n      mstore\n        /* \"#utility.yul\":5903:5969   */\n      tag_538\n        /* \"#utility.yul\":5962:5968   */\n      dup2\n        /* \"#utility.yul\":5957:5959   */\n      0x40\n        /* \"#utility.yul\":5946:5955   */\n      dup6\n        /* \"#utility.yul\":5942:5960   */\n      add\n        /* \"#utility.yul\":5937:5939   */\n      0x20\n        /* \"#utility.yul\":5929:5935   */\n      dup8\n        /* \"#utility.yul\":5925:5940   */\n      add\n        /* \"#utility.yul\":5903:5969   */\n      tag_533\n      jump\t// in\n    tag_538:\n        /* \"#utility.yul\":6030:6032   */\n      0x1f\n        /* \"#utility.yul\":6009:6024   */\n      add\n      not(0x1f)\n        /* \"#utility.yul\":6005:6034   */\n      and\n        /* \"#utility.yul\":5990:6035   */\n      swap2\n      swap1\n      swap2\n      add\n        /* \"#utility.yul\":6037:6039   */\n      0x40\n        /* \"#utility.yul\":5986:6040   */\n      add\n      swap3\n        /* \"#utility.yul\":5784:6046   */\n      swap2\n      pop\n      pop\n      jump\t// out\n        /* \"#utility.yul\":6051:6450   */\n    tag_419:\n        /* \"#utility.yul\":6253:6255   */\n      0x20\n        /* \"#utility.yul\":6235:6256   */\n      dup1\n      dup3\n      mstore\n        /* \"#utility.yul\":6292:6294   */\n      0x23\n        /* \"#utility.yul\":6272:6290   */\n      swap1\n      dup3\n      add\n        /* \"#utility.yul\":6265:6295   */\n      mstore\n        /* \"#utility.yul\":6331:6365   */\n      0x45524332303a207472616e7366657220746f20746865207a65726f2061646472\n        /* \"#utility.yul\":6326:6328   */\n      0x40\n        /* \"#utility.yul\":6311:6329   */\n      dup3\n      add\n        /* \"#utility.yul\":6304:6366   */\n      mstore\n      shl(0xe8, 0x657373)\n        /* \"#utility.yul\":6397:6399   */\n      0x60\n        /* \"#utility.yul\":6382:6400   */\n      dup3\n      add\n        /* \"#utility.yul\":6375:6408   */\n      mstore\n        /* \"#utility.yul\":6440:6443   */\n      0x80\n        /* \"#utility.yul\":6425:6444   */\n      add\n      swap1\n        /* \"#utility.yul\":6225:6450   */\n      jump\t// out\n        /* \"#utility.yul\":6455:6860   */\n    tag_295:\n        /* \"#utility.yul\":6657:6659   */\n      0x20\n        /* \"#utility.yul\":6639:6660   */\n      dup1\n      dup3\n      mstore\n        /* \"#utility.yul\":6696:6698   */\n      0x29\n        /* \"#utility.yul\":6676:6694   */\n      swap1\n      dup3\n      add\n        /* \"#utility.yul\":6669:6699   */\n      mstore\n        /* \"#utility.yul\":6735:6769   */\n      0x46696174546f6b656e3a206275726e20616d6f756e74206e6f74206772656174\n        /* \"#utility.yul\":6730:6732   */\n      0x40\n        /* \"#utility.yul\":6715:6733   */\n      dup3\n      add\n        /* \"#utility.yul\":6708:6770   */\n      mstore\n      shl(0xbc, 0x06572207468616e203)\n        /* \"#utility.yul\":6801:6803   */\n      0x60\n        /* \"#utility.yul\":6786:6804   */\n      dup3\n      add\n        /* \"#utility.yul\":6779:6818   */\n      mstore\n        /* \"#utility.yul\":6850:6853   */\n      0x80\n        /* \"#utility.yul\":6835:6854   */\n      add\n      swap1\n        /* \"#utility.yul\":6629:6860   */\n      jump\t// out\n        /* \"#utility.yul\":6865:7264   */\n    tag_269:\n        /* \"#utility.yul\":7067:7069   */\n      0x20\n        /* \"#utility.yul\":7049:7070   */\n      dup1\n      dup3\n      mstore\n        /* \"#utility.yul\":7106:7108   */\n      0x23\n        /* \"#utility.yul\":7086:7104   */\n      swap1\n      dup3\n      add\n        /* \"#utility.yul\":7079:7109   */\n      mstore\n        /* \"#utility.yul\":7145:7179   */\n      0x46696174546f6b656e3a206d696e7420746f20746865207a65726f2061646472\n        /* \"#utility.yul\":7140:7142   */\n      0x40\n        /* \"#utility.yul\":7125:7143   */\n      dup3\n      add\n        /* \"#utility.yul\":7118:7180   */\n      mstore\n      shl(0xe8, 0x657373)\n        /* \"#utility.yul\":7211:7213   */\n      0x60\n        /* \"#utility.yul\":7196:7214   */\n      dup3\n      add\n        /* \"#utility.yul\":7189:7222   */\n      mstore\n        /* \"#utility.yul\":7254:7257   */\n      0x80\n        /* \"#utility.yul\":7239:7258   */\n      add\n      swap1\n        /* \"#utility.yul\":7039:7264   */\n      jump\t// out\n        /* \"#utility.yul\":7269:7671   */\n    tag_398:\n        /* \"#utility.yul\":7471:7473   */\n      0x20\n        /* \"#utility.yul\":7453:7474   */\n      dup1\n      dup3\n      mstore\n        /* \"#utility.yul\":7510:7512   */\n      0x26\n        /* \"#utility.yul\":7490:7508   */\n      swap1\n      dup3\n      add\n        /* \"#utility.yul\":7483:7513   */\n      mstore\n        /* \"#utility.yul\":7549:7583   */\n      0x4f776e61626c653a206e6577206f776e657220697320746865207a65726f2061\n        /* \"#utility.yul\":7544:7546   */\n      0x40\n        /* \"#utility.yul\":7529:7547   */\n      dup3\n      add\n        /* \"#utility.yul\":7522:7584   */\n      mstore\n      shl(0xd0, 0x646472657373)\n        /* \"#utility.yul\":7615:7617   */\n      0x60\n        /* \"#utility.yul\":7600:7618   */\n      dup3\n      add\n        /* \"#utility.yul\":7593:7629   */\n      mstore\n        /* \"#utility.yul\":7661:7664   */\n      0x80\n        /* \"#utility.yul\":7646:7665   */\n      add\n      swap1\n        /* \"#utility.yul\":7443:7671   */\n      jump\t// out\n        /* \"#utility.yul\":7676:8074   */\n    tag_411:\n        /* \"#utility.yul\":7878:7880   */\n      0x20\n        /* \"#utility.yul\":7860:7881   */\n      dup1\n      dup3\n      mstore\n        /* \"#utility.yul\":7917:7919   */\n      0x22\n        /* \"#utility.yul\":7897:7915   */\n      swap1\n      dup3\n      add\n        /* \"#utility.yul\":7890:7920   */\n      mstore\n        /* \"#utility.yul\":7956:7990   */\n      0x45524332303a20617070726f766520746f20746865207a65726f206164647265\n        /* \"#utility.yul\":7951:7953   */\n      0x40\n        /* \"#utility.yul\":7936:7954   */\n      dup3\n      add\n        /* \"#utility.yul\":7929:7991   */\n      mstore\n      shl(0xf0, 0x7373)\n        /* \"#utility.yul\":8022:8024   */\n      0x60\n        /* \"#utility.yul\":8007:8025   */\n      dup3\n      add\n        /* \"#utility.yul\":8000:8032   */\n      mstore\n        /* \"#utility.yul\":8064:8067   */\n      0x80\n        /* \"#utility.yul\":8049:8068   */\n      add\n      swap1\n        /* \"#utility.yul\":7850:8074   */\n      jump\t// out\n        /* \"#utility.yul\":8079:8484   */\n    tag_238:\n        /* \"#utility.yul\":8281:8283   */\n      0x20\n        /* \"#utility.yul\":8263:8284   */\n      dup1\n      dup3\n      mstore\n        /* \"#utility.yul\":8320:8322   */\n      0x29\n        /* \"#utility.yul\":8300:8318   */\n      swap1\n      dup3\n      add\n        /* \"#utility.yul\":8293:8323   */\n      mstore\n        /* \"#utility.yul\":8359:8393   */\n      0x46696174546f6b656e3a206e65772070617573657220697320746865207a6572\n        /* \"#utility.yul\":8354:8356   */\n      0x40\n        /* \"#utility.yul\":8339:8357   */\n      dup3\n      add\n        /* \"#utility.yul\":8332:8394   */\n      mstore\n      shl(0xb8, 0x6f2061646472657373)\n        /* \"#utility.yul\":8425:8427   */\n      0x60\n        /* \"#utility.yul\":8410:8428   */\n      dup3\n      add\n        /* \"#utility.yul\":8403:8442   */\n      mstore\n        /* \"#utility.yul\":8474:8477   */\n      0x80\n        /* \"#utility.yul\":8459:8478   */\n      add\n      swap1\n        /* \"#utility.yul\":8253:8484   */\n      jump\t// out\n        /* \"#utility.yul\":8489:8895   */\n    tag_223:\n        /* \"#utility.yul\":8691:8693   */\n      0x20\n        /* \"#utility.yul\":8673:8694   */\n      dup1\n      dup3\n      mstore\n        /* \"#utility.yul\":8730:8732   */\n      0x2a\n        /* \"#utility.yul\":8710:8728   */\n      swap1\n      dup3\n      add\n        /* \"#utility.yul\":8703:8733   */\n      mstore\n        /* \"#utility.yul\":8769:8803   */\n      0x526573637561626c653a206e6577207265736375657220697320746865207a65\n        /* \"#utility.yul\":8764:8766   */\n      0x40\n        /* \"#utility.yul\":8749:8767   */\n      dup3\n      add\n        /* \"#utility.yul\":8742:8804   */\n      mstore\n      shl(0xb0, 0x726f2061646472657373)\n        /* \"#utility.yul\":8835:8837   */\n      0x60\n        /* \"#utility.yul\":8820:8838   */\n      dup3\n      add\n        /* \"#utility.yul\":8813:8853   */\n      mstore\n        /* \"#utility.yul\":8885:8888   */\n      0x80\n        /* \"#utility.yul\":8870:8889   */\n      add\n      swap1\n        /* \"#utility.yul\":8663:8895   */\n      jump\t// out\n        /* \"#utility.yul\":8900:9305   */\n    tag_272:\n        /* \"#utility.yul\":9102:9104   */\n      0x20\n        /* \"#utility.yul\":9084:9105   */\n      dup1\n      dup3\n      mstore\n        /* \"#utility.yul\":9141:9143   */\n      0x29\n        /* \"#utility.yul\":9121:9139   */\n      swap1\n      dup3\n      add\n        /* \"#utility.yul\":9114:9144   */\n      mstore\n        /* \"#utility.yul\":9180:9214   */\n      0x46696174546f6b656e3a206d696e7420616d6f756e74206e6f74206772656174\n        /* \"#utility.yul\":9175:9177   */\n      0x40\n        /* \"#utility.yul\":9160:9178   */\n      dup3\n      add\n        /* \"#utility.yul\":9153:9215   */\n      mstore\n      shl(0xbc, 0x06572207468616e203)\n        /* \"#utility.yul\":9246:9248   */\n      0x60\n        /* \"#utility.yul\":9231:9249   */\n      dup3\n      add\n        /* \"#utility.yul\":9224:9263   */\n      mstore\n        /* \"#utility.yul\":9295:9298   */\n      0x80\n        /* \"#utility.yul\":9280:9299   */\n      add\n      swap1\n        /* \"#utility.yul\":9074:9305   */\n      jump\t// out\n        /* \"#utility.yul\":9310:9712   */\n    tag_422:\n        /* \"#utility.yul\":9512:9514   */\n      0x20\n        /* \"#utility.yul\":9494:9515   */\n      dup1\n      dup3\n      mstore\n        /* \"#utility.yul\":9551:9553   */\n      0x26\n        /* \"#utility.yul\":9531:9549   */\n      swap1\n      dup3\n      add\n        /* \"#utility.yul\":9524:9554   */\n      mstore\n        /* \"#utility.yul\":9590:9624   */\n      0x45524332303a207472616e7366657220616d6f756e7420657863656564732062\n        /* \"#utility.yul\":9585:9587   */\n      0x40\n        /* \"#utility.yul\":9570:9588   */\n      dup3\n      add\n        /* \"#utility.yul\":9563:9625   */\n      mstore\n      shl(0xd0, 0x616c616e6365)\n        /* \"#utility.yul\":9656:9658   */\n      0x60\n        /* \"#utility.yul\":9641:9659   */\n      dup3\n      add\n        /* \"#utility.yul\":9634:9670   */\n      mstore\n        /* \"#utility.yul\":9702:9705   */\n      0x80\n        /* \"#utility.yul\":9687:9706   */\n      add\n      swap1\n        /* \"#utility.yul\":9484:9712   */\n      jump\t// out\n        /* \"#utility.yul\":9717:10122   */\n    tag_227:\n        /* \"#utility.yul\":9919:9921   */\n      0x20\n        /* \"#utility.yul\":9901:9922   */\n      dup1\n      dup3\n      mstore\n        /* \"#utility.yul\":9958:9960   */\n      0x29\n        /* \"#utility.yul\":9938:9956   */\n      swap1\n      dup3\n      add\n        /* \"#utility.yul\":9931:9961   */\n      mstore\n        /* \"#utility.yul\":9997:10031   */\n      0x46696174546f6b656e3a2063616c6c6572206973206e6f7420746865206d6173\n        /* \"#utility.yul\":9992:9994   */\n      0x40\n        /* \"#utility.yul\":9977:9995   */\n      dup3\n      add\n        /* \"#utility.yul\":9970:10032   */\n      mstore\n      shl(0xb9, 0x3a32b926b4b73a32b9)\n        /* \"#utility.yul\":10063:10065   */\n      0x60\n        /* \"#utility.yul\":10048:10066   */\n      dup3\n      add\n        /* \"#utility.yul\":10041:10080   */\n      mstore\n        /* \"#utility.yul\":10112:10115   */\n      0x80\n        /* \"#utility.yul\":10097:10116   */\n      add\n      swap1\n        /* \"#utility.yul\":9891:10122   */\n      jump\t// out\n        /* \"#utility.yul\":10127:10535   */\n    tag_190:\n        /* \"#utility.yul\":10329:10331   */\n      0x20\n        /* \"#utility.yul\":10311:10332   */\n      dup1\n      dup3\n      mstore\n        /* \"#utility.yul\":10368:10370   */\n      0x2c\n        /* \"#utility.yul\":10348:10366   */\n      swap1\n      dup3\n      add\n        /* \"#utility.yul\":10341:10371   */\n      mstore\n        /* \"#utility.yul\":10407:10441   */\n      0x426c61636b6c69737461626c653a2063616c6c6572206973206e6f7420746865\n        /* \"#utility.yul\":10402:10404   */\n      0x40\n        /* \"#utility.yul\":10387:10405   */\n      dup3\n      add\n        /* \"#utility.yul\":10380:10442   */\n      mstore\n      shl(0xa1, 0x10313630b1b5b634b9ba32b9)\n        /* \"#utility.yul\":10473:10475   */\n      0x60\n        /* \"#utility.yul\":10458:10476   */\n      dup3\n      add\n        /* \"#utility.yul\":10451:10493   */\n      mstore\n        /* \"#utility.yul\":10525:10528   */\n      0x80\n        /* \"#utility.yul\":10510:10529   */\n      add\n      swap1\n        /* \"#utility.yul\":10301:10535   */\n      jump\t// out\n        /* \"#utility.yul\":10540:10942   */\n    tag_448:\n        /* \"#utility.yul\":10742:10744   */\n      0x20\n        /* \"#utility.yul\":10724:10745   */\n      dup1\n      dup3\n      mstore\n        /* \"#utility.yul\":10781:10783   */\n      0x26\n        /* \"#utility.yul\":10761:10779   */\n      swap1\n      dup3\n      add\n        /* \"#utility.yul\":10754:10784   */\n      mstore\n        /* \"#utility.yul\":10820:10854   */\n      0x416464726573733a20696e73756666696369656e742062616c616e636520666f\n        /* \"#utility.yul\":10815:10817   */\n      0x40\n        /* \"#utility.yul\":10800:10818   */\n      dup3\n      add\n        /* \"#utility.yul\":10793:10855   */\n      mstore\n      shl(0xd2, 0x1c8818d85b1b)\n        /* \"#utility.yul\":10886:10888   */\n      0x60\n        /* \"#utility.yul\":10871:10889   */\n      dup3\n      add\n        /* \"#utility.yul\":10864:10900   */\n      mstore\n        /* \"#utility.yul\":10932:10935   */\n      0x80\n        /* \"#utility.yul\":10917:10936   */\n      add\n      swap1\n        /* \"#utility.yul\":10714:10942   */\n      jump\t// out\n        /* \"#utility.yul\":10947:11287   */\n    tag_175:\n        /* \"#utility.yul\":11149:11151   */\n      0x20\n        /* \"#utility.yul\":11131:11152   */\n      dup1\n      dup3\n      mstore\n        /* \"#utility.yul\":11188:11190   */\n      0x10\n        /* \"#utility.yul\":11168:11186   */\n      swap1\n      dup3\n      add\n        /* \"#utility.yul\":11161:11191   */\n      mstore\n      shl(0x82, 0x14185d5cd8589b194e881c185d5cd959)\n        /* \"#utility.yul\":11222:11224   */\n      0x40\n        /* \"#utility.yul\":11207:11225   */\n      dup3\n      add\n        /* \"#utility.yul\":11200:11246   */\n      mstore\n        /* \"#utility.yul\":11278:11280   */\n      0x60\n        /* \"#utility.yul\":11263:11281   */\n      add\n      swap1\n        /* \"#utility.yul\":11121:11287   */\n      jump\t// out\n        /* \"#utility.yul\":11292:11694   */\n    tag_298:\n        /* \"#utility.yul\":11494:11496   */\n      0x20\n        /* \"#utility.yul\":11476:11497   */\n      dup1\n      dup3\n      mstore\n        /* \"#utility.yul\":11533:11535   */\n      0x26\n        /* \"#utility.yul\":11513:11531   */\n      swap1\n      dup3\n      add\n        /* \"#utility.yul\":11506:11536   */\n      mstore\n        /* \"#utility.yul\":11572:11606   */\n      0x46696174546f6b656e3a206275726e20616d6f756e7420657863656564732062\n        /* \"#utility.yul\":11567:11569   */\n      0x40\n        /* \"#utility.yul\":11552:11570   */\n      dup3\n      add\n        /* \"#utility.yul\":11545:11607   */\n      mstore\n      shl(0xd0, 0x616c616e6365)\n        /* \"#utility.yul\":11638:11640   */\n      0x60\n        /* \"#utility.yul\":11623:11641   */\n      dup3\n      add\n        /* \"#utility.yul\":11616:11652   */\n      mstore\n        /* \"#utility.yul\":11684:11687   */\n      0x80\n        /* \"#utility.yul\":11669:11688   */\n      add\n      swap1\n        /* \"#utility.yul\":11466:11694   */\n      jump\t// out\n        /* \"#utility.yul\":11699:12096   */\n    tag_259:\n        /* \"#utility.yul\":11901:11903   */\n      0x20\n        /* \"#utility.yul\":11883:11904   */\n      dup1\n      dup3\n      mstore\n        /* \"#utility.yul\":11940:11942   */\n      0x21\n        /* \"#utility.yul\":11920:11938   */\n      swap1\n      dup3\n      add\n        /* \"#utility.yul\":11913:11943   */\n      mstore\n        /* \"#utility.yul\":11979:12013   */\n      0x46696174546f6b656e3a2063616c6c6572206973206e6f742061206d696e7465\n        /* \"#utility.yul\":11974:11976   */\n      0x40\n        /* \"#utility.yul\":11959:11977   */\n      dup3\n      add\n        /* \"#utility.yul\":11952:12014   */\n      mstore\n      shl(0xf9, 0x39)\n        /* \"#utility.yul\":12045:12047   */\n      0x60\n        /* \"#utility.yul\":12030:12048   */\n      dup3\n      add\n        /* \"#utility.yul\":12023:12054   */\n      mstore\n        /* \"#utility.yul\":12086:12089   */\n      0x80\n        /* \"#utility.yul\":12071:12090   */\n      add\n      swap1\n        /* \"#utility.yul\":11873:12096   */\n      jump\t// out\n        /* \"#utility.yul\":12101:12512   */\n    tag_235:\n        /* \"#utility.yul\":12303:12305   */\n      0x20\n        /* \"#utility.yul\":12285:12306   */\n      dup1\n      dup3\n      mstore\n        /* \"#utility.yul\":12342:12344   */\n      0x2f\n        /* \"#utility.yul\":12322:12340   */\n      swap1\n      dup3\n      add\n        /* \"#utility.yul\":12315:12345   */\n      mstore\n        /* \"#utility.yul\":12381:12415   */\n      0x46696174546f6b656e3a206e6577206d61737465724d696e7465722069732074\n        /* \"#utility.yul\":12376:12378   */\n      0x40\n        /* \"#utility.yul\":12361:12379   */\n      dup3\n      add\n        /* \"#utility.yul\":12354:12416   */\n      mstore\n      shl(0x88, 0x6865207a65726f2061646472657373)\n        /* \"#utility.yul\":12447:12449   */\n      0x60\n        /* \"#utility.yul\":12432:12450   */\n      dup3\n      add\n        /* \"#utility.yul\":12425:12470   */\n      mstore\n        /* \"#utility.yul\":12502:12505   */\n      0x80\n        /* \"#utility.yul\":12487:12506   */\n      add\n      swap1\n        /* \"#utility.yul\":12275:12512   */\n      jump\t// out\n        /* \"#utility.yul\":12517:12917   */\n    tag_361:\n        /* \"#utility.yul\":12719:12721   */\n      0x20\n        /* \"#utility.yul\":12701:12722   */\n      dup1\n      dup3\n      mstore\n        /* \"#utility.yul\":12758:12760   */\n      0x24\n        /* \"#utility.yul\":12738:12756   */\n      swap1\n      dup3\n      add\n        /* \"#utility.yul\":12731:12761   */\n      mstore\n        /* \"#utility.yul\":12797:12831   */\n      0x526573637561626c653a2063616c6c6572206973206e6f742074686520726573\n        /* \"#utility.yul\":12792:12794   */\n      0x40\n        /* \"#utility.yul\":12777:12795   */\n      dup3\n      add\n        /* \"#utility.yul\":12770:12832   */\n      mstore\n      shl(0xe1, 0x31bab2b9)\n        /* \"#utility.yul\":12863:12865   */\n      0x60\n        /* \"#utility.yul\":12848:12866   */\n      dup3\n      add\n        /* \"#utility.yul\":12841:12875   */\n      mstore\n        /* \"#utility.yul\":12907:12910   */\n      0x80\n        /* \"#utility.yul\":12892:12911   */\n      add\n      swap1\n        /* \"#utility.yul\":12691:12917   */\n      jump\t// out\n        /* \"#utility.yul\":12922:13326   */\n    tag_208:\n        /* \"#utility.yul\":13124:13126   */\n      0x20\n        /* \"#utility.yul\":13106:13127   */\n      dup1\n      dup3\n      mstore\n        /* \"#utility.yul\":13163:13165   */\n      0x28\n        /* \"#utility.yul\":13143:13161   */\n      swap1\n      dup3\n      add\n        /* \"#utility.yul\":13136:13166   */\n      mstore\n        /* \"#utility.yul\":13202:13236   */\n      0x45524332303a207472616e7366657220616d6f756e7420657863656564732061\n        /* \"#utility.yul\":13197:13199   */\n      0x40\n        /* \"#utility.yul\":13182:13200   */\n      dup3\n      add\n        /* \"#utility.yul\":13175:13237   */\n      mstore\n      shl(0xc0, 0x6c6c6f77616e6365)\n        /* \"#utility.yul\":13268:13270   */\n      0x60\n        /* \"#utility.yul\":13253:13271   */\n      dup3\n      add\n        /* \"#utility.yul\":13246:13284   */\n      mstore\n        /* \"#utility.yul\":13316:13319   */\n      0x80\n        /* \"#utility.yul\":13301:13320   */\n      add\n      swap1\n        /* \"#utility.yul\":13096:13326   */\n      jump\t// out\n        /* \"#utility.yul\":13331:13687   */\n    tag_219:\n        /* \"#utility.yul\":13533:13535   */\n      0x20\n        /* \"#utility.yul\":13515:13536   */\n      dup1\n      dup3\n      mstore\n        /* \"#utility.yul\":13552:13570   */\n      dup2\n      dup2\n      add\n        /* \"#utility.yul\":13545:13575   */\n      mstore\n        /* \"#utility.yul\":13611:13645   */\n      0x4f776e61626c653a2063616c6c6572206973206e6f7420746865206f776e6572\n        /* \"#utility.yul\":13606:13608   */\n      0x40\n        /* \"#utility.yul\":13591:13609   */\n      dup3\n      add\n        /* \"#utility.yul\":13584:13646   */\n      mstore\n        /* \"#utility.yul\":13678:13680   */\n      0x60\n        /* \"#utility.yul\":13663:13681   */\n      add\n      swap1\n        /* \"#utility.yul\":13505:13687   */\n      jump\t// out\n        /* \"#utility.yul\":13692:14102   */\n    tag_241:\n        /* \"#utility.yul\":13894:13896   */\n      0x20\n        /* \"#utility.yul\":13876:13897   */\n      dup1\n      dup3\n      mstore\n        /* \"#utility.yul\":13933:13935   */\n      0x2e\n        /* \"#utility.yul\":13913:13931   */\n      swap1\n      dup3\n      add\n        /* \"#utility.yul\":13906:13936   */\n      mstore\n        /* \"#utility.yul\":13972:14006   */\n      0x46696174546f6b656e3a206e657720626c61636b6c6973746572206973207468\n        /* \"#utility.yul\":13967:13969   */\n      0x40\n        /* \"#utility.yul\":13952:13970   */\n      dup3\n      add\n        /* \"#utility.yul\":13945:14007   */\n      mstore\n      shl(0x90, 0x65207a65726f2061646472657373)\n        /* \"#utility.yul\":14038:14040   */\n      0x60\n        /* \"#utility.yul\":14023:14041   */\n      dup3\n      add\n        /* \"#utility.yul\":14016:14060   */\n      mstore\n        /* \"#utility.yul\":14092:14095   */\n      0x80\n        /* \"#utility.yul\":14077:14096   */\n      add\n      swap1\n        /* \"#utility.yul\":13866:14102   */\n      jump\t// out\n        /* \"#utility.yul\":14107:14513   */\n    tag_232:\n        /* \"#utility.yul\":14309:14311   */\n      0x20\n        /* \"#utility.yul\":14291:14312   */\n      dup1\n      dup3\n      mstore\n        /* \"#utility.yul\":14348:14350   */\n      0x2a\n        /* \"#utility.yul\":14328:14346   */\n      swap1\n      dup3\n      add\n        /* \"#utility.yul\":14321:14351   */\n      mstore\n        /* \"#utility.yul\":14387:14421   */\n      0x46696174546f6b656e3a20636f6e747261637420697320616c72656164792069\n        /* \"#utility.yul\":14382:14384   */\n      0x40\n        /* \"#utility.yul\":14367:14385   */\n      dup3\n      add\n        /* \"#utility.yul\":14360:14422   */\n      mstore\n      shl(0xb2, 0x1b9a5d1a585b1a5e9959)\n        /* \"#utility.yul\":14453:14455   */\n      0x60\n        /* \"#utility.yul\":14438:14456   */\n      dup3\n      add\n        /* \"#utility.yul\":14431:14471   */\n      mstore\n        /* \"#utility.yul\":14503:14506   */\n      0x80\n        /* \"#utility.yul\":14488:14507   */\n      add\n      swap1\n        /* \"#utility.yul\":14281:14513   */\n      jump\t// out\n        /* \"#utility.yul\":14518:14919   */\n    tag_416:\n        /* \"#utility.yul\":14720:14722   */\n      0x20\n        /* \"#utility.yul\":14702:14723   */\n      dup1\n      dup3\n      mstore\n        /* \"#utility.yul\":14759:14761   */\n      0x25\n        /* \"#utility.yul\":14739:14757   */\n      swap1\n      dup3\n      add\n        /* \"#utility.yul\":14732:14762   */\n      mstore\n        /* \"#utility.yul\":14798:14832   */\n      0x45524332303a207472616e736665722066726f6d20746865207a65726f206164\n        /* \"#utility.yul\":14793:14795   */\n      0x40\n        /* \"#utility.yul\":14778:14796   */\n      dup3\n      add\n        /* \"#utility.yul\":14771:14833   */\n      mstore\n      shl(0xd8, 0x6472657373)\n        /* \"#utility.yul\":14864:14866   */\n      0x60\n        /* \"#utility.yul\":14849:14867   */\n      dup3\n      add\n        /* \"#utility.yul\":14842:14877   */\n      mstore\n        /* \"#utility.yul\":14909:14912   */\n      0x80\n        /* \"#utility.yul\":14894:14913   */\n      add\n      swap1\n        /* \"#utility.yul\":14692:14919   */\n      jump\t// out\n        /* \"#utility.yul\":14924:15324   */\n    tag_408:\n        /* \"#utility.yul\":15126:15128   */\n      0x20\n        /* \"#utility.yul\":15108:15129   */\n      dup1\n      dup3\n      mstore\n        /* \"#utility.yul\":15165:15167   */\n      0x24\n        /* \"#utility.yul\":15145:15163   */\n      swap1\n      dup3\n      add\n        /* \"#utility.yul\":15138:15168   */\n      mstore\n        /* \"#utility.yul\":15204:15238   */\n      0x45524332303a20617070726f76652066726f6d20746865207a65726f20616464\n        /* \"#utility.yul\":15199:15201   */\n      0x40\n        /* \"#utility.yul\":15184:15202   */\n      dup3\n      add\n        /* \"#utility.yul\":15177:15239   */\n      mstore\n      shl(0xe0, 0x72657373)\n        /* \"#utility.yul\":15270:15272   */\n      0x60\n        /* \"#utility.yul\":15255:15273   */\n      dup3\n      add\n        /* \"#utility.yul\":15248:15282   */\n      mstore\n        /* \"#utility.yul\":15314:15317   */\n      0x80\n        /* \"#utility.yul\":15299:15318   */\n      add\n      swap1\n        /* \"#utility.yul\":15098:15324   */\n      jump\t// out\n        /* \"#utility.yul\":15329:15739   */\n    tag_275:\n        /* \"#utility.yul\":15531:15533   */\n      0x20\n        /* \"#utility.yul\":15513:15534   */\n      dup1\n      dup3\n      mstore\n        /* \"#utility.yul\":15570:15572   */\n      0x2e\n        /* \"#utility.yul\":15550:15568   */\n      swap1\n      dup3\n      add\n        /* \"#utility.yul\":15543:15573   */\n      mstore\n        /* \"#utility.yul\":15609:15643   */\n      0x46696174546f6b656e3a206d696e7420616d6f756e742065786365656473206d\n        /* \"#utility.yul\":15604:15606   */\n      0x40\n        /* \"#utility.yul\":15589:15607   */\n      dup3\n      add\n        /* \"#utility.yul\":15582:15644   */\n      mstore\n      shl(0x90, 0x696e746572416c6c6f77616e6365)\n        /* \"#utility.yul\":15675:15677   */\n      0x60\n        /* \"#utility.yul\":15660:15678   */\n      dup3\n      add\n        /* \"#utility.yul\":15653:15697   */\n      mstore\n        /* \"#utility.yul\":15729:15732   */\n      0x80\n        /* \"#utility.yul\":15714:15733   */\n      add\n      swap1\n        /* \"#utility.yul\":15503:15739   */\n      jump\t// out\n        /* \"#utility.yul\":15744:16097   */\n    tag_453:\n        /* \"#utility.yul\":15946:15948   */\n      0x20\n        /* \"#utility.yul\":15928:15949   */\n      dup1\n      dup3\n      mstore\n        /* \"#utility.yul\":15985:15987   */\n      0x1d\n        /* \"#utility.yul\":15965:15983   */\n      swap1\n      dup3\n      add\n        /* \"#utility.yul\":15958:15988   */\n      mstore\n        /* \"#utility.yul\":16024:16055   */\n      0x416464726573733a2063616c6c20746f206e6f6e2d636f6e7472616374000000\n        /* \"#utility.yul\":16019:16021   */\n      0x40\n        /* \"#utility.yul\":16004:16022   */\n      dup3\n      add\n        /* \"#utility.yul\":15997:16056   */\n      mstore\n        /* \"#utility.yul\":16088:16090   */\n      0x60\n        /* \"#utility.yul\":16073:16091   */\n      add\n      swap1\n        /* \"#utility.yul\":15918:16097   */\n      jump\t// out\n        /* \"#utility.yul\":16102:16508   */\n    tag_441:\n        /* \"#utility.yul\":16304:16306   */\n      0x20\n        /* \"#utility.yul\":16286:16307   */\n      dup1\n      dup3\n      mstore\n        /* \"#utility.yul\":16343:16345   */\n      0x2a\n        /* \"#utility.yul\":16323:16341   */\n      swap1\n      dup3\n      add\n        /* \"#utility.yul\":16316:16346   */\n      mstore\n        /* \"#utility.yul\":16382:16416   */\n      0x5361666545524332303a204552433230206f7065726174696f6e20646964206e\n        /* \"#utility.yul\":16377:16379   */\n      0x40\n        /* \"#utility.yul\":16362:16380   */\n      dup3\n      add\n        /* \"#utility.yul\":16355:16417   */\n      mstore\n      shl(0xb2, 0x1bdd081cdd58d8d95959)\n        /* \"#utility.yul\":16448:16450   */\n      0x60\n        /* \"#utility.yul\":16433:16451   */\n      dup3\n      add\n        /* \"#utility.yul\":16426:16466   */\n      mstore\n        /* \"#utility.yul\":16498:16501   */\n      0x80\n        /* \"#utility.yul\":16483:16502   */\n      add\n      swap1\n        /* \"#utility.yul\":16276:16508   */\n      jump\t// out\n        /* \"#utility.yul\":16513:16917   */\n    tag_244:\n        /* \"#utility.yul\":16715:16717   */\n      0x20\n        /* \"#utility.yul\":16697:16718   */\n      dup1\n      dup3\n      mstore\n        /* \"#utility.yul\":16754:16756   */\n      0x28\n        /* \"#utility.yul\":16734:16752   */\n      swap1\n      dup3\n      add\n        /* \"#utility.yul\":16727:16757   */\n      mstore\n        /* \"#utility.yul\":16793:16827   */\n      0x46696174546f6b656e3a206e6577206f776e657220697320746865207a65726f\n        /* \"#utility.yul\":16788:16790   */\n      0x40\n        /* \"#utility.yul\":16773:16791   */\n      dup3\n      add\n        /* \"#utility.yul\":16766:16828   */\n      mstore\n      shl(0xc0, 0x2061646472657373)\n        /* \"#utility.yul\":16859:16861   */\n      0x60\n        /* \"#utility.yul\":16844:16862   */\n      dup3\n      add\n        /* \"#utility.yul\":16837:16875   */\n      mstore\n        /* \"#utility.yul\":16907:16910   */\n      0x80\n        /* \"#utility.yul\":16892:16911   */\n      add\n      swap1\n        /* \"#utility.yul\":16687:16917   */\n      jump\t// out\n        /* \"#utility.yul\":16922:17336   */\n    tag_357:\n        /* \"#utility.yul\":17124:17126   */\n      0x20\n        /* \"#utility.yul\":17106:17127   */\n      dup1\n      dup3\n      mstore\n        /* \"#utility.yul\":17163:17165   */\n      0x32\n        /* \"#utility.yul\":17143:17161   */\n      swap1\n      dup3\n      add\n        /* \"#utility.yul\":17136:17166   */\n      mstore\n        /* \"#utility.yul\":17202:17236   */\n      0x426c61636b6c69737461626c653a206e657720626c61636b6c69737465722069\n        /* \"#utility.yul\":17197:17199   */\n      0x40\n        /* \"#utility.yul\":17182:17200   */\n      dup3\n      add\n        /* \"#utility.yul\":17175:17237   */\n      mstore\n      shl(0x70, 0x7320746865207a65726f2061646472657373)\n        /* \"#utility.yul\":17268:17270   */\n      0x60\n        /* \"#utility.yul\":17253:17271   */\n      dup3\n      add\n        /* \"#utility.yul\":17246:17294   */\n      mstore\n        /* \"#utility.yul\":17326:17329   */\n      0x80\n        /* \"#utility.yul\":17311:17330   */\n      add\n      swap1\n        /* \"#utility.yul\":17096:17336   */\n      jump\t// out\n        /* \"#utility.yul\":17341:17742   */\n    tag_179:\n        /* \"#utility.yul\":17543:17545   */\n      0x20\n        /* \"#utility.yul\":17525:17546   */\n      dup1\n      dup3\n      mstore\n        /* \"#utility.yul\":17582:17584   */\n      0x25\n        /* \"#utility.yul\":17562:17580   */\n      swap1\n      dup3\n      add\n        /* \"#utility.yul\":17555:17585   */\n      mstore\n        /* \"#utility.yul\":17621:17655   */\n      0x426c61636b6c69737461626c653a206163636f756e7420697320626c61636b6c\n        /* \"#utility.yul\":17616:17618   */\n      0x40\n        /* \"#utility.yul\":17601:17619   */\n      dup3\n      add\n        /* \"#utility.yul\":17594:17656   */\n      mstore\n      shl(0xda, 0x1a5cdd1959)\n        /* \"#utility.yul\":17687:17689   */\n      0x60\n        /* \"#utility.yul\":17672:17690   */\n      dup3\n      add\n        /* \"#utility.yul\":17665:17700   */\n      mstore\n        /* \"#utility.yul\":17732:17735   */\n      0x80\n        /* \"#utility.yul\":17717:17736   */\n      add\n      swap1\n        /* \"#utility.yul\":17515:17742   */\n      jump\t// out\n        /* \"#utility.yul\":17747:17924   */\n    tag_56:\n        /* \"#utility.yul\":17893:17918   */\n      swap1\n      dup2\n      mstore\n        /* \"#utility.yul\":17881:17883   */\n      0x20\n        /* \"#utility.yul\":17866:17884   */\n      add\n      swap1\n        /* \"#utility.yul\":17848:17924   */\n      jump\t// out\n        /* \"#utility.yul\":17929:18113   */\n    tag_76:\n        /* \"#utility.yul\":18101:18105   */\n      0xff\n        /* \"#utility.yul\":18089:18106   */\n      swap2\n      swap1\n      swap2\n      and\n        /* \"#utility.yul\":18071:18107   */\n      dup2\n      mstore\n        /* \"#utility.yul\":18059:18061   */\n      0x20\n        /* \"#utility.yul\":18044:18062   */\n      add\n      swap1\n        /* \"#utility.yul\":18026:18113   */\n      jump\t// out\n        /* \"#utility.yul\":18118:18246   */\n    tag_277:\n      0x00\n        /* \"#utility.yul\":18189:18190   */\n      dup3\n        /* \"#utility.yul\":18185:18191   */\n      not\n        /* \"#utility.yul\":18182:18183   */\n      dup3\n        /* \"#utility.yul\":18179:18192   */\n      gt\n        /* \"#utility.yul\":18176:18178   */\n      iszero\n      tag_572\n      jumpi\n        /* \"#utility.yul\":18195:18213   */\n      tag_572\n      tag_573\n      jump\t// in\n    tag_572:\n      pop\n        /* \"#utility.yul\":18231:18240   */\n      add\n      swap1\n        /* \"#utility.yul\":18166:18246   */\n      jump\t// out\n        /* \"#utility.yul\":18251:18376   */\n    tag_212:\n      0x00\n        /* \"#utility.yul\":18319:18320   */\n      dup3\n        /* \"#utility.yul\":18316:18317   */\n      dup3\n        /* \"#utility.yul\":18313:18321   */\n      lt\n        /* \"#utility.yul\":18310:18312   */\n      iszero\n      tag_576\n      jumpi\n        /* \"#utility.yul\":18324:18342   */\n      tag_576\n      tag_573\n      jump\t// in\n    tag_576:\n      pop\n        /* \"#utility.yul\":18361:18370   */\n      sub\n      swap1\n        /* \"#utility.yul\":18300:18376   */\n      jump\t// out\n        /* \"#utility.yul\":18381:18639   */\n    tag_533:\n        /* \"#utility.yul\":18453:18454   */\n      0x00\n        /* \"#utility.yul\":18463:18576   */\n    tag_578:\n        /* \"#utility.yul\":18477:18483   */\n      dup4\n        /* \"#utility.yul\":18474:18475   */\n      dup2\n        /* \"#utility.yul\":18471:18484   */\n      lt\n        /* \"#utility.yul\":18463:18576   */\n      iszero\n      tag_580\n      jumpi\n        /* \"#utility.yul\":18553:18564   */\n      dup2\n      dup2\n      add\n        /* \"#utility.yul\":18547:18565   */\n      mload\n        /* \"#utility.yul\":18534:18545   */\n      dup4\n      dup3\n      add\n        /* \"#utility.yul\":18527:18566   */\n      mstore\n        /* \"#utility.yul\":18499:18501   */\n      0x20\n        /* \"#utility.yul\":18492:18502   */\n      add\n        /* \"#utility.yul\":18463:18576   */\n      jump(tag_578)\n    tag_580:\n        /* \"#utility.yul\":18594:18600   */\n      dup4\n        /* \"#utility.yul\":18591:18592   */\n      dup2\n        /* \"#utility.yul\":18588:18601   */\n      gt\n        /* \"#utility.yul\":18585:18587   */\n      iszero\n      tag_581\n      jumpi\n        /* \"#utility.yul\":18629:18630   */\n      0x00\n        /* \"#utility.yul\":18620:18626   */\n      dup5\n        /* \"#utility.yul\":18615:18618   */\n      dup5\n        /* \"#utility.yul\":18611:18627   */\n      add\n        /* \"#utility.yul\":18604:18631   */\n      mstore\n        /* \"#utility.yul\":18585:18587   */\n    tag_581:\n      pop\n        /* \"#utility.yul\":18434:18639   */\n      pop\n      pop\n      pop\n      jump\t// out\n        /* \"#utility.yul\":18644:19024   */\n    tag_166:\n        /* \"#utility.yul\":18729:18730   */\n      0x02\n        /* \"#utility.yul\":18719:18731   */\n      dup2\n      div\n        /* \"#utility.yul\":18776:18777   */\n      0x01\n        /* \"#utility.yul\":18766:18778   */\n      dup3\n      and\n      dup1\n        /* \"#utility.yul\":18787:18789   */\n      tag_583\n      jumpi\n        /* \"#utility.yul\":18841:18845   */\n      0x7f\n        /* \"#utility.yul\":18833:18839   */\n      dup3\n        /* \"#utility.yul\":18829:18846   */\n      and\n        /* \"#utility.yul\":18819:18846   */\n      swap2\n      pop\n        /* \"#utility.yul\":18787:18789   */\n    tag_583:\n        /* \"#utility.yul\":18894:18896   */\n      0x20\n        /* \"#utility.yul\":18886:18892   */\n      dup3\n        /* \"#utility.yul\":18883:18897   */\n      lt\n        /* \"#utility.yul\":18863:18881   */\n      dup2\n        /* \"#utility.yul\":18860:18898   */\n      eq\n        /* \"#utility.yul\":18857:18859   */\n      iszero\n      tag_584\n      jumpi\n        /* \"#utility.yul\":18940:18950   */\n      0x4e487b71\n        /* \"#utility.yul\":18935:18938   */\n      0xe0\n        /* \"#utility.yul\":18931:18951   */\n      shl\n        /* \"#utility.yul\":18928:18929   */\n      0x00\n        /* \"#utility.yul\":18921:18952   */\n      mstore\n        /* \"#utility.yul\":18975:18979   */\n      0x22\n        /* \"#utility.yul\":18972:18973   */\n      0x04\n        /* \"#utility.yul\":18965:18980   */\n      mstore\n        /* \"#utility.yul\":19003:19007   */\n      0x24\n        /* \"#utility.yul\":19000:19001   */\n      0x00\n        /* \"#utility.yul\":18993:19008   */\n      revert\n        /* \"#utility.yul\":18857:18859   */\n    tag_584:\n      pop\n        /* \"#utility.yul\":18699:19024   */\n      swap2\n      swap1\n      pop\n      jump\t// out\n        /* \"#utility.yul\":19029:19156   */\n    tag_573:\n        /* \"#utility.yul\":19090:19100   */\n      0x4e487b71\n        /* \"#utility.yul\":19085:19088   */\n      0xe0\n        /* \"#utility.yul\":19081:19101   */\n      shl\n        /* \"#utility.yul\":19078:19079   */\n      0x00\n        /* \"#utility.yul\":19071:19102   */\n      mstore\n        /* \"#utility.yul\":19121:19125   */\n      0x11\n        /* \"#utility.yul\":19118:19119   */\n      0x04\n        /* \"#utility.yul\":19111:19126   */\n      mstore\n        /* \"#utility.yul\":19145:19149   */\n      0x24\n        /* \"#utility.yul\":19142:19143   */\n      0x00\n        /* \"#utility.yul\":19135:19150   */\n      revert\n        /* \"#utility.yul\":19161:19288   */\n    tag_488:\n        /* \"#utility.yul\":19222:19232   */\n      0x4e487b71\n        /* \"#utility.yul\":19217:19220   */\n      0xe0\n        /* \"#utility.yul\":19213:19233   */\n      shl\n        /* \"#utility.yul\":19210:19211   */\n      0x00\n        /* \"#utility.yul\":19203:19234   */\n      mstore\n        /* \"#utility.yul\":19253:19257   */\n      0x41\n        /* \"#utility.yul\":19250:19251   */\n      0x04\n        /* \"#utility.yul\":19243:19258   */\n      mstore\n        /* \"#utility.yul\":19277:19281   */\n      0x24\n        /* \"#utility.yul\":19274:19275   */\n      0x00\n        /* \"#utility.yul\":19267:19282   */\n      revert\n        /* \"#utility.yul\":19293:19426   */\n    tag_482:\n      sub(shl(0xa0, 0x01), 0x01)\n        /* \"#utility.yul\":19370:19401   */\n      dup2\n      and\n        /* \"#utility.yul\":19360:19402   */\n      dup2\n      eq\n        /* \"#utility.yul\":19350:19352   */\n      tag_399\n      jumpi\n        /* \"#utility.yul\":19416:19417   */\n      0x00\n        /* \"#utility.yul\":19413:19414   */\n      dup1\n        /* \"#utility.yul\":19406:19418   */\n      revert\n    stop\n    data_ada389e1fc24a8587c776340efb91b36e675792ab631816100d55df0b5cf3cbc ddf252ad1be2c89b69c2b068fc378daa952ba7f163c4a11628f55a4df523b3ef\n\n    auxdata: 0xa2646970667358221220747103cd9f607faa1c5836741346e73243af51ce4bd25f698d70d81276401e7664736f6c63430008010033\n}\n",
				"bytecode": {
					"linkReferences": {},
					"object": "60806040526000600c553480156200001657600080fd5b506200002b620000256200003e565b62000042565b6001805460ff60a01b1916905562000092565b3390565b600080546001600160a01b038381166001600160a01b0319831681178455604051919092169283917f8be0079c531659141344cd1fd0a4f28419497f9722a3daafe3b4186f6b6457e09190a35050565b61258e80620000a26000396000f3fe608060405234801561001057600080fd5b50600436106101fb5760003560e01c8063715018a61161011a578063ad38bf22116100ad578063dd62ed3e1161007c578063dd62ed3e146103e7578063e5a6b10f146103fa578063f2fde38b14610402578063f9f92be414610415578063fe575a8714610428576101fb565b8063ad38bf22146103a6578063b2118a8d146103b9578063bd102430146103cc578063c39215da146103d4576101fb565b80639fd0506d116100e95780639fd0506d14610365578063a9059cbb1461036d578063aa20e1e414610380578063aa271e1a14610393576101fb565b8063715018a61461033a5780638a6db9c3146103425780638da5cb5b1461035557806395d89b411461035d576101fb565b80633357162b1161019257806342966c681161016157806342966c68146102f95780634e44d9561461030c5780635c975abb1461031f57806370a0823114610327576101fb565b80633357162b146102b657806335d99f35146102c957806338a63183146102de57806340c10f19146102e6576101fb565b806323b872dd116101ce57806323b872dd146102685780632ab600451461027b5780633092afd51461028e578063313ce567146102a1576101fb565b806306fdde0314610200578063095ea7b31461021e57806318160ddd1461023e5780631a89526614610253575b600080fd5b61020861043b565b6040516102159190611c2f565b60405180910390f35b61023161022c366004611a8c565b6104c9565b6040516102159190611c24565b61024661057a565b6040516102159190612446565b6102666102613660046119f8565b610580565b005b610231610276366004611a4c565b6105f3565b6102666102893660046119f8565b61076f565b61023161029c3660046119f8565b61081e565b6102a96108a7565b604051610215919061244f565b6102666102c4366004611aeb565b6108b0565b6102d1610a21565b6040516102159190611bf7565b6102d1610a30565b6102316102f4366004611a8c565b610a3f565b610266610307366004611bc3565b610c6c565b61023161031a366004611a8c565b610dd4565b610231610e96565b6102466103353660046119f8565b610ea6565b610266610ec1565b6102466103503660046119f8565b610f0c565b6102d1610f27565b610208610f36565b6102d1610f43565b61023161037b366004611a8c565b610f52565b61026661038e3660046119f8565b610fef565b6102316103a13660046119f8565b6110a4565b6102666103b43660046119f8565b6110c2565b6102666103c7366004611ad7565b611177565b6102d16111ba565b6102316103e2366004611a8c565b6111c9565b6102466103f5366004611a14565b61136b565b610208611396565b6102666104103660046119f8565b6113a3565b6102666104233660046119f8565b611414565b6102316104363660046119f8565b61148a565b60058054610448906124bc565b80601f0160208091040260200160405190810160405280929190818152602001828054610474906124bc565b80156104c15780601f10610496576101008083540402835291602001916104c1565b820191906000526020600020905b8154815290600101906020018083116104a457829003601f168201915b505050505081565b60006104d3610e96565b156104f95760405162461bcd60e51b81526004016104f090611fb6565b60405180910390fd5b3360008181526003602052604090205460ff16156105295760405162461bcd60e51b81526004016104f090612401565b6001600160a01b038416600090815260036020526040902054849060ff16156105645760405162461bcd60e51b81526004016104f090612401565b61056f3386866114a8565b506001949350505050565b600c5490565b6002546001600160a01b031633146105aa5760405162461bcd60e51b81526004016104f090611f24565b6001600160a01b038116600081815260036020526040808220805460ff19169055517f117e3210bb9aa7d9baff172026820255c6f6c30ba8999d1c2fd88e2848137c4e9190a250565b60006105fd610e96565b1561061a5760405162461bcd60e51b81526004016104f090611fb6565b3360008181526003602052604090205460ff161561064a5760405162461bcd60e51b81526004016104f090612401565b6001600160a01b038516600090815260036020526040902054859060ff16156106855760405162461bcd60e51b81526004016104f090612401565b6001600160a01b038516600090815260036020526040902054859060ff16156106c05760405162461bcd60e51b81526004016104f090612401565b6001600160a01b0387166000908152600b602090815260408083203384529091529020548511156107035760405162461bcd60e51b81526004016104f0906120fa565b61070e87878761154f565b6001600160a01b0387166000908152600b6020908152604080832033845290915290205461073d908690612475565b6001600160a01b0388166000908152600b60209081526040808320338452909152902055600193505050509392505050565b610777611667565b6001600160a01b0316610788610f27565b6001600160a01b0316146107ae5760405162461bcd60e51b81526004016104f090612142565b6001600160a01b0381166107d45760405162461bcd60e51b81526004016104f090611e02565b600480546001600160a01b0319166001600160a01b0383169081179091556040517fe475e580d85111348e40d8ca33cfdd74c30fe1655c2d8537a13abc10065ffa5a90600090a250565b6009546000906001600160a01b0316331461084b5760405162461bcd60e51b81526004016104f090611edb565b6001600160a01b0382166000818152600d60209081526040808320805460ff19169055600e909152808220829055517fe94479a9f7e1952cc78f2d6baab678adc1b772d936c6583def489e524cb666929190a25060015b919050565b60075460ff1681565b600954600160a01b900460ff16156108da5760405162461bcd60e51b81526004016104f0906121c5565b6001600160a01b0384166109005760405162461bcd60e51b81526004016104f090612067565b6001600160a01b0383166109265760405162461bcd60e51b81526004016104f090611db9565b6001600160a01b03821661094c5760405162461bcd60e51b81526004016104f090612177565b6001600160a01b0381166109725760405162461bcd60e51b81526004016104f090612367565b87516109859060059060208b01906118bc565b5086516109999060069060208a01906118bc565b5085516109ad9060089060208901906118bc565b506007805460ff191660ff8716179055600980546001600160a01b03199081166001600160a01b038781169190911790925560018054821686841617905560028054909116918416919091179055610a048161166b565b50506009805460ff60a01b1916600160a01b179055505050505050565b6009546001600160a01b031681565b6004546001600160a01b031690565b6000610a49610e96565b15610a665760405162461bcd60e51b81526004016104f090611fb6565b336000908152600d602052604090205460ff16610a955760405162461bcd60e51b81526004016104f090612026565b3360008181526003602052604090205460ff1615610ac55760405162461bcd60e51b81526004016104f090612401565b6001600160a01b038416600090815260036020526040902054849060ff1615610b005760405162461bcd60e51b81526004016104f090612401565b6001600160a01b038516610b265760405162461bcd60e51b81526004016104f090611cee565b60008411610b465760405162461bcd60e51b81526004016104f090611e4c565b336000908152600e602052604090205480851115610b765760405162461bcd60e51b81526004016104f090612298565b84600c54610b84919061245d565b600c556001600160a01b0386166000908152600a6020526040902054610bab90869061245d565b6001600160a01b0387166000908152600a6020526040902055610bce8582612475565b336000818152600e6020526040908190209290925590516001600160a01b03881691907fab8530f87dc9b59234c4623bf917212bb2536d647574c8e7e5da92c2ede0c9f890610c1e908990612446565b60405180910390a3856001600160a01b031660006001600160a01b031660008051602061253983398151915287604051610c589190612446565b60405180910390a350600195945050505050565b610c74610e96565b15610c915760405162461bcd60e51b81526004016104f090611fb6565b336000908152600d602052604090205460ff16610cc05760405162461bcd60e51b81526004016104f090612026565b3360008181526003602052604090205460ff1615610cf05760405162461bcd60e51b81526004016104f090612401565b336000908152600a602052604090205482610d1d5760405162461bcd60e51b81526004016104f090611ca5565b82811015610d3d5760405162461bcd60e51b81526004016104f090611fe0565b82600c54610d4b9190612475565b600c55610d588382612475565b336000818152600a6020526040908190209290925590517fcc16f5dbb4873280815c1ee09dbd06736cffcc184412cf7a71a0fdb75d397ca590610d9c908690612446565b60405180910390a2604051600090339060008051602061253983398151915290610dc7908790612446565b60405180910390a3505050565b6000610dde610e96565b15610dfb5760405162461bcd60e51b81526004016104f090611fb6565b6009546001600160a01b03163314610e255760405162461bcd60e51b81526004016104f090611edb565b6001600160a01b0383166000818152600d60209081526040808320805460ff19166001179055600e90915290819020849055517f46980fca912ef9bcdbd36877427b6b90e860769f604e89c0e67720cece530d2090610e85908590612446565b60405180910390a250600192915050565b600154600160a01b900460ff1690565b6001600160a01b03166000908152600a602052604090205490565b610ec9611667565b6001600160a01b0316610eda610f27565b6001600160a01b031614610f005760405162461bcd60e51b81526004016104f090612142565b610f0a600061166b565b565b6001600160a01b03166000908152600e602052604090205490565b6000546001600160a01b031690565b60068054610448906124bc565b6001546001600160a01b031681565b6000610f5c610e96565b15610f795760405162461bcd60e51b81526004016104f090611fb6565b3360008181526003602052604090205460ff1615610fa95760405162461bcd60e51b81526004016104f090612401565b6001600160a01b038416600090815260036020526040902054849060ff1615610fe45760405162461bcd60e51b81526004016104f090612401565b61056f33868661154f565b610ff7611667565b6001600160a01b0316611008610f27565b6001600160a01b03161461102e5760405162461bcd60e51b81526004016104f090612142565b6001600160a01b0381166110545760405162461bcd60e51b81526004016104f090612067565b600980546001600160a01b0319166001600160a01b0383811691909117918290556040519116907fdb66dfa9c6b8f5226fe9aac7e51897ae8ee94ac31dc70bb6c9900b2574b707e690600090a250565b6001600160a01b03166000908152600d602052604090205460ff1690565b6110ca611667565b6001600160a01b03166110db610f27565b6001600160a01b0316146111015760405162461bcd60e51b81526004016104f090612142565b6001600160a01b0381166111275760405162461bcd60e51b81526004016104f0906123af565b600280546001600160a01b0319166001600160a01b0383811691909117918290556040519116907fc67398012c111ce95ecb7429b933096c977380ee6c421175a71a4a4c6c88c06e90600090a250565b6004546001600160a01b031633146111a15760405162461bcd60e51b81526004016104f0906120b6565b6111b56001600160a01b03841683836116bb565b505050565b6002546001600160a01b031681565b60006111d3610e96565b156111f05760405162461bcd60e51b81526004016104f090611fb6565b6009546001600160a01b0316331461121a5760405162461bcd60e51b81526004016104f090611edb565b6001600160a01b038316600090815260036020526040902054839060ff16156112555760405162461bcd60e51b81526004016104f090612401565b6001600160a01b03841661127b5760405162461bcd60e51b81526004016104f090611cee565b6000831161129b5760405162461bcd60e51b81526004016104f090611e4c565b82600c546112a9919061245d565b600c556001600160a01b0384166000908152600a60205260409020546112d090849061245d565b6001600160a01b0385166000818152600a60205260409081902092909255905133907fafdc92bd1a5033525da4a5cf97b444b2d7cefd24c1ef18c9ce43f34a80831a7a9061131f908790612446565b60405180910390a3836001600160a01b031660006001600160a01b0316600080516020612539833981519152856040516113599190612446565b60405180910390a35060019392505050565b6001600160a01b039182166000908152600b6020908152604080832093909416825291909152205490565b60088054610448906124bc565b6113ab611667565b6001600160a01b03166113bc610f27565b6001600160a01b0316146113e25760405162461bcd60e51b81526004016104f090612142565b6001600160a01b0381166114085760405162461bcd60e51b81526004016104f090611d31565b6114118161166b565b50565b6002546001600160a01b0316331461143e5760405162461bcd60e51b81526004016104f090611f24565b6001600160a01b038116600081815260036020526040808220805460ff19166001179055517fffa4e6181777692565cf28528fc88fd1516ea86b56da075235fa575af6a4b8559190a250565b6001600160a01b031660009081526003602052604090205460ff1690565b6001600160a01b0383166114ce5760405162461bcd60e51b81526004016104f090612254565b6001600160a01b0382166114f45760405162461bcd60e51b81526004016104f090611d77565b6001600160a01b038084166000818152600b602090815260408083209487168084529490915290819020849055517f8c5be1e5ebec7d5bd14f71427d1e84f3dd0314c0f7b2291e5b200ac8c7c3b92590610dc7908590612446565b6001600160a01b0383166115755760405162461bcd60e51b81526004016104f09061220f565b6001600160a01b03821661159b5760405162461bcd60e51b81526004016104f090611c62565b6001600160a01b0383166000908152600a60205260409020548111156115d35760405162461bcd60e51b81526004016104f090611e95565b6001600160a01b0383166000908152600a60205260409020546115f7908290612475565b6001600160a01b038085166000908152600a6020526040808220939093559084168152205461162790829061245d565b6001600160a01b038084166000818152600a6020526040908190209390935591519085169060008051602061253983398151915290610dc7908590612446565b3390565b600080546001600160a01b038381166001600160a01b0319831681178455604051919092169283917f8be0079c531659141344cd1fd0a4f28419497f9722a3daafe3b4186f6b6457e09190a35050565b6111b58363a9059cbb60e01b84846040516024016116da929190611c0b565b60408051601f198184030181529190526020810180516001600160e01b03166001600160e01b0319909316929092179091526000611761826040518060400160405280602081526020017f5361666545524332303a206c6f772d6c6576656c2063616c6c206661696c6564815250856001600160a01b031661179b9092919063ffffffff16565b8051909150156111b5578080602001905181019061177f9190611ab7565b6111b55760405162461bcd60e51b81526004016104f09061231d565b60606117aa84846000856117b4565b90505b9392505050565b6060824710156117d65760405162461bcd60e51b81526004016104f090611f70565b6117df85611874565b6117fb5760405162461bcd60e51b81526004016104f0906122e6565b600080866001600160a01b031685876040516118179190611bdb565b60006040518083038185875af1925050503d8060008114611854576040519150601f19603f3d011682016040523d82523d6000602084013e611859565b606091505b5091509150611869828286611883565b979650505050505050565b6001600160a01b03163b151590565b606083156118925750816117ad565b8251156118a25782518084602001fd5b8160405162461bcd60e51b81526004016104f09190611c2f565b8280546118c8906124bc565b90600052602060002090601f0160209004810192826118ea5760008555611930565b82601f1061190357805160ff1916838001178555611930565b82800160010185558215611930579182015b82811115611930578251825591602001919060010190611915565b5061193c929150611940565b5090565b5b8082111561193c5760008155600101611941565b80356108a281612523565b600082601f830112611970578081fd5b813567ffffffffffffffff8082111561198b5761198b61250d565b604051601f8301601f19908116603f011681019082821181831017156119b3576119b361250d565b816040528381528660208588010111156119cb578485fd5b8360208701602083013792830160200193909352509392505050565b803560ff811681146108a257600080fd5b600060208284031215611a09578081fd5b81356117ad81612523565b60008060408385031215611a26578081fd5b8235611a3181612523565b91506020830135611a4181612523565b809150509250929050565b600080600060608486031215611a60578081fd5b8335611a6b81612523565b92506020840135611a7b81612523565b929592945050506040919091013590565b60008060408385031215611a9e578182fd5b8235611aa981612523565b946020939093013593505050565b600060208284031215611ac8578081fd5b815180151581146117ad578182fd5b600080600060608486031215611a60578283fd5b600080600080600080600080610100898b031215611b07578384fd5b883567ffffffffffffffff80821115611b1e578586fd5b611b2a8c838d01611960565b995060208b0135915080821115611b3f578586fd5b611b4b8c838d01611960565b985060408b0135915080821115611b60578586fd5b50611b6d8b828c01611960565b965050611b7c60608a016119e7565b9450611b8a60808a01611955565b9350611b9860a08a01611955565b9250611ba660c08a01611955565b9150611bb460e08a01611955565b90509295985092959890939650565b600060208284031215611bd4578081fd5b5035919050565b60008251611bed81846020870161248c565b9190910192915050565b6001600160a01b0391909116815260200190565b6001600160a01b03929092168252602082015260400190565b901515815260200190565b6000602082528251806020840152611c4e81604085016020870161248c565b601f01601f19169190910160400192915050565b60208082526023908201527f45524332303a207472616e7366657220746f20746865207a65726f206164647260408201526265737360e81b606082015260800190565b60208082526029908201527f46696174546f6b656e3a206275726e20616d6f756e74206e6f7420677265617460408201526806572207468616e20360bc1b606082015260800190565b60208082526023908201527f46696174546f6b656e3a206d696e7420746f20746865207a65726f206164647260408201526265737360e81b606082015260800190565b60208082526026908201527f4f776e61626c653a206e6577206f776e657220697320746865207a65726f206160408201526564647265737360d01b606082015260800190565b60208082526022908201527f45524332303a20617070726f766520746f20746865207a65726f206164647265604082015261737360f01b606082015260800190565b60208082526029908201527f46696174546f6b656e3a206e65772070617573657220697320746865207a65726040820152686f206164647265737360b81b606082015260800190565b6020808252602a908201527f526573637561626c653a206e6577207265736375657220697320746865207a65604082015269726f206164647265737360b01b606082015260800190565b60208082526029908201527f46696174546f6b656e3a206d696e7420616d6f756e74206e6f7420677265617460408201526806572207468616e20360bc1b606082015260800190565b60208082526026908201527f45524332303a207472616e7366657220616d6f756e7420657863656564732062604082015265616c616e636560d01b606082015260800190565b60208082526029908201527f46696174546f6b656e3a2063616c6c6572206973206e6f7420746865206d61736040820152683a32b926b4b73a32b960b91b606082015260800190565b6020808252602c908201527f426c61636b6c69737461626c653a2063616c6c6572206973206e6f742074686560408201526b10313630b1b5b634b9ba32b960a11b606082015260800190565b60208082526026908201527f416464726573733a20696e73756666696369656e742062616c616e636520666f6040820152651c8818d85b1b60d21b606082015260800190565b60208082526010908201526f14185d5cd8589b194e881c185d5cd95960821b604082015260600190565b60208082526026908201527f46696174546f6b656e3a206275726e20616d6f756e7420657863656564732062604082015265616c616e636560d01b606082015260800190565b60208082526021908201527f46696174546f6b656e3a2063616c6c6572206973206e6f742061206d696e74656040820152603960f91b606082015260800190565b6020808252602f908201527f46696174546f6b656e3a206e6577206d61737465724d696e746572206973207460408201526e6865207a65726f206164647265737360881b606082015260800190565b60208082526024908201527f526573637561626c653a2063616c6c6572206973206e6f74207468652072657360408201526331bab2b960e11b606082015260800190565b60208082526028908201527f45524332303a207472616e7366657220616d6f756e74206578636565647320616040820152676c6c6f77616e636560c01b606082015260800190565b6020808252818101527f4f776e61626c653a2063616c6c6572206973206e6f7420746865206f776e6572604082015260600190565b6020808252602e908201527f46696174546f6b656e3a206e657720626c61636b6c697374657220697320746860408201526d65207a65726f206164647265737360901b606082015260800190565b6020808252602a908201527f46696174546f6b656e3a20636f6e747261637420697320616c726561647920696040820152691b9a5d1a585b1a5e995960b21b606082015260800190565b60208082526025908201527f45524332303a207472616e736665722066726f6d20746865207a65726f206164604082015264647265737360d81b606082015260800190565b60208082526024908201527f45524332303a20617070726f76652066726f6d20746865207a65726f206164646040820152637265737360e01b606082015260800190565b6020808252602e908201527f46696174546f6b656e3a206d696e7420616d6f756e742065786365656473206d60408201526d696e746572416c6c6f77616e636560901b606082015260800190565b6020808252601d908201527f416464726573733a2063616c6c20746f206e6f6e2d636f6e7472616374000000604082015260600190565b6020808252602a908201527f5361666545524332303a204552433230206f7065726174696f6e20646964206e6040820152691bdd081cdd58d8d9595960b21b606082015260800190565b60208082526028908201527f46696174546f6b656e3a206e6577206f776e657220697320746865207a65726f604082015267206164647265737360c01b606082015260800190565b60208082526032908201527f426c61636b6c69737461626c653a206e657720626c61636b6c697374657220696040820152717320746865207a65726f206164647265737360701b606082015260800190565b60208082526025908201527f426c61636b6c69737461626c653a206163636f756e7420697320626c61636b6c6040820152641a5cdd195960da1b606082015260800190565b90815260200190565b60ff91909116815260200190565b60008219821115612470576124706124f7565b500190565b600082821015612487576124876124f7565b500390565b60005b838110156124a757818101518382015260200161248f565b838111156124b6576000848401525b50505050565b6002810460018216806124d057607f821691505b602082108114156124f157634e487b7160e01b600052602260045260246000fd5b50919050565b634e487b7160e01b600052601160045260246000fd5b634e487b7160e01b600052604160045260246000fd5b6001600160a01b038116811461141157600080fdfeddf252ad1be2c89b69c2b068fc378daa952ba7f163c4a11628f55a4df523b3efa2646970667358221220747103cd9f607faa1c5836741346e73243af51ce4bd25f698d70d81276401e7664736f6c63430008010033",
					"opcodes": "PUSH1 0x80 PUSH1 0x40 MSTORE PUSH1 0x0 PUSH1 0xC SSTORE CALLVALUE DUP1 ISZERO PUSH3 0x16 JUMPI PUSH1 0x0 DUP1 REVERT JUMPDEST POP PUSH3 0x2B PUSH3 0x25 PUSH3 0x3E JUMP JUMPDEST PUSH3 0x42 JUMP JUMPDEST PUSH1 0x1 DUP1 SLOAD PUSH1 0xFF PUSH1 0xA0 SHL NOT AND SWAP1 SSTORE PUSH3 0x92 JUMP JUMPDEST CALLER SWAP1 JUMP JUMPDEST PUSH1 0x0 DUP1 SLOAD PUSH1 0x1 PUSH1 0x1 PUSH1 0xA0 SHL SUB DUP4 DUP2 AND PUSH1 0x1 PUSH1 0x1 PUSH1 0xA0 SHL SUB NOT DUP4 AND DUP2 OR DUP5 SSTORE PUSH1 0x40 MLOAD SWAP2 SWAP1 SWAP3 AND SWAP3 DUP4 SWAP2 PUSH32 0x8BE0079C531659141344CD1FD0A4F28419497F9722A3DAAFE3B4186F6B6457E0 SWAP2 SWAP1 LOG3 POP POP JUMP JUMPDEST PUSH2 0x258E DUP1 PUSH3 0xA2 PUSH1 0x0 CODECOPY PUSH1 0x0 RETURN INVALID PUSH1 0x80 PUSH1 0x40 MSTORE CALLVALUE DUP1 ISZERO PUSH2 0x10 JUMPI PUSH1 0x0 DUP1 REVERT JUMPDEST POP PUSH1 0x4 CALLDATASIZE LT PUSH2 0x1FB JUMPI PUSH1 0x0 CALLDATALOAD PUSH1 0xE0 SHR DUP1 PUSH4 0x715018A6 GT PUSH2 0x11A JUMPI DUP1 PUSH4 0xAD38BF22 GT PUSH2 0xAD JUMPI DUP1 PUSH4 0xDD62ED3E GT PUSH2 0x7C JUMPI DUP1 PUSH4 0xDD62ED3E EQ PUSH2 0x3E7 JUMPI DUP1 PUSH4 0xE5A6B10F EQ PUSH2 0x3FA JUMPI DUP1 PUSH4 0xF2FDE38B EQ PUSH2 0x402 JUMPI DUP1 PUSH4 0xF9F92BE4 EQ PUSH2 0x415 JUMPI DUP1 PUSH4 0xFE575A87 EQ PUSH2 0x428 JUMPI PUSH2 0x1FB JUMP JUMPDEST DUP1 PUSH4 0xAD38BF22 EQ PUSH2 0x3A6 JUMPI DUP1 PUSH4 0xB2118A8D EQ PUSH2 0x3B9 JUMPI DUP1 PUSH4 0xBD102430 EQ PUSH2 0x3CC JUMPI DUP1 PUSH4 0xC39215DA EQ PUSH2 0x3D4 JUMPI PUSH2 0x1FB JUMP JUMPDEST DUP1 PUSH4 0x9FD0506D GT PUSH2 0xE9 JUMPI DUP1 PUSH4 0x9FD0506D EQ PUSH2 0x365 JUMPI DUP1 PUSH4 0xA9059CBB EQ PUSH2 0x36D JUMPI DUP1 PUSH4 0xAA20E1E4 EQ PUSH2 0x380 JUMPI DUP1 PUSH4 0xAA271E1A EQ PUSH2 0x393 JUMPI PUSH2 0x1FB JUMP JUMPDEST DUP1 PUSH4 0x715018A6 EQ PUSH2 0x33A JUMPI DUP1 PUSH4 0x8A6DB9C3 EQ PUSH2 0x342 JUMPI DUP1 PUSH4 0x8DA5CB5B EQ PUSH2 0x355 JUMPI DUP1 PUSH4 0x95D89B41 EQ PUSH2 0x35D JUMPI PUSH2 0x1FB JUMP JUMPDEST DUP1 PUSH4 0x3357162B GT PUSH2 0x192 JUMPI DUP1 PUSH4 0x42966C68 GT PUSH2 0x161 JUMPI DUP1 PUSH4 0x42966C68 EQ PUSH2 0x2F9 JUMPI DUP1 PUSH4 0x4E44D956 EQ PUSH2 0x30C JUMPI DUP1 PUSH4 0x5C975ABB EQ PUSH2 0x31F JUMPI DUP1 PUSH4 0x70A08231 EQ PUSH2 0x327 JUMPI PUSH2 0x1FB JUMP JUMPDEST DUP1 PUSH4 0x3357162B EQ PUSH2 0x2B6 JUMPI DUP1 PUSH4 0x35D99F35 EQ PUSH2 0x2C9 JUMPI DUP1 PUSH4 0x38A63183 EQ PUSH2 0x2DE JUMPI DUP1 PUSH4 0x40C10F19 EQ PUSH2 0x2E6 JUMPI PUSH2 0x1FB JUMP JUMPDEST DUP1 PUSH4 0x23B872DD GT PUSH2 0x1CE JUMPI DUP1 PUSH4 0x23B872DD EQ PUSH2 0x268 JUMPI DUP1 PUSH4 0x2AB60045 EQ PUSH2 0x27B JUMPI DUP1 PUSH4 0x3092AFD5 EQ PUSH2 0x28E JUMPI DUP1 PUSH4 0x313CE567 EQ PUSH2 0x2A1 JUMPI PUSH2 0x1FB JUMP JUMPDEST DUP1 PUSH4 0x6FDDE03 EQ PUSH2 0x200 JUMPI DUP1 PUSH4 0x95EA7B3 EQ PUSH2 0x21E JUMPI DUP1 PUSH4 0x18160DDD EQ PUSH2 0x23E JUMPI DUP1 PUSH4 0x1A895266 EQ PUSH2 0x253 JUMPI JUMPDEST PUSH1 0x0 DUP1 REVERT JUMPDEST PUSH2 0x208 PUSH2 0x43B JUMP JUMPDEST PUSH1 0x40 MLOAD PUSH2 0x215 SWAP2 SWAP1 PUSH2 0x1C2F JUMP JUMPDEST PUSH1 0x40 MLOAD DUP1 SWAP2 SUB SWAP1 RETURN JUMPDEST PUSH2 0x231 PUSH2 0x22C CALLDATASIZE PUSH1 0x4 PUSH2 0x1A8C JUMP JUMPDEST PUSH2 0x4C9 JUMP JUMPDEST PUSH1 0x40 MLOAD PUSH2 0x215 SWAP2 SWAP1 PUSH2 0x1C24 JUMP JUMPDEST PUSH2 0x246 PUSH2 0x57A JUMP JUMPDEST PUSH1 0x40 MLOAD PUSH2 0x215 SWAP2 SWAP1 PUSH2 0x2446 JUMP JUMPDEST PUSH2 0x266 PUSH2 0x261 CALLDATASIZE PUSH1 0x4 PUSH2 0x19F8 JUMP JUMPDEST PUSH2 0x580 JUMP JUMPDEST STOP JUMPDEST PUSH2 0x231 PUSH2 0x276 CALLDATASIZE PUSH1 0x4 PUSH2 0x1A4C JUMP JUMPDEST PUSH2 0x5F3 JUMP JUMPDEST PUSH2 0x266 PUSH2 0x289 CALLDATASIZE PUSH1 0x4 PUSH2 0x19F8 JUMP JUMPDEST PUSH2 0x76F JUMP JUMPDEST PUSH2 0x231 PUSH2 0x29C CALLDATASIZE PUSH1 0x4 PUSH2 0x19F8 JUMP JUMPDEST PUSH2 0x81E JUMP JUMPDEST PUSH2 0x2A9 PUSH2 0x8A7 JUMP JUMPDEST PUSH1 0x40 MLOAD PUSH2 0x215 SWAP2 SWAP1 PUSH2 0x244F JUMP JUMPDEST PUSH2 0x266 PUSH2 0x2C4 CALLDATASIZE PUSH1 0x4 PUSH2 0x1AEB JUMP JUMPDEST PUSH2 0x8B0 JUMP JUMPDEST PUSH2 0x2D1 PUSH2 0xA21 JUMP JUMPDEST PUSH1 0x40 MLOAD PUSH2 0x215 SWAP2 SWAP1 PUSH2 0x1BF7 JUMP JUMPDEST PUSH2 0x2D1 PUSH2 0xA30 JUMP JUMPDEST PUSH2 0x231 PUSH2 0x2F4 CALLDATASIZE PUSH1 0x4 PUSH2 0x1A8C JUMP JUMPDEST PUSH2 0xA3F JUMP JUMPDEST PUSH2 0x266 PUSH2 0x307 CALLDATASIZE PUSH1 0x4 PUSH2 0x1BC3 JUMP JUMPDEST PUSH2 0xC6C JUMP JUMPDEST PUSH2 0x231 PUSH2 0x31A CALLDATASIZE PUSH1 0x4 PUSH2 0x1A8C JUMP JUMPDEST PUSH2 0xDD4 JUMP JUMPDEST PUSH2 0x231 PUSH2 0xE96 JUMP JUMPDEST PUSH2 0x246 PUSH2 0x335 CALLDATASIZE PUSH1 0x4 PUSH2 0x19F8 JUMP JUMPDEST PUSH2 0xEA6 JUMP JUMPDEST PUSH2 0x266 PUSH2 0xEC1 JUMP JUMPDEST PUSH2 0x246 PUSH2 0x350 CALLDATASIZE PUSH1 0x4 PUSH2 0x19F8 JUMP JUMPDEST PUSH2 0xF0C JUMP JUMPDEST PUSH2 0x2D1 PUSH2 0xF27 JUMP JUMPDEST PUSH2 0x208 PUSH2 0xF36 JUMP JUMPDEST PUSH2 0x2D1 PUSH2 0xF43 JUMP JUMPDEST PUSH2 0x231 PUSH2 0x37B CALLDATASIZE PUSH1 0x4 PUSH2 0x1A8C JUMP JUMPDEST PUSH2 0xF52 JUMP JUMPDEST PUSH2 0x266 PUSH2 0x38E CALLDATASIZE PUSH1 0x4 PUSH2 0x19F8 JUMP JUMPDEST PUSH2 0xFEF JUMP JUMPDEST PUSH2 0x231 PUSH2 0x3A1 CALLDATASIZE PUSH1 0x4 PUSH2 0x19F8 JUMP JUMPDEST PUSH2 0x10A4 JUMP JUMPDEST PUSH2 0x266 PUSH2 0x3B4 CALLDATASIZE PUSH1 0x4 PUSH2 0x19F8 JUMP JUMPDEST PUSH2 0x10C2 JUMP JUMPDEST PUSH2 0x266 PUSH2 0x3C7 CALLDATASIZE PUSH1 0x4 PUSH2 0x1AD7 JUMP JUMPDEST PUSH2 0x1177 JUMP JUMPDEST PUSH2 0x2D1 PUSH2 0x11BA JUMP JUMPDEST PUSH2 0x231 PUSH2 0x3E2 CALLDATASIZE PUSH1 0x4 PUSH2 0x1A8C JUMP JUMPDEST PUSH2 0x11C9 JUMP JUMPDEST PUSH2 0x246 PUSH2 0x3F5 CALLDATASIZE PUSH1 0x4 PUSH2 0x1A14 JUMP JUMPDEST PUSH2 0x136B JUMP JUMPDEST PUSH2 0x208 PUSH2 0x1396 JUMP JUMPDEST PUSH2 0x266 PUSH2 0x410 CALLDATASIZE PUSH1 0x4 PUSH2 0x19F8 JUMP JUMPDEST PUSH2 0x13A3 JUMP JUMPDEST PUSH2 0x266 PUSH2 0x423 CALLDATASIZE PUSH1 0x4 PUSH2 0x19F8 JUMP JUMPDEST PUSH2 0x1414 JUMP JUMPDEST PUSH2 0x231 PUSH2 0x436 CALLDATASIZE PUSH1 0x4 PUSH2 0x19F8 JUMP JUMPDEST PUSH2 0x148A JUMP JUMPDEST PUSH1 0x5 DUP1 SLOAD PUSH2 0x448 SWAP1 PUSH2 0x24BC JUMP JUMPDEST DUP1 PUSH1 0x1F ADD PUSH1 0x20 DUP1 SWAP2 DIV MUL PUSH1 0x20 ADD PUSH1 0x40 MLOAD SWAP1 DUP2 ADD PUSH1 0x40 MSTORE DUP1 SWAP3 SWAP2 SWAP1 DUP2 DUP2 MSTORE PUSH1 0x20 ADD DUP3 DUP1 SLOAD PUSH2 0x474 SWAP1 PUSH2 0x24BC JUMP JUMPDEST DUP1 ISZERO PUSH2 0x4C1 JUMPI DUP1 PUSH1 0x1F LT PUSH2 0x496 JUMPI PUSH2 0x100 DUP1 DUP4 SLOAD DIV MUL DUP4 MSTORE SWAP2 PUSH1 0x20 ADD SWAP2 PUSH2 0x4C1 JUMP JUMPDEST DUP3 ADD SWAP2 SWAP1 PUSH1 0x0 MSTORE PUSH1 0x20 PUSH1 0x0 KECCAK256 SWAP1 JUMPDEST DUP2 SLOAD DUP2 MSTORE SWAP1 PUSH1 0x1 ADD SWAP1 PUSH1 0x20 ADD DUP1 DUP4 GT PUSH2 0x4A4 JUMPI DUP3 SWAP1 SUB PUSH1 0x1F AND DUP3 ADD SWAP2 JUMPDEST POP POP POP POP POP DUP2 JUMP JUMPDEST PUSH1 0x0 PUSH2 0x4D3 PUSH2 0xE96 JUMP JUMPDEST ISZERO PUSH2 0x4F9 JUMPI PUSH1 0x40 MLOAD PUSH3 0x461BCD PUSH1 0xE5 SHL DUP2 MSTORE PUSH1 0x4 ADD PUSH2 0x4F0 SWAP1 PUSH2 0x1FB6 JUMP JUMPDEST PUSH1 0x40 MLOAD DUP1 SWAP2 SUB SWAP1 REVERT JUMPDEST CALLER PUSH1 0x0 DUP2 DUP2 MSTORE PUSH1 0x3 PUSH1 0x20 MSTORE PUSH1 0x40 SWAP1 KECCAK256 SLOAD PUSH1 0xFF AND ISZERO PUSH2 0x529 JUMPI PUSH1 0x40 MLOAD PUSH3 0x461BCD PUSH1 0xE5 SHL DUP2 MSTORE PUSH1 0x4 ADD PUSH2 0x4F0 SWAP1 PUSH2 0x2401 JUMP JUMPDEST PUSH1 0x1 PUSH1 0x1 PUSH1 0xA0 SHL SUB DUP5 AND PUSH1 0x0 SWAP1 DUP2 MSTORE PUSH1 0x3 PUSH1 0x20 MSTORE PUSH1 0x40 SWAP1 KECCAK256 SLOAD DUP5 SWAP1 PUSH1 0xFF AND ISZERO PUSH2 0x564 JUMPI PUSH1 0x40 MLOAD PUSH3 0x461BCD PUSH1 0xE5 SHL DUP2 MSTORE PUSH1 0x4 ADD PUSH2 0x4F0 SWAP1 PUSH2 0x2401 JUMP JUMPDEST PUSH2 0x56F CALLER DUP7 DUP7 PUSH2 0x14A8 JUMP JUMPDEST POP PUSH1 0x1 SWAP5 SWAP4 POP POP POP POP JUMP JUMPDEST PUSH1 0xC SLOAD SWAP1 JUMP JUMPDEST PUSH1 0x2 SLOAD PUSH1 0x1 PUSH1 0x1 PUSH1 0xA0 SHL SUB AND CALLER EQ PUSH2 0x5AA JUMPI PUSH1 0x40 MLOAD PUSH3 0x461BCD PUSH1 0xE5 SHL DUP2 MSTORE PUSH1 0x4 ADD PUSH2 0x4F0 SWAP1 PUSH2 0x1F24 JUMP JUMPDEST PUSH1 0x1 PUSH1 0x1 PUSH1 0xA0 SHL SUB DUP2 AND PUSH1 0x0 DUP2 DUP2 MSTORE PUSH1 0x3 PUSH1 0x20 MSTORE PUSH1 0x40 DUP1 DUP3 KECCAK256 DUP1 SLOAD PUSH1 0xFF NOT AND SWAP1 SSTORE MLOAD PUSH32 0x117E3210BB9AA7D9BAFF172026820255C6F6C30BA8999D1C2FD88E2848137C4E SWAP2 SWAP1 LOG2 POP JUMP JUMPDEST PUSH1 0x0 PUSH2 0x5FD PUSH2 0xE96 JUMP JUMPDEST ISZERO PUSH2 0x61A JUMPI PUSH1 0x40 MLOAD PUSH3 0x461BCD PUSH1 0xE5 SHL DUP2 MSTORE PUSH1 0x4 ADD PUSH2 0x4F0 SWAP1 PUSH2 0x1FB6 JUMP JUMPDEST CALLER PUSH1 0x0 DUP2 DUP2 MSTORE PUSH1 0x3 PUSH1 0x20 MSTORE PUSH1 0x40 SWAP1 KECCAK256 SLOAD PUSH1 0xFF AND ISZERO PUSH2 0x64A JUMPI PUSH1 0x40 MLOAD PUSH3 0x461BCD PUSH1 0xE5 SHL DUP2 MSTORE PUSH1 0x4 ADD PUSH2 0x4F0 SWAP1 PUSH2 0x2401 JUMP JUMPDEST PUSH1 0x1 PUSH1 0x1 PUSH1 0xA0 SHL SUB DUP6 AND PUSH1 0x0 SWAP1 DUP2 MSTORE PUSH1 0x3 PUSH1 0x20 MSTORE PUSH1 0x40 SWAP1 KECCAK256 SLOAD DUP6 SWAP1 PUSH1 0xFF AND ISZERO PUSH2 0x685 JUMPI PUSH1 0x40 MLOAD PUSH3 0x461BCD PUSH1 0xE5 SHL DUP2 MSTORE PUSH1 0x4 ADD PUSH2 0x4F0 SWAP1 PUSH2 0x2401 JUMP JUMPDEST PUSH1 0x1 PUSH1 0x1 PUSH1 0xA0 SHL SUB DUP6 AND PUSH1 0x0 SWAP1 DUP2 MSTORE PUSH1 0x3 PUSH1 0x20 MSTORE PUSH1 0x40 SWAP1 KECCAK256 SLOAD DUP6 SWAP1 PUSH1 0xFF AND ISZERO PUSH2 0x6C0 JUMPI PUSH1 0x40 MLOAD PUSH3 0x461BCD PUSH1 0xE5 SHL DUP2 MSTORE PUSH1 0x4 ADD PUSH2 0x4F0 SWAP1 PUSH2 0x2401 JUMP JUMPDEST PUSH1 0x1 PUSH1 0x1 PUSH1 0xA0 SHL SUB DUP8 AND PUSH1 0x0 SWAP1 DUP2 MSTORE PUSH1 0xB PUSH1 0x20 SWAP1 DUP2 MSTORE PUSH1 0x40 DUP1 DUP4 KECCAK256 CALLER DUP5 MSTORE SWAP1 SWAP2 MSTORE SWAP1 KECCAK256 SLOAD DUP6 GT ISZERO PUSH2 0x703 JUMPI PUSH1 0x40 MLOAD PUSH3 0x461BCD PUSH1 0xE5 SHL DUP2 MSTORE PUSH1 0x4 ADD PUSH2 0x4F0 SWAP1 PUSH2 0x20FA JUMP JUMPDEST PUSH2 0x70E DUP8 DUP8 DUP8 PUSH2 0x154F JUMP JUMPDEST PUSH1 0x1 PUSH1 0x1 PUSH1 0xA0 SHL SUB DUP8 AND PUSH1 0x0 SWAP1 DUP2 MSTORE PUSH1 0xB PUSH1 0x20 SWAP1 DUP2 MSTORE PUSH1 0x40 DUP1 DUP4 KECCAK256 CALLER DUP5 MSTORE SWAP1 SWAP2 MSTORE SWAP1 KECCAK256 SLOAD PUSH2 0x73D SWAP1 DUP7 SWAP1 PUSH2 0x2475 JUMP JUMPDEST PUSH1 0x1 PUSH1 0x1 PUSH1 0xA0 SHL SUB DUP9 AND PUSH1 0x0 SWAP1 DUP2 MSTORE PUSH1 0xB PUSH1 0x20 SWAP1 DUP2 MSTORE PUSH1 0x40 DUP1 DUP4 KECCAK256 CALLER DUP5 MSTORE SWAP1 SWAP2 MSTORE SWAP1 KECCAK256 SSTORE PUSH1 0x1 SWAP4 POP POP POP POP SWAP4 SWAP3 POP POP POP JUMP JUMPDEST PUSH2 0x777 PUSH2 0x1667 JUMP JUMPDEST PUSH1 0x1 PUSH1 0x1 PUSH1 0xA0 SHL SUB AND PUSH2 0x788 PUSH2 0xF27 JUMP JUMPDEST PUSH1 0x1 PUSH1 0x1 PUSH1 0xA0 SHL SUB AND EQ PUSH2 0x7AE JUMPI PUSH1 0x40 MLOAD PUSH3 0x461BCD PUSH1 0xE5 SHL DUP2 MSTORE PUSH1 0x4 ADD PUSH2 0x4F0 SWAP1 PUSH2 0x2142 JUMP JUMPDEST PUSH1 0x1 PUSH1 0x1 PUSH1 0xA0 SHL SUB DUP2 AND PUSH2 0x7D4 JUMPI PUSH1 0x40 MLOAD PUSH3 0x461BCD PUSH1 0xE5 SHL DUP2 MSTORE PUSH1 0x4 ADD PUSH2 0x4F0 SWAP1 PUSH2 0x1E02 JUMP JUMPDEST PUSH1 0x4 DUP1 SLOAD PUSH1 0x1 PUSH1 0x1 PUSH1 0xA0 SHL SUB NOT AND PUSH1 0x1 PUSH1 0x1 PUSH1 0xA0 SHL SUB DUP4 AND SWAP1 DUP2 OR SWAP1 SWAP2 SSTORE PUSH1 0x40 MLOAD PUSH32 0xE475E580D85111348E40D8CA33CFDD74C30FE1655C2D8537A13ABC10065FFA5A SWAP1 PUSH1 0x0 SWAP1 LOG2 POP JUMP JUMPDEST PUSH1 0x9 SLOAD PUSH1 0x0 SWAP1 PUSH1 0x1 PUSH1 0x1 PUSH1 0xA0 SHL SUB AND CALLER EQ PUSH2 0x84B JUMPI PUSH1 0x40 MLOAD PUSH3 0x461BCD PUSH1 0xE5 SHL DUP2 MSTORE PUSH1 0x4 ADD PUSH2 0x4F0 SWAP1 PUSH2 0x1EDB JUMP JUMPDEST PUSH1 0x1 PUSH1 0x1 PUSH1 0xA0 SHL SUB DUP3 AND PUSH1 0x0 DUP2 DUP2 MSTORE PUSH1 0xD PUSH1 0x20 SWAP1 DUP2 MSTORE PUSH1 0x40 DUP1 DUP4 KECCAK256 DUP1 SLOAD PUSH1 0xFF NOT AND SWAP1 SSTORE PUSH1 0xE SWAP1 SWAP2 MSTORE DUP1 DUP3 KECCAK256 DUP3 SWAP1 SSTORE MLOAD PUSH32 0xE94479A9F7E1952CC78F2D6BAAB678ADC1B772D936C6583DEF489E524CB66692 SWAP2 SWAP1 LOG2 POP PUSH1 0x1 JUMPDEST SWAP2 SWAP1 POP JUMP JUMPDEST PUSH1 0x7 SLOAD PUSH1 0xFF AND DUP2 JUMP JUMPDEST PUSH1 0x9 SLOAD PUSH1 0x1 PUSH1 0xA0 SHL SWAP1 DIV PUSH1 0xFF AND ISZERO PUSH2 0x8DA JUMPI PUSH1 0x40 MLOAD PUSH3 0x461BCD PUSH1 0xE5 SHL DUP2 MSTORE PUSH1 0x4 ADD PUSH2 0x4F0 SWAP1 PUSH2 0x21C5 JUMP JUMPDEST PUSH1 0x1 PUSH1 0x1 PUSH1 0xA0 SHL SUB DUP5 AND PUSH2 0x900 JUMPI PUSH1 0x40 MLOAD PUSH3 0x461BCD PUSH1 0xE5 SHL DUP2 MSTORE PUSH1 0x4 ADD PUSH2 0x4F0 SWAP1 PUSH2 0x2067 JUMP JUMPDEST PUSH1 0x1 PUSH1 0x1 PUSH1 0xA0 SHL SUB DUP4 AND PUSH2 0x926 JUMPI PUSH1 0x40 MLOAD PUSH3 0x461BCD PUSH1 0xE5 SHL DUP2 MSTORE PUSH1 0x4 ADD PUSH2 0x4F0 SWAP1 PUSH2 0x1DB9 JUMP JUMPDEST PUSH1 0x1 PUSH1 0x1 PUSH1 0xA0 SHL SUB DUP3 AND PUSH2 0x94C JUMPI PUSH1 0x40 MLOAD PUSH3 0x461BCD PUSH1 0xE5 SHL DUP2 MSTORE PUSH1 0x4 ADD PUSH2 0x4F0 SWAP1 PUSH2 0x2177 JUMP JUMPDEST PUSH1 0x1 PUSH1 0x1 PUSH1 0xA0 SHL SUB DUP2 AND PUSH2 0x972 JUMPI PUSH1 0x40 MLOAD PUSH3 0x461BCD PUSH1 0xE5 SHL DUP2 MSTORE PUSH1 0x4 ADD PUSH2 0x4F0 SWAP1 PUSH2 0x2367 JUMP JUMPDEST DUP8 MLOAD PUSH2 0x985 SWAP1 PUSH1 0x5 SWAP1 PUSH1 0x20 DUP12 ADD SWAP1 PUSH2 0x18BC JUMP JUMPDEST POP DUP7 MLOAD PUSH2 0x999 SWAP1 PUSH1 0x6 SWAP1 PUSH1 0x20 DUP11 ADD SWAP1 PUSH2 0x18BC JUMP JUMPDEST POP DUP6 MLOAD PUSH2 0x9AD SWAP1 PUSH1 0x8 SWAP1 PUSH1 0x20 DUP10 ADD SWAP1 PUSH2 0x18BC JUMP JUMPDEST POP PUSH1 0x7 DUP1 SLOAD PUSH1 0xFF NOT AND PUSH1 0xFF DUP8 AND OR SWAP1 SSTORE PUSH1 0x9 DUP1 SLOAD PUSH1 0x1 PUSH1 0x1 PUSH1 0xA0 SHL SUB NOT SWAP1 DUP2 AND PUSH1 0x1 PUSH1 0x1 PUSH1 0xA0 SHL SUB DUP8 DUP2 AND SWAP2 SWAP1 SWAP2 OR SWAP1 SWAP3 SSTORE PUSH1 0x1 DUP1 SLOAD DUP3 AND DUP7 DUP5 AND OR SWAP1 SSTORE PUSH1 0x2 DUP1 SLOAD SWAP1 SWAP2 AND SWAP2 DUP5 AND SWAP2 SWAP1 SWAP2 OR SWAP1 SSTORE PUSH2 0xA04 DUP2 PUSH2 0x166B JUMP JUMPDEST POP POP PUSH1 0x9 DUP1 SLOAD PUSH1 0xFF PUSH1 0xA0 SHL NOT AND PUSH1 0x1 PUSH1 0xA0 SHL OR SWAP1 SSTORE POP POP POP POP POP POP JUMP JUMPDEST PUSH1 0x9 SLOAD PUSH1 0x1 PUSH1 0x1 PUSH1 0xA0 SHL SUB AND DUP2 JUMP JUMPDEST PUSH1 0x4 SLOAD PUSH1 0x1 PUSH1 0x1 PUSH1 0xA0 SHL SUB AND SWAP1 JUMP JUMPDEST PUSH1 0x0 PUSH2 0xA49 PUSH2 0xE96 JUMP JUMPDEST ISZERO PUSH2 0xA66 JUMPI PUSH1 0x40 MLOAD PUSH3 0x461BCD PUSH1 0xE5 SHL DUP2 MSTORE PUSH1 0x4 ADD PUSH2 0x4F0 SWAP1 PUSH2 0x1FB6 JUMP JUMPDEST CALLER PUSH1 0x0 SWAP1 DUP2 MSTORE PUSH1 0xD PUSH1 0x20 MSTORE PUSH1 0x40 SWAP1 KECCAK256 SLOAD PUSH1 0xFF AND PUSH2 0xA95 JUMPI PUSH1 0x40 MLOAD PUSH3 0x461BCD PUSH1 0xE5 SHL DUP2 MSTORE PUSH1 0x4 ADD PUSH2 0x4F0 SWAP1 PUSH2 0x2026 JUMP JUMPDEST CALLER PUSH1 0x0 DUP2 DUP2 MSTORE PUSH1 0x3 PUSH1 0x20 MSTORE PUSH1 0x40 SWAP1 KECCAK256 SLOAD PUSH1 0xFF AND ISZERO PUSH2 0xAC5 JUMPI PUSH1 0x40 MLOAD PUSH3 0x461BCD PUSH1 0xE5 SHL DUP2 MSTORE PUSH1 0x4 ADD PUSH2 0x4F0 SWAP1 PUSH2 0x2401 JUMP JUMPDEST PUSH1 0x1 PUSH1 0x1 PUSH1 0xA0 SHL SUB DUP5 AND PUSH1 0x0 SWAP1 DUP2 MSTORE PUSH1 0x3 PUSH1 0x20 MSTORE PUSH1 0x40 SWAP1 KECCAK256 SLOAD DUP5 SWAP1 PUSH1 0xFF AND ISZERO PUSH2 0xB00 JUMPI PUSH1 0x40 MLOAD PUSH3 0x461BCD PUSH1 0xE5 SHL DUP2 MSTORE PUSH1 0x4 ADD PUSH2 0x4F0 SWAP1 PUSH2 0x2401 JUMP JUMPDEST PUSH1 0x1 PUSH1 0x1 PUSH1 0xA0 SHL SUB DUP6 AND PUSH2 0xB26 JUMPI PUSH1 0x40 MLOAD PUSH3 0x461BCD PUSH1 0xE5 SHL DUP2 MSTORE PUSH1 0x4 ADD PUSH2 0x4F0 SWAP1 PUSH2 0x1CEE JUMP JUMPDEST PUSH1 0x0 DUP5 GT PUSH2 0xB46 JUMPI PUSH1 0x40 MLOAD PUSH3 0x461BCD PUSH1 0xE5 SHL DUP2 MSTORE PUSH1 0x4 ADD PUSH2 0x4F0 SWAP1 PUSH2 0x1E4C JUMP JUMPDEST CALLER PUSH1 0x0 SWAP1 DUP2 MSTORE PUSH1 0xE PUSH1 0x20 MSTORE PUSH1 0x40 SWAP1 KECCAK256 SLOAD DUP1 DUP6 GT ISZERO PUSH2 0xB76 JUMPI PUSH1 0x40 MLOAD PUSH3 0x461BCD PUSH1 0xE5 SHL DUP2 MSTORE PUSH1 0x4 ADD PUSH2 0x4F0 SWAP1 PUSH2 0x2298 JUMP JUMPDEST DUP5 PUSH1 0xC SLOAD PUSH2 0xB84 SWAP2 SWAP1 PUSH2 0x245D JUMP JUMPDEST PUSH1 0xC SSTORE PUSH1 0x1 PUSH1 0x1 PUSH1 0xA0 SHL SUB DUP7 AND PUSH1 0x0 SWAP1 DUP2 MSTORE PUSH1 0xA PUSH1 0x20 MSTORE PUSH1 0x40 SWAP1 KECCAK256 SLOAD PUSH2 0xBAB SWAP1 DUP7 SWAP1 PUSH2 0x245D JUMP JUMPDEST PUSH1 0x1 PUSH1 0x1 PUSH1 0xA0 SHL SUB DUP8 AND PUSH1 0x0 SWAP1 DUP2 MSTORE PUSH1 0xA PUSH1 0x20 MSTORE PUSH1 0x40 SWAP1 KECCAK256 SSTORE PUSH2 0xBCE DUP6 DUP3 PUSH2 0x2475 JUMP JUMPDEST CALLER PUSH1 0x0 DUP2 DUP2 MSTORE PUSH1 0xE PUSH1 0x20 MSTORE PUSH1 0x40 SWAP1 DUP2 SWAP1 KECCAK256 SWAP3 SWAP1 SWAP3 SSTORE SWAP1 MLOAD PUSH1 0x1 PUSH1 0x1 PUSH1 0xA0 SHL SUB DUP9 AND SWAP2 SWAP1 PUSH32 0xAB8530F87DC9B59234C4623BF917212BB2536D647574C8E7E5DA92C2EDE0C9F8 SWAP1 PUSH2 0xC1E SWAP1 DUP10 SWAP1 PUSH2 0x2446 JUMP JUMPDEST PUSH1 0x40 MLOAD DUP1 SWAP2 SUB SWAP1 LOG3 DUP6 PUSH1 0x1 PUSH1 0x1 PUSH1 0xA0 SHL SUB AND PUSH1 0x0 PUSH1 0x1 PUSH1 0x1 PUSH1 0xA0 SHL SUB AND PUSH1 0x0 DUP1 MLOAD PUSH1 0x20 PUSH2 0x2539 DUP4 CODECOPY DUP2 MLOAD SWAP2 MSTORE DUP8 PUSH1 0x40 MLOAD PUSH2 0xC58 SWAP2 SWAP1 PUSH2 0x2446 JUMP JUMPDEST PUSH1 0x40 MLOAD DUP1 SWAP2 SUB SWAP1 LOG3 POP PUSH1 0x1 SWAP6 SWAP5 POP POP POP POP POP JUMP JUMPDEST PUSH2 0xC74 PUSH2 0xE96 JUMP JUMPDEST ISZERO PUSH2 0xC91 JUMPI PUSH1 0x40 MLOAD PUSH3 0x461BCD PUSH1 0xE5 SHL DUP2 MSTORE PUSH1 0x4 ADD PUSH2 0x4F0 SWAP1 PUSH2 0x1FB6 JUMP JUMPDEST CALLER PUSH1 0x0 SWAP1 DUP2 MSTORE PUSH1 0xD PUSH1 0x20 MSTORE PUSH1 0x40 SWAP1 KECCAK256 SLOAD PUSH1 0xFF AND PUSH2 0xCC0 JUMPI PUSH1 0x40 MLOAD PUSH3 0x461BCD PUSH1 0xE5 SHL DUP2 MSTORE PUSH1 0x4 ADD PUSH2 0x4F0 SWAP1 PUSH2 0x2026 JUMP JUMPDEST CALLER PUSH1 0x0 DUP2 DUP2 MSTORE PUSH1 0x3 PUSH1 0x20 MSTORE PUSH1 0x40 SWAP1 KECCAK256 SLOAD PUSH1 0xFF AND ISZERO PUSH2 0xCF0 JUMPI PUSH1 0x40 MLOAD PUSH3 0x461BCD PUSH1 0xE5 SHL DUP2 MSTORE PUSH1 0x4 ADD PUSH2 0x4F0 SWAP1 PUSH2 0x2401 JUMP JUMPDEST CALLER PUSH1 0x0 SWAP1 DUP2 MSTORE PUSH1 0xA PUSH1 0x20 MSTORE PUSH1 0x40 SWAP1 KECCAK256 SLOAD DUP3 PUSH2 0xD1D JUMPI PUSH1 0x40 MLOAD PUSH3 0x461BCD PUSH1 0xE5 SHL DUP2 MSTORE PUSH1 0x4 ADD PUSH2 0x4F0 SWAP1 PUSH2 0x1CA5 JUMP JUMPDEST DUP3 DUP2 LT ISZERO PUSH2 0xD3D JUMPI PUSH1 0x40 MLOAD PUSH3 0x461BCD PUSH1 0xE5 SHL DUP2 MSTORE PUSH1 0x4 ADD PUSH2 0x4F0 SWAP1 PUSH2 0x1FE0 JUMP JUMPDEST DUP3 PUSH1 0xC SLOAD PUSH2 0xD4B SWAP2 SWAP1 PUSH2 0x2475 JUMP JUMPDEST PUSH1 0xC SSTORE PUSH2 0xD58 DUP4 DUP3 PUSH2 0x2475 JUMP JUMPDEST CALLER PUSH1 0x0 DUP2 DUP2 MSTORE PUSH1 0xA PUSH1 0x20 MSTORE PUSH1 0x40 SWAP1 DUP2 SWAP1 KECCAK256 SWAP3 SWAP1 SWAP3 SSTORE SWAP1 MLOAD PUSH32 0xCC16F5DBB4873280815C1EE09DBD06736CFFCC184412CF7A71A0FDB75D397CA5 SWAP1 PUSH2 0xD9C SWAP1 DUP7 SWAP1 PUSH2 0x2446 JUMP JUMPDEST PUSH1 0x40 MLOAD DUP1 SWAP2 SUB SWAP1 LOG2 PUSH1 0x40 MLOAD PUSH1 0x0 SWAP1 CALLER SWAP1 PUSH1 0x0 DUP1 MLOAD PUSH1 0x20 PUSH2 0x2539 DUP4 CODECOPY DUP2 MLOAD SWAP2 MSTORE SWAP1 PUSH2 0xDC7 SWAP1 DUP8 SWAP1 PUSH2 0x2446 JUMP JUMPDEST PUSH1 0x40 MLOAD DUP1 SWAP2 SUB SWAP1 LOG3 POP POP POP JUMP JUMPDEST PUSH1 0x0 PUSH2 0xDDE PUSH2 0xE96 JUMP JUMPDEST ISZERO PUSH2 0xDFB JUMPI PUSH1 0x40 MLOAD PUSH3 0x461BCD PUSH1 0xE5 SHL DUP2 MSTORE PUSH1 0x4 ADD PUSH2 0x4F0 SWAP1 PUSH2 0x1FB6 JUMP JUMPDEST PUSH1 0x9 SLOAD PUSH1 0x1 PUSH1 0x1 PUSH1 0xA0 SHL SUB AND CALLER EQ PUSH2 0xE25 JUMPI PUSH1 0x40 MLOAD PUSH3 0x461BCD PUSH1 0xE5 SHL DUP2 MSTORE PUSH1 0x4 ADD PUSH2 0x4F0 SWAP1 PUSH2 0x1EDB JUMP JUMPDEST PUSH1 0x1 PUSH1 0x1 PUSH1 0xA0 SHL SUB DUP4 AND PUSH1 0x0 DUP2 DUP2 MSTORE PUSH1 0xD PUSH1 0x20 SWAP1 DUP2 MSTORE PUSH1 0x40 DUP1 DUP4 KECCAK256 DUP1 SLOAD PUSH1 0xFF NOT AND PUSH1 0x1 OR SWAP1 SSTORE PUSH1 0xE SWAP1 SWAP2 MSTORE SWAP1 DUP2 SWAP1 KECCAK256 DUP5 SWAP1 SSTORE MLOAD PUSH32 0x46980FCA912EF9BCDBD36877427B6B90E860769F604E89C0E67720CECE530D20 SWAP1 PUSH2 0xE85 SWAP1 DUP6 SWAP1 PUSH2 0x2446 JUMP JUMPDEST PUSH1 0x40 MLOAD DUP1 SWAP2 SUB SWAP1 LOG2 POP PUSH1 0x1 SWAP3 SWAP2 POP POP JUMP JUMPDEST PUSH1 0x1 SLOAD PUSH1 0x1 PUSH1 0xA0 SHL SWAP1 DIV PUSH1 0xFF AND SWAP1 JUMP JUMPDEST PUSH1 0x1 PUSH1 0x1 PUSH1 0xA0 SHL SUB AND PUSH1 0x0 SWAP1 DUP2 MSTORE PUSH1 0xA PUSH1 0x20 MSTORE PUSH1 0x40 SWAP1 KECCAK256 SLOAD SWAP1 JUMP JUMPDEST PUSH2 0xEC9 PUSH2 0x1667 JUMP JUMPDEST PUSH1 0x1 PUSH1 0x1 PUSH1 0xA0 SHL SUB AND PUSH2 0xEDA PUSH2 0xF27 JUMP JUMPDEST PUSH1 0x1 PUSH1 0x1 PUSH1 0xA0 SHL SUB AND EQ PUSH2 0xF00 JUMPI PUSH1 0x40 MLOAD PUSH3 0x461BCD PUSH1 0xE5 SHL DUP2 MSTORE PUSH1 0x4 ADD PUSH2 0x4F0 SWAP1 PUSH2 0x2142 JUMP JUMPDEST PUSH2 0xF0A PUSH1 0x0 PUSH2 0x166B JUMP JUMPDEST JUMP JUMPDEST PUSH1 0x1 PUSH1 0x1 PUSH1 0xA0 SHL SUB AND PUSH1 0x0 SWAP1 DUP2 MSTORE PUSH1 0xE PUSH1 0x20 MSTORE PUSH1 0x40 SWAP1 KECCAK256 SLOAD SWAP1 JUMP JUMPDEST PUSH1 0x0 SLOAD PUSH1 0x1 PUSH1 0x1 PUSH1 0xA0 SHL SUB AND SWAP1 JUMP JUMPDEST PUSH1 0x6 DUP1 SLOAD PUSH2 0x448 SWAP1 PUSH2 0x24BC JUMP JUMPDEST PUSH1 0x1 SLOAD PUSH1 0x1 PUSH1 0x1 PUSH1 0xA0 SHL SUB AND DUP2 JUMP JUMPDEST PUSH1 0x0 PUSH2 0xF5C PUSH2 0xE96 JUMP JUMPDEST ISZERO PUSH2 0xF79 JUMPI PUSH1 0x40 MLOAD PUSH3 0x461BCD PUSH1 0xE5 SHL DUP2 MSTORE PUSH1 0x4 ADD PUSH2 0x4F0 SWAP1 PUSH2 0x1FB6 JUMP JUMPDEST CALLER PUSH1 0x0 DUP2 DUP2 MSTORE PUSH1 0x3 PUSH1 0x20 MSTORE PUSH1 0x40 SWAP1 KECCAK256 SLOAD PUSH1 0xFF AND ISZERO PUSH2 0xFA9 JUMPI PUSH1 0x40 MLOAD PUSH3 0x461BCD PUSH1 0xE5 SHL DUP2 MSTORE PUSH1 0x4 ADD PUSH2 0x4F0 SWAP1 PUSH2 0x2401 JUMP JUMPDEST PUSH1 0x1 PUSH1 0x1 PUSH1 0xA0 SHL SUB DUP5 AND PUSH1 0x0 SWAP1 DUP2 MSTORE PUSH1 0x3 PUSH1 0x20 MSTORE PUSH1 0x40 SWAP1 KECCAK256 SLOAD DUP5 SWAP1 PUSH1 0xFF AND ISZERO PUSH2 0xFE4 JUMPI PUSH1 0x40 MLOAD PUSH3 0x461BCD PUSH1 0xE5 SHL DUP2 MSTORE PUSH1 0x4 ADD PUSH2 0x4F0 SWAP1 PUSH2 0x2401 JUMP JUMPDEST PUSH2 0x56F CALLER DUP7 DUP7 PUSH2 0x154F JUMP JUMPDEST PUSH2 0xFF7 PUSH2 0x1667 JUMP JUMPDEST PUSH1 0x1 PUSH1 0x1 PUSH1 0xA0 SHL SUB AND PUSH2 0x1008 PUSH2 0xF27 JUMP JUMPDEST PUSH1 0x1 PUSH1 0x1 PUSH1 0xA0 SHL SUB AND EQ PUSH2 0x102E JUMPI PUSH1 0x40 MLOAD PUSH3 0x461BCD PUSH1 0xE5 SHL DUP2 MSTORE PUSH1 0x4 ADD PUSH2 0x4F0 SWAP1 PUSH2 0x2142 JUMP JUMPDEST PUSH1 0x1 PUSH1 0x1 PUSH1 0xA0 SHL SUB DUP2 AND PUSH2 0x1054 JUMPI PUSH1 0x40 MLOAD PUSH3 0x461BCD PUSH1 0xE5 SHL DUP2 MSTORE PUSH1 0x4 ADD PUSH2 0x4F0 SWAP1 PUSH2 0x2067 JUMP JUMPDEST PUSH1 0x9 DUP1 SLOAD PUSH1 0x1 PUSH1 0x1 PUSH1 0xA0 SHL SUB NOT AND PUSH1 0x1 PUSH1 0x1 PUSH1 0xA0 SHL SUB DUP4 DUP2 AND SWAP2 SWAP1 SWAP2 OR SWAP2 DUP3 SWAP1 SSTORE PUSH1 0x40 MLOAD SWAP2 AND SWAP1 PUSH32 0xDB66DFA9C6B8F5226FE9AAC7E51897AE8EE94AC31DC70BB6C9900B2574B707E6 SWAP1 PUSH1 0x0 SWAP1 LOG2 POP JUMP JUMPDEST PUSH1 0x1 PUSH1 0x1 PUSH1 0xA0 SHL SUB AND PUSH1 0x0 SWAP1 DUP2 MSTORE PUSH1 0xD PUSH1 0x20 MSTORE PUSH1 0x40 SWAP1 KECCAK256 SLOAD PUSH1 0xFF AND SWAP1 JUMP JUMPDEST PUSH2 0x10CA PUSH2 0x1667 JUMP JUMPDEST PUSH1 0x1 PUSH1 0x1 PUSH1 0xA0 SHL SUB AND PUSH2 0x10DB PUSH2 0xF27 JUMP JUMPDEST PUSH1 0x1 PUSH1 0x1 PUSH1 0xA0 SHL SUB AND EQ PUSH2 0x1101 JUMPI PUSH1 0x40 MLOAD PUSH3 0x461BCD PUSH1 0xE5 SHL DUP2 MSTORE PUSH1 0x4 ADD PUSH2 0x4F0 SWAP1 PUSH2 0x2142 JUMP JUMPDEST PUSH1 0x1 PUSH1 0x1 PUSH1 0xA0 SHL SUB DUP2 AND PUSH2 0x1127 JUMPI PUSH1 0x40 MLOAD PUSH3 0x461BCD PUSH1 0xE5 SHL DUP2 MSTORE PUSH1 0x4 ADD PUSH2 0x4F0 SWAP1 PUSH2 0x23AF JUMP JUMPDEST PUSH1 0x2 DUP1 SLOAD PUSH1 0x1 PUSH1 0x1 PUSH1 0xA0 SHL SUB NOT AND PUSH1 0x1 PUSH1 0x1 PUSH1 0xA0 SHL SUB DUP4 DUP2 AND SWAP2 SWAP1 SWAP2 OR SWAP2 DUP3 SWAP1 SSTORE PUSH1 0x40 MLOAD SWAP2 AND SWAP1 PUSH32 0xC67398012C111CE95ECB7429B933096C977380EE6C421175A71A4A4C6C88C06E SWAP1 PUSH1 0x0 SWAP1 LOG2 POP JUMP JUMPDEST PUSH1 0x4 SLOAD PUSH1 0x1 PUSH1 0x1 PUSH1 0xA0 SHL SUB AND CALLER EQ PUSH2 0x11A1 JUMPI PUSH1 0x40 MLOAD PUSH3 0x461BCD PUSH1 0xE5 SHL DUP2 MSTORE PUSH1 0x4 ADD PUSH2 0x4F0 SWAP1 PUSH2 0x20B6 JUMP JUMPDEST PUSH2 0x11B5 PUSH1 0x1 PUSH1 0x1 PUSH1 0xA0 SHL SUB DUP5 AND DUP4 DUP4 PUSH2 0x16BB JUMP JUMPDEST POP POP POP JUMP JUMPDEST PUSH1 0x2 SLOAD PUSH1 0x1 PUSH1 0x1 PUSH1 0xA0 SHL SUB AND DUP2 JUMP JUMPDEST PUSH1 0x0 PUSH2 0x11D3 PUSH2 0xE96 JUMP JUMPDEST ISZERO PUSH2 0x11F0 JUMPI PUSH1 0x40 MLOAD PUSH3 0x461BCD PUSH1 0xE5 SHL DUP2 MSTORE PUSH1 0x4 ADD PUSH2 0x4F0 SWAP1 PUSH2 0x1FB6 JUMP JUMPDEST PUSH1 0x9 SLOAD PUSH1 0x1 PUSH1 0x1 PUSH1 0xA0 SHL SUB AND CALLER EQ PUSH2 0x121A JUMPI PUSH1 0x40 MLOAD PUSH3 0x461BCD PUSH1 0xE5 SHL DUP2 MSTORE PUSH1 0x4 ADD PUSH2 0x4F0 SWAP1 PUSH2 0x1EDB JUMP JUMPDEST PUSH1 0x1 PUSH1 0x1 PUSH1 0xA0 SHL SUB DUP4 AND PUSH1 0x0 SWAP1 DUP2 MSTORE PUSH1 0x3 PUSH1 0x20 MSTORE PUSH1 0x40 SWAP1 KECCAK256 SLOAD DUP4 SWAP1 PUSH1 0xFF AND ISZERO PUSH2 0x1255 JUMPI PUSH1 0x40 MLOAD PUSH3 0x461BCD PUSH1 0xE5 SHL DUP2 MSTORE PUSH1 0x4 ADD PUSH2 0x4F0 SWAP1 PUSH2 0x2401 JUMP JUMPDEST PUSH1 0x1 PUSH1 0x1 PUSH1 0xA0 SHL SUB DUP5 AND PUSH2 0x127B JUMPI PUSH1 0x40 MLOAD PUSH3 0x461BCD PUSH1 0xE5 SHL DUP2 MSTORE PUSH1 0x4 ADD PUSH2 0x4F0 SWAP1 PUSH2 0x1CEE JUMP JUMPDEST PUSH1 0x0 DUP4 GT PUSH2 0x129B JUMPI PUSH1 0x40 MLOAD PUSH3 0x461BCD PUSH1 0xE5 SHL DUP2 MSTORE PUSH1 0x4 ADD PUSH2 0x4F0 SWAP1 PUSH2 0x1E4C JUMP JUMPDEST DUP3 PUSH1 0xC SLOAD PUSH2 0x12A9 SWAP2 SWAP1 PUSH2 0x245D JUMP JUMPDEST PUSH1 0xC SSTORE PUSH1 0x1 PUSH1 0x1 PUSH1 0xA0 SHL SUB DUP5 AND PUSH1 0x0 SWAP1 DUP2 MSTORE PUSH1 0xA PUSH1 0x20 MSTORE PUSH1 0x40 SWAP1 KECCAK256 SLOAD PUSH2 0x12D0 SWAP1 DUP5 SWAP1 PUSH2 0x245D JUMP JUMPDEST PUSH1 0x1 PUSH1 0x1 PUSH1 0xA0 SHL SUB DUP6 AND PUSH1 0x0 DUP2 DUP2 MSTORE PUSH1 0xA PUSH1 0x20 MSTORE PUSH1 0x40 SWAP1 DUP2 SWAP1 KECCAK256 SWAP3 SWAP1 SWAP3 SSTORE SWAP1 MLOAD CALLER SWAP1 PUSH32 0xAFDC92BD1A5033525DA4A5CF97B444B2D7CEFD24C1EF18C9CE43F34A80831A7A SWAP1 PUSH2 0x131F SWAP1 DUP8 SWAP1 PUSH2 0x2446 JUMP JUMPDEST PUSH1 0x40 MLOAD DUP1 SWAP2 SUB SWAP1 LOG3 DUP4 PUSH1 0x1 PUSH1 0x1 PUSH1 0xA0 SHL SUB AND PUSH1 0x0 PUSH1 0x1 PUSH1 0x1 PUSH1 0xA0 SHL SUB AND PUSH1 0x0 DUP1 MLOAD PUSH1 0x20 PUSH2 0x2539 DUP4 CODECOPY DUP2 MLOAD SWAP2 MSTORE DUP6 PUSH1 0x40 MLOAD PUSH2 0x1359 SWAP2 SWAP1 PUSH2 0x2446 JUMP JUMPDEST PUSH1 0x40 MLOAD DUP1 SWAP2 SUB SWAP1 LOG3 POP PUSH1 0x1 SWAP4 SWAP3 POP POP POP JUMP JUMPDEST PUSH1 0x1 PUSH1 0x1 PUSH1 0xA0 SHL SUB SWAP2 DUP3 AND PUSH1 0x0 SWAP1 DUP2 MSTORE PUSH1 0xB PUSH1 0x20 SWAP1 DUP2 MSTORE PUSH1 0x40 DUP1 DUP4 KECCAK256 SWAP4 SWAP1 SWAP5 AND DUP3 MSTORE SWAP2 SWAP1 SWAP2 MSTORE KECCAK256 SLOAD SWAP1 JUMP JUMPDEST PUSH1 0x8 DUP1 SLOAD PUSH2 0x448 SWAP1 PUSH2 0x24BC JUMP JUMPDEST PUSH2 0x13AB PUSH2 0x1667 JUMP JUMPDEST PUSH1 0x1 PUSH1 0x1 PUSH1 0xA0 SHL SUB AND PUSH2 0x13BC PUSH2 0xF27 JUMP JUMPDEST PUSH1 0x1 PUSH1 0x1 PUSH1 0xA0 SHL SUB AND EQ PUSH2 0x13E2 JUMPI PUSH1 0x40 MLOAD PUSH3 0x461BCD PUSH1 0xE5 SHL DUP2 MSTORE PUSH1 0x4 ADD PUSH2 0x4F0 SWAP1 PUSH2 0x2142 JUMP JUMPDEST PUSH1 0x1 PUSH1 0x1 PUSH1 0xA0 SHL SUB DUP2 AND PUSH2 0x1408 JUMPI PUSH1 0x40 MLOAD PUSH3 0x461BCD PUSH1 0xE5 SHL DUP2 MSTORE PUSH1 0x4 ADD PUSH2 0x4F0 SWAP1 PUSH2 0x1D31 JUMP JUMPDEST PUSH2 0x1411 DUP2 PUSH2 0x166B JUMP JUMPDEST POP JUMP JUMPDEST PUSH1 0x2 SLOAD PUSH1 0x1 PUSH1 0x1 PUSH1 0xA0 SHL SUB AND CALLER EQ PUSH2 0x143E JUMPI PUSH1 0x40 MLOAD PUSH3 0x461BCD PUSH1 0xE5 SHL DUP2 MSTORE PUSH1 0x4 ADD PUSH2 0x4F0 SWAP1 PUSH2 0x1F24 JUMP JUMPDEST PUSH1 0x1 PUSH1 0x1 PUSH1 0xA0 SHL SUB DUP2 AND PUSH1 0x0 DUP2 DUP2 MSTORE PUSH1 0x3 PUSH1 0x20 MSTORE PUSH1 0x40 DUP1 DUP3 KECCAK256 DUP1 SLOAD PUSH1 0xFF NOT AND PUSH1 0x1 OR SWAP1 SSTORE MLOAD PUSH32 0xFFA4E6181777692565CF28528FC88FD1516EA86B56DA075235FA575AF6A4B855 SWAP2 SWAP1 LOG2 POP JUMP JUMPDEST PUSH1 0x1 PUSH1 0x1 PUSH1 0xA0 SHL SUB AND PUSH1 0x0 SWAP1 DUP2 MSTORE PUSH1 0x3 PUSH1 0x20 MSTORE PUSH1 0x40 SWAP1 KECCAK256 SLOAD PUSH1 0xFF AND SWAP1 JUMP JUMPDEST PUSH1 0x1 PUSH1 0x1 PUSH1 0xA0 SHL SUB DUP4 AND PUSH2 0x14CE JUMPI PUSH1 0x40 MLOAD PUSH3 0x461BCD PUSH1 0xE5 SHL DUP2 MSTORE PUSH1 0x4 ADD PUSH2 0x4F0 SWAP1 PUSH2 0x2254 JUMP JUMPDEST PUSH1 0x1 PUSH1 0x1 PUSH1 0xA0 SHL SUB DUP3 AND PUSH2 0x14F4 JUMPI PUSH1 0x40 MLOAD PUSH3 0x461BCD PUSH1 0xE5 SHL DUP2 MSTORE PUSH1 0x4 ADD PUSH2 0x4F0 SWAP1 PUSH2 0x1D77 JUMP JUMPDEST PUSH1 0x1 PUSH1 0x1 PUSH1 0xA0 SHL SUB DUP1 DUP5 AND PUSH1 0x0 DUP2 DUP2 MSTORE PUSH1 0xB PUSH1 0x20 SWAP1 DUP2 MSTORE PUSH1 0x40 DUP1 DUP4 KECCAK256 SWAP5 DUP8 AND DUP1 DUP5 MSTORE SWAP5 SWAP1 SWAP2 MSTORE SWAP1 DUP2 SWAP1 KECCAK256 DUP5 SWAP1 SSTORE MLOAD PUSH32 0x8C5BE1E5EBEC7D5BD14F71427D1E84F3DD0314C0F7B2291E5B200AC8C7C3B925 SWAP1 PUSH2 0xDC7 SWAP1 DUP6 SWAP1 PUSH2 0x2446 JUMP JUMPDEST PUSH1 0x1 PUSH1 0x1 PUSH1 0xA0 SHL SUB DUP4 AND PUSH2 0x1575 JUMPI PUSH1 0x40 MLOAD PUSH3 0x461BCD PUSH1 0xE5 SHL DUP2 MSTORE PUSH1 0x4 ADD PUSH2 0x4F0 SWAP1 PUSH2 0x220F JUMP JUMPDEST PUSH1 0x1 PUSH1 0x1 PUSH1 0xA0 SHL SUB DUP3 AND PUSH2 0x159B JUMPI PUSH1 0x40 MLOAD PUSH3 0x461BCD PUSH1 0xE5 SHL DUP2 MSTORE PUSH1 0x4 ADD PUSH2 0x4F0 SWAP1 PUSH2 0x1C62 JUMP JUMPDEST PUSH1 0x1 PUSH1 0x1 PUSH1 0xA0 SHL SUB DUP4 AND PUSH1 0x0 SWAP1 DUP2 MSTORE PUSH1 0xA PUSH1 0x20 MSTORE PUSH1 0x40 SWAP1 KECCAK256 SLOAD DUP2 GT ISZERO PUSH2 0x15D3 JUMPI PUSH1 0x40 MLOAD PUSH3 0x461BCD PUSH1 0xE5 SHL DUP2 MSTORE PUSH1 0x4 ADD PUSH2 0x4F0 SWAP1 PUSH2 0x1E95 JUMP JUMPDEST PUSH1 0x1 PUSH1 0x1 PUSH1 0xA0 SHL SUB DUP4 AND PUSH1 0x0 SWAP1 DUP2 MSTORE PUSH1 0xA PUSH1 0x20 MSTORE PUSH1 0x40 SWAP1 KECCAK256 SLOAD PUSH2 0x15F7 SWAP1 DUP3 SWAP1 PUSH2 0x2475 JUMP JUMPDEST PUSH1 0x1 PUSH1 0x1 PUSH1 0xA0 SHL SUB DUP1 DUP6 AND PUSH1 0x0 SWAP1 DUP2 MSTORE PUSH1 0xA PUSH1 0x20 MSTORE PUSH1 0x40 DUP1 DUP3 KECCAK256 SWAP4 SWAP1 SWAP4 SSTORE SWAP1 DUP5 AND DUP2 MSTORE KECCAK256 SLOAD PUSH2 0x1627 SWAP1 DUP3 SWAP1 PUSH2 0x245D JUMP JUMPDEST PUSH1 0x1 PUSH1 0x1 PUSH1 0xA0 SHL SUB DUP1 DUP5 AND PUSH1 0x0 DUP2 DUP2 MSTORE PUSH1 0xA PUSH1 0x20 MSTORE PUSH1 0x40 SWAP1 DUP2 SWAP1 KECCAK256 SWAP4 SWAP1 SWAP4 SSTORE SWAP2 MLOAD SWAP1 DUP6 AND SWAP1 PUSH1 0x0 DUP1 MLOAD PUSH1 0x20 PUSH2 0x2539 DUP4 CODECOPY DUP2 MLOAD SWAP2 MSTORE SWAP1 PUSH2 0xDC7 SWAP1 DUP6 SWAP1 PUSH2 0x2446 JUMP JUMPDEST CALLER SWAP1 JUMP JUMPDEST PUSH1 0x0 DUP1 SLOAD PUSH1 0x1 PUSH1 0x1 PUSH1 0xA0 SHL SUB DUP4 DUP2 AND PUSH1 0x1 PUSH1 0x1 PUSH1 0xA0 SHL SUB NOT DUP4 AND DUP2 OR DUP5 SSTORE PUSH1 0x40 MLOAD SWAP2 SWAP1 SWAP3 AND SWAP3 DUP4 SWAP2 PUSH32 0x8BE0079C531659141344CD1FD0A4F28419497F9722A3DAAFE3B4186F6B6457E0 SWAP2 SWAP1 LOG3 POP POP JUMP JUMPDEST PUSH2 0x11B5 DUP4 PUSH4 0xA9059CBB PUSH1 0xE0 SHL DUP5 DUP5 PUSH1 0x40 MLOAD PUSH1 0x24 ADD PUSH2 0x16DA SWAP3 SWAP2 SWAP1 PUSH2 0x1C0B JUMP JUMPDEST PUSH1 0x40 DUP1 MLOAD PUSH1 0x1F NOT DUP2 DUP5 SUB ADD DUP2 MSTORE SWAP2 SWAP1 MSTORE PUSH1 0x20 DUP2 ADD DUP1 MLOAD PUSH1 0x1 PUSH1 0x1 PUSH1 0xE0 SHL SUB AND PUSH1 0x1 PUSH1 0x1 PUSH1 0xE0 SHL SUB NOT SWAP1 SWAP4 AND SWAP3 SWAP1 SWAP3 OR SWAP1 SWAP2 MSTORE PUSH1 0x0 PUSH2 0x1761 DUP3 PUSH1 0x40 MLOAD DUP1 PUSH1 0x40 ADD PUSH1 0x40 MSTORE DUP1 PUSH1 0x20 DUP2 MSTORE PUSH1 0x20 ADD PUSH32 0x5361666545524332303A206C6F772D6C6576656C2063616C6C206661696C6564 DUP2 MSTORE POP DUP6 PUSH1 0x1 PUSH1 0x1 PUSH1 0xA0 SHL SUB AND PUSH2 0x179B SWAP1 SWAP3 SWAP2 SWAP1 PUSH4 0xFFFFFFFF AND JUMP JUMPDEST DUP1 MLOAD SWAP1 SWAP2 POP ISZERO PUSH2 0x11B5 JUMPI DUP1 DUP1 PUSH1 0x20 ADD SWAP1 MLOAD DUP2 ADD SWAP1 PUSH2 0x177F SWAP2 SWAP1 PUSH2 0x1AB7 JUMP JUMPDEST PUSH2 0x11B5 JUMPI PUSH1 0x40 MLOAD PUSH3 0x461BCD PUSH1 0xE5 SHL DUP2 MSTORE PUSH1 0x4 ADD PUSH2 0x4F0 SWAP1 PUSH2 0x231D JUMP JUMPDEST PUSH1 0x60 PUSH2 0x17AA DUP5 DUP5 PUSH1 0x0 DUP6 PUSH2 0x17B4 JUMP JUMPDEST SWAP1 POP JUMPDEST SWAP4 SWAP3 POP POP POP JUMP JUMPDEST PUSH1 0x60 DUP3 SELFBALANCE LT ISZERO PUSH2 0x17D6 JUMPI PUSH1 0x40 MLOAD PUSH3 0x461BCD PUSH1 0xE5 SHL DUP2 MSTORE PUSH1 0x4 ADD PUSH2 0x4F0 SWAP1 PUSH2 0x1F70 JUMP JUMPDEST PUSH2 0x17DF DUP6 PUSH2 0x1874 JUMP JUMPDEST PUSH2 0x17FB JUMPI PUSH1 0x40 MLOAD PUSH3 0x461BCD PUSH1 0xE5 SHL DUP2 MSTORE PUSH1 0x4 ADD PUSH2 0x4F0 SWAP1 PUSH2 0x22E6 JUMP JUMPDEST PUSH1 0x0 DUP1 DUP7 PUSH1 0x1 PUSH1 0x1 PUSH1 0xA0 SHL SUB AND DUP6 DUP8 PUSH1 0x40 MLOAD PUSH2 0x1817 SWAP2 SWAP1 PUSH2 0x1BDB JUMP JUMPDEST PUSH1 0x0 PUSH1 0x40 MLOAD DUP1 DUP4 SUB DUP2 DUP6 DUP8 GAS CALL SWAP3 POP POP POP RETURNDATASIZE DUP1 PUSH1 0x0 DUP2 EQ PUSH2 0x1854 JUMPI PUSH1 0x40 MLOAD SWAP2 POP PUSH1 0x1F NOT PUSH1 0x3F RETURNDATASIZE ADD AND DUP3 ADD PUSH1 0x40 MSTORE RETURNDATASIZE DUP3 MSTORE RETURNDATASIZE PUSH1 0x0 PUSH1 0x20 DUP5 ADD RETURNDATACOPY PUSH2 0x1859 JUMP JUMPDEST PUSH1 0x60 SWAP2 POP JUMPDEST POP SWAP2 POP SWAP2 POP PUSH2 0x1869 DUP3 DUP3 DUP7 PUSH2 0x1883 JUMP JUMPDEST SWAP8 SWAP7 POP POP POP POP POP POP POP JUMP JUMPDEST PUSH1 0x1 PUSH1 0x1 PUSH1 0xA0 SHL SUB AND EXTCODESIZE ISZERO ISZERO SWAP1 JUMP JUMPDEST PUSH1 0x60 DUP4 ISZERO PUSH2 0x1892 JUMPI POP DUP2 PUSH2 0x17AD JUMP JUMPDEST DUP3 MLOAD ISZERO PUSH2 0x18A2 JUMPI DUP3 MLOAD DUP1 DUP5 PUSH1 0x20 ADD REVERT JUMPDEST DUP2 PUSH1 0x40 MLOAD PUSH3 0x461BCD PUSH1 0xE5 SHL DUP2 MSTORE PUSH1 0x4 ADD PUSH2 0x4F0 SWAP2 SWAP1 PUSH2 0x1C2F JUMP JUMPDEST DUP3 DUP1 SLOAD PUSH2 0x18C8 SWAP1 PUSH2 0x24BC JUMP JUMPDEST SWAP1 PUSH1 0x0 MSTORE PUSH1 0x20 PUSH1 0x0 KECCAK256 SWAP1 PUSH1 0x1F ADD PUSH1 0x20 SWAP1 DIV DUP2 ADD SWAP3 DUP3 PUSH2 0x18EA JUMPI PUSH1 0x0 DUP6 SSTORE PUSH2 0x1930 JUMP JUMPDEST DUP3 PUSH1 0x1F LT PUSH2 0x1903 JUMPI DUP1 MLOAD PUSH1 0xFF NOT AND DUP4 DUP1 ADD OR DUP6 SSTORE PUSH2 0x1930 JUMP JUMPDEST DUP3 DUP1 ADD PUSH1 0x1 ADD DUP6 SSTORE DUP3 ISZERO PUSH2 0x1930 JUMPI SWAP2 DUP3 ADD JUMPDEST DUP3 DUP2 GT ISZERO PUSH2 0x1930 JUMPI DUP3 MLOAD DUP3 SSTORE SWAP2 PUSH1 0x20 ADD SWAP2 SWAP1 PUSH1 0x1 ADD SWAP1 PUSH2 0x1915 JUMP JUMPDEST POP PUSH2 0x193C SWAP3 SWAP2 POP PUSH2 0x1940 JUMP JUMPDEST POP SWAP1 JUMP JUMPDEST JUMPDEST DUP1 DUP3 GT ISZERO PUSH2 0x193C JUMPI PUSH1 0x0 DUP2 SSTORE PUSH1 0x1 ADD PUSH2 0x1941 JUMP JUMPDEST DUP1 CALLDATALOAD PUSH2 0x8A2 DUP2 PUSH2 0x2523 JUMP JUMPDEST PUSH1 0x0 DUP3 PUSH1 0x1F DUP4 ADD SLT PUSH2 0x1970 JUMPI DUP1 DUP2 REVERT JUMPDEST DUP2 CALLDATALOAD PUSH8 0xFFFFFFFFFFFFFFFF DUP1 DUP3 GT ISZERO PUSH2 0x198B JUMPI PUSH2 0x198B PUSH2 0x250D JUMP JUMPDEST PUSH1 0x40 MLOAD PUSH1 0x1F DUP4 ADD PUSH1 0x1F NOT SWAP1 DUP2 AND PUSH1 0x3F ADD AND DUP2 ADD SWAP1 DUP3 DUP3 GT DUP2 DUP4 LT OR ISZERO PUSH2 0x19B3 JUMPI PUSH2 0x19B3 PUSH2 0x250D JUMP JUMPDEST DUP2 PUSH1 0x40 MSTORE DUP4 DUP2 MSTORE DUP7 PUSH1 0x20 DUP6 DUP9 ADD ADD GT ISZERO PUSH2 0x19CB JUMPI DUP5 DUP6 REVERT JUMPDEST DUP4 PUSH1 0x20 DUP8 ADD PUSH1 0x20 DUP4 ADD CALLDATACOPY SWAP3 DUP4 ADD PUSH1 0x20 ADD SWAP4 SWAP1 SWAP4 MSTORE POP SWAP4 SWAP3 POP POP POP JUMP JUMPDEST DUP1 CALLDATALOAD PUSH1 0xFF DUP2 AND DUP2 EQ PUSH2 0x8A2 JUMPI PUSH1 0x0 DUP1 REVERT JUMPDEST PUSH1 0x0 PUSH1 0x20 DUP3 DUP5 SUB SLT ISZERO PUSH2 0x1A09 JUMPI DUP1 DUP2 REVERT JUMPDEST DUP2 CALLDATALOAD PUSH2 0x17AD DUP2 PUSH2 0x2523 JUMP JUMPDEST PUSH1 0x0 DUP1 PUSH1 0x40 DUP4 DUP6 SUB SLT ISZERO PUSH2 0x1A26 JUMPI DUP1 DUP2 REVERT JUMPDEST DUP3 CALLDATALOAD PUSH2 0x1A31 DUP2 PUSH2 0x2523 JUMP JUMPDEST SWAP2 POP PUSH1 0x20 DUP4 ADD CALLDATALOAD PUSH2 0x1A41 DUP2 PUSH2 0x2523 JUMP JUMPDEST DUP1 SWAP2 POP POP SWAP3 POP SWAP3 SWAP1 POP JUMP JUMPDEST PUSH1 0x0 DUP1 PUSH1 0x0 PUSH1 0x60 DUP5 DUP7 SUB SLT ISZERO PUSH2 0x1A60 JUMPI DUP1 DUP2 REVERT JUMPDEST DUP4 CALLDATALOAD PUSH2 0x1A6B DUP2 PUSH2 0x2523 JUMP JUMPDEST SWAP3 POP PUSH1 0x20 DUP5 ADD CALLDATALOAD PUSH2 0x1A7B DUP2 PUSH2 0x2523 JUMP JUMPDEST SWAP3 SWAP6 SWAP3 SWAP5 POP POP POP PUSH1 0x40 SWAP2 SWAP1 SWAP2 ADD CALLDATALOAD SWAP1 JUMP JUMPDEST PUSH1 0x0 DUP1 PUSH1 0x40 DUP4 DUP6 SUB SLT ISZERO PUSH2 0x1A9E JUMPI DUP2 DUP3 REVERT JUMPDEST DUP3 CALLDATALOAD PUSH2 0x1AA9 DUP2 PUSH2 0x2523 JUMP JUMPDEST SWAP5 PUSH1 0x20 SWAP4 SWAP1 SWAP4 ADD CALLDATALOAD SWAP4 POP POP POP JUMP JUMPDEST PUSH1 0x0 PUSH1 0x20 DUP3 DUP5 SUB SLT ISZERO PUSH2 0x1AC8 JUMPI DUP1 DUP2 REVERT JUMPDEST DUP2 MLOAD DUP1 ISZERO ISZERO DUP2 EQ PUSH2 0x17AD JUMPI DUP2 DUP3 REVERT JUMPDEST PUSH1 0x0 DUP1 PUSH1 0x0 PUSH1 0x60 DUP5 DUP7 SUB SLT ISZERO PUSH2 0x1A60 JUMPI DUP3 DUP4 REVERT JUMPDEST PUSH1 0x0 DUP1 PUSH1 0x0 DUP1 PUSH1 0x0 DUP1 PUSH1 0x0 DUP1 PUSH2 0x100 DUP10 DUP12 SUB SLT ISZERO PUSH2 0x1B07 JUMPI DUP4 DUP5 REVERT JUMPDEST DUP9 CALLDATALOAD PUSH8 0xFFFFFFFFFFFFFFFF DUP1 DUP3 GT ISZERO PUSH2 0x1B1E JUMPI DUP6 DUP7 REVERT JUMPDEST PUSH2 0x1B2A DUP13 DUP4 DUP14 ADD PUSH2 0x1960 JUMP JUMPDEST SWAP10 POP PUSH1 0x20 DUP12 ADD CALLDATALOAD SWAP2 POP DUP1 DUP3 GT ISZERO PUSH2 0x1B3F JUMPI DUP6 DUP7 REVERT JUMPDEST PUSH2 0x1B4B DUP13 DUP4 DUP14 ADD PUSH2 0x1960 JUMP JUMPDEST SWAP9 POP PUSH1 0x40 DUP12 ADD CALLDATALOAD SWAP2 POP DUP1 DUP3 GT ISZERO PUSH2 0x1B60 JUMPI DUP6 DUP7 REVERT JUMPDEST POP PUSH2 0x1B6D DUP12 DUP3 DUP13 ADD PUSH2 0x1960 JUMP JUMPDEST SWAP7 POP POP PUSH2 0x1B7C PUSH1 0x60 DUP11 ADD PUSH2 0x19E7 JUMP JUMPDEST SWAP5 POP PUSH2 0x1B8A PUSH1 0x80 DUP11 ADD PUSH2 0x1955 JUMP JUMPDEST SWAP4 POP PUSH2 0x1B98 PUSH1 0xA0 DUP11 ADD PUSH2 0x1955 JUMP JUMPDEST SWAP3 POP PUSH2 0x1BA6 PUSH1 0xC0 DUP11 ADD PUSH2 0x1955 JUMP JUMPDEST SWAP2 POP PUSH2 0x1BB4 PUSH1 0xE0 DUP11 ADD PUSH2 0x1955 JUMP JUMPDEST SWAP1 POP SWAP3 SWAP6 SWAP9 POP SWAP3 SWAP6 SWAP9 SWAP1 SWAP4 SWAP7 POP JUMP JUMPDEST PUSH1 0x0 PUSH1 0x20 DUP3 DUP5 SUB SLT ISZERO PUSH2 0x1BD4 JUMPI DUP1 DUP2 REVERT JUMPDEST POP CALLDATALOAD SWAP2 SWAP1 POP JUMP JUMPDEST PUSH1 0x0 DUP3 MLOAD PUSH2 0x1BED DUP2 DUP5 PUSH1 0x20 DUP8 ADD PUSH2 0x248C JUMP JUMPDEST SWAP2 SWAP1 SWAP2 ADD SWAP3 SWAP2 POP POP JUMP JUMPDEST PUSH1 0x1 PUSH1 0x1 PUSH1 0xA0 SHL SUB SWAP2 SWAP1 SWAP2 AND DUP2 MSTORE PUSH1 0x20 ADD SWAP1 JUMP JUMPDEST PUSH1 0x1 PUSH1 0x1 PUSH1 0xA0 SHL SUB SWAP3 SWAP1 SWAP3 AND DUP3 MSTORE PUSH1 0x20 DUP3 ADD MSTORE PUSH1 0x40 ADD SWAP1 JUMP JUMPDEST SWAP1 ISZERO ISZERO DUP2 MSTORE PUSH1 0x20 ADD SWAP1 JUMP JUMPDEST PUSH1 0x0 PUSH1 0x20 DUP3 MSTORE DUP3 MLOAD DUP1 PUSH1 0x20 DUP5 ADD MSTORE PUSH2 0x1C4E DUP2 PUSH1 0x40 DUP6 ADD PUSH1 0x20 DUP8 ADD PUSH2 0x248C JUMP JUMPDEST PUSH1 0x1F ADD PUSH1 0x1F NOT AND SWAP2 SWAP1 SWAP2 ADD PUSH1 0x40 ADD SWAP3 SWAP2 POP POP JUMP JUMPDEST PUSH1 0x20 DUP1 DUP3 MSTORE PUSH1 0x23 SWAP1 DUP3 ADD MSTORE PUSH32 0x45524332303A207472616E7366657220746F20746865207A65726F2061646472 PUSH1 0x40 DUP3 ADD MSTORE PUSH3 0x657373 PUSH1 0xE8 SHL PUSH1 0x60 DUP3 ADD MSTORE PUSH1 0x80 ADD SWAP1 JUMP JUMPDEST PUSH1 0x20 DUP1 DUP3 MSTORE PUSH1 0x29 SWAP1 DUP3 ADD MSTORE PUSH32 0x46696174546F6B656E3A206275726E20616D6F756E74206E6F74206772656174 PUSH1 0x40 DUP3 ADD MSTORE PUSH9 0x6572207468616E203 PUSH1 0xBC SHL PUSH1 0x60 DUP3 ADD MSTORE PUSH1 0x80 ADD SWAP1 JUMP JUMPDEST PUSH1 0x20 DUP1 DUP3 MSTORE PUSH1 0x23 SWAP1 DUP3 ADD MSTORE PUSH32 0x46696174546F6B656E3A206D696E7420746F20746865207A65726F2061646472 PUSH1 0x40 DUP3 ADD MSTORE PUSH3 0x657373 PUSH1 0xE8 SHL PUSH1 0x60 DUP3 ADD MSTORE PUSH1 0x80 ADD SWAP1 JUMP JUMPDEST PUSH1 0x20 DUP1 DUP3 MSTORE PUSH1 0x26 SWAP1 DUP3 ADD MSTORE PUSH32 0x4F776E61626C653A206E6577206F776E657220697320746865207A65726F2061 PUSH1 0x40 DUP3 ADD MSTORE PUSH6 0x646472657373 PUSH1 0xD0 SHL PUSH1 0x60 DUP3 ADD MSTORE PUSH1 0x80 ADD SWAP1 JUMP JUMPDEST PUSH1 0x20 DUP1 DUP3 MSTORE PUSH1 0x22 SWAP1 DUP3 ADD MSTORE PUSH32 0x45524332303A20617070726F766520746F20746865207A65726F206164647265 PUSH1 0x40 DUP3 ADD MSTORE PUSH2 0x7373 PUSH1 0xF0 SHL PUSH1 0x60 DUP3 ADD MSTORE PUSH1 0x80 ADD SWAP1 JUMP JUMPDEST PUSH1 0x20 DUP1 DUP3 MSTORE PUSH1 0x29 SWAP1 DUP3 ADD MSTORE PUSH32 0x46696174546F6B656E3A206E65772070617573657220697320746865207A6572 PUSH1 0x40 DUP3 ADD MSTORE PUSH9 0x6F2061646472657373 PUSH1 0xB8 SHL PUSH1 0x60 DUP3 ADD MSTORE PUSH1 0x80 ADD SWAP1 JUMP JUMPDEST PUSH1 0x20 DUP1 DUP3 MSTORE PUSH1 0x2A SWAP1 DUP3 ADD MSTORE PUSH32 0x526573637561626C653A206E6577207265736375657220697320746865207A65 PUSH1 0x40 DUP3 ADD MSTORE PUSH10 0x726F2061646472657373 PUSH1 0xB0 SHL PUSH1 0x60 DUP3 ADD MSTORE PUSH1 0x80 ADD SWAP1 JUMP JUMPDEST PUSH1 0x20 DUP1 DUP3 MSTORE PUSH1 0x29 SWAP1 DUP3 ADD MSTORE PUSH32 0x46696174546F6B656E3A206D696E7420616D6F756E74206E6F74206772656174 PUSH1 0x40 DUP3 ADD MSTORE PUSH9 0x6572207468616E203 PUSH1 0xBC SHL PUSH1 0x60 DUP3 ADD MSTORE PUSH1 0x80 ADD SWAP1 JUMP JUMPDEST PUSH1 0x20 DUP1 DUP3 MSTORE PUSH1 0x26 SWAP1 DUP3 ADD MSTORE PUSH32 0x45524332303A207472616E7366657220616D6F756E7420657863656564732062 PUSH1 0x40 DUP3 ADD MSTORE PUSH6 0x616C616E6365 PUSH1 0xD0 SHL PUSH1 0x60 DUP3 ADD MSTORE PUSH1 0x80 ADD SWAP1 JUMP JUMPDEST PUSH1 0x20 DUP1 DUP3 MSTORE PUSH1 0x29 SWAP1 DUP3 ADD MSTORE PUSH32 0x46696174546F6B656E3A2063616C6C6572206973206E6F7420746865206D6173 PUSH1 0x40 DUP3 ADD MSTORE PUSH9 0x3A32B926B4B73A32B9 PUSH1 0xB9 SHL PUSH1 0x60 DUP3 ADD MSTORE PUSH1 0x80 ADD SWAP1 JUMP JUMPDEST PUSH1 0x20 DUP1 DUP3 MSTORE PUSH1 0x2C SWAP1 DUP3 ADD MSTORE PUSH32 0x426C61636B6C69737461626C653A2063616C6C6572206973206E6F7420746865 PUSH1 0x40 DUP3 ADD MSTORE PUSH12 0x10313630B1B5B634B9BA32B9 PUSH1 0xA1 SHL PUSH1 0x60 DUP3 ADD MSTORE PUSH1 0x80 ADD SWAP1 JUMP JUMPDEST PUSH1 0x20 DUP1 DUP3 MSTORE PUSH1 0x26 SWAP1 DUP3 ADD MSTORE PUSH32 0x416464726573733A20696E73756666696369656E742062616C616E636520666F PUSH1 0x40 DUP3 ADD MSTORE PUSH6 0x1C8818D85B1B PUSH1 0xD2 SHL PUSH1 0x60 DUP3 ADD MSTORE PUSH1 0x80 ADD SWAP1 JUMP JUMPDEST PUSH1 0x20 DUP1 DUP3 MSTORE PUSH1 0x10 SWAP1 DUP3 ADD MSTORE PUSH16 0x14185D5CD8589B194E881C185D5CD959 PUSH1 0x82 SHL PUSH1 0x40 DUP3 ADD MSTORE PUSH1 0x60 ADD SWAP1 JUMP JUMPDEST PUSH1 0x20 DUP1 DUP3 MSTORE PUSH1 0x26 SWAP1 DUP3 ADD MSTORE PUSH32 0x46696174546F6B656E3A206275726E20616D6F756E7420657863656564732062 PUSH1 0x40 DUP3 ADD MSTORE PUSH6 0x616C616E6365 PUSH1 0xD0 SHL PUSH1 0x60 DUP3 ADD MSTORE PUSH1 0x80 ADD SWAP1 JUMP JUMPDEST PUSH1 0x20 DUP1 DUP3 MSTORE PUSH1 0x21 SWAP1 DUP3 ADD MSTORE PUSH32 0x46696174546F6B656E3A2063616C6C6572206973206E6F742061206D696E7465 PUSH1 0x40 DUP3 ADD MSTORE PUSH1 0x39 PUSH1 0xF9 SHL PUSH1 0x60 DUP3 ADD MSTORE PUSH1 0x80 ADD SWAP1 JUMP JUMPDEST PUSH1 0x20 DUP1 DUP3 MSTORE PUSH1 0x2F SWAP1 DUP3 ADD MSTORE PUSH32 0x46696174546F6B656E3A206E6577206D61737465724D696E7465722069732074 PUSH1 0x40 DUP3 ADD MSTORE PUSH15 0x6865207A65726F2061646472657373 PUSH1 0x88 SHL PUSH1 0x60 DUP3 ADD MSTORE PUSH1 0x80 ADD SWAP1 JUMP JUMPDEST PUSH1 0x20 DUP1 DUP3 MSTORE PUSH1 0x24 SWAP1 DUP3 ADD MSTORE PUSH32 0x526573637561626C653A2063616C6C6572206973206E6F742074686520726573 PUSH1 0x40 DUP3 ADD MSTORE PUSH4 0x31BAB2B9 PUSH1 0xE1 SHL PUSH1 0x60 DUP3 ADD MSTORE PUSH1 0x80 ADD SWAP1 JUMP JUMPDEST PUSH1 0x20 DUP1 DUP3 MSTORE PUSH1 0x28 SWAP1 DUP3 ADD MSTORE PUSH32 0x45524332303A207472616E7366657220616D6F756E7420657863656564732061 PUSH1 0x40 DUP3 ADD MSTORE PUSH8 0x6C6C6F77616E6365 PUSH1 0xC0 SHL PUSH1 0x60 DUP3 ADD MSTORE PUSH1 0x80 ADD SWAP1 JUMP JUMPDEST PUSH1 0x20 DUP1 DUP3 MSTORE DUP2 DUP2 ADD MSTORE PUSH32 0x4F776E61626C653A2063616C6C6572206973206E6F7420746865206F776E6572 PUSH1 0x40 DUP3 ADD MSTORE PUSH1 0x60 ADD SWAP1 JUMP JUMPDEST PUSH1 0x20 DUP1 DUP3 MSTORE PUSH1 0x2E SWAP1 DUP3 ADD MSTORE PUSH32 0x46696174546F6B656E3A206E657720626C61636B6C6973746572206973207468 PUSH1 0x40 DUP3 ADD MSTORE PUSH14 0x65207A65726F2061646472657373 PUSH1 0x90 SHL PUSH1 0x60 DUP3 ADD MSTORE PUSH1 0x80 ADD SWAP1 JUMP JUMPDEST PUSH1 0x20 DUP1 DUP3 MSTORE PUSH1 0x2A SWAP1 DUP3 ADD MSTORE PUSH32 0x46696174546F6B656E3A20636F6E747261637420697320616C72656164792069 PUSH1 0x40 DUP3 ADD MSTORE PUSH10 0x1B9A5D1A585B1A5E9959 PUSH1 0xB2 SHL PUSH1 0x60 DUP3 ADD MSTORE PUSH1 0x80 ADD SWAP1 JUMP JUMPDEST PUSH1 0x20 DUP1 DUP3 MSTORE PUSH1 0x25 SWAP1 DUP3 ADD MSTORE PUSH32 0x45524332303A207472616E736665722066726F6D20746865207A65726F206164 PUSH1 0x40 DUP3 ADD MSTORE PUSH5 0x6472657373 PUSH1 0xD8 SHL PUSH1 0x60 DUP3 ADD MSTORE PUSH1 0x80 ADD SWAP1 JUMP JUMPDEST PUSH1 0x20 DUP1 DUP3 MSTORE PUSH1 0x24 SWAP1 DUP3 ADD MSTORE PUSH32 0x45524332303A20617070726F76652066726F6D20746865207A65726F20616464 PUSH1 0x40 DUP3 ADD MSTORE PUSH4 0x72657373 PUSH1 0xE0 SHL PUSH1 0x60 DUP3 ADD MSTORE PUSH1 0x80 ADD SWAP1 JUMP JUMPDEST PUSH1 0x20 DUP1 DUP3 MSTORE PUSH1 0x2E SWAP1 DUP3 ADD MSTORE PUSH32 0x46696174546F6B656E3A206D696E7420616D6F756E742065786365656473206D PUSH1 0x40 DUP3 ADD MSTORE PUSH14 0x696E746572416C6C6F77616E6365 PUSH1 0x90 SHL PUSH1 0x60 DUP3 ADD MSTORE PUSH1 0x80 ADD SWAP1 JUMP JUMPDEST PUSH1 0x20 DUP1 DUP3 MSTORE PUSH1 0x1D SWAP1 DUP3 ADD MSTORE PUSH32 0x416464726573733A2063616C6C20746F206E6F6E2D636F6E7472616374000000 PUSH1 0x40 DUP3 ADD MSTORE PUSH1 0x60 ADD SWAP1 JUMP JUMPDEST PUSH1 0x20 DUP1 DUP3 MSTORE PUSH1 0x2A SWAP1 DUP3 ADD MSTORE PUSH32 0x5361666545524332303A204552433230206F7065726174696F6E20646964206E PUSH1 0x40 DUP3 ADD MSTORE PUSH10 0x1BDD081CDD58D8D95959 PUSH1 0xB2 SHL PUSH1 0x60 DUP3 ADD MSTORE PUSH1 0x80 ADD SWAP1 JUMP JUMPDEST PUSH1 0x20 DUP1 DUP3 MSTORE PUSH1 0x28 SWAP1 DUP3 ADD MSTORE PUSH32 0x46696174546F6B656E3A206E6577206F776E657220697320746865207A65726F PUSH1 0x40 DUP3 ADD MSTORE PUSH8 0x2061646472657373 PUSH1 0xC0 SHL PUSH1 0x60 DUP3 ADD MSTORE PUSH1 0x80 ADD SWAP1 JUMP JUMPDEST PUSH1 0x20 DUP1 DUP3 MSTORE PUSH1 0x32 SWAP1 DUP3 ADD MSTORE PUSH32 0x426C61636B6C69737461626C653A206E657720626C61636B6C69737465722069 PUSH1 0x40 DUP3 ADD MSTORE PUSH18 0x7320746865207A65726F2061646472657373 PUSH1 0x70 SHL PUSH1 0x60 DUP3 ADD MSTORE PUSH1 0x80 ADD SWAP1 JUMP JUMPDEST PUSH1 0x20 DUP1 DUP3 MSTORE PUSH1 0x25 SWAP1 DUP3 ADD MSTORE PUSH32 0x426C61636B6C69737461626C653A206163636F756E7420697320626C61636B6C PUSH1 0x40 DUP3 ADD MSTORE PUSH5 0x1A5CDD1959 PUSH1 0xDA SHL PUSH1 0x60 DUP3 ADD MSTORE PUSH1 0x80 ADD SWAP1 JUMP JUMPDEST SWAP1 DUP2 MSTORE PUSH1 0x20 ADD SWAP1 JUMP JUMPDEST PUSH1 0xFF SWAP2 SWAP1 SWAP2 AND DUP2 MSTORE PUSH1 0x20 ADD SWAP1 JUMP JUMPDEST PUSH1 0x0 DUP3 NOT DUP3 GT ISZERO PUSH2 0x2470 JUMPI PUSH2 0x2470 PUSH2 0x24F7 JUMP JUMPDEST POP ADD SWAP1 JUMP JUMPDEST PUSH1 0x0 DUP3 DUP3 LT ISZERO PUSH2 0x2487 JUMPI PUSH2 0x2487 PUSH2 0x24F7 JUMP JUMPDEST POP SUB SWAP1 JUMP JUMPDEST PUSH1 0x0 JUMPDEST DUP4 DUP2 LT ISZERO PUSH2 0x24A7 JUMPI DUP2 DUP2 ADD MLOAD DUP4 DUP3 ADD MSTORE PUSH1 0x20 ADD PUSH2 0x248F JUMP JUMPDEST DUP4 DUP2 GT ISZERO PUSH2 0x24B6 JUMPI PUSH1 0x0 DUP5 DUP5 ADD MSTORE JUMPDEST POP POP POP POP JUMP JUMPDEST PUSH1 0x2 DUP2 DIV PUSH1 0x1 DUP3 AND DUP1 PUSH2 0x24D0 JUMPI PUSH1 0x7F DUP3 AND SWAP2 POP JUMPDEST PUSH1 0x20 DUP3 LT DUP2 EQ ISZERO PUSH2 0x24F1 JUMPI PUSH4 0x4E487B71 PUSH1 0xE0 SHL PUSH1 0x0 MSTORE PUSH1 0x22 PUSH1 0x4 MSTORE PUSH1 0x24 PUSH1 0x0 REVERT JUMPDEST POP SWAP2 SWAP1 POP JUMP JUMPDEST PUSH4 0x4E487B71 PUSH1 0xE0 SHL PUSH1 0x0 MSTORE PUSH1 0x11 PUSH1 0x4 MSTORE PUSH1 0x24 PUSH1 0x0 REVERT JUMPDEST PUSH4 0x4E487B71 PUSH1 0xE0 SHL PUSH1 0x0 MSTORE PUSH1 0x41 PUSH1 0x4 MSTORE PUSH1 0x24 PUSH1 0x0 REVERT JUMPDEST PUSH1 0x1 PUSH1 0x1 PUSH1 0xA0 SHL SUB DUP2 AND DUP2 EQ PUSH2 0x1411 JUMPI PUSH1 0x0 DUP1 REVERT INVALID 0xDD CALLCODE MSTORE 0xAD SHL 0xE2 0xC8 SWAP12 PUSH10 0xC2B068FC378DAA952BA7 CALL PUSH4 0xC4A11628 CREATE2 GAS 0x4D CREATE2 0x23 0xB3 0xEF LOG2 PUSH5 0x6970667358 0x22 SLT KECCAK256 PUSH21 0x7103CD9F607FAA1C5836741346E73243AF51CE4BD2 0x5F PUSH10 0x8D70D81276401E766473 PUSH16 0x6C634300080100330000000000000000 "
				},
				"gasEstimates": {
					"creation": {
						"codeDepositCost": "1922800",
						"executionCost": "50331",
						"totalCost": "1973131"
					},
					"external": {
						"allowance(address,address)": "infinite",
						"approve(address,uint256)": "25306",
						"balanceOf(address)": "1375",
						"blacklist(address)": "23299",
						"blacklister()": "1159",
						"burn(uint256)": "infinite",
						"configureMinter(address,uint256)": "44644",
						"currency()": "infinite",
						"decimals()": "1158",
						"initialize(string,string,string,uint8,address,address,address,address)": "infinite",
						"isBlacklisted(address)": "1408",
						"isMinter(address)": "1387",
						"masterMinter()": "1138",
						"mint(address,uint256)": "infinite",
						"mintByMaster(address,uint256)": "infinite",
						"minterAllowance(address)": "1332",
						"name()": "infinite",
						"owner()": "1160",
						"paused()": "1146",
						"pauser()": "1115",
						"removeMinter(address)": "28447",
						"renounceOwnership()": "23550",
						"rescueERC20(address,address,uint256)": "infinite",
						"rescuer()": "1160",
						"symbol()": "infinite",
						"totalSupply()": "1119",
						"transfer(address,uint256)": "infinite",
						"transferFrom(address,address,uint256)": "infinite",
						"transferOwnership(address)": "infinite",
						"unBlacklist(address)": "23296",
						"updateBlacklister(address)": "23332",
						"updateMasterMinter(address)": "23376",
						"updateRescuer(address)": "23337"
					},
					"internal": {
						"_approve(address,address,uint256)": "infinite",
						"_transfer(address,address,uint256)": "infinite"
					}
				},
				"methodIdentifiers": {
					"allowance(address,address)": "dd62ed3e",
					"approve(address,uint256)": "095ea7b3",
					"balanceOf(address)": "70a08231",
					"blacklist(address)": "f9f92be4",
					"blacklister()": "bd102430",
					"burn(uint256)": "42966c68",
					"configureMinter(address,uint256)": "4e44d956",
					"currency()": "e5a6b10f",
					"decimals()": "313ce567",
					"initialize(string,string,string,uint8,address,address,address,address)": "3357162b",
					"isBlacklisted(address)": "fe575a87",
					"isMinter(address)": "aa271e1a",
					"masterMinter()": "35d99f35",
					"mint(address,uint256)": "40c10f19",
					"mintByMaster(address,uint256)": "c39215da",
					"minterAllowance(address)": "8a6db9c3",
					"name()": "06fdde03",
					"owner()": "8da5cb5b",
					"paused()": "5c975abb",
					"pauser()": "9fd0506d",
					"removeMinter(address)": "3092afd5",
					"renounceOwnership()": "715018a6",
					"rescueERC20(address,address,uint256)": "b2118a8d",
					"rescuer()": "38a63183",
					"symbol()": "95d89b41",
					"totalSupply()": "18160ddd",
					"transfer(address,uint256)": "a9059cbb",
					"transferFrom(address,address,uint256)": "23b872dd",
					"transferOwnership(address)": "f2fde38b",
					"unBlacklist(address)": "1a895266",
					"updateBlacklister(address)": "ad38bf22",
					"updateMasterMinter(address)": "aa20e1e4",
					"updateRescuer(address)": "2ab60045"
				}
			},
			"storageLayout": {
				"storage": [
					{
						"astId": 557,
						"contract": "USDm.sol:USDm",
						"label": "_owner",
						"offset": 0,
						"slot": "0",
						"type": "t_address"
					},
					{
						"astId": 662,
						"contract": "USDm.sol:USDm",
						"label": "pauser",
						"offset": 0,
						"slot": "1",
						"type": "t_address"
					},
					{
						"astId": 674,
						"contract": "USDm.sol:USDm",
						"label": "_paused",
						"offset": 20,
						"slot": "1",
						"type": "t_bool"
					},
					{
						"astId": 327,
						"contract": "USDm.sol:USDm",
						"label": "blacklister",
						"offset": 0,
						"slot": "2",
						"type": "t_address"
					},
					{
						"astId": 331,
						"contract": "USDm.sol:USDm",
						"label": "blacklisted",
						"offset": 0,
						"slot": "3",
						"type": "t_mapping(t_address,t_bool)"
					},
					{
						"astId": 785,
						"contract": "USDm.sol:USDm",
						"label": "_rescuer",
						"offset": 0,
						"slot": "4",
						"type": "t_address"
					},
					{
						"astId": 1104,
						"contract": "USDm.sol:USDm",
						"label": "name",
						"offset": 0,
						"slot": "5",
						"type": "t_string_storage"
					},
					{
						"astId": 1106,
						"contract": "USDm.sol:USDm",
						"label": "symbol",
						"offset": 0,
						"slot": "6",
						"type": "t_string_storage"
					},
					{
						"astId": 1108,
						"contract": "USDm.sol:USDm",
						"label": "decimals",
						"offset": 0,
						"slot": "7",
						"type": "t_uint8"
					},
					{
						"astId": 1110,
						"contract": "USDm.sol:USDm",
						"label": "currency",
						"offset": 0,
						"slot": "8",
						"type": "t_string_storage"
					},
					{
						"astId": 1112,
						"contract": "USDm.sol:USDm",
						"label": "masterMinter",
						"offset": 0,
						"slot": "9",
						"type": "t_address"
					},
					{
						"astId": 1114,
						"contract": "USDm.sol:USDm",
						"label": "initialized",
						"offset": 20,
						"slot": "9",
						"type": "t_bool"
					},
					{
						"astId": 1118,
						"contract": "USDm.sol:USDm",
						"label": "balances",
						"offset": 0,
						"slot": "10",
						"type": "t_mapping(t_address,t_uint256)"
					},
					{
						"astId": 1124,
						"contract": "USDm.sol:USDm",
						"label": "allowed",
						"offset": 0,
						"slot": "11",
						"type": "t_mapping(t_address,t_mapping(t_address,t_uint256))"
					},
					{
						"astId": 1127,
						"contract": "USDm.sol:USDm",
						"label": "totalSupply_",
						"offset": 0,
						"slot": "12",
						"type": "t_uint256"
					},
					{
						"astId": 1131,
						"contract": "USDm.sol:USDm",
						"label": "minters",
						"offset": 0,
						"slot": "13",
						"type": "t_mapping(t_address,t_bool)"
					},
					{
						"astId": 1135,
						"contract": "USDm.sol:USDm",
						"label": "minterAllowed",
						"offset": 0,
						"slot": "14",
						"type": "t_mapping(t_address,t_uint256)"
					}
				],
				"types": {
					"t_address": {
						"encoding": "inplace",
						"label": "address",
						"numberOfBytes": "20"
					},
					"t_bool": {
						"encoding": "inplace",
						"label": "bool",
						"numberOfBytes": "1"
					},
					"t_mapping(t_address,t_bool)": {
						"encoding": "mapping",
						"key": "t_address",
						"label": "mapping(address => bool)",
						"numberOfBytes": "32",
						"value": "t_bool"
					},
					"t_mapping(t_address,t_mapping(t_address,t_uint256))": {
						"encoding": "mapping",
						"key": "t_address",
						"label": "mapping(address => mapping(address => uint256))",
						"numberOfBytes": "32",
						"value": "t_mapping(t_address,t_uint256)"
					},
					"t_mapping(t_address,t_uint256)": {
						"encoding": "mapping",
						"key": "t_address",
						"label": "mapping(address => uint256)",
						"numberOfBytes": "32",
						"value": "t_uint256"
					},
					"t_string_storage": {
						"encoding": "bytes",
						"label": "string",
						"numberOfBytes": "32"
					},
					"t_uint256": {
						"encoding": "inplace",
						"label": "uint256",
						"numberOfBytes": "32"
					},
					"t_uint8": {
						"encoding": "inplace",
						"label": "uint8",
						"numberOfBytes": "1"
					}
				}
			},
			"userdoc": {
				"kind": "user",
				"methods": {
					"allowance(address,address)": {
						"notice": "Amount of remaining tokens spender is allowed to transfer on behalf of the token owner"
					},
					"approve(address,uint256)": {
						"notice": "Set spender's allowance over the caller's tokens to be a given value."
					},
					"rescueERC20(address,address,uint256)": {
						"notice": "Rescue ERC20 tokens locked up in this contract."
					},
					"rescuer()": {
						"notice": "Returns current rescuer"
					},
					"transfer(address,uint256)": {
						"notice": "Transfer tokens from the caller"
					},
					"transferFrom(address,address,uint256)": {
						"notice": "Transfer tokens by spending allowance"
					},
					"updateRescuer(address)": {
						"notice": "Assign the rescuer role to a given address."
					}
				},
				"version": 1
			}
		}
	}
}